:020000040000FA
:10000000884E0010E1010000E9010000EB01000052
:10001000ED010000EF010000F10100000000000010
:10002000000000000000000000000000F3010000DC
:10003000F501000000000000F7010000DF070000EC
:10004000FB010000390900005D0900006F09000094
:10005000810900009BFC0000FB010000FB01000087
:10006000B3FE0000FB010000FB010000FB010000EB
:10007000FB010000FB010000FB010000FB01000090
:10008000FB01000079010000FB010000FB01000002
:10009000FB010000FB010000FB010000FB01000070
:1000A000E1140100FB010000FB010000FB01000066
:1000B000FB010000FB010000FB010000FB01000050
:1000C000FB010000FB010000FB010000FB01000040
:1000D000FB010000FB010000A9050000FB0100007E
:1000E000FB010000DFF80CD012F0B2FB0048004723
:1000F00005060000884E001070B505460C46A4F1B8
:1001000020000B4A02EB00111022284600F0ABF849
:1001100070BDA1F1200202EB4202064B03EB82020A
:100120001368036053684360926882607047000000
:10013000D08C0100C09201000D4843F6103102E05E
:1001400000220270401C0A1EA1F1010399B2F7D1EE
:1001500008484FF45C5102E0FF220270401C0A1E66
:10016000A1F1010399B2F7D1014B83F80C24704738
:10017000DC040010E808001010B5012115480DF04E
:1001800005FF50B1144913480DF0F2FD0120134949
:10019000087001210F480DF001FF10BD10B50D488A
:1001A0000DF034FC0B480DF04AFC012109480DF01C
:1001B0004FFC0122002107480DF056FC11200121BF
:1001C00081404209920002F1E022C2F8001100BF12
:1001D00010BD000000400240E04600101602001072
:1001E0000648804706480047FEE7FEE7FEE7FEE7D1
:1001F000FEE7FEE7FEE7FEE7FEE7FEE715E70000A5
:10020000E50000002DE9F05F0546002092469B4680
:1002100088460646814640241BE02846414647461C
:10022000224612F030FA53465A46C01A914110D372
:1002300011461846224612F017FA2D1A67EB0108EC
:100240004F4622460120002112F00EFA17EB00095A
:100250004E41201EA4F10104DFDC484631462A4607
:100260004346BDE8F09F10B5431A934209D2831864
:10027000881803E010F8011D03F8011D521EF9D281
:1002800010BD40EA01039B0703D009E008C9121F13
:1002900008C0042AFAD203E011F8013B00F8013B40
:1002A000521EF9D210BDD2B201E000F8012B491E56
:1002B000FBD270470022F6E710B513460A46044603
:1002C0001946FFF7F0FF204610BD421E12F8013F0D
:1002D000002BFBD111F8013B02F8013B002BF9D1B7
:1002E0007047421C10F8011B0029FBD1801A70478F
:1002F00096230022114612F0F1B97047FFFFFFFF6D
:1003000040F20120974908609749C1F88401954956
:1003100008310860091D0860091D0860091D086092
:10032000091D0860091D0860091D0860091D086095
:10033000091D0860091D0860091D0860091D086085
:10034000091D0860091D0860091D0860091D086075
:10035000091D0860091D0860091D0860091D086065
:10036000091D0860091D0860091D0860091D086055
:10037000091D0860091D0860091D0860091D086045
:10038000091D0860091D0860091D0860091D086035
:10039000091D0860091D0860091D0860091D086025
:1003A000091D0860091D0860091D0860091D086015
:1003B000091D0860091D0860091D0860091D086005
:1003C000091D0860091D0860091D0860091D0860F5
:1003D000091D0860091D0860091D0860091D0860E5
:1003E000091D0860091D08605E49E43108605D4927
:1003F00040390860091D0860091D086059493039F5
:100400000860584920390860564910390860091DAC
:100410000860091D08605449C1F87C0170472DE946
:10042000F04100BF00BF5148006840F400604F49F0
:10043000C439C1F8C40041F61F704D49086001205D
:100440004C49086000208860FFF75AFF4A4800685E
:100450004A49B0FBF1F74548C438D0F8000100B173
:100460007F084FF47A70B0FBF7F404F11300B0FB8F
:10047000F4F0404908630F2048630020886301209E
:10048000C86304F11300B0FBF4F0801C0864012081
:10049000486404F13E00B0FBF4F0886404F13E00CF
:1004A000B0FBF4F0C8640F20086504F13E00B0FB17
:1004B000F4F0486501208865886240F203303049D5
:1004C00008604FF48D402B49C1F800012C49091FE9
:1004D00008606421002000F0B1F940F28310254942
:1004E0000862C821002000F0A9F940F20310214958
:1004F000086202204862002600E0761C802EFCD3B1
:1005000041F68465A5F1100085B22D1105FB07F0B9
:100510004FF47A71B0FBF1F085B216484562832042
:10052000144908621748D0F8008000200862144877
:10053000001F006840F40020C1F8000101210020E4
:1005400000F07CF90121002000F078F908480068EB
:1005500020F01F0848F011000449C439C1F8DC013B
:10056000BDE8F08180C1024000C00240C4C00F401D
:10057000DCC10F4000C009205402001040420F00AF
:1005800004C10920004006A010B5002807DACA06F9
:10059000140E9A4A00F00F031B1FD45403E0CA063E
:1005A000130E974A135410BD10B5012213210020D9
:1005B0000EF0D6F928B36FF07F4400E0641E002CE3
:1005C000FCD19048007830B100208E4908700F208F
:1005D0008D49086005E001208A49087002208A4997
:1005E00008604FF4002100200EF0E5F9262000F00D
:1005F0001F0201219140854A430942F8231000BFA0
:1006000000BF10BD8CB000200EF04FFB80460027CD
:100610004FF47A70B8FBF0F0451EB5F1807F00D33F
:1006200011E025F07F40401E4FF0E02148611F217E
:100630004FF0FF30FFF7A8FF00204FF0E021886166
:100640000720086100BF0122D10400200EF06AF9E2
:1006500001212620FFF798FF262000F01F0201212C
:1006600091404209920002F1E022C2F8001100BF5D
:100670000DF040FE0DF0BAFD0FF09CFA002061492C
:10068000087004200FF0BAFB0FF066FFFFF786FD3D
:100690000DF030FE0DF080FDFFF7C1FE002000F0F0
:1006A00051FA5B494869002100F085FA012000F009
:1006B00049FA00200DF0F7FD0F20534908608DE046
:1006C0000DF09EFE0446FF2C01D1002700E07F1CA8
:1006D000022F03D14FF0501000F072FB4A4800681F
:1006E000801E0E2878D2DFE800F0074A43510E2E14
:1006F000353C58746D5F66714FF0501000F060FB30
:1007000008F071FD69E010F0F6FD11F0E3F8C6B2F3
:1007100086B901AA0BA90AA811F035FBC6B24EB9D9
:1007200010F08EF8C6B21D213AA00CF0C6FE0120D2
:10073000404908704FF0501000F042FB0DF076FC7D
:1007400009F0FEFC49E04FF0501000F039FB0AF0D0
:100750004EFA42E04FF0501000F032FB0AF001FB7D
:100760003BE04FF0501000F02BFB0AF0BCFB34E0F4
:100770004FF0501000F024FB0AF025F82DE04FF068
:10078000501000F01DFB0AF0ECF926E04FF050107D
:1007900000F016FB0AF05DF81FE04FF0501000F07B
:1007A0000FFB0CF045FA18E04FF0501000F008FB7A
:1007B0000BF0B2F911E04FF0501000F001FB0AF01D
:1007C000C7FC0AE00BF06BFC07E005E00CF092FEC2
:1007D00003E00CF0F5FA00E000BF00BF70E7164838
:1007E0000068401C144908607047134A116800BF34
:1007F000114A1268521A8242FAD3704718ED00E08B
:1008000000E400E0340200104002001080E100E04B
:10081000300000104D61696E20500920205365633F
:100820006F2050094D506172740953506172740DFC
:100830000A0000001202001000000010F8B90222A5
:100840004FF040235A600022DA60B44A12684FF435
:100850007A73B2FBF3F2521E4A434FF040239A617F
:10086000FF221A6004225A6101225A6000BF4FF031
:100870004022526802F00102002AF8D15BE0012810
:100880001CD10222A64B5A600022DA60A34A1268E9
:100890004FF47A73B2FBF3F2521E4A43A04B9A61B3
:1008A000FF221A6004225A6101225A6000BF9C4A4A
:1008B000526802F00102002AF9D13CE002281CD162
:1008C0000222984B5A600022DA60944A12684FF470
:1008D0007A73B2FBF3F2521E4A43924B9A61FF22A3
:1008E0001A6004225A6101225A6000BF8D4A526880
:1008F00002F00102002AF9D11DE003281BD10222D7
:10090000894B5A600022DA60844A12684FF47A7385
:10091000B2FBF3F2521E4A43834B9A61FF221A60E4
:1009200004225A6101225A6000BF7F4A526802F0D5
:100930000102002AF9D1704710B501204FF0402183
:1009400008607A480068401C7849086008F056F949
:1009500077480068401C7649086010BD0120704946
:10096000086074480068401C7249086070470120A4
:100970006C49086070480068401C6F490860704707
:100980000120694908606D480068401C6B49086097
:10099000704720B901214FF04022516010E001283A
:1009A00003D101215E4A51600AE0022803D10121EE
:1009B0005C4A516004E0032802D101215A4A516087
:1009C000704720B900214FF04022516010E001280B
:1009D00003D10021524A51600AE0022803D10021CC
:1009E000504A516004E0032802D100214D4A516071
:1009F0007047014631B94FF04022506840F0020084
:100A0000506016E0012905D1454A506840F00200C7
:100A100050600EE0022905D1424A506840F00200C1
:100A2000506006E0032904D13F4A506840F00200BC
:100A30005060704770B505460C46F5B900203C493A
:100A400008603F48006840F002003D49C439C1F8E1
:100A5000C4004FF04020406840F002004FF04021B9
:100A600048604EF65F20C8600846846103204861F4
:100A7000012000F048F8012070BD012D14D10020A4
:100A80002C4908602E48006840F004002C49C43905
:100A9000C1F8C40022488461032021494861022032
:100AA00000F031F80120E7E7022D13D100202249A0
:100AB00008602348006840F480002149C439C1F827
:100AC000C4001848846103201649486100F01BF8EF
:100AD0000120D1E7032D14D10020184908601848DF
:100AE000006840F400001649C439C1F8C4000E483B
:100AF000846103200C494861042000F004F80120BF
:100B0000BAE70020B8E700F01F0201219140420936
:100B1000920002F1E022C2F8001170475802001062
:100B2000008000400000094000400940E001001042
:100B3000180000101C0000102000001024000010FD
:100B4000C4C00F4008B5B0B1F949896941F001014D
:100B5000F74A916142F21071009108E0F449896905
:100B600041F40061F24A91610099491E0091009997
:100B70000029F3D115E0EE49896921F40061EC4ABE
:100B8000916142F21071009102E00099491E0091BA
:100B900000990029F9D1E649896921F00101E44A67
:100BA000916108BDE34A002102E008C808C2491C5F
:100BB0008029FAD370472DE9704381460D46DFF84E
:100BC000788300BF2720DD4908614861DC4908605F
:100BD000DA49C1F87402DB490860091D0860091D83
:100BE0000860091D0860D5498861C861D549483940
:100BF0000860091D0860091D0860091D0860091DBD
:100C00000860091D0860CD4908624862CD49183165
:100C10000860091D0860CB4930390860091D08606B
:100C2000091D0860091D0860C64910390860C549DA
:100C3000091F0860C3490C390860091D0860BF49D5
:100C4000C1F80001C048006C40F00200BE490864D1
:100C50000846806D40F00A008865BC48D0F8C400A2
:100C600040F00100B949C1F8C400B948006820F05B
:100C70000100B74908600020AD49886108468069D5
:100C800020F00E0088610846806940F00A00886103
:100C90000846806940F0200088610846806920F09D
:100CA000800088610846806920F480708861084669
:100CB000806920F4007088610846806920F48060B3
:100CC00088610846806920F400608861A148006856
:100CD000A149B0FBF1F09D49C1F8B8019448806882
:100CE00040F08060924988600846806820F02000CB
:100CF00088600846806840F4006088600846806824
:100D000040F4805088600846806820F40050886075
:100D10000846806820F480408860084680688F49D3
:100D2000084083498860084680688D4908438049A7
:100D30008860002008600846006840F01C50086089
:100D40000846006840F4802008600846006840F4C7
:100D5000807008600846006840F074000860002059
:100D600048600846406840F00060486008464068B7
:100D700040F4002048600846406840F480604860C5
:100D80000846406840F20F110843694948604046F0
:100D90000861486115B12846FFF704FF664E00243C
:100DA00003E04FF47F0001C6641CB4F5FF3FF8D3A5
:100DB00042F2107400E0641E002CFCD1BDE8708388
:100DC0005D4A002101E001C2491CB1F5FF3FFAD3A1
:100DD00070472DE9F0410C46069FC3F5887CCCEBAB
:100DE0000C1CDFF8548108EBCC1CC2F5F0780CEB3E
:100DF000880100260EE0002501E080C16D1CA2EBF9
:100E0000000CAC45F9D8A2EB000CCCF5F07C01EB62
:100E10008C01761CA3EB040CB445ECD8BDE8F08142
:100E200070B5454BB0F5F07F02DAB1F5887F00DB95
:100E300070BDC0F5F0756D1EC1F58876761EC6EBE7
:100E4000061605EB461403EB84031A6000BFEFE7B8
:100E50002DE9F04F04460D4691469A46DDF824B040
:100E60004C4503DD0FFA89F7A146BCB2554503DDB9
:100E70000FFA8AF7AA46BDB2A9EB04000FFA80F870
:100E8000AAEB050006B2B8F1000F0BD100BF5A461D
:100E900029462046FFF7C4FF681C85B2AA45F6DA4A
:100EA000BDE8F08F56B900BF5A4629462046FFF7E5
:100EB000B7FF601C84B2A145F6DAF1E7B04521DD49
:100EC000C8EB460007B215E05A4629462046FFF710
:100ED000A7FF601C84B2002F08DD681C85B270007B
:100EE000022101FB1800384407B203E0022000FB96
:100EF000067007B24C45E7D15A4629462046FFF70F
:100F00008FFF3AE0C6EB480007B22FE05A46294669
:100F10002046FFF785FF681C85B2002F22DD601C8C
:100F200084B27000022101FB1800384407B21DE0B2
:100F30000080082000820820000001A000C00240BC
:100F400070C2024018C102400080092000C00F405A
:100F5000008C0820580200109C997400FFFF00FCD0
:100F60000000DF01022000FB067007B25545CDD11D
:100F70005A4629462046FFF753FF00BF90E72DE968
:100F8000FF5F06460F4690469946DDF838B0414669
:100F90006846FFF7B1F800241DE01DF804A0002505
:100FA00016E0C5F107004AFA00F000F0010038B180
:100FB0003A1991B2721990B24A46FFF731FF06E032
:100FC0003A1991B2721990B25A46FFF729FF6D1C77
:100FD000082DE6D3641C102CDFD3BDE8FF9F2DE95C
:100FE000FE4F06460F4690469946DDF830B0414622
:100FF0006846FFF78EF800241DE01DF804A00025C8
:1010000016E0C5F107004AFA00F000F0010038B11F
:101010003A1991B2721990B24A46FFF701FF06E001
:101020003A1991B2721990B25A46FFF7F9FE6D1C47
:10103000082DE6D3641C0C2CDFD3BDE8FE8F2DE910
:10104000F84305460E4614469846DDF8209000BF4A
:1010500014F8017B43463A4631462846CDF80090C5
:10106000FFF78DFFB5F5EC7F03DA05F1080085B2D7
:1010700008E0FF2E04DC002506F1100086B201E036
:101080000025002620780028E2D1BDE8F8832DE96C
:10109000FF4F074688469B463C464546BA4646466D
:1010A0004FF0000915E0A4F1140188B22946029A14
:1010B000FFF7B6FE601C84B2A6F1140081B2504660
:1010C000029AFFF7ADFE701C86B209F101001FFA0B
:1010D00080F9B9F1280FE6DB3C464546BA4646465C
:1010E0004FF000092BE0A5F1140291B2A4F1140213
:1010F00090B25A46FFF794FE05F1140291B2A4F1A2
:10110000140290B25A46FFF78BFE601C84B2A6F11F
:10111000140291B2AAF1140290B25A46FFF780FE6F
:10112000A6F1140291B20AF1140290B25A46FFF7E6
:1011300077FE701C86B209F101001FFA80F9B9F13F
:101140000A0FD0DB3C464546BA4646464FF00009FA
:101150002BE0A5F1140291B204F10A0290B25A46B2
:10116000FFF75EFE05F1140291B204F10A0290B29B
:101170005A46FFF755FE601C84B206F10A0291B28E
:10118000AAF1140290B25A46FFF74AFE06F10A028B
:1011900091B20AF1140290B25A46FFF741FE701C58
:1011A00086B209F101001FFA80F9B9F10A0FD0DB0C
:1011B000BDE8FF8F10B50246002112E001EB81105F
:1011C000F74B185C1378984209D1507801EB8113E2
:1011D000F34C23445B78984201D1084610BD481C6B
:1011E00081B27729EAD30020F8E710B50246002142
:1011F00014E001EB0110EB4B13F810001378984248
:101200000AD1507801EB0113E64C04EB43035B7801
:10121000984201D1084610BD481C81B2AD29E8D3DF
:101220000020F8E72DE9F04F04460F461546984692
:10123000A3464FF0000900262DE0099810F806900B
:101240004FF0000A21E009F0800030B1D64839465D
:1012500002682046FFF7E4FD05E0D34839464268BE
:101260002046FFF7DDFD4FEA49604FEA1069601C38
:1012700084B2A4EB0B00A84203D15C46781C87B271
:1012800006E00AF1010000F0FF0ABAF1080FDADB0C
:1012900000BF701C86B205FB08F0C11700EB51714E
:1012A000B6EBE10FC9DBBDE8F08F2DE9F04F054645
:1012B000894692469B46A8460026BBF1000F32D1D4
:1012C00000242DE00AEB0A10B64901EB4000801C17
:1012D000065D00271FE006F0800030B1B2484946A5
:1012E00002682846FFF79CFD05E0AF484946426882
:1012F0002846FFF795FD7006060E681C85B2A5EB23
:101300000800102805D1454609F101001FFA80F9AF
:1013100003E0781CC7B2082FDDDB00BF601CC4B23D
:10132000202CCFDB31E000242DE00AEB0A109D4990
:1013300001EB4000801C065D00271FE006F08000E6
:1013400030B19948494642682846FFF769FD05E0F3
:101350009548494602682846FFF762FD7006060E6A
:10136000681C85B2A5EB0800102805D1454609F197
:1013700001001FFA80F903E0781CC7B2082FDDDBFB
:1013800000BF601CC4B2202CCFDBBDE8F08F2DE97C
:10139000F04F0546894692469B46A8460026BBF17B
:1013A000000F31D100242CE00AEB8A107C4908445C
:1013B000801C065D00271FE006F0800030B17A48EF
:1013C000494602682846FFF72BFD05E07648494666
:1013D00042682846FFF724FD7006060E681C85B299
:1013E000A5EB0800182805D1454609F101001FFAB0
:1013F00080F903E0781CC7B2082FDDDB00BF601C5A
:10140000C4B23F2CD0DB30E000242CE00AEB8A1081
:1014100063490844801C065D00271FE006F0800039
:1014200030B16148494642682846FFF7F9FC05E0BB
:101430005D48494602682846FFF7F2FC7006060E32
:10144000681C85B2A5EB0800182805D1454609F1AE
:1014500001001FFA80F903E0781CC7B2082FDDDB1A
:1014600000BF601CC4B23F2CD0DBBDE8F08FF0B5EC
:1014700004460D4616461F463B4622463146284640
:10148000FFF785FF1820F0BDF0B504460D4616465F
:101490001F463B46224631462846FFF706FF1220EC
:1014A000F0BD2DE9F84306460D4614461F464FF0A1
:1014B0000008C14652E0207800B950E006EB090070
:1014C00086B2207880281ADD06F11800B0F5F07F8A
:1014D00007DD002605F1160085B2B5F5887F00DD31
:1014E00000252046FFF766FE1FFA80F83B462A4695
:1014F00031464046FFF7BBFF8146A41C2DE0207813
:101500000D280AD105F1160085B2B5F5887F00DDFA
:101510000025641C4FF0000920E020780A2804D13F
:101520000026641C4FF0000918E006F10C00B0F52D
:10153000F07F07DD002605F10C0085B2B5F5887F48
:1015400000DD002518484068009017482278294699
:1015500003683046FFF713FD641C00BFABE700BF14
:10156000BDE8F8832DE9F8470546884614464FF054
:10157000000A002634E0207800B932E020783028D4
:1015800007DB2078392804DC207830381FFA80F90E
:101590000EE020782E2809D14FF00A0908E000005B
:1015A000D43D01000B5C0100280000104FF00B0936
:1015B0004FEA4917F81707EB5070C01000EBC00155
:1015C000C1EB80109D490844A919009088B23723C7
:1015D00020224146FFF726FE641C06F1200086B259
:1015E000C9E700BFBDE8F8872DE9F84306460D4678
:1015F00014461F464FF00008C14654E0207800B959
:1016000052E006EB090086B2207880281ADD06F148
:101610001000B0F5F07F07DD002605F1100085B25F
:10162000B5F5887F00DD00252046FFF7DEFD1FFAB7
:1016300080F83B462A4631464046FFF725FF814663
:10164000A41C2FE020780D280AD105F1100085B2E6
:10165000B5F5887F00DD0025641C4FF0000922E00D
:1016600020780A2804D10026641C4FF000091AE0F3
:1016700006F10800B0F5F07F07DD002605F108004F
:1016800085B2B5F5887F00DD00256D484068009083
:101690006B482278294603683046FFF770FC641CCB
:1016A0004FF00A0900BFA9E700BFBDE8F8832DE9A4
:1016B000F84306460D4614461F464FF00008C14643
:1016C00054E0207800B952E006EB090086B2207899
:1016D00080281ADD06F11000B0F5F07F07DD002646
:1016E00005F1100085B2B5F5887F00DD00252046A4
:1016F000FFF77BFD1FFA80F83B462A4631464046FD
:10170000FFF7C2FE8146A41C2FE020780D280AD1E5
:1017100005F1100085B2B5F5887F00DD0025641C59
:101720004FF0000922E020780A2804D10026641C2A
:101730004FF000091AE006F10800B0F5F07F07DD70
:10174000002605F1080085B2B5F5887F00DD00258B
:101750003B48406800903A48227829460368304662
:10176000FFF73DFC641C4FF0080900BFA9E700BF6C
:10177000BDE8F883F0B504461D46062A00DD0A22BE
:1017800002B90122052900DD0521914200DD114643
:10179000002004E020262B4F3E54461CF0B20C28BB
:1017A000F8D310460FE00A26B4FBF6F706FB1746FF
:1017B0003036471EDFF88CC00CF807600A26B4FBF1
:1017C000F6F4461EF0B20028EDDC89B11346084657
:1017D00005E05E1E1B4FBE5DFE545E1EF3B2061E8C
:1017E000A0F10107F8B2F4D12E26164FFE5402E004
:1017F0002026144FBE54A5B900200EE0114E365CD1
:10180000302E07D10F4F461CBE5D2E2E02D0202653
:101810003E5400E004E0461CF0B2561E8642EDDC69
:1018200000BF561CF2B2104604E00026054F3E549D
:10183000461CF0B20C28F8D3F0BD000064990100FA
:1018400028000010D446001038B5002474E0FA488F
:10185000A10004EB440303EB041301EB83010090AC
:1018600088B204EB84014C2303EB01118AB240F2ED
:101870000F13E421FFF7ADFAF04804EB84014C2389
:1018800003EB01118AB204EB84010901491C0090A9
:1018900088B2E3231946FFF7DBFAE84804EB84013A
:1018A0004C2303EB01118AB204EB840103EB011119
:1018B000009088B240F20F13E321FFF7C9FA00202D
:1018C00004EB84014C2303EB0111491C8AB204EBA5
:1018D000840103EB0111491C009088B240F20F1300
:1018E000E321FFF7B5FA002004EB84014C2303EB5E
:1018F0000111891C8AB204EB840103EB0111891CDC
:10190000009088B240F20F13E321FFF7A1FA002004
:1019100004EB84014C2303EB0111C91C8AB204EBD4
:10192000840103EB0111C91C009088B240F20F132F
:10193000E321FFF78DFA641C062C88D338BD10B55F
:10194000FFF782FFBC48BE4948606FF07F400860E7
:101950000023BCA2F1215420FFF746FE0023BBA2C6
:10196000F121A420FFF740FE10BD10B5FFF76CFF7A
:10197000B148B34948606FF07F4008600023B4A2CB
:10198000F1215420FFF730FE10BD10B5FFF75CFFCA
:10199000A948AB4948606FF07F4008600023ADA2C2
:1019A000F1215420FFF720FE10BD10B5FFF74CFFCA
:1019B000A148A34948606FF07F4008600023A6A2B9
:1019C000F1215420FFF710FE10BD70B50546FFF75A
:1019D0003BFF99489A4948606FF07F4008604DBBD3
:1019E000002424E0042C10D104EB44019B4B03EBB6
:1019F000410204EB8401542303EB01110E3188B240
:101A00000023F121FFF7F0FD0FE004EB4401934BBD
:101A100003EB410204EB8401542303EB01111D315C
:101A200088B20023F121FFF7DFFD601CC4B2052C52
:101A3000D8DB51E000244DE0042C11D1611D01EBF5
:101A40004101864B03EB410204EB8401542303EB79
:101A500001110E3188B20023F121FFF7C5FD37E0F7
:101A60008CB9611D01EB41017C4B03EB410204EB9E
:101A70008401542303EB0111183188B20023F121B2
:101A8000FFF7B2FD24E0032C11D1611D01EB4101F0
:101A9000724B03EB410204EB8401542303EB01116D
:101AA0000A3188B20023F121FFF79EFD10E0611D8D
:101AB00001EB4101694B03EB410204EB8401542328
:101AC00003EB01111D3188B20023F121FFF78CFDDA
:101AD000601CC4B2052CAFDB70BD10B5FFF7B4FEBF
:101AE0005548574948606FF07F40086000235CA26A
:101AF000F1215420FFF778FD00235AA2F121A42000
:101B0000FFF772FD10BD10B5FFF79EFE4A484C4925
:101B100048606FF07F400860002353A2F1215420F9
:101B2000FFF762FD10BD10B5FFF78EFE6FF07F402E
:101B300043490860404848604C48D0F84C030128AD
:101B40000CD100234AA2F2215320FFF74DFD0023C0
:101B500049A2F221A320FFF747FD0FE04348D0F848
:101B60004C0358B9002346A2F2215320FFF73CFD55
:101B7000002346A2F221A320FFF736FD10BD10B5C9
:101B80000446FFF761FE002C35D16FF07F402C49F1
:101B90000860294848603548D0F84C03012812D124
:101BA000002333A2F2215320FFF71EFD00233AA2A7
:101BB000F221A320FFF718FD002339A2F221FC2017
:101BC000FFF712FDD9E02948D0F84C030028F9D1DD
:101BD000002335A2F2215320FFF706FD002335A292
:101BE000F221A320FFF700FD002335A2F221FC2003
:101BF000FFF7FAFCC1E0012C76D16FF07F4010496D
:101C000008600D4848601948D0F84C0301286DD190
:101C100000232DA2F2215320FFF7E6FC00232DA282
:101C2000F221A320FFF7E0FC00232DA2F22140F2D5
:101C30009310FFF7D9FC70E0380031006843690069
:101C4000280000106D736563000000007365630079
:101C500056000000410000006D730000E38A01009F
:101C6000487A00004B487A002A310000DC0400105A
:101C70004D45415353455400535953534554000067
:101C8000B2E2C1BFC9E8D6C300000000CFB5CDB3F2
:101C9000C9E8D6C3000000004E6F2E4449535000DF
:101CA000434F554E54200000B2E2C1BFCFD4CABE4C
:101CB00000000000B5B5BAC5CFD4CABE0000000010
:101CC000B5B5BCC6CAFD000046494C452053455435
:101CD00000000000536176654461746100000000FB
:101CE0004D4F5245000000001FE0FFE7FE48D0F8CE
:101CF0004C0390B90023FDA2F2215320FFF774FC9E
:101D00000023FDA2F221A320FFF76EFC0023FDA219
:101D1000F22140F29310FFF767FC0023FBA2F221AF
:101D200040F2BD10FFF760FC27E06FF07F40F849FC
:101D30000860F8484860EC48D0F84C0301280CD102
:101D40000023F5A2F2215320FFF74EFC0023F4A25A
:101D5000F221A320FFF748FC0FE0E348D0F84C0342
:101D600058B90023F0A2F2215320FFF73DFC0023D5
:101D7000EFA2F221A320FFF737FC10BD10B5FFF74B
:101D800063FD6FF07F40E2490860E2484860D64852
:101D9000D0F84C0301280CD10023E7A2E7215420FE
:101DA000FFF722FC0023E6A2FB215420FFF71CFCD6
:101DB0000FE0CD48D0F84C0358B90023E2A2E72148
:101DC0005420FFF711FC0023E1A2FB215420FFF770
:101DD0000BFCC548D0F84C0301280ED10023DEA22D
:101DE000F1214FF4A270FFF7FFFB0023DCA2F121E9
:101DF0004FF4CA70FFF7F8FB11E0BB48D0F84C0372
:101E000068B90023D8A2F1214FF4A270FFF7ECFBD0
:101E10000023D7A2F1214FF4CA70FFF7E5FB10BDF4
:101E200010B50446FFF710FD0CB1012C69D16FF01D
:101E30007F40B7490860B7484860AB48D0F84C03CA
:101E400001282CD10023CCA2F1215420FFF7CCFB98
:101E50000023CBA2E721A420FFF7C6FB0023CAA2E0
:101E6000FB21A420FFF7C0FB0023C9A2E721F42037
:101E7000FFF7BAFB0023C4A2FB21F420FFF7B4FB59
:101E80000023B5A2F1214FF4A270FFF7ADFB0023B0
:101E9000B3A2F1214FF4CA70FFF7A6FB81E092488C
:101EA000D0F84C0300287CD10023BBA2F1215420A0
:101EB000FFF79AFB0023BAA2E721A420FFF794FBC7
:101EC0000023B9A2FB21A420FFF78EFB0023B8A2B8
:101ED000E721F420FFF788FB0023B3A2FB21F420C5
:101EE000FFF782FB0023A0A2F1214FF4A270FFF7BD
:101EF0007BFB00239EA2F1214FF4CA70FFF774FB15
:101F00004FE06FF07F408249086082484860764821
:101F1000D0F84C03012820D1002397A2F1215420AE
:101F2000FFF762FB002398A2E721A420FFF75CFBE8
:101F30000023A1A2FB21A420FFF756FB002386A2C9
:101F4000F1214FF4A270FFF74FFB002384A2F1218F
:101F50004FF4CA70FFF748FB23E06348D0F84C0306
:101F6000F8B900238CA2F1215420FFF73DFB002398
:101F70008DA2E721A420FFF737FB002390A2FB21CD
:101F8000A420FFF731FB002377A2F1214FF4A270C8
:101F9000FFF72AFB002376A2F1214FF4CA70FFF766
:101FA00023FB10BD10B50446FFF74EFC002C2CD1CE
:101FB0006FF07F4056490860564848604A48D0F85C
:101FC0004C0301280DD100237FA2F2215320FFF7FB
:101FD0000BFB0023AFF26032F221A320FFF704FBDA
:101FE0005FE14148D0F84C030028F9D10023AFF25B
:101FF0004832F2215320FFF7F7FA0023AFF2743290
:10200000F221A320FFF7F0FA4BE1012C6AD16FF027
:102010007F403F4908603F4848603348D0F84C0350
:10202000012833D100236AA2E7215420FFF7DCFA0C
:10203000002369A2FB215420FFF7D6FA002368A2EF
:10204000E721A420FFF7D0FA002367A2FB21A420F8
:10205000FFF7CAFA002366A2F121F420FFF7C4FAC1
:10206000002361A2FB21F420FFF7BEFA0023AFF2A8
:102070009032E7214FF4CA70FFF7B6FA00235EA250
:10208000FB214FF4CA70FFF7AFFA0AE11648D0F807
:102090004C030028A4D1002359A2E7215420FFF7C4
:1020A000A3FA002312A2FB215420FFF79DFA00237C
:1020B00055A2E721A420FFF797FA0023AFF23C4294
:1020C000FB21A420FFF790FA002351A2F121F42074
:1020D000FFF78AFA0023AFF25442FB21F420FFF706
:1020E00083FA99E0A9E00000DC040010CEC4BCFE35
:1020F000B9DCC0ED00000000B1A3B4E6CAFDBEDD4E
:1021000000000000B8FCB6E000000000322F3200F2
:10211000280000103800310043414E43454C200058
:10212000434F4E4649524D002020C8A1CFFB20000E
:102130002020C8B7C8CF2000434C45410000000014
:102140004C49535400000000C7E5B3FD00000000F7
:10215000B1EDB8F1000000004C6173742050000034
:102160004E65787420500000C9CFD2BBD2B30000B6
:10217000CFC2D2BBD2B3000044656C526F7700006F
:102180004C494E450000000041544F5500000000EE
:102190004C4F472000000000C9BEB3FDD0D0000066
:1021A000CFDFD0D400000000D7D4B6AF00000000CD
:1021B000B6D4CAFD00000000434F50590000000093
:1021C000B8B4D6C6000000004D4541444953500004
:1021D00046494C45000000004D414E4500000000BE
:1021E00053595320000000005345542000000000C4
:1021F000544F4F4C0000000020322F3200000000EE
:10220000CEC4BCFE00000000CFB5CDB3000000007E
:10221000B9A4BEDF000000000023AFF21812E721CE
:102220004FF4CA70FFF7E0F90023AFF23402FB214C
:102230004FF4CA70FFF7D8F933E06FF07F40FA49E6
:102240000860FA484860FA48D0F84C03012812D1D7
:102250000023F8A2F2215320FFF7C6F90023F7A2CA
:10226000F221A320FFF7C0F90023F6A2F221F32008
:10227000FFF7BAF915E0EE48D0F84C0388B900230F
:10228000F2A2F2215320FFF7AFF90023F2A2F221CC
:10229000A320FFF7A9F90023F2A2F221F320FFF710
:1022A000A3F910BD10B56FF07F40DF490860DF482B
:1022B0004860DF48D0F84C0301280DD10023AFF26D
:1022C000F802F2215320FFF78FF90023E8A2F22150
:1022D000A320FFF789F911E0D548D0F84C0368B97D
:1022E0000023AFF23C62F2215320FFF77DF9002377
:1022F000AFF27462F221A320FFF776F910BD10B59A
:102300006FF07F40C8490860C8484860C848D0F8A6
:102310004C0301281AD10023D7A2F2215320FFF742
:1023200063F90023D7A2F221A320FFF75DF9002370
:10233000D7A2F2214FF48370FFF756F90023D6A2FB
:10234000F22140F29310FFF74FF91DE0B848D0F8A2
:102350004C03C8B90023D3A2F2215320FFF744F95C
:102360000023D3A2F221A320FFF73EF90023D3A23A
:10237000F2214FF48370FFF737F90023D1A2F22145
:1023800040F29310FFF730F910BD08B5D04816237E
:10239000D222002100900846FEF71BFD08BD08B5BB
:1023A000CC48CD2340F2DF125C2100900020FEF7E4
:1023B00010FD08BD08B5C6481623A02200210090D4
:1023C0000846FEF706FDFFF73FFAFFF7E8FF08BDF6
:1023D00010B5FFF7EFFF6FF07F4093490860BC48EE
:1023E00048609348D0F84C03012806D10023BA4A2C
:1023F00004211846FFF7F8F809E08D48D0F84C039F
:1024000028B90023B54A04211846FFF7EDF86FF00C
:102410007F40854908604FF05010486000245BE021
:10242000032C2BD28248D0F84C03012811D104EBA5
:102430008400AB4B03EB400204EB440000EBC40010
:102440001A2303EB400081B200231846FFF7CCF8B3
:1024500041E07748D0F84C0338BBC4EB0410A14BE3
:10246000C21804EB440000EBC4001A2303EB400045
:1024700081B200231846FFF7B7F82CE06C48D0F87B
:102480004C03012812D104EB8400954B03EB40026E
:10249000E01E00EB400303EBC0001A2303EB4000F7
:1024A00081B20023FA20FFF79FF814E06048D0F8CB
:1024B0004C0380B9C4EB04108A4BC218E01E00EB39
:1024C000400303EBC0001A2303EB400081B200235A
:1024D000FA20FFF789F8641C062CA1D3FFF723FB31
:1024E00010BD08B57B48BE2340F2DF12A02100904A
:1024F0000020FEF76EFC08BD08B575481623A02223
:10250000002100900846FEF764FCFFF79DF9FFF7F5
:10251000E8FF08BD38B504464FF050104249486006
:10252000714800EB84020123C8211420FFF75CF8F6
:102530006E4800EB84020123C8214FF48C70FFF732
:1025400053F86448384948606948372328227A217B
:1025500000905020FEF766FE6648372328227A2135
:1025600000907820FEF75EFE6348372328227A2108
:1025700000908C20FEF756FE38BD10B5FFF7BCFF6B
:102580006FF07F4028490860514848602848D0F8DB
:102590004C03012807D100234F4A16320421184664
:1025A000FFF722F80AE02248D0F84C0330B90023A4
:1025B0004A4A163204211846FFF716F86FF07F409A
:1025C000194908604FF0501048600024C5E0032C02
:1025D00029D21748D0F84C0301280FD1474800EB07
:1025E000C40204EB440000EBC4001A2303EB4000D8
:1025F00081B200231846FEF7F7FFADE00C48D0F893
:102600004C0378B93E4800EBC40204EB440000EBF5
:10261000C4001A2303EB400081B200231846FEF7E2
:10262000E3FF99E098E06DE02800001038003100E9
:10263000DC040010564F4C43616C00004374726C14
:1026400043616C0043757243616C0000B5E7D1B91A
:10265000D0A3D5FD00000000BFD8D6C6D0A3D5FDBD
:1026600000000000B5E7C1F7D0A3D5FD00000000D1
:102670004D656173536574004320436F72726574D6
:10268000000000005220436F727265740000000069
:102690004578697400000000436C6520436F7272D6
:1026A00000000000B5E7C8DDD0A3D5FD00000000A4
:1026B000B5E7D7E8D0A3D5FD00000000CDCBB3F639
:1026C00000000000C7E5B3FDD0A3D5FD0000000069
:1026D000F352030034346500D1870100DF86010026
:1026E000F978010049790100417D01009D7D0100DB
:1026F00089AB0100CCBD0100DFBE010023850100D4
:10270000F3840100FC48D0F84C03012810D1FB48A9
:1027100000EBC402E01E00EB400303EBC0001A23F1
:1027200003EB400081B20023FA20FEF75DFF13E0C7
:10273000F148D0F84C0378B9F14800EBC402E01E30
:1027400000EB400303EBC0001A2303EB400081B20F
:102750000023FA20FEF748FF641C062CFFF437AF75
:10276000E54991F88803FFF7D5FE0020FFF707FA47
:1027700010BD08B5E348A02340F2DF1256210090B7
:102780000020FEF726FBDF48E32340F2DF12C121E1
:1027900000900020FEF71DFB08BD08B5DA4816239F
:1027A000B222002100900846FEF713FBFFF74CF819
:1027B000FFF7DFFF08BD2DE9F04104460D46164640
:1027C000D24B1B5D03EB4303D14FDA19B1B2A8B270
:1027D0000023FEF709FFBDE8F08110B5FFF7DDFF2C
:1027E0006FF07F40CB490860C7484860C248D0F8C6
:1027F0004C03012806D10023C74A04211846FEF7DE
:10280000F3FE09E0BC48D0F84C0328B90023C34AC2
:1028100004211846FEF7E8FE6FF07F40BD490860CE
:102820004FF050104860002479E0012C27D1B248C5
:10283000D0F84C0301280ED1C4EBC401B84BCA1820
:1028400004EB84011E2303EB411188B200231821FD
:10285000FEF7CAFE62E0A848D0F84C0300285DD11C
:10286000C4EBC401AF4BCA1804EB84011E2303EB75
:10287000411188B200231821FEF7B6FE4EE0022C6B
:1028800026D19D48D0F84C0301280ED1C4EBC401D9
:10289000A34BCA1804EB8401282303EB411188B22F
:1028A00000231821FEF7A0FE38E09348D0F84C032F
:1028B00008BBC4EBC4019B4BCA1804EB840128235A
:1028C00003EB411188B200231821FEF78DFE25E0AD
:1028D0008948D0F84C0301280ED1C4EBC401904BB9
:1028E000CA1804EB84014FF6FF7303EA411000237A
:1028F0001821FEF779FE11E07F48D0F84C0368B943
:10290000C4EBC401874BCA1804EB84014FF6FF7374
:1029100003EA411000231821FEF766FE641C032C15
:1029200083D37548D0F8900300EB400101EBC00061
:102930007D494218012318213C20FEF755FE6E4ABE
:1029400092F8EC100023D2F8E8000622FEF712FFFE
:102950000123764A1821FA20FEF746FE6648D0F891
:10296000F00000EB400072494218012318214FF497
:10297000A070FEF739FE60491822D1F888034FF4A1
:10298000A571FFF718FF00236AA22C211846FEF755
:102990008EFE002368A22C217820FEF788FE0023FB
:1029A00067A22C21FA20FEF782FE002366A22C21CA
:1029B00040F29D10FEF77BFE06243FE0A01F012899
:1029C00001D9072802D3A01F082803D94D4851492F
:1029D000486003E04FF050104E494860A01F00EBE4
:1029E00040015B4800EB01104068E0B1A21F02EB20
:1029F0004203574A02EB0312117AA21F02EB420371
:102A0000534A02EB0312012350680622FEF7B2FE7E
:102A1000A01FC0EB00103A3081B20123434A782056
:102A2000FEF745FE09E0A01FC0EB00103A3081B26E
:102A3000012348A27820FEF73AFE641C0F2CBDD378
:102A40003048344948602C48D0F8D40278B12A4A3A
:102A500092F8D8120123D2F8D4020622FEF78AFE99
:102A60000123324AC421FA20FEF721FE05E00123AA
:102A700038A2C421FA20FEF71AFE10247BE0A4F14C
:102A80001000012801D9072803D3A4F11000082859
:102A900003D91C481F49486003E04FF050101D49FE
:102AA0004860A4F1100000EB4001294800EB011040
:102AB000C06900B3A4F1100202EB4203244A02EB06
:102AC000031292F82010A4F1100202EB4203204AF4
:102AD00002EB03120123D0690622FEF74BFEA4F19C
:102AE0001000C0EB00103A3081B201230F4AFA20E7
:102AF000FEF7DDFD3EE031E0DC040010238501003F
:102B0000F384010034346500F35203003A8B010072
:102B1000528B010028000010FD8701000B87010087
:102B2000D8880100C3880100B07E0100D44600109F
:102B30001F8B010042494E004C4F57205B465D0001
:102B4000484947485B465D00434F554E54000000DE
:102B5000E40500102D2D2D2D2D2D0000A4F11000C9
:102B6000C0EB00103A3081B20123AFF21802FA2014
:102B7000FEF79DFD641C192C81D3FE48FE49486078
:102B8000FE48D0F8D40278B1FC4A92F8C012012372
:102B9000D2F8BC020622FEF7EDFD0123F84AC4215B
:102BA0007820FEF784FD06E00123AFF25802C4212D
:102BB0007820FEF77CFD012419E0022C05D9082CB1
:102BC00003D2EC48EC49486003E04FF05010EA496A
:102BD0004860601E00EBC000EA4BC218C4EB041052
:102BE0002B3081B200230820FEF761FD641C0A2C03
:102BF000E3D3E048E0494860E048D0F88803E24980
:102C000001EB80020023C4211846FEF750FD00238B
:102C1000DEA2D4211846FEF74AFD0023DDA2D4210E
:102C2000F820FEF744FD0020FEF7A9FF10BD08B50F
:102C3000D048A02340F2DF12AF2100900020FEF721
:102C4000C8F808BD10B5FFF7A0FBFEF7FDFDFFF7C4
:102C5000EEFF10BD10B5FFF7F5FF6FF07F40C649DE
:102C60000860CE4848600023CD4A04211846FEF78C
:102C7000BBFC6FF07F40C04908604FF050104860C7
:102C8000BE48D0F84C03012812D10023C5A21A2156
:102C90001846FEF7A9FC0023C4A230212820FEF725
:102CA000A3FC0023C4A230218C20FEF79DFC15E07C
:102CB000B248D0F84C0388B90023C1A21A211846A3
:102CC000FEF792FC0023C0A230212820FEF78CFCE6
:102CD0000023C0A230218C20FEF786FC0023BFA277
:102CE0003021F020FEF780FC0023BEA230214FF4FB
:102CF000AA70FEF779FC0023BCA230214FF4DC70EF
:102D0000FEF772FC0020FEF73AFF10BD08B59948A7
:102D10009A2340F2DF125A2100900020FEF759F862
:102D200008BD08B59D481623A8220021009008463A
:102D3000FEF74FF8FEF788FDFFF7E8FF08BD10B576
:102D4000002439E0052C19DA032C01D0042C03D11E
:102D500088488949486003E04FF050108649486030
:102D600004EB440000EBC4001A2202EB4000411CBB
:102D700000239FA24820FEF737FC1BE0082C01D05F
:102D8000092C03D17B487C49486003E04FF0501088
:102D900079494860601F00EB400202EBC0001A2234
:102DA00002EB4000401C81B2002391A24FF4A170BD
:102DB000FEF71AFC601CC4B20A2CC3DB10BD10B5B0
:102DC000FFF7AFFF6FF07F406B49086073484860C2
:102DD0006A48D0F84C03012807D10023704A163204
:102DE00004211846FEF700FC09E06448D0F84C03C3
:102DF00028B900237F4A04211846FEF7F5FB6FF03F
:102E00007F405D4908604FF05010486000247AE030
:102E10005A48D0F84C03012838D1032C1AD2022C7E
:102E200005D9052C03D253485349486003E04FF0BD
:102E300050105149486004EB84006F4B03EB400293
:102E4000162304FB03F01A3081B200231846FEF764
:102E5000CBFB57E0E01E022805D9052803D24548E0
:102E60004549486003E04FF050104349486004EB87
:102E70008400614B03EB4002E01E162358431A30D6
:102E800081B20023FA20FEF7AFFB3BE03B48D0F8CD
:102E90004C03B8BB032C1AD2022C05D9052C03D243
:102EA00034483549486003E04FF0501032494860DB
:102EB00004EB4400514B03EB8002162304FB03F0A8
:102EC0001A3081B200231846FEF78EFB1AE0E01E8E
:102ED000022805D9052803D226482749486003E07F
:102EE0004FF050102449486004EB4400434B03EB7F
:102EF0008002E01E162358431A3081B20023FA20C4
:102F0000FEF772FB641C062C82D30020FFF74AF800
:102F100010BDF8B505464FF05010174948601748E6
:102F2000D0F8880300EBC0003549421801231A216C
:102F30004920FEF759FB1148D0F8900300EB4001FF
:102F400001EBC0002F494218012330214920FEF730
:102F50004BFB0A48D0F8940300EB400101EBC000A2
:102F600029494218012346214920FEF73DFB034829
:102F70004CE000003434650028000010DC04001030
:102F8000D4460010A87801009D7D01004155583AB3
:102F9000000000004F55543A00000000F3520300B7
:102FA000138801004D657468203A0000467265710F
:102FB0005B487A5D000000004C65766C5B565D00F6
:102FC000B7BDCABD203A0000C6B5C2CA5B487A5D2B
:102FD00000000000B5E7C6BD5B565D0043705B4670
:102FE0005D000000445B205D00000000434D500088
:102FF0003A000000378701009B85010053850100DE
:10300000697C0100B07E0100C5800100D0F8C403D6
:1030100000EB400101EBC000FB49421800231A21DC
:1030200040F24310FEF7E0FAF848D0F8C80300EB8E
:10303000400101EBC000F64942180123302140F263
:103040004310FEF7D1FA2878012800D100E00020D3
:1030500006461EB1FF20EF49486003E04FF05010D4
:10306000EC494860EB48406858234FF4C47244214F
:1030700000904FF4A170FDF7ACFEE448D0F80401D5
:1030800000EB400101EBC000E34942180123462157
:1030900040F24310FEF7A8FAFEF7D6FB2878012885
:1030A0002FD16FF07F40DB490860DC484860002486
:1030B00024E08CB904EB440101EBC401D64BCA18DF
:1030C00004EB8401542303EB0111143188B2002373
:1030D000F121FEF789FA10E004EB440101EBC40191
:1030E000CD4BCA1804EB8401542303EB01111931B1
:1030F00088B20023F121FEF777FA641C022CD8D3A2
:1031000002E00020FEF73BFDF8BDF8B505464FF0A4
:103110005010C04948602878012800D100E0002004
:1031200006461EB1FF20BB49486003E04FF0501037
:10313000B8494860B748406828234FF4E672182120
:10314000009040F2A310FDF744FEB048D0F81803F9
:1031500000EB400101EBC000AF49421801231821E8
:103160004FF4D270FEF740FAFEF76EFB2878012884
:103170002FD16FF07F40A7490860A848486000241D
:1031800024E08CB904EB440101EBC401A24BCA1842
:1031900004EB8401542303EB0111143188B20023A2
:1031A000F121FEF721FA10E004EB440101EBC40128
:1031B000994BCA1804EB8401542303EB0111193114
:1031C00088B20023F121FEF70FFA641C022CD8D339
:1031D00002E00020FEF7D3FCF8BD70B505460124DF
:1031E00063E1022C05DD072C03DA8D48894948602C
:1031F00003E04FF0501087494860601E834991F802
:103200000D1401EB810100EB410000EB80018548CA
:1032100000EB81008068401C40B9332000EB0411B2
:10322000002381A2F620FEF742FA27E0621E774BC8
:1032300093F80D3403EB830302EB430202EB8203AA
:10324000784A02EB8302117B621E704B93F80D34B7
:1032500003EB830302EB430202EB8203714A02EBAE
:103260008302012390680522FEF784FA332000EBE5
:10327000041100236E4AF620FEF719FA601E634916
:1032800091F80D1401EB810100EB410000EB80018E
:10329000684800EB81008068401C48B9332000EB8F
:1032A0000411002360A24FF4AD70FEF700FA28E08D
:1032B000621E564B93F80D3403EB830302EB43027B
:1032C00002EB82035B4A02EB8302117B621E4F4BCF
:1032D00093F80D3403EB830302EB430202EB82030A
:1032E000544A02EB8302012390680522FEF742FA5A
:1032F000332000EB041100234D4A4FF4AD70FEF76C
:10330000D6F9601E414991F80D1401EB810100EBE3
:1033100041014948405CFF2809D1332000EB0411EA
:10332000002346A24FF4DF70FEF7C1F91DE0601ED6
:10333000364991F80D1401EB810100EB41013E4843
:10334000405C48B1332000EB041100233CA24FF451
:10335000DF70FEF7ACF908E0332000EB0411002326
:1033600038A24FF4DF70FEF7A2F9022C05DD072C1E
:1033700003DA2B482749486003E04FF050102549F5
:103380004860601E214991F80D1401EB810100EBAA
:1033900041012D48405C1E2808DD332000EB04115C
:1033A000002321A22620FEF782F916E0601E174BAB
:1033B00093F80D3403EB830300EB43032248C05C16
:1033C00000EB400303EBC000204BC218332000EB9E
:1033D000041100232620FEF76AF9601E0B4991F8BC
:1033E0000D1401EB810100EB41011748D230405C24
:1033F00002282DDD332000EB041100230AA29220C5
:10340000FEF755F93BE00000F6800100DC040010F7
:103410007E81010028000010B781010038003100D2
:1034200034346500900A00102D2D2D2D0000000071
:10343000D4460010F81A0010602B00102D00000078
:103440005000000046000000EA080010B07E0100B5
:10345000601EFE4B93F80D3403EB830300EB430334
:10346000FB48C05C00EB400303EBC000F94BC21803
:10347000332000EB041100239220FEF718F9F349E2
:1034800091F80D1401EB810104EB410001230322AB
:103490000021FEF76FF9332000EB04110023EE4A00
:1034A0000820FEF704F9601CC4B20B2CFFF699AE9D
:1034B00070BDF8B505462878022802D1FEF75EFCFB
:1034C00005E02878022802DDA878FEF7A9FC287814
:1034D000012805D1A87818B9FF20E049486003E029
:1034E0004FF05010DD494860DC4840682A235E22D6
:1034F0001A2100903620FDF76CFCD448D0F8400328
:1035000000EBC000D649421800231A213620FEF7EE
:103510006BF82878022805D1A87818B9FF20CF4980
:10352000486003E04FF05010CC494860CB484068F9
:1035300042231E22322100900020FDF74AFC002386
:10354000C8A232211846FEF74FF80324D3E12878A9
:10355000A04206D1A878022803D1FF20BF494860C5
:1035600003E04FF05010BD494860BC4840680090EF
:10357000A01E332202EB0010103083B2A01E02EB1B
:10358000001081B24FF49972FA20FDF722FCE01E80
:10359000E97801EB810100EB410000EB8001AC48D0
:1035A000D43000EB81008068401C58B9A01E332243
:1035B00002EB001081B20023AFF29412FA20FEF762
:1035C00076F827E0E21EEB7803EB830302EB43027D
:1035D00002EB82039E4AD43202EB8302117BE21E8D
:1035E000EB7803EB830302EB430202EB8203984A7E
:1035F000D43202EB8302012390680522FEF7BAF869
:10360000A01E332202EB001081B20023924AFA205E
:10361000FEF74DF82878A04206D1A878032803D1F8
:10362000FF208E49486003E04FF050108B494860FE
:103630008A4840680090A01E332202EB0010103030
:1036400083B2A01E02EB001081B24FF4C1724FF49E
:10365000A570FDF7BEFBE01EE97801EB810100EBF0
:10366000410000EB8001804800EB81008068401C35
:1036700060B9A01E332202EB001081B20023AFF22A
:1036800058224FF4A570FEF712F826E0E21EEB7800
:1036900003EB830302EB430202EB8203724A02EB69
:1036A0008302117BE21EEB7803EB830302EB430200
:1036B00002EB82036C4A02EB83020123906805222D
:1036C000FEF758F8A01E332202EB001081B200234F
:1036D000614A4FF4A570FDF7EAFF2878A04206D1B1
:1036E000A878042803D1FF205C49486003E04FF02C
:1036F00050105A494860594840680090A01E332233
:1037000002EB0010103083B2A01E02EB001081B259
:1037100040F2DF124FF4D270FDF75BFBE01EE97858
:1037200001EB810100EB41015048405CFF280CD1C6
:10373000A01E332202EB001081B20023AFF2183238
:103740004FF4D270FDF7B3FF0BE0A01E332202EB63
:10375000001081B20023AFF218324FF4D270FDF79F
:10376000A6FF2878A04205D1A87818B9FF203B49C8
:10377000486003E04FF050103849486037484068CF
:103780000090A01E332202EB0010103083B2A01E66
:1037900002EB001081B27E222820FDF71AFBE01E0A
:1037A000E97801EB810100EB41012948D238405C06
:1037B00030280BDDA01E332202EB001081B2002363
:1037C000AFF29C322820FDF772FF17E0E01EEB7885
:1037D00003EB830300EB43031D48D238C05C00EBCE
:1037E000400303EBC000224BC218A01E332303EB9F
:1037F000001081B200232820FDF759FF2878A0424D
:1038000006D1A878012803D1FF201449486003E0BD
:103810004FF0501011494860104840680090A01EB9
:10382000332202EB0010103083B2A01E02EB001016
:1038300081B2C4227E20FDF7CCFAE01EE97801EBCC
:10384000810100EB41010248405C13E0DC04001000
:10385000BC090010C5800100D446001028000010EB
:10386000697C01004E6F2E00F81A0010602B0010CA
:10387000B07E010002280BDDA01E332202EB0010F7
:1038800081B20023AFF260427E20FDF710FF16E008
:10389000E01EEB7803EB830300EB4303FA48C05CC4
:1038A00000EB400303EBC000F84BC218A01E33230B
:1038B00003EB001081B200237E20FDF7F8FE4FF0ED
:1038C0005010F34948604860E97801EB810104EB4E
:1038D0004101881E012303220021FDF74BFFA01E9A
:1038E000332202EB001081B20023EA4A0820FDF7E0
:1038F000DEFE601CC4B20D2CFFF629AEF8BDF8B593
:1039000005464FF05010E24948602878012800D160
:1039100000E0002006461EB1FF20DD49486003E0BC
:103920004FF05010DA494860D94840682A2358229D
:103930001A2100903020FDF74CFAD74890F80C047B
:1039400000EB8000D549421801231A213020FDF7F1
:103950004BFE2878022801D1012000E00020064615
:103960001EB1FF20CA49486003E04FF05010C8491B
:103970004860C748406840231E223021009008203C
:10398000FDF727FA0123AFF2241230210820FDF7BA
:103990002BFEFDF759FF2878012819D16FF07F40E1
:1039A000BB490860BE48486000240EE004EB840177
:1039B000BA4BCA1804EB8401542303EB011188B2FB
:1039C0000023F121FDF710FE641C022CEED320E051
:1039D000287802281AD16FF07F40AD490860B048BE
:1039E000486000240FE0C4EBC401AE4BCA18E11CD0
:1039F00001EB8101542303EB011188B20023F12173
:103A0000FDF7F2FD641C022CEDD302E06878FEF7AE
:103A1000B6F8F8BDF8B504469F48D0F8D0030128A1
:103A20000FD14FF050109A49486001239E4AD2218D
:103A30001E20FDF7D9FD01239B4AD2219620FDF7D8
:103A4000D3FD2078012800D100E0002006461EB1F9
:103A5000FF208F49486003E04FF050108C494860C8
:103A600092490023052248680321FDF783FE884818
:103A700040682C23C022182100906720FDF7A9F987
:103A80000023844A1A216820FDF7AEFD012388A295
:103A90001A21AE20FDF7A8FD2078022801D10120CF
:103AA00000E0002006461EB1FF207949486003E08F
:103AB0004FF05010764948607C4900230522C869C0
:103AC0000321FDF757FE724840684223C0222E2191
:103AD00000906720FDF77DF900236E4A30216820B1
:103AE000FDF782FD012373A23021AE20FDF77CFD9E
:103AF0002078032801D1012000E0002006461EB1F5
:103B0000FF206349486003E04FF05010604948606F
:103B1000664900230522486B0321FDF72BFE5C4814
:103B200040685823C022442100906720FDF751F9D6
:103B30000023584A46216820FDF756FD01235DA267
:103B40004621AE20FDF750FD2078042801D1012048
:103B500000E0002006461EB1FF204D49486003E00A
:103B60004FF050104A494860504991F8081101EB54
:103B700041024E49483101EBC20100230522486849
:103B80000321FDF7F7FD424840682C234FF4E17212
:103B90001821009040F27110FDF71BF900233D4AF7
:103BA0001A214FF4B970FDF71FFD012340A21A211D
:103BB0004FF4DC70FDF718FD2078052801D10120B5
:103BC00000E0002006461EB1FF203149486003E0B6
:103BD0004FF050102E494860344900230322D1F899
:103BE000DC001946FDF7C6FD29484068422340F233
:103BF000C3122E21009040F27110FDF7EAF8002365
:103C0000244A30214FF4B970FDF7EEFC01232AA2BB
:103C100030214FF4D770FDF7E7FC2078062801D15A
:103C2000012000E0002006461EB1FF201849486030
:103C300003E04FF05010164948601C49002303224E
:103C4000D1F8F4001946FDF795FD11484068582356
:103C500040F2C3124421009040F27110FDF7B9F810
:103C600000230C4A46214FF4B970FDF7BDFC012337
:103C700011A246214FF4D770FDF7B6FCFDF7E4FD25
:103C80002078062874D219E0BC090010C580010014
:103C900028000010D4460010DC040010CD81010083
:103CA00038003100D7810100C2810100EC3F0010D3
:103CB00056000000410000006D730000DFE800F0D6
:103CC000030607080957FDF72EFF52E051E050E0C8
:103CD0004FE06FF07F40FE490860FE484860607822
:103CE00000BB00251BE0617801EB4101294401EB99
:103CF0004102F94901EBC201002305224868032172
:103D0000FDF738FD05EB8501542202EB0111091D79
:103D100088B20023F14AF121FDF766FC6D1C032DEA
:103D2000E1D322E0607801281FD100251BE06178F3
:103D300001EB4101294401EB4102E74901EBC201DA
:103D40000023052248680321FDF714FD05EB8501DA
:103D5000542202EB0111091D88B20023DF4AF12130
:103D6000FDF742FC6D1C032DE1D302E000E000E012
:103D700000BF00BFF8BD38B504462078012800D147
:103D800000E0002005461DB1FF20D149486003E056
:103D90004FF05010CE494860CF49483900230522E2
:103DA000C86C0321FDF7E6FCC94840682C23C022FB
:103DB000182100906720FDF70CF80023C74A1A214C
:103DC0006820FDF711FC0123AFF21C121A21AE206E
:103DD000FDF70AFC2078022801D1012000E0002034
:103DE00005461DB1FF20BA49486003E04FF050106E
:103DF000B7494860B849483900230522486E032175
:103E0000FDF7B8FCB24840684223C0222E21009042
:103E10006720FCF7DEFF0023B04A30216820FDF761
:103E2000E3FB0123AFF278123021AE20FDF7DCFB7B
:103E30002078032801D1012000E0002005461DB1B3
:103E4000FF20A349486003E04FF05010A0494860AC
:103E5000A149483900230522C86F0321FDF78AFCD8
:103E60009B4840685823C022442100906720FCF7FB
:103E7000B0FF0023994A46216820FDF7B5FB0123D6
:103E8000AFF2D4124621AE20FDF7AEFB2078042815
:103E900001D1012000E0002005461DB1FF208C4922
:103EA000486003E04FF05010894948608A4948391A
:103EB00000230522D1F894000321FDF75BFC844820
:103EC00040682C234FF4E1721821009040F26110F9
:103ED000FCF77FFF0023814A1A214FF4B170FDF7F0
:103EE00083FB0123AFF238221A214FF4D470FDF77F
:103EF0007BFB2078052801D1012000E00020054649
:103F00001DB1FF207249486003E04FF05010704926
:103F100048607149483900230522D1F8AC000321DB
:103F2000FDF728FC6A48406842234FF4E1722E21D5
:103F3000009040F26110FCF74CFF0023674A3021EB
:103F40004FF4B170FDF750FB0123AFF29C223021FA
:103F50004FF4D470FDF748FB2078062801D10120EA
:103F600000E0002005461DB1FF205949486003E0EC
:103F70004FF05010564948605749483900230522F0
:103F8000D1F8C4000321FDF7F5FB514840685823E0
:103F90004FF4E1724421009040F26110FCF719FFE8
:103FA00000234E4A46214FF4B170FDF71DFB01235B
:103FB000AFF2043246214FF4D470FDF715FBFDF744
:103FC00043FC207818B96078FDF7ECFF00BF00BF14
:103FD00038BD2DE9F04104460D46164604EB440376
:103FE0003F4FDA19B1B2A8B20123FDF760FBBDE87B
:103FF000F081F8B505464FF0501035494860394812
:10400000D0F8FC0078B937493F22D1F888034FF443
:10401000B971FFF7DEFF33493F22D1F88803C82189
:10402000FFF7D7FF0CE000232FA23F214FF4B97018
:10403000FDF73DFB00232CA23F21C820FDF737FBF5
:104040002878012800D100E0002006461EB1FF209C
:104050001F49486003E04FF050101D4948601C485C
:1040600040682A239922182100904520FCF7B1FED0
:104070001C48D0F8880300EBC0001C4942180123FB
:1040800018214620FDF7B0FA2878022801D1012036
:1040900000E0002006461EB1FF200D49486003E005
:1040A0004FF050100A4948600E4A92F8EC10002375
:1040B000D2F8E8000522FDF75DFB054840682A2399
:1040C00040F2451218210090E220FCF782FE0FE03A
:1040D000280000103800310034400010D446001091
:1040E000528B0100DC04001025000000697C0100F7
:1040F0000123F84A1821E520FDF776FAF648D0F8B2
:10410000F00000EB4000F54942180123182140F26D
:104110002910FDF769FAF0491822D1F8880340F216
:104120003311FEF748FB2878032801D1012000E075
:10413000002006461EB1FF20E949486003E04FF029
:104140005010E7494860E64840682A2340F2DD12F3
:104150001821009040F28F10FCF73BFEDE48D0F8AB
:10416000FC00E04901EB8002012318214FF4C870E4
:10417000FDF73AFA2878042801D1012000E0002058
:1041800006461EB1FF20D649486003E04FF05010AC
:10419000D3494860D24840683E2399222C210090A0
:1041A0004520FCF716FECC48D0F8E00000EB80007C
:1041B000CD49421800232C214620FDF715FA287816
:1041C000052801D1012000E0002006461EB1FF2095
:1041D000C349486003E04FF05010C1494860C048EF
:1041E00040683E234FF49C722C210090E420FCF7A1
:1041F000F0FDB948D0F8040100EB8000BA4942183C
:1042000001232C21E520FDF7EFF906246DE0287845
:10421000A04203D1FF20B24948600CE0A01F022851
:1042200005D9072803D2B148AD49486003E04FF0F3
:104230005010AB494860AA4840680090A01FC0EBEE
:1042400000105C3083B2A01FC0EB00104C3081B274
:10425000E6229420FCF7BDFDA01F00EB4001A4481E
:1042600000EB01104068A0B3A21F02EB4203A04A7A
:1042700002EB0312117AA21F02EB42039C4A02EBEB
:104280000312002350680522FDF774FAA01FC0EB4B
:1042900000104C3081B201238E4AA020FDF707FAAE
:1042A0008D48D0F8FC00F8B9A01F00EB40039048FF
:1042B00000EB0310C06800EB4000884BC218A01F41
:1042C000C0EB00104C3081B20123D020FDF7EFF994
:1042D0000AE0FFE7A01FC0EB00104C3081B20123C1
:1042E000844AA020FDF7E3F9641C0F2C8FD310241F
:1042F0007DE02878A04203D1FF20794948600DE095
:10430000A4F11000022805D9072803D27748744980
:10431000486003E04FF050107149486070484068B1
:104320000090A4F11000C0EB00105C3083B2A4F147
:104330001000C0EB00104C3081B24FF4C3724FF448
:104340009A70FCF746FDA4F1100000EB40016848AC
:1043500000EB0110C069E0B3A4F1100202EB4203CC
:10436000634A02EB031292F82010A4F1100202EB50
:1043700042035F4A02EB03120023D0690522FDF7D6
:10438000F9F9A4F11000C0EB00104C3081B2002309
:10439000504A4FF4A570FDF78AF94F48D0F8FC0059
:1043A00020BBA4F1100000EB4003514800EB0310C8
:1043B000406A00EB4000494BC218A4F11000C0EB6A
:1043C00000104C3081B201234FF4BD70FDF76FF93E
:1043D0000CE0FFE7A4F11000C0EB00104C3081B2FC
:1043E0000123444A4FF4A570FDF761F9641C192CB0
:1043F000FFF47FAF28780F2803D1FF2038494860A9
:1044000003E04FF050103649486035484068E323D8
:10441000E622D32100909420FCF7DBFC2E4A92F890
:10442000C0120023D2F8BC020522FDF7A3F9012334
:10443000284AD321A020FDF73AF92748D0F8C40232
:1044400000EB4000254942180123D321D020FDF77D
:104450002EF92878192803D1FF202149486003E06C
:104460004FF050101E4948601D484068E3234FF448
:10447000C372D32100904FF49A70FCF7AAFC164A3D
:1044800092F8D8120023D2F8D4020522FDF772F96F
:104490000023104AD3214FF4A570FDF708F90E4808
:1044A000D0F8DC0200EB40000C4942180123D32174
:1044B0004FF4BD70FDF7FBF8FDF7C6F92878062824
:1044C00072D2DFE800F003191A1B45726878FDF715
:1044D00069FDC1E0D4460010DC0400101F8B010010
:1044E0002800001091890100248201003434650005
:1044F000E4050010542B0000AEE0ADE06FF07F400B
:10450000F6490860F648486000241EE074B9F54991
:1045100001EB840204EB8401542303EB01111431F9
:1045200088B20023F121FDF75FF80DE0ED4901EBC2
:10453000840204EB8401542303EB01111E3188B281
:104540000023F121FDF750F8641C022CDED383E038
:104550006FF07F40E1490860E1484860002420E0B6
:104560007CB904EB8401E04BCA1804EB84015423AA
:1045700003EB0111143188B20023F121FDF734F867
:104580000EE004EB8401D84BCA1804EB84015423D9
:1045900003EB0111193188B20023F121FDF724F852
:1045A000641C022CDCD357E02BE06FF07F40CB493A
:1045B0000860CB484860002420E07CB904EB84010B
:1045C000C94BCA1804EB8401542303EB01111431C5
:1045D00088B20023F121FDF707F80EE004EB840117
:1045E000C14BCA1804EB8401542303EB01111931A8
:1045F00088B20023F121FCF7F7FF641C022CDCD306
:104600002AE06FF07F40B5490860B5484860B74878
:10461000D0F84C0301280DD10023B5A2F1215D2073
:10462000FCF7E2FF0023B4A2F2214FF4CA70FCF7BA
:10463000DBFF10E0AD48D0F84C0360B90023B0A216
:10464000F1215D20FCF7D0FF0023AFA2F2214FF44F
:10465000CA70FCF7C9FF00BF00BFF8BDF8B505463A
:104660002878012800D100E0002006461EB1FF2076
:104670009A49486003E04FF05010984948609748C5
:1046800040682C23C022182100905820FCF7A1FB81
:104690009648006800EB80009349421801231A21D4
:1046A0005820FCF7A1FF2878022801D1012000E062
:1046B000002006461EB1FF208849486003E04FF005
:1046C000501086494860854840684223C0222E2108
:1046D00000905820FCF77DFB8448406800EB800088
:1046E00081494218012330215820FCF77DFFFDF756
:1046F000ABF82878152878D2DFE800F00B0F94BECD
:10470000D7EEEDECEBEAE9E8E7E6E5E4E3E2E1E049
:10471000DF006878FDF746FC75E2687848BB6FF00B
:104720007F406E4908606E48486000241EE074B9FE
:10473000784901EBC40204EB8401542303EB01111B
:10474000133188B20023F121FCF74EFF0DE07149CF
:1047500001EBC40204EB8401542303EB0111183173
:1047600088B20023F121FCF73FFF641C022CDED34A
:1047700057E06878012839D16FF07F4057490860C9
:104780005748486000241FE0032C0ED1624901EB1A
:10479000C40204EB8401542303EB0111133188B2EA
:1047A0000023F121FCF720FF0DE05B4901EBC4027F
:1047B00004EB8401542303EB01110E3188B2002372
:1047C000F121FCF711FF641C042CDDD30023534AB4
:1047D000F22140F29310FCF707FF002350A2F221D0
:1047E00040F2BD10FCF700FF1BE00BE26FF07F40D2
:1047F0003A4908603A48486000234A4A4FF48271B7
:104800005420FCF7F1FE0023444AF22140F29310B9
:10481000FCF7EAFE002344A2F22140F2BD10FCF7AF
:10482000E3FEF0E16FF07F402C4908602C484860BF
:1048300000241EE074B93D4901EBC40204EB84017D
:10484000542303EB0111133188B20023F121FCF74B
:10485000CBFE0DE0354901EBC40204EB8401542387
:1048600003EB0111183188B20023F121FCF7BCFEE3
:10487000641C022CDED3C6E16FF07F40174908604C
:104880001748486000240DE0294901EBC40204EBFD
:104890008401542303EB011188B20023F121FCF7BA
:1048A000A3FE641C022CEFD3ADE16FF07F400B49F7
:1048B00008600B48486000244DE0A2E1A0E19EE1C1
:1048C00081E167E14AE130E116E1F9E0DFE0C5E0CE
:1048D000ABE091E077E05AE040E0000028000010F3
:1048E000380031009189010024820100DC040010AD
:1048F00043656C205200000043656C4C6973740082
:10490000C7E5B3FDD0D00000C7E5B3FDB1EDB8F108
:104910000000000007890100D97A0100E01C0000B6
:10492000322F3300017B0100332F33003789010020
:10493000E680010004EB440101EBC401FE4BCA1800
:1049400004EB8401542303EB011188B20023F1210D
:10495000FCF74AFE641C042CECD354E16FF07F405A
:10496000F6490860F648486000240DE0F54901EB7F
:10497000C40204EB8401542303EB011188B2002329
:10498000F121FCF731FE641C022CEFD33BE16FF008
:104990007F40EA490860EA484860002410E004EBE0
:1049A000440101EBC401E84BCA1804EB8401542311
:1049B00003EB011188B20023F121FCF715FE641C02
:1049C000022CECD31FE16FF07F40DC490860DC482B
:1049D000486000240DE0DD4901EBC40204EB8401D2
:1049E000542303EB011188B20023F121FCF7FCFDF5
:1049F000641C022CEFD306E16FF07F40CF490860C2
:104A0000CF48486000240DE0D04901EBC40204EB1C
:104A10008401542303EB011188B20023F121FCF738
:104A2000E3FD641C022CEFD3EDE06FF07F40C3493F
:104A30000860C348486000240DE0C54901EBC4028A
:104A400004EB8401542303EB011188B20023F1210C
:104A5000FCF7CAFD641C032CEFD3D4E06FF07F4059
:104A6000B6490860B648486000240DE0B94901EB3A
:104A7000C40204EB8401542303EB011188B2002328
:104A8000F121FCF7B1FD641C042CEFD3BBE06FF007
:104A90007F40AA490860AA48486000240DE0AE495A
:104AA00001EBC40204EB8401542303EB011188B22F
:104AB0000023F121FCF798FD641C032CEFD3A2E046
:104AC0006FF07F409D4908609D484860002410E0D9
:104AD00004EB440101EBC401A04BCA1804EB8401B0
:104AE000542303EB011188B20023F121FCF77CFD74
:104AF000641C022CECD386E06FF07F408F49086085
:104B00008F48486000240DE0904901EBC40204EB9B
:104B10008401542303EB011188B20023F121FCF737
:104B200063FD641C022CEFD36DE06FF07F4083497E
:104B300008608348486000240DE0824901EBC4020C
:104B400004EB8401542303EB011188B20023F1210B
:104B5000FCF74AFD641C022CEFD354E06FF07F4059
:104B60007649086076484860002410E004EB440170
:104B700001EBC4017A4BCA1804EB8401542303EB04
:104B8000011188B20023F121FCF72EFD641C022CD8
:104B9000ECD338E06FF07F406849086068484860AF
:104BA00000240DE06B4901EBC40204EB84015423A3
:104BB00003EB011188B20023F121FCF715FD641C01
:104BC000042CEFD31FE06FF07F405C4908605C4825
:104BD0004860002410E004EB440101EBC401604B89
:104BE000CA1804EB8401542303EB011188B200239B
:104BF000F121FCF7F9FC641C042CECD303E002E087
:104C000001E000E000BF00BFF8BDF8B50546287818
:104C1000012800D100E0002006461EB1FF204749D0
:104C2000486003E04FF050104449486043484068F2
:104C30002C23C0221A2100905E20FCF7CAF84948B4
:104C4000D0F84C03012806D1002347A21C215F2085
:104C5000FCF7CAFC09E04348D0F84C0328B900230C
:104C600043A21C215F20FCF7BFFC2878022801D159
:104C7000012000E0002006461EB1FF202F494860B9
:104C800003E04FF050102D4948602C484068422303
:104C9000C022302100905E20FCF79BF8374890F846
:104CA0007D0200EB800036494218012332215F204B
:104CB000FCF79AFC2878032801D1012000E00020AD
:104CC00006461EB1FF201D49486003E04FF050101A
:104CD0001A494860194840685823C022462100906C
:104CE0005E20FCF776F8254890F87E0200EB800005
:104CF00023494218012348215F20FCF775FC2878DE
:104D0000042801D1012000E0002006461EB1FF204A
:104D10000A49486003E04FF05010084948600748CE
:104D200040686E23C0225C2100905E20FCF751F8A1
:104D30000C48D0F84C0325E06982010028000010DF
:104D40003800310033820100DB8201006E810100F6
:104D500032830100438101009F810100B78101007E
:104D6000B9830100DC04001053696D4261740000D6
:104D7000C4A3C4E2B5E7B3D8000000001842001095
:104D800024820100FE4901EBC00200235E215F2066
:104D9000FCF72AFC2878052801D1012000E000203A
:104DA00006461EB1FF20F749486003E04FF050105F
:104DB000F4494860F34840688423C022722100907F
:104DC0005E20FCF706F80023EFA274215F20FCF7B9
:104DD0000BFC2878062801D1012000E000200646BF
:104DE0001EB1FF20E749486003E04FF05010E5494D
:104DF0004860E44840689A237322882100905E202E
:104E0000FBF7E7FFE24901230222C8690021FCF712
:104E1000B1FC0023DF4A8A215F20FCF7E5FB4FF05D
:104E20005010D84948600023DBA28A217320FCF788
:104E3000DBFB2878072801D1012000E0002006468E
:104E40001EB1FF20CF49486003E04FF05010CD491C
:104E50004860CC4840689A239122882100907C20A9
:104E6000FBF7B7FFCA490123022288690021FCF73A
:104E700081FC0023C74A8A217D20FCF7B5FB4FF057
:104E80005010C04948600023C3A28A219120FCF73A
:104E9000ABFB2878082801D1012000E0002006465D
:104EA0001EB1FF20B749486003E04FF05010B549EC
:104EB0004860B44840689A23B122882100909C2021
:104EC000FBF787FFB24901230222C8680021FCF7E3
:104ED00051FC0020AF49887000230A468A219D209A
:104EE000FCF782FB4FF05010A64948600023ABA2AC
:104EF000A0211846FCF778FB0023AB4AA0215E20D6
:104F0000FCF772FB2878092801D1012000E000207D
:104F100006461EB1FF209B49486003E04FF0501049
:104F200098494860974840682C234FF4DD721A2155
:104F300000904FF4AC70FBF74CFF00239B4A1C2100
:104F400040F25910FCF750FB28780A2801D10120C3
:104F500000E0002006461EB1FF208A49486003E0B9
:104F60004FF05010874948608648406842234FF40C
:104F7000DD72302100904FF4AC70FBF72AFF012363
:104F80008B4A322140F25910FCF72EFB28780B286F
:104F900001D1012000E0002006461EB1FF20794922
:104FA000486003E04FF0501076494860754840680B
:104FB00058234FF4DD72462100904FF4AC70FBF79C
:104FC00008FF01237B4A482140F25910FCF70CFBF3
:104FD00028780C2801D1012000E0002006461EB1EF
:104FE000FF206849486003E04FF050106549486071
:104FF000644840686E234FF4DD725C2100904FF4EA
:10500000AC70FBF7E6FE6C486CA1D0F880236148D9
:105010000DF0ACFC01236AA25E2140F25910FCF7AE
:10502000E3FA28780D2801D1012000E0002006468F
:105030001EB1FF205349486003E04FF05010514922
:1050400048605048406884234FF4DD72722100901C
:105050004FF4AC70FBF7BDFE01235B4A742140F2B4
:105060005910FCF7C1FA28780E2801D1012000E080
:10507000002006461EB1FF204249486003E04FF081
:105080005010404948603F4840689A2340F26D12F2
:10509000882100904FF4AC70FBF79BFE3C49012344
:1050A000022288680021FCF765FB0023394A8A2127
:1050B00040F25910FCF798FA4FF05010314948600F
:1050C000002338A28A2140F26D10FCF78DFA28786F
:1050D0000F2801D1012000E0002006461EB1FF206C
:1050E0002849486003E04FF05010264948602548A1
:1050F00040689A2340F28B12882100904FF4BB70D5
:10510000FBF767FE22490123022248680021FCF7D1
:1051100031FB00231F4A8A2140F27710FCF764FA22
:105120004FF050101749486000231EA28A2140F218
:105130008B10FCF759FA2878102801D1012000E0E3
:10514000002006461EB1FF200E49486003E04FF0E4
:1051500050100C4948600B4840689A2340F2AB124B
:10516000882100904FF4CB70FBF733FE08490123F0
:10517000022208680021FCF7FDFA0020054925E01D
:105180009B8A010028000010484F4C44000000009A
:10519000E0460010D44600102D0000004661637404
:1051A000204E6F2E3A00000097440010DC8A010068
:1051B000F38101001D820100DC040010253264002F
:1051C0004E4F4E45000000002E82010088700023E3
:1051D0000A468A2140F29710FCF706FAFCF734FBE6
:1051E000287816287ED2DFE800F00B0E2B5581A41C
:1051F000B2CCF2F0EFEEEDECEBEAE97D7DE8E7E62C
:10520000FDF750F836E26FF07F40FE490860FE4837
:105210004860FE48D0F84C03012806D10023FCA2C8
:10522000F1216620FCF7E0F909E0F848D0F84C03DA
:1052300028B90023F8A2F1216620FCF7D5F919E27C
:105240006FF07F40EF490860EF48486000241EE09F
:105250005CB904EB440000EBC400F14942180023A0
:10526000F1216720FCF7C0F910E004EB440101EBE9
:10527000C401EB4BCA1804EB8401542303EB011166
:10528000183188B20023F121FCF7AEF9641C022C1E
:10529000DED3EFE16FF07F40DA490860DA4848601A
:1052A00000241EE05CB904EB440000EBC400DC49C0
:1052B00042180023F1216720FCF796F910E004EB77
:1052C000440101EBC401D64BCA1804EB84015423FA
:1052D00003EB0111183188B20023F121FCF784F9A6
:1052E000641C00E0C5E1022CDCD3C3E16FF07F4019
:1052F000C4490860C4484860002417E044B9C9485C
:1053000000EBC4020023F1216620FCF76DF90CE0EC
:10531000C44901EBC40204EB8401542303EB0111E3
:1053200088B20023F121FCF75FF9641C022CE5D35D
:10533000A0E16FF07F40B3490860B34848600023A4
:10534000AFF2BC12F1216220FCF74EF992E16FF04E
:105350007F40AC490860AC48486000240EE0B24988
:1053600001EBC40204EB8401542303EB0111091D7A
:1053700088B20023F121FCF737F9641C022CEED32C
:1053800078E16FF07F409F4908609F4848600024A3
:105390000EE0A54901EBC40204EB8401542303EBA6
:1053A0000111091D88B20023F121FCF71DF9641CCD
:1053B000022CEED35EE15BE159E157E13CE106E10D
:1053C000EBE0C0E0A5E062E035E01AE0FFE76FF057
:1053D0007F408C4908608C48486000240EE0924968
:1053E00001EBC40204EB8401542303EB0111091DFA
:1053F00088B20023F121FCF7F7F8641C022CEED3ED
:1054000038E16FF07F407F4908607F4848600024A2
:105410000EE0854901EBC40204EB8401542303EB45
:105420000111091D88B20023F121FCF7DDF8641C8D
:10543000022CEED31EE16FF07F4072490860724883
:105440004860002420E07CB9C4EBC401774BCA1843
:1054500004EB8401542303EB0111133188B20023C0
:10546000F121FCF7C1F80EE0C4EBC4016F4BCA1880
:1054700004EB8401542303EB0111091D88B20023BE
:10548000F121FCF7B1F8641C022CDCD3F2E06FF0E0
:105490007F405C4908605C484860002436E01CB1ED
:1054A000022C01D0032C0FD1C4EBC401604BCA18ED
:1054B00004EB8401542303EB0111091D88B200237E
:1054C000F121FCF791F820E0012C0FD1C4EBC401CD
:1054D000574BCA1804EB8401542303EB01110E311E
:1054E00088B20023F121FCF77FF80EE0C4EBC40181
:1054F0004F4BCA1804EB8401542303EB011109310B
:1055000088B20023F121FCF76FF8641C052CC6D388
:10551000B0E06FF07F403B4908603B4848600024A2
:105520000EE0414901EBC40204EB8401542303EB78
:105530000111091D88B20023F121FCF755F8641C04
:10554000022CEED396E06FF07F402E4908602E4883
:10555000486000241EE074B9364901EBC40204EB34
:105560008401542303EB0111183188B20023F12187
:10557000FCF73AF80DE02F4901EBC40204EB84017B
:10558000542303EB0111133188B20023F121FCF7FE
:105590002BF8641C022CDED36CE06FF07F401949BD
:1055A00008601948486000240EE01F4901EBC4025E
:1055B00004EB8401542303EB0111091D88B200237D
:1055C000F121FCF711F8641C022CEED352E06FF0CD
:1055D0007F400C4908600C48486000240EE01249E6
:1055E00001EBC40204EB8401542303EB0111091DF8
:1055F00088B20023F121FBF7F7FF641C022CEED3E5
:1056000038E000002800001038003100DC040010F1
:105610004272696400000000B5E7C7C500000000E1
:10562000B78101009B8A01006E810100E5810100C4
:10563000FA810100338201006FF07F40FD4908606C
:10564000FD48486000240EE0FC4901EBC40204EB75
:105650008401542303EB0111091D88B20023F121B9
:10566000FBF7C2FF641C022CEED303E002E001E072
:1056700000E000BF00BFF8BD08B5F1481623962230
:10568000002100900846FBF7A4FBFCF7DDF808BDFD
:1056900070B50546FFF7F0FF6FF07F40E549086001
:1056A000E74848600023E74A04211846FBF79CFFBF
:1056B0006FF07F40DF4908604FF050104860687815
:1056C000012815D1002410E0C4EB0410DE4BC218F1
:1056D00004EB440000EBC4001A2303EB400081B24A
:1056E00000231846FBF780FF641C062CECD330E047
:1056F0006878022815D1002410E0C4EB0410D34BC5
:10570000C21804EB440000EBC4001A2303EB400072
:1057100081B200231846FBF767FF641C062CECD30C
:1057200017E06878032814D1002410E0C4EB0410BB
:10573000C74BC21804EB440000EBC4001A2303EB70
:10574000400081B200231846FBF74EFF641C062C74
:10575000ECD30220FCF726FC70BDF8B5054668784E
:10576000012873D100241BE04FF05010B14948606C
:1057700008464068009004EB440000EBC4001A2285
:1057800002EB4000103083B204EB440000EBC40095
:1057900002EB400081B2AC225020FBF71AFB641CE4
:1057A000062CE1D300244DE02978601C814201D110
:1057B000012000E0002006461EB1FF209D49486000
:1057C00003E04FF050109B49486004EB4402A149AC
:1057D00001EBC2010023052248680321FBF7CAFF41
:1057E00094484068009004EB440000EBC4001A2287
:1057F00002EB4000103083B204EB440000EBC40025
:1058000002EB400081B29C225020FBF7E2FA04EB4D
:10581000440000EBC4001A2202EB400081B20023D6
:105820008D4A5020FBF7E0FE04EB440000EBC4007F
:105830001A2202EB400081B2012388A29C20FBF7D0
:10584000D3FE641C042CAFD3EEE0FFE76878022897
:1058500074D100241BE04FF0501076494860084690
:105860004068009004EB440000EBC4001A2202EBF5
:105870004000103083B204EB440000EBC40002EBA4
:10588000400081B2AC225020FBF7A3FA641C062C26
:10589000E1D300244EE02978601C814201D101202F
:1058A00000E0002006461EB1FF206249486003E088
:1058B0004FF050105F49486004EB44026549603185
:1058C00001EBC2010023052248680321FBF752FFC8
:1058D00058484068009004EB440000EBC4001A22D2
:1058E00002EB4000103083B204EB440000EBC40034
:1058F00002EB400081B29C225020FBF76AFA04EBD5
:10590000440000EBC4001A2202EB400081B20023E5
:10591000514A5020FBF768FE04EB440000EBC40042
:105920001A2202EB400081B201234CA29C20FBF71B
:105930005BFE641C022CAED376E0FFE76878032898
:1059400072D100241BE04FF050103A4948600846DD
:105950004068009004EB440000EBC4001A2202EB04
:105960004000103083B204EB440000EBC40002EBB3
:10597000400081B2AC225020FBF72BFA641C062CAD
:10598000E1D300244EE02978601C814201D101203E
:1059900000E0002006461EB1FF202649486003E0D3
:1059A0004FF050102349486004EB440229499031DC
:1059B00001EBC2010023052248680321FBF7DAFE50
:1059C0001C484068009004EB440000EBC4001A221D
:1059D00002EB4000103083B204EB440000EBC40043
:1059E00002EB400081B29C225020FBF7F2F904EB5D
:1059F000440000EBC4001A2202EB400081B20023F5
:105A0000154A5020FBF7F0FD04EB440000EBC40006
:105A10001A2202EB400081B2012311A29C20FBF765
:105A2000E3FD641C062CAED3FBF70EFF2878052897
:105A300032D217E028000010380031006E810100DA
:105A4000F3520300BB870100A3790100577A0100DC
:105A5000FD790100F8400010D44600105600000007
:105A600041000000DFE800F0030708090A000220F7
:105A7000FCF798FA10E000BF00BF00BF6FF07F4056
:105A8000FA490860FA4848600023FA4AF1214FF4C5
:105A9000CC70FBF7A9FD00BF00BFF8BDF8B5044608
:105AA0002078012800D100E0002006461EB1FF202A
:105AB000EE49486003E04FF05010EC494860EB4875
:105AC00040682C23C022182100905C20FBF781F94C
:105AD0000023E94A1A215C20FBF786FD2078022882
