:020000040000FA
:1000000050480010E1010000E9010000EB01000090
:10001000ED010000EF010000F10100000000000010
:10002000000000000000000000000000F3010000DC
:10003000F501000000000000F7010000E1070000EA
:10004000FB0100003D0900005109000063090000A8
:10005000750900006D010100FB010000FB010000BB
:100060008F020100FB010000FB010000FB0100000A
:10007000FB010000FB010000FB010000FB01000090
:10008000FB01000079010000FB010000FB01000002
:10009000FB010000FB010000FB010000FB01000070
:1000A00061150100FB010000FB010000FB010000E5
:1000B000FB010000FB010000FB010000FB01000050
:1000C000FB010000FB010000FB010000FB01000040
:1000D000FB010000FB010000A9050000FB0100007E
:1000E000FB010000DFF80CD012F0A8FB004800472D
:1000F000050600005048001070B505460C46A4F1F6
:1001000020000B4A02EB00111022284600F0ABF849
:1001100070BDA1F1200202EB4202064B03EB82020A
:100120001368036053684360926882607047000000
:100130004C8E01003C9401000D4843F60C3102E066
:1001400000220270401C0A1EA1F1010399B2F7D1EE
:1001500008484FF45C5102E0FF220270401C0A1E66
:10016000A1F1010399B2F7D1014B83F80C24704738
:10017000600200106C06001010B5012115480EF049
:1001800085F950B1144913480EF072F80120134953
:10019000087001210F480EF081F910BD10B50D480F
:1001A0000DF0B4FE0B480DF0CAFE012109480DF018
:1001B000CFFE0122002107480DF0D6FE11200121BB
:1001C00081404209920002F1E022C2F8001100BF12
:1001D00010BD000000400240784100108200001075
:1001E0000648804706480047FEE7FEE7FEE7FEE7D1
:1001F000FEE7FEE7FEE7FEE7FEE7FEE715EC0000A0
:10020000E50000002DE9F05F0546002092469B4680
:1002100088460646814640241BE02846414647461C
:10022000224612F026FA53465A46C01A914110D37C
:1002300011461846224612F00DFA2D1A67EB0108F6
:100240004F4622460120002112F004FA17EB000964
:100250004E41201EA4F10104DFDC484631462A4607
:100260004346BDE8F09F40EA01039B0703D009E045
:1002700008C9121F08C0042AFAD203E011F8013B92
:1002800000F8013B521EF9D27047D2B201E000F8EB
:10029000012B491EFBD270470022F6E710B513462A
:1002A0000A4604461946FFF7F0FF204610BD10B578
:1002B000002200E0521C835C8C5CA34201D1002B25
:1002C000F8D1D8B2E1B2401A10BD962300221146EF
:1002D00012F0FAB90EB5C10F80EAE0700844CA07FF
:1002E000002140F233438DE80E000A460B4612F01F
:1002F00028FA03B000BD11F079BF7047FFFFFFFF80
:1003000040F20120974908609749C1F88401954956
:1003100008310860091D0860091D0860091D086092
:10032000091D0860091D0860091D0860091D086095
:10033000091D0860091D0860091D0860091D086085
:10034000091D0860091D0860091D0860091D086075
:10035000091D0860091D0860091D0860091D086065
:10036000091D0860091D0860091D0860091D086055
:10037000091D0860091D0860091D0860091D086045
:10038000091D0860091D0860091D0860091D086035
:10039000091D0860091D0860091D0860091D086025
:1003A000091D0860091D0860091D0860091D086015
:1003B000091D0860091D0860091D0860091D086005
:1003C000091D0860091D0860091D0860091D0860F5
:1003D000091D0860091D0860091D0860091D0860E5
:1003E000091D0860091D08605E49E43108605D4927
:1003F00040390860091D0860091D086059493039F5
:100400000860584920390860564910390860091DAC
:100410000860091D08605449C1F87C0170472DE946
:10042000F04100BF00BF5148006840F400604F49F0
:10043000C439C1F8C40041F61F704D49086001205D
:100440004C49086000208860FFF75AFF4A4800685E
:100450004A49B0FBF1F74548C438D0F8000100B173
:100460007F084FF47A70B0FBF7F404F11300B0FB8F
:10047000F4F0404908630F2048630020886301209E
:10048000C86304F11300B0FBF4F0801C0864012081
:10049000486404F13E00B0FBF4F0886404F13E00CF
:1004A000B0FBF4F0C8640F20086504F13E00B0FB17
:1004B000F4F0486501208865886240F203303049D5
:1004C00008604FF48D402B49C1F800012C49091FE9
:1004D00008606421002000F0B3F940F28310254940
:1004E0000862C821002000F0ABF940F20310214956
:1004F000086202204862002600E0761C802EFCD3B1
:1005000041F68465A5F1100085B22D1105FB07F0B9
:100510004FF47A71B0FBF1F085B216484562832042
:10052000144908621748D0F8008000200862144877
:10053000001F006840F40020C1F8000101210020E4
:1005400000F07EF90121002000F07AF908480068E7
:1005500020F01F0848F011000449C439C1F8DC013B
:10056000BDE8F08180C1024000C00240C4C00F401D
:10057000DCC10F4000C00920A400001040420F0061
:1005800004C10920004006A010B5002807DACA06F9
:10059000140E9B4A00F00F031B1FD45403E0CA063D
:1005A000130E984A135410BD10B5012213210020D8
:1005B0000EF056FC28B36FF07F4400E0641E002C60
:1005C000FCD19148007830B100208F4908700F208D
:1005D0008E49086005E001208B49087002208B4994
:1005E00008604FF4002100200EF065FC262000F08A
:1005F0001F0201219140864A430942F8231000BF9F
:1006000000BF10BD8CB000200EF0CFFD804600274B
:100610004FF47A70B8FBF0F0451EB5F1807F00D33F
:1006200011E025F07F40401E4FF0E02148611F217E
:100630004FF0FF30FFF7A8FF00204FF0E021886166
:100640000720086100BF0122D10400200EF0EAFB60
:1006500001212620FFF798FF262000F01F0201212C
:1006600091404209920002F1E022C2F8001100BF5D
:100670000EF0C0F80EF03AF80FF005FD00206249C8
:1006800008704FF416500FF0C4FD0FF0A5FFFFF7F0
:1006900085FD0EF0AFF80DF0FFFFFFF7C0FE002064
:1006A00000F048FA5B494869002100F07CFA01201B
:1006B00000F040FA00200EF076F80F205349086051
:1006C0008DE00EF01DF90446FF2C01D1002700E05B
:1006D0007F1C022F03D14FF0501000F069FB4B48F4
:1006E0000068801E0E2878D2DFE800F0074A4351E8
:1006F0000E2E353C58746E5F66714FF0501000F04E
:1007000057FB08F06BFD69E010F035FE11F022F99F
:10071000C6B286B901AA0BA90AA811F074FBC6B229
:100720004EB910F0CDF8C6B21D213BA009F0FAF881
:100730000120414908704FF0501000F039FB0DF0D6
:10074000F5FE09F05FFD49E04FF0501000F030FB7E
:100750000AF0B5FE42E04FF0501000F029FB0AF01D
:1007600084FF3BE04FF0501000F022FB0BF06BF8E1
:1007700034E04FF0501000F01BFB0AF054FA2DE06B
:100780004FF0501000F014FB0AF053FE26E04FF03B
:10079000501000F00DFB0AF08CFA1FE04FF05010E3
:1007A00000F006FB0CF0C9FE18E04FF0501000F00E
:1007B000FFFA0BF03CFE11E04FF0501000F0F8FA99
:1007C0000BF052F90AE008E00CF0F2F806E00DF048
:1007D00057FB03E00DF002F900E000BF00BF70E737
:1007E00016480068401C154908607047134A116894
:1007F00000BF124A1268521A8242FAD370470000B0
:1008000018ED00E000E400E083000010900000100C
:1008100080E100E0300000104D61696E2050092039
:10082000205365636F2050094D5061727409535015
:100830006172740D0A0000007E00001000000010BC
:10084000F8B902224FF040235A600022DA60B04A21
:1008500012684FF47A73B2FBF3F2521E4A434FF020
:1008600040239A61FF221A6004225A6101225A60D1
:1008700000BF4FF04022526802F00102002AF8D176
:100880005BE001281CD10222A24B5A600022DA60F0
:100890009F4A12684FF47A73B2FBF3F2521E4A4336
:1008A0009C4B9A61FF221A6004225A6101225A600D
:1008B00000BF984A526802F00102002AF9D13CE0D8
:1008C00002281CD10222944B5A600022DA60904A1E
:1008D00012684FF47A73B2FBF3F2521E4A438E4B06
:1008E0009A61FF221A6004225A6101225A6000BFF5
:1008F000894A526802F00102002AF9D11DE003285A
:100900001BD10222854B5A600022DA60804A1268AD
:100910004FF47A73B2FBF3F2521E4A437F4B9A6153
:10092000FF221A6004225A6101225A6000BF7B4AEA
:10093000526802F00102002AF9D1704701204FF0FD
:100940004021086076480068401C7549086070477F
:1009500001207049086073480068401C71490860B4
:10096000704701206C4908606F480068401C6E4960
:10097000086070470120694908606C480068401CA5
:100980006A490860704720B901214FF04022516048
:1009900010E0012803D101215E4A51600AE00228DB
:1009A00003D101215C4A516004E0032802D10121F6
:1009B0005A4A5160704720B900214FF040225160DF
:1009C00010E0012803D10021524A51600AE00228B8
:1009D00003D10021504A516004E0032802D10021D4
:1009E0004D4A51607047014631B94FF0402250687E
:1009F00040F00200506016E0012905D1454A5068D8
:100A000040F0020050600EE0022905D1424A5068D1
:100A100040F00200506006E0032904D13F4A5068CC
:100A200040F002005060704770B505460C46F5B9BD
:100A300000203B4908603E48006840F002003C4905
:100A4000C439C1F8C4004FF04020406840F00200B3
:100A50004FF0402148604EF65F20C8600846846130
:100A600003204861012000F048F8012070BD012DED
:100A700014D100202B4908602D48006840F0040084
:100A80002B49C439C1F8C40022488461032021499C
:100A90004861022000F031F80120E7E7022D13D170
:100AA0000020214908602248006840F48000204965
:100AB000C439C1F8C400184884610320164948614C
:100AC00000F01BF80120D1E7032D14D100201749B5
:100AD00008601748006840F400001549C439C1F89F
:100AE000C4000E48846103200C494861042000F0D2
:100AF00004F80120BAE70020B8E700F01F02012146
:100B000091404209920002F1E022C2F800117047C0
:100B1000A80000100080004000000940004009408B
:100B2000180000101C00001020000010240000100D
:100B3000C4C00F4008B5B0B1F949896941F001015D
:100B4000F74A916142F21071009108E0F449896915
:100B500041F40061F24A91610099491E00910099A7
:100B60000029F3D115E0EE49896921F40061EC4ACE
:100B7000916142F21071009102E00099491E0091CA
:100B800000990029F9D1E649896921F00101E44A77
:100B9000916108BDE34A002102E008C808C2491C6F
:100BA0008029FAD370472DE9704381460D46DFF85E
:100BB000788300BF2720DD4908614861DC4908606F
:100BC000DA49C1F87402DB490860091D0860091D93
:100BD0000860091D0860D5498861C861D549483950
:100BE0000860091D0860091D0860091D0860091DCD
:100BF0000860091D0860CD4908624862CD49183176
:100C00000860091D0860CB4930390860091D08607B
:100C1000091D0860091D0860C64910390860C549EA
:100C2000091F0860C3490C390860091D0860BF49E5
:100C3000C1F80001C048006C40F00200BE490864E1
:100C40000846806D40F00A008865BC48D0F8C400B2
:100C500040F00100B949C1F8C400B948006820F06B
:100C60000100B74908600020AD49886108468069E5
:100C700020F00E0088610846806940F00A00886113
:100C80000846806940F0200088610846806920F0AD
:100C9000800088610846806920F480708861084679
:100CA000806920F4007088610846806920F48060C3
:100CB00088610846806920F400608861A148006866
:100CC000A149B0FBF1F09D49C1F8B8019448806892
:100CD00040F08060924988600846806820F02000DB
:100CE00088600846806840F4006088600846806834
:100CF00040F4805088600846806820F40050886086
:100D00000846806820F480408860084680688F49E3
:100D1000084083498860084680688D4908438049B7
:100D20008860002008600846006840F01C50086099
:100D30000846006840F4802008600846006840F4D7
:100D4000807008600846006840F074000860002069
:100D500048600846406840F00060486008464068C7
:100D600040F4002048600846406840F480604860D5
:100D70000846406840F20F11084369494860404600
:100D80000861486115B12846FFF704FF664E00244C
:100D900003E04FF47F0001C6641CB4F5FF3FF8D3B5
:100DA00042F2107400E0641E002CFCD1BDE8708398
:100DB0005D4A002101E001C2491CB1F5FF3FFAD3B1
:100DC00070472DE9F0410C46069FC3F5887CCCEBBB
:100DD0000C1CDFF8548108EBCC1CC2F5F0780CEB4E
:100DE000880100260EE0002501E080C16D1CA2EB09
:100DF000000CAC45F9D8A2EB000CCCF5F07C01EB73
:100E00008C01761CA3EB040CB445ECD8BDE8F08152
:100E100070B5454BB0F5F07F02DAB1F5887F00DBA5
:100E200070BDC0F5F0756D1EC1F58876761EC6EBF7
:100E3000061605EB461403EB84031A6000BFEFE7C8
:100E40002DE9F04F04460D4691469A46DDF824B050
:100E50004C4503DD0FFA89F7A146BCB2554503DDC9
:100E60000FFA8AF7AA46BDB2A9EB04000FFA80F880
:100E7000AAEB050006B2B8F1000F0BD100BF5A462D
:100E800029462046FFF7C4FF681C85B2AA45F6DA5A
:100E9000BDE8F08F56B900BF5A4629462046FFF7F5
:100EA000B7FF601C84B2A145F6DAF1E7B04521DD59
:100EB000C8EB460007B215E05A4629462046FFF720
:100EC000A7FF601C84B2002F08DD681C85B270008B
:100ED000022101FB1800384407B203E0022000FBA6
:100EE000067007B24C45E7D15A4629462046FFF71F
:100EF0008FFF3AE0C6EB480007B22FE05A4629467A
:100F00002046FFF785FF681C85B2002F22DD601C9C
:100F100084B27000022101FB1800384407B21DE0C2
:100F20000080082000820820000001A000C00240CC
:100F300070C2024018C102400080092000C00F406A
:100F4000008C0820A80000109C997400FFFF00FC92
:100F50000000DF01022000FB067007B25545CDD12D
:100F60005A4629462046FFF753FF00BF90E72DE978
:100F7000FF5F06460F4690469946DDF838B0414679
:100F80006846FFF7B9F800241DE01DF804A000250D
:100F900016E0C5F107004AFA00F000F0010038B190
:100FA0003A1991B2721990B24A46FFF731FF06E042
:100FB0003A1991B2721990B25A46FFF729FF6D1C87
:100FC000082DE6D3641C102CDFD3BDE8FF9F2DE96C
:100FD000FE4F06460F4690469946DDF830B0414632
:100FE0006846FFF796F800241DE01DF804A00025D0
:100FF00016E0C5F107004AFA00F000F0010038B130
:101000003A1991B2721990B24A46FFF701FF06E011
:101010003A1991B2721990B25A46FFF7F9FE6D1C57
:10102000082DE6D3641C0C2CDFD3BDE8FE8F2DE920
:10103000F84305460E4614469846DDF8209000BF5A
:1010400014F8017B43463A4631462846CDF80090D5
:10105000FFF78DFFB5F5EC7F03DA05F1080085B2E7
:1010600008E0FF2E04DC002506F1100086B201E046
:101070000025002620780028E2D1BDE8F8832DE97C
:10108000FF4F074688469B463C464546BA4646467D
:101090004FF0000915E0A4F1140188B22946029A24
:1010A000FFF7B6FE601C84B2A6F1140081B2504670
:1010B000029AFFF7ADFE701C86B209F101001FFA1B
:1010C00080F9B9F1280FE6DB3C464546BA4646466C
:1010D0004FF000092BE0A5F1140291B2A4F1140223
:1010E00090B25A46FFF794FE05F1140291B2A4F1B2
:1010F000140290B25A46FFF78BFE601C84B2A6F130
:10110000140291B2AAF1140290B25A46FFF780FE7F
:10111000A6F1140291B20AF1140290B25A46FFF7F6
:1011200077FE701C86B209F101001FFA80F9B9F14F
:101130000A0FD0DB3C464546BA4646464FF000090A
:101140002BE0A5F1140291B204F10A0290B25A46C2
:10115000FFF75EFE05F1140291B204F10A0290B2AB
:101160005A46FFF755FE601C84B206F10A0291B29E
:10117000AAF1140290B25A46FFF74AFE06F10A029B
:1011800091B20AF1140290B25A46FFF741FE701C68
:1011900086B209F101001FFA80F9B9F10A0FD0DB1C
:1011A000BDE8FF8F10B50246002112E001EB81106F
:1011B000F74B185C1378984209D1507801EB8113F2
:1011C000F34C23445B78984201D1084610BD481C7B
:1011D00081B27729EAD30020F8E710B50246002152
:1011E00014E001EB0110EB4B13F810001378984258
:1011F0000AD1507801EB0113E64C04EB43035B7812
:10120000984201D1084610BD481C81B2A629E8D3F6
:101210000020F8E72DE9F04F04460F4615469846A2
:10122000A3464FF0000900262DE0099810F806901B
:101230004FF0000A21E009F0800030B1D64839466D
:1012400002682046FFF7E4FD05E0D34839464268CE
:101250002046FFF7DDFD4FEA49604FEA1069601C48
:1012600084B2A4EB0B00A84203D15C46781C87B281
:1012700006E00AF1010000F0FF0ABAF1080FDADB1C
:1012800000BF701C86B205FB08F0C11700EB51715E
:10129000B6EBE10FC9DBBDE8F08F2DE9F04F054655
:1012A000894692469B46A8460026BBF1000F32D1E4
:1012B00000242DE00AEB0A10B64901EB4000801C27
:1012C000065D00271FE006F0800030B1B2484946B5
:1012D00002682846FFF79CFD05E0AF484946426892
:1012E0002846FFF795FD7006060E681C85B2A5EB33
:1012F0000800102805D1454609F101001FFA80F9C0
:1013000003E0781CC7B2082FDDDB00BF601CC4B24D
:10131000202CCFDB31E000242DE00AEB0A109D49A0
:1013200001EB4000801C065D00271FE006F08000F6
:1013300030B19948494642682846FFF769FD05E003
:101340009548494602682846FFF762FD7006060E7A
:10135000681C85B2A5EB0800102805D1454609F1A7
:1013600001001FFA80F903E0781CC7B2082FDDDB0B
:1013700000BF601CC4B2202CCFDBBDE8F08F2DE98C
:10138000F04F0546894692469B46A8460026BBF18B
:10139000000F31D100242CE00AEB8A107C4908446C
:1013A000801C065D00271FE006F0800030B17A48FF
:1013B000494602682846FFF72BFD05E07648494676
:1013C00042682846FFF724FD7006060E681C85B2A9
:1013D000A5EB0800182805D1454609F101001FFAC0
:1013E00080F903E0781CC7B2082FDDDB00BF601C6A
:1013F000C4B23F2CD0DB30E000242CE00AEB8A1092
:1014000063490844801C065D00271FE006F0800049
:1014100030B16148494642682846FFF7F9FC05E0CB
:101420005D48494602682846FFF7F2FC7006060E42
:10143000681C85B2A5EB0800182805D1454609F1BE
:1014400001001FFA80F903E0781CC7B2082FDDDB2A
:1014500000BF601CC4B23F2CD0DBBDE8F08FF0B5FC
:1014600004460D4616461F463B4622463146284650
:10147000FFF785FF1820F0BDF0B504460D4616466F
:101480001F463B46224631462846FFF706FF1220FC
:10149000F0BD2DE9F84306460D4614461F464FF0B1
:1014A0000008C14652E0207800B950E006EB090080
:1014B00086B2207880281ADD06F11800B0F5F07F9A
:1014C00007DD002605F1160085B2B5F5887F00DD41
:1014D00000252046FFF766FE1FFA80F83B462A46A5
:1014E00031464046FFF7BBFF8146A41C2DE0207823
:1014F0000D280AD105F1160085B2B5F5887F00DD0B
:101500000025641C4FF0000920E020780A2804D14F
:101510000026641C4FF0000918E006F10C00B0F53D
:10152000F07F07DD002605F10C0085B2B5F5887F58
:1015300000DD0025184840680090174822782946A9
:1015400003683046FFF713FD641C00BFABE700BF24
:10155000BDE8F8832DE9F8470546884614464FF064
:10156000000A002634E0207800B932E020783028E4
:1015700007DB2078392804DC207830381FFA80F91E
:101580000EE020782E2809D14FF00A0908E000006B
:10159000084101003F5F0100280000104FF00B09D7
:1015A0004FEA4917F81707EB5070C01000EBC00165
:1015B000C1EB80109D490844A919009088B23723D7
:1015C00020224146FFF726FE641C06F1200086B269
:1015D000C9E700BFBDE8F8872DE9F84306460D4688
:1015E00014461F464FF00008C14654E0207800B969
:1015F00052E006EB090086B2207880281ADD06F159
:101600001000B0F5F07F07DD002605F1100085B26F
:10161000B5F5887F00DD00252046FFF7DEFD1FFAC7
:1016200080F83B462A4631464046FFF725FF814673
:10163000A41C2FE020780D280AD105F1100085B2F6
:10164000B5F5887F00DD0025641C4FF0000922E01D
:1016500020780A2804D10026641C4FF000091AE003
:1016600006F10800B0F5F07F07DD002605F108005F
:1016700085B2B5F5887F00DD00256D484068009093
:101680006B482278294603683046FFF770FC641CDB
:101690004FF00A0900BFA9E700BFBDE8F8832DE9B4
:1016A000F84306460D4614461F464FF00008C14653
:1016B00054E0207800B952E006EB090086B22078A9
:1016C00080281ADD06F11000B0F5F07F07DD002656
:1016D00005F1100085B2B5F5887F00DD00252046B4
:1016E000FFF77BFD1FFA80F83B462A46314640460D
:1016F000FFF7C2FE8146A41C2FE020780D280AD1F6
:1017000005F1100085B2B5F5887F00DD0025641C69
:101710004FF0000922E020780A2804D10026641C3A
:101720004FF000091AE006F10800B0F5F07F07DD80
:10173000002605F1080085B2B5F5887F00DD00259B
:101740003B48406800903A48227829460368304672
:10175000FFF73DFC641C4FF0080900BFA9E700BF7C
:10176000BDE8F883F0B504461D46062A00DD0A22CE
:1017700002B90122052900DD0521914200DD114653
:10178000002004E020262B4F3E54461CF0B20C28CB
:10179000F8D310460FE00A26B4FBF6F706FB17460F
:1017A0003036471EDFF88CC00CF807600A26B4FB01
:1017B000F6F4461EF0B20028EDDC89B11346084667
:1017C00005E05E1E1B4FBE5DFE545E1EF3B2061E9C
:1017D000A0F10107F8B2F4D12E26164FFE5402E014
:1017E0002026144FBE54A5B900200EE0114E365CE1
:1017F000302E07D10F4F461CBE5D2E2E02D0202664
:101800003E5400E004E0461CF0B2561E8642EDDC79
:1018100000BF561CF2B2104604E00026054F3E54AD
:10182000461CF0B20C28F8D3F0BD0000E09A01008D
:10183000280000106C41001038B5002474E0F8480E
:10184000A10004EB440303EB041301EB83010090BC
:1018500088B204EB84014C2303EB01118AB240F2FD
:101860000F13E421FFF7ADFAEE4804EB84014C239B
:1018700003EB01118AB204EB84010901491C0090B9
:1018800088B2E3231946FFF7DBFAE64804EB84014C
:101890004C2303EB01118AB204EB840103EB011129
:1018A000009088B240F20F13E321FFF7C9FA00203D
:1018B00004EB84014C2303EB0111491C8AB204EBB5
:1018C000840103EB0111491C009088B240F20F1310
:1018D000E321FFF7B5FA002004EB84014C2303EB6E
:1018E0000111891C8AB204EB840103EB0111891CEC
:1018F000009088B240F20F13E321FFF7A1FA002015
:1019000004EB84014C2303EB0111C91C8AB204EBE4
:10191000840103EB0111C91C009088B240F20F133F
:10192000E321FFF78DFA641C062C88D338BD10B56F
:10193000FFF782FFBA48BC4948606FF07F400860FB
:101940000023BAA2F1215420FFF746FE0023B9A2DA
:10195000F121A420FFF740FE10BD70B50546FFF74A
:101960006BFFAF48B04948606FF07F4008604DBBE7
:10197000002424E0042C10D104EB4401AE4B03EB13
:10198000410204EB8401542303EB01110E3188B2B0
:101990000023F121FFF720FE0FE004EB4401A64BEA
:1019A00003EB410204EB8401542303EB01111D31CD
:1019B00088B20023F121FFF70FFE601CC4B2052C92
:1019C000D8DB51E000244DE0042C11D1611D01EB66
:1019D0004101994B03EB410204EB8401542303EBD7
:1019E00001110E3188B20023F121FFF7F5FD37E038
:1019F0008CB9611D01EB41018F4B03EB410204EBFC
:101A00008401542303EB0111183188B20023F12122
:101A1000FFF7E2FD24E0032C11D1611D01EB410130
:101A2000854B03EB410204EB8401542303EB0111CA
:101A30000A3188B20023F121FFF7CEFD10E0611DCD
:101A400001EB41017C4B03EB410204EB8401542385
:101A500003EB01111D3188B20023F121FFF7BCFD1A
:101A6000601CC4B2052CAFDB70BD10B5FFF7E4FEFF
:101A70006B486D4948606FF07F40086000236FA29B
:101A8000F1215420FFF7A8FD00236DA2F121A4202D
:101A9000FFF7A2FD10BD10B5FFF7CEFE604862490A
:101AA00048606FF07F400860002366A2F121542057
:101AB000FFF792FD10BD10B5FFF7BEFE6FF07F403F
:101AC00059490860564848605F48D0F84C030128DF
:101AD00012D100235DA2F2215320FFF77DFD0023E8
:101AE0005CA2F221A320FFF777FD00235BA2F22185
:101AF000FC20FFF771FD15E05348D0F84C0388B97E
:101B0000002358A2F2215320FFF766FD002358A2BC
:101B1000F221A320FFF760FD002358A2F221FC2050
:101B2000FFF75AFD10BD10B50446FFF785FE002CE7
:101B300035D16FF07F403C490860394848604248E1
:101B4000D0F84C03012812D1002340A2F2215320E7
:101B5000FFF742FD00233FA2F221A320FFF73CFD47
:101B600000233EA2F221FC20FFF736FDDAE03648E2
:101B7000D0F84C030028F9D1002342A2F2215320CF
:101B8000FFF72AFD00233AA2F221A320FFF724FD4C
:101B900000233AA2F221FC20FFF71EFDC2E0012C37
:101BA0003DD16FF07F40204908601D4848602648BD
:101BB000D0F84C03012813D1002335A2F221532081
:101BC000FFF70AFD002335A2F221A320FFF704FD51
:101BD000002335A2F22140F29310FFF7FDFC16E03E
:101BE0001948D0F84C0390B9002331A2F2215320B8
:101BF000FFF7F2FC002331A2F221A320FFF7ECFC57
:101C0000002331A2F22140F29310FFF7E5FC0023FC
:101C10002FA2F22140F2BD10FFF7DEFC82E059E076
:101C20003800310068436900280000106D73656357
:101C30000000000073656300538C0100487A0000C7
:101C40004B487A002A310000600200104D45415394
:101C5000534554004E6F2E4449535000434F554E48
:101C600054200000B2E2C1BFC9E8D6C300000000A2
:101C7000B5B5BAC5CFD4CABE00000000B5B5BCC664
:101C8000CAFD0000B2E2C1BFCFD4CABE000000004E
:101C900046494C4520534554000000005361766589
:101CA00044617461000000004D4F52450000000087
:101CB000CEC4BCFEB9DCC0ED00000000B1A3B4E6A8
:101CC000CAFDBEDD00000000B8FCB6E00000000068
:101CD000322F32006FF07F40FE490860FE484860B6
:101CE000FE48D0F84C0301280CD10023FCA2F221BD
:101CF0005320FFF771FC0023FBA2F221A320FFF782
:101D00006BFC0FE0F548D0F84C0358B90023F8A25B
:101D1000F2215320FFF760FC0023F7A2F221A32059
:101D2000FFF75AFC10BD10B5FFF786FD6FF07F403E
:101D3000E8490860E8484860E848D0F84C030128C2
:101D40000CD10023EEA2E7215420FFF745FC00232D
:101D5000EDA2FB215420FFF73FFC0FE0DF48D0F855
:101D60004C0358B90023EAA2E7215420FFF734FCC2
:101D70000023E9A2FB215420FFF72EFCD748D0F81E
:101D80004C0301280ED10023E5A2F1214FF4A270EB
:101D9000FFF722FC0023E4A2F1214FF4CA70FFF701
:101DA0001BFC11E0CD48D0F84C0368B90023E0A239
:101DB000F1214FF4A270FFF70FFC0023DEA2F12106
:101DC0004FF4CA70FFF708FC10BD10B50446FFF7CA
:101DD00033FD0CB1012C69D16FF07F40BD49086023
:101DE000BD484860BD48D0F84C0301282CD10023E1
:101DF000D3A2F1215420FFF7EFFB0023D2A2E72169
:101E0000A420FFF7E9FB0023D1A2FB21A420FFF7C8
:101E1000E3FB0023D0A2E721F420FFF7DDFB002342
:101E2000CBA2FB21F420FFF7D7FB0023BCA2F121BA
:101E30004FF4A270FFF7D0FB0023BBA2F1214FF4B7
:101E4000CA70FFF7C9FB81E0A448D0F84C03002812
:101E50007CD10023C2A2F1215420FFF7BDFB002357
:101E6000C1A2E721A420FFF7B7FB0023C0A2FB21FA
:101E7000A420FFF7B1FB0023BFA2E721F420FFF766
:101E8000ABFB0023BAA2FB21F420FFF7A5FB002344
:101E9000A7A2F1214FF4A270FFF79EFB0023A6A298
:101EA000F1214FF4CA70FFF797FB4FE06FF07F40CE
:101EB00088490860884848608848D0F84C03012861
:101EC00020D100239EA2F1215420FFF785FB00239F
:101ED0009FA2E721A420FFF77FFB0023A8A2FB21FC
:101EE000A420FFF779FB00238DA2F1214FF4A2700B
:101EF000FFF772FB00238CA2F1214FF4CA70FFF7A9
:101F00006BFB23E07548D0F84C03F8B9002394A28A
:101F1000F1215420FFF760FB002395A2E721A420C4
:101F2000FFF75AFB002398A2FB21A420FFF754FBE4
:101F300000237FA2F1214FF4A270FFF74DFB002395
:101F40007DA2F1214FF4CA70FFF746FB10BD10B51A
:101F50000446FFF771FC002C44D16FF07F405D49CF
:101F600008605D4848605D48D0F84C03012819D1ED
:101F7000002387A2F2215320FFF72EFB002386A225
:101F8000F221A320FFF728FB002385A2F221F320F2
:101F9000FFF722FB002384A2F22140F24310FFF757
:101FA0001BFB83E14D48D0F84C030028F9D10023F6
:101FB000AFF23032F2215320FFF70EFB00237CA258
:101FC000F221A320FFF708FB00237CA2F221F320DB
:101FD000FFF702FB00237CA2F22140F24310FFF73F
:101FE000FBFA63E1012C73D16FF07F40394908603F
:101FF000394848603948D0F84C03012833D10023D0
:1020000074A2E7215420FFF7E7FA002373A2FB2113
:102010005420FFF7E1FA002372A2E721A420FFF782
:10202000DBFA002371A2FB21A420FFF7D5FA0023DD
:1020300070A2F121F420FFF7CFFA00236BA2FB215D
:10204000F420FFF7C9FA0023AFF2A432E7214FF4DE
:10205000CA70FFF7C1FA002368A2FB214FF4CA70CF
:10206000FFF7BAFA22E11D48D0F84C03002898D1B6
:10207000002364A2E7215420FFF7AEFA0023AFF259
:10208000CC32FB215420FFF7A7FA00235FA2E721FF
:10209000A420FFF7A1FA002349A2FB21A420FFF707
:1020A0009BFA00235BA2F121F420FFF795FA0023AD
:1020B00043A2FB21F420FFF78FFA0023AFF2F8329E
:1020C000E7214FF4CA70FFF787FA00234BA2A5E07F
:1020D000AAE0000028000010380031006002001063
:1020E00043414E43454C2000434F4E4649524D001C
:1020F0002020C8A1CFFB20002020C8B7C8CF2000D7
:10210000434C4541000000004C495354000000007E
:10211000C7E5B3FD00000000B1EDB8F1000000001C
:102120004C617374205000004E657874205000009C
:10213000C9CFD2BBD2B30000CFC2D2BBD2B3000052
:1021400044656C526F7700004C494E45000000001A
:1021500041544F55000000004C4F47200000000044
:10216000C9BEB3FDD0D00000CFDFD0D40000000046
:10217000D7D4B6AF00000000B6D4CAFD00000000FE
:10218000434F505900000000B8B4D6C6000000000C
:102190004D45414449535000434F5252454354002A
:1021A0004C4D54534554000053595353455400006B
:1021B000D3C3BBA7D0A3D5FD00000000BCABCFDECE
:1021C000C9E8D6C300000000CFB5CDB3C9E8D6C377
:1021D0000000000046494C45000000004D414E45BE
:1021E00000000000535953200000000053455420C4
:1021F00000000000544F4F4C0000000020322F32EE
:1022000000000000CEC4BCFE00000000CFB5CDB37E
:1022100000000000B9A4BEDF00000000FB214FF465
:10222000CA70FFF7D9F941E06FF07F40FE490860BE
:10223000FE484860FE48D0F84C03012819D100231D
:10224000FCA2F2215320FFF7C7F90023FCA2F221E0
:10225000A320FFF7C1F90023FCA2F221F320FFF72E
:10226000BBF90023FCA2F22140F24310FFF7B4F9BE
:102270001CE0EF48D0F84C03C0B90023F9A2F221CA
:102280005320FFF7A9F90023F9A2F221A320FFF7B9
:10229000A3F90023F9A2F221F320FFF79DF900230F
:1022A000F9A2F22140F24310FFF796F910BD10B5E4
:1022B0006FF07F40DC490860DC484860DC48D0F8BB
:1022C0004C03012806D10023F2A2F2215320FFF78C
:1022D00083F90AE0D648D0F84C0330B90023AFF2B6
:1022E0007C62F2215320FFF777F910BD10B56FF033
:1022F0007F40CD490860CD484860CD48D0F84C03B8
:1023000001281AD10023CBA2F2215320FFF764F950
:102310000023CBA2F221A320FFF75EF90023DFA266
:10232000F2214FF48370FFF757F90023CAA2F2217C
:1023300040F29310FFF750F91DE0BD48D0F84C0370
:10234000C8B90023C7A2F2215320FFF745F90023A3
:10235000C7A2F221A320FFF73FF90023D1A2F22167
:102360004FF48370FFF738F90023C7A2F22140F23F
:102370009310FFF731F910BD08B5CC481623D222CF
:10238000002100900846FEF71CFD08BD08B5C848AE
:10239000CA2340F2DF125C2100900020FEF711FDFD
:1023A00008BD08B5C1481623A022002100900846A8
:1023B000FEF707FDFFF740FAFFF7E8FF08BD10B58D
:1023C000FFF7EFFF6FF07F4097490860B74848601C
:1023D0009748D0F84C03012806D10023B54A0421C0
:1023E0001846FFF7F9F809E09148D0F84C0328B9EE
:1023F0000023B14A04211846FFF7EEF86FF07F4042
:10240000894908604FF050104860002491E0032C87
:102410002CD28748D0F84C03012811D104EB84005A
:10242000A64B03EB400204EB440000EBC4001A236C
:1024300003EB400081B200231846FFF7CDF843E0DC
:102440007B48D0F84C0340BB04EB84009C4B03EB6F
:10245000400204EB440000EBC4001A2303EB4000ED
:1024600081B200231846FFF7B7F82DE07048D0F886
:102470004C03012812D104EB8400904B03EB400283
:10248000E01E00EB400303EBC0001A2303EB400007
:1024900081B20023FA20FFF79FF815E06448D0F8D6
:1024A0004C0388B904EB8400854B03EB4002E01E2B
:1024B00000EB400303EBC0001A2303EB400081B2A2
:1024C0000023FA20FFF788F85948D0F84C03012878
:1024D00015D10023794A3232D2211846FFF77CF811
:1024E0000023764A3C32D2217820FFF775F800238A
:1024F000724A4632D221FA20FFF76EF818E04C48B3
:10250000D0F84C03A0B900236D4A3232D2211846CC
:10251000FFF762F800236A4A3C32D2217820FFF7A5
:102520005BF80023664A4632D221FA20FFF754F8BE
:10253000641C052CFFF46BAFFFF7BDFA10BD08B5A6
:102540005B48BE2340F2DF12A02100900020FEF77E
:1025500038FC08BD08B555481623A022002100907C
:102560000846FEF72EFCFFF767F9FFF7E8FF08BD06
:1025700038B504464FF050102B494860514800EBE5
:1025800084020123C8211420FFF726F84E4800EBEF
:1025900084020123C8214FF48C70FFF71DF84448D2
:1025A000214948604948372328227A210090502049
:1025B000FEF730FE4648372328227A210090782003
:1025C000FEF728FE4348372328227A2100908C20EA
:1025D000FEF720FE38BD10B5FFF7BCFF6FF07F405F
:1025E00011490860314848601148D0F84C0301286F
:1025F00007D100232F4A163204211846FEF7ECFFBC
:102600000AE00B48D0F84C0330B900232A4A1632AE
:1026100004211846FEF7E0FF6FF07F400249086092
:102620004FF05010486057E028000010380031008B
:10263000600200104320436F727265740000000056
:102640005220436F7272657400000000457869740F
:102650005361766500000000436C6520436F727221
:1026600000000000B5E7C8DDD0A3D5FD00000000E4
:10267000B5E7D7E8D0A3D5FD00000000CDCBB3F679
:10268000B1A3B4E600000000C7E5B3FDD0A3D5FDBB
:10269000000000004D6561735365740045786974EE
:1026A00000000000CDCBB3F600000000F3520300A1
:1026B00034346500418901004F8801003D7B0100F1
:1026C0008D7B01006D7E0100C97E010005AD01001A
:1026D00048BF01005BC00100002455E0032C28D254
:1026E000F948D0F84C0301280FD1F84800EBC40298
:1026F00004EB440000EBC4001A2303EB400081B25A
:1027000000231846FEF768FF3DE0EF48D0F84C0381
:1027100020BBEF4800EBC40204EB440000EBC40014
:102720001A2303EB400081B200231846FEF754FF42
:1027300029E0E548D0F84C03012810D1E34800EB2C
:10274000C402E01E00EB400303EBC0001A2303EBBE
:10275000400081B20023FA20FEF73EFF13E0DA4882
:10276000D0F84C0378B9DA4800EBC402E01E00EB65
:10277000400303EBC0001A2303EB400081B20023A7
:10278000FA20FEF729FF641C062CA7D3CE4991F846
:102790008803FFF7EDFE0020FFF7C5F910BD08B56F
:1027A000CC48A02340F2DF12562100900020FEF713
:1027B00008FBC848E32340F2DF12C121009000204B
:1027C000FEF7FFFA08BD08B5C3481623B222002160
:1027D00000900846FEF7F5FAFFF72EF8FFF7DFFF47
:1027E00008BD2DE9F04104460D461646BB4B1B5D66
:1027F00003EB4303BA4FDA19B1B2A8B20023FEF7D4
:10280000EBFEBDE8F08110B5FFF7DDFF6FF07F4014
:10281000B4490860B0484860AB48D0F84C03012880
:1028200006D10023B04A04211846FEF7D5FE09E080
:10283000A548D0F84C0328B90023AC4A0421184617
:10284000FEF7CAFE6FF07F40A64908604FF05010B7
:102850004860002479E0012C27D19B48D0F84C0334
:1028600001280ED1C4EBC401A14BCA1804EB8401AA
:102870001E2303EB411188B200231821FEF7ACFEA2
:1028800062E09148D0F84C0300285DD1C4EBC4014C
:10289000984BCA1804EB84011E2303EB411188B244
:1028A00000231821FEF798FE4EE0022C26D1864820
:1028B000D0F84C0301280ED1C4EBC4018C4BCA18CC
:1028C00004EB8401282303EB411188B20023182173
:1028D000FEF782FE38E07C48D0F84C0308BBC4EB1E
:1028E000C401844BCA1804EB8401282303EB411173
:1028F00088B200231821FEF76FFE25E07248D0F859
:102900004C0301280ED1C4EBC401794BCA1804EB67
:1029100084014FF6FF7303EA411000231821FEF7EC
:102920005BFE11E06848D0F84C0368B9C4EBC40101
:10293000704BCA1804EB84014FF6FF7303EA411091
:1029400000231821FEF748FE641C032C83D35E4845
:10295000D0F8900300EB400101EBC000664942183B
:10296000012318213C20FEF737FE574A92F8EC105D
:102970000023D2F8E8000622FEF7F4FE01235F4AA6
:102980001821FA20FEF728FE4F48D0F8F00000EB9F
:1029900040005B494218012318214FF4A070FEF754
:1029A0001BFE49491822D1F888034FF4A571FFF79F
:1029B00018FF002353A22C211846FEF770FE0023B7
:1029C00051A22C217820FEF76AFE002350A22C2170
:1029D000FA20FEF764FE00234FA22C2140F29D1046
:1029E000FEF75DFE06243FE0A01F012801D907285D
:1029F00002D3A01F082803D936483A49486003E0AB
:102A00004FF0501037494860A01F00EB4001444888
:102A100000EB01104068E0B1A21F02EB4203404A04
:102A200002EB0312117AA21F02EB42033C4A02EBB3
:102A30000312012350680622FEF794FEA01FC0EB8C
:102A400000103A3081B201232C4A7820FEF727FE8D
:102A500009E0A01FC0EB00103A3081B2012331A27F
:102A60007820FEF71CFE641C0F2CBDD319481D49AD
:102A700048601548D0F8D40278B1134A92F8D812B9
:102A80000123D2F8D4020622FEF76CFE01231B4A72
:102A9000C421FA20FEF703FE05E0012321A2C42190
:102AA000FA20FEF7FCFD10247BE0A4F110000128C1
:102AB00001D9072803D3A4F11000082836D9054806
:102AC0000849486036E00000600200104F860100AF
:102AD0001F86010034346500F3520300AA8C010004
:102AE000C28C0100280000106D8901007B88010064
:102AF000488A0100338A0100DC7F01006C4100102C
:102B00008F8C010042494E004C4F57205B465D00C0
:102B1000484947485B465D00434F554E540000000E
:102B2000680300102D2D2D2D2D2D00004FF050107D
:102B3000F7494860A4F1100000EB4001F54800EBB4
:102B40000110C06900B3A4F1100202EB4203F14A84
:102B500002EB031292F82010A4F1100202EB4203E0
:102B6000EC4A02EB03120123D0690622FEF7FAFDBC
:102B7000A4F11000C0EB00103A3081B20123E64A04
:102B8000FA20FEF78CFD0BE0A4F11000C0EB001062
:102B90003A3081B20123AFF27402FA20FEF77FFDD2
:102BA000641C192C81D3DD48D9494860DC48D0F831
:102BB000D40278B1DA4A92F8C0120123D2F8BC02EA
:102BC0000622FEF7CFFD0123D34AC4217820FEF769
:102BD00066FD06E00123AFF2B402C4217820FEF7BF
:102BE0005EFD012419E0022C05D9082C03D2CB4844
:102BF000C749486003E04FF05010C5494860601E67
:102C000000EBC000C74BC218C4EB04102B3081B2DC
:102C100000230820FEF743FD641C0A2CE3D3BF48C1
:102C2000BB494860BE48D0F88803BF4901EB800229
:102C30000023C4211846FEF732FD0023BBA2D42195
:102C40001846FEF72CFD0023BAA2D421F820FEF787
:102C500026FD0020FEF767FF10BD08B5AF48A02392
:102C600040F2DF12AF2100900020FEF7AAF808BD65
:102C700010B5FFF781FBFEF7DFFDFFF7EEFF10BD9C
:102C800010B5FFF7F5FF6FF07F40A1490860AB4832
:102C900048600023AA4A04211846FEF79DFC6FF005
:102CA0007F409B4908604FF0501048609C48D0F826
:102CB0004C03012812D10023A2A21A211846FEF7C4
:102CC0008BFC0023A1A230212820FEF785FC0023E5
:102CD000A1A230218C20FEF77FFC15E09048D0F8AF
:102CE0004C0388B900239EA21A211846FEF774FCF3
:102CF00000239DA230212820FEF76EFC00239DA218
:102D000030218C20FEF768FC00239CA23021F020AB
:102D1000FEF762FC00239BA230214FF4AA70FEF75D
:102D20005BFC002399A230214FF4DC70FEF754FCC9
:102D30000020FEF7F8FE10BD08B578489A2340F24F
:102D4000DF125A2100900020FEF73BF808BD08B5BD
:102D50007A481623A822002100900846FEF731F891
:102D6000FEF76AFDFFF7E8FF08BD10B5002439E063
:102D7000052C19DA032C01D0042C03D167486449CF
:102D8000486003E04FF050106149486004EB440094
:102D900000EBC4001A2202EB4000411C00237CA27D
:102DA0004820FEF719FC1BE0082C01D0092C03D1A8
:102DB0005A485749486003E04FF050105449486062
:102DC000601F00EB400202EBC0001A2202EB400041
:102DD000401C81B200236EA24FF4A170FEF7FCFBF1
:102DE000601CC4B20A2CC3DB10BD10B5FFF7AFFFE7
:102DF0006FF07F4046490860504848604848D0F826
:102E00004C03012807D100234D4A163204211846ED
:102E1000FEF7E2FB09E04248D0F84C0328B9002352
:102E20005C4A04211846FEF7D7FB6FF07F40384913
:102E300008604FF0501048600024C4E03848D0F8D3
:102E40004C03012838D1052C1AD2022C05D9052CA7
:102E500003D232482E49486003E04FF050102C490D
:102E6000486004EB84004C4B03EB4002162304FB48
:102E700003F01A3081B200231846FEF7ADFBA1E043
:102E8000601F022805D9052803D22448204948603C
:102E900003E04FF050101E49486004EB84003E4BA5
:102EA00003EB4002601F162358431A3081B20023FF
:102EB000FA20FEF791FB85E01948D0F84C0328BBB7
:102EC000052C1AD2022C05D9052C03D2134810491F
:102ED000486003E04FF050100D49486004EB840057
:102EE0002E4B03EB4002162304FB03F01A3081B291
:102EF00000231846FEF770FB64E0601F02284FD9DC
:102F000005284DD20548024948604DE05AE00000CE
:102F100028000010680300106C4100103434650074
:102F200060020010EC7A0100C97E01004155583A58
:102F3000000000004F55543A00000000F352030017
:102F4000838901004D657468203A000046726571FE
:102F50005B487A5D000000004C65766C5B565D0056
:102F6000B7BDCABD203A0000C6B5C2CA5B487A5D8B
:102F700000000000B5E7C6BD5B565D0043705B46D0
:102F80005D000000445B205D00000000434D5000E8
:102F90003A000000A7880100E38601007F86010057
:102FA0004FF05010F749486004EB8400F64B03EBF8
:102FB0004002601F162358431A3081B20023FA20C2
:102FC000FEF70AFB641C0A2CFFF438AFFFF7CDFEB6
:102FD0000020FEF7BCFF10BDF8B505464FF05010BD
:102FE000E8494860E948D0F8880300EBC000E849A8
:102FF000421801231A214920FEF7EEFAE348D0F8DF
:10300000900300EB400101EBC000E24942180123AC
:1030100030214920FEF7E0FADC48D0F8940300EBB9
:10302000400101EBC000DC49421801234621492040
:10303000FEF7D2FAD548D0F8C40300EB400101EB0B
:10304000C000D649421800231A2140F24310FEF76F
:10305000C3FACE48D0F8C80300EB400101EBC00032
:10306000CF4942180123302140F24310FEF7B4FA51
:103070002878012800D100E0002006461EB1FF207C
:10308000C049486003E04FF05010BE494860BD4859
:10309000406858234FF4C472442100904FF4A1704B
:1030A000FDF78FFEB948D0F8040100EB400101EBB9
:1030B000C000BC4942180123462140F24310FEF7EC
:1030C0008BFAFEF7B9FB287801282FD16FF07F40EB
:1030D000AC490860B4484860002424E08CB904EB93
:1030E000440101EBC401AF4BCA1804EB8401542323
:1030F00003EB0111143188B20023F121FEF76CFAC1
:1031000010E004EB440101EBC401A64BCA1804EB28
:103110008401542303EB0111193188B20023F121FA
:10312000FEF75AFA641C022CD8D302E00020FEF706
:10313000FAFCF8BDF8B505464FF0501091494860CB
:103140002878012800D100E0002006461EB1FF20AB
:103150008C49486003E04FF050108A494860894824
:10316000406828234FF4E6721821009040F2A31023
:10317000FDF727FE8548D0F8180300EB400101EB6E
:10318000C00088494218012318214FF4D270FEF77D
:1031900023FAFEF751FB287801282FD16FF07F40EA
:1031A0007849086080484860002424E08CB904EB2A
:1031B000440101EBC4017B4BCA1804EB8401542386
:1031C00003EB0111143188B20023F121FEF704FA58
:1031D00010E004EB440101EBC401724BCA1804EB8C
:1031E0008401542303EB0111193188B20023F1212A
:1031F000FEF7F2F9641C022CD8D302E00020FEF79F
:1032000092FCF8BD70B50546012468E1022C05DD8D
:10321000072C03DA65485B49486003E04FF0501023
:1032200058494860601E594991F80D1401EB81011D
:1032300000EB410000EB80015D4800EB81008068FD
:10324000401C40B9332000EB0411002359A2F620A2
:10325000FEF725FA27E0621E4C4B93F80D3403EB82
:10326000830302EB430202EB8203514A02EB830227
:10327000117B621E454B93F80D3403EB830302EB85
:10328000430202EB82034A4A02EB83020123906865
:103290000522FEF767FA332000EB04110023474AAA
:1032A000F620FEF7FCF9601E384991F80D1401EB89
:1032B000810100EB410000EB8001414800EB8100FF
:1032C0008068401C48B9332000EB0411002339A268
:1032D0004FF4AD70FEF7E3F928E0621E2B4B93F834
:1032E0000D3403EB830302EB430202EB8203344A07
:1032F00002EB8302117B621E244B93F80D3403EB27
:10330000830302EB430202EB82032D4A02EB8302AA
:10331000012390680522FEF725FA332000EB041103
:103320000023264A4FF4AD70FEF7B9F9601E174925
:1033300091F80D1401EB810100EB41012148405C43
:10334000FF2809D1332000EB041100231EA24FF403
:10335000DF70FEF7A4F944E0601E0C4991F80D14EB
:1033600001EB810100EB41011648405C48B133207C
:1033700000EB0411002315A24FF4DF70FEF78FF964
:103380002FE025E0280000107F8601006002001079
:10339000957D0100DC7F0100F181010022820100A6
:1033A000AA820100E3820100380031003434650054
:1033B000140800102D2D2D2D000000006C41001070
:1033C0007C180010E42800102D00000050000000C0
:1033D000332000EB04110023FEA24FF4DF70FEF750
:1033E0005EF9022C05DD072C03DAFB48FB49486037
:1033F00003E04FF05010F9494860601EF84991F819
:103400000D1401EB810100EB4101F648405C1E28E0
:1034100009DD332000EB04110023AFF268022620FF
:10342000FEF73DF916E0601EED4B93F80D3403EB0B
:10343000830300EB4303EB48C05C00EB400303EB6A
:10344000C000E94BC218332000EB041100232620F2
:10345000FEF725F9601EE24991F80D1401EB810198
:1034600000EB4101DF48D230405C022809DD332007
:1034700000EB04110023AFF2C4029220FEF70FF913
:1034800017E0601ED64B93F80D3403EB830300EB7B
:103490004303D448D230C05C00EB400303EBC000D0
:1034A000D24BC218332000EB041100239220FEF708
:1034B000F6F8CB4991F80D1401EB810104EB4100C2
:1034C000012303220021FEF74DF9332000EB041104
:1034D0000023C74A0820FEF7E2F8601CC4B20B2C98
:1034E000FFF694AE70BDF8B505462878022802D1E3
:1034F000FEF719FC05E02878022802DDA878FEF71F
:1035000064FC2878012805D1A87818B9FF20B349B0
:10351000486003E04FF05010B0494860AF48406841
:103520002A235E221A2100903620FDF74AFCAC487F
:10353000D0F8400300EBC000AE49421800231A2126
:103540003620FEF749F82878022805D1A87818B95E
:10355000FF20A249486003E04FF050109F494860A7
:103560009E48406842231E22322100900020FDF731
:1035700028FC0023A0A232211846FEF72DF80324D0
:10358000D7E12878A04206D1A878022803D1FF20ED
:103590009249486003E04FF05010904948608F48CE
:1035A00040680090A01E332202EB0010103083B25E
:1035B000A01E02EB001081B24FF49972FA20FDF7C1
:1035C00000FCE01EE97801EB810100EB410000EB1B
:1035D00080018A4800EB81008068401C58B9A01E19
:1035E000332202EB001081B20023AFF23822FA201E
:1035F000FEF755F825E0E21EEB7803EB830302EBC0
:10360000430202EB82037D4A02EB8302117BE21E3E
:10361000EB7803EB830302EB430202EB8203774A6E
:1036200002EB8302012390680522FEF79BF8A01E9F
:10363000332202EB001081B200236D4AFA20FEF71C
:103640002EF82878A04206D1A878032803D1FF20BD
:103650006249486003E04FF05010604948605F489D
:1036600040680090A01E332202EB0010103083B29D
:10367000A01E02EB001081B24FF4C1724FF4A5708E
:10368000FDF79FFBE01EE97801EB810100EB4100B3
:1036900000EB80015A4800EB81008068401C60B953
:1036A000A01E332202EB001081B20023AFF2FC22F5
:1036B0004FF4A570FDF7F3FF26E0E21EEB7803EB75
:1036C000830302EB430202EB82034D4A02EB8302C7
:1036D000117BE21EEB7803EB830302EB430202EB68
:1036E0008203474A02EB8302012390680522FEF71A
:1036F00039F8A01E332202EB001081B200233C4AAD
:103700004FF4A570FDF7CBFF2878A04206D1A8782A
:10371000042803D1FF203149486003E04FF05010E6
:103720002E4948602D4840680090A01E332202EBCD
:103730000010103083B2A01E02EB001081B240F2E4
:10374000DF124FF4D270FDF73CFBE01EE97801EB8D
:10375000810100EB41012B48405CFF280CD1A01EE9
:10376000332202EB001081B20023AFF2B8324FF4E3
:10377000D270FDF794FF0BE0A01E332202EB001085
:1037800081B20023AFF2BC324FF4D270FDF787FF55
:103790002878A04205D1A87818B9FF200F494860C1
:1037A00003E04FF050100D4948600C48406800900D
:1037B000A01E332202EB0010103083B2A01E02EBD9
:1037C000001081B27E222820FDF7FBFAE01EE97886
:1037D0001AE00000460000003434650028000010A4
:1037E000600200106E060010DC7F0100F181010014
:1037F0006C410010957D01004E6F2E0014080010E2
:103800007C180010E428001001EB810100EB41015D
:10381000FE48405C30280BDDA01E332202EB001076
:1038200081B20023AFF274422820FDF738FF16E082
:10383000E01EEB7803EB830300EB4303F348C05C2B
:1038400000EB400303EBC000F14BC218A01E332372
:1038500003EB001081B200232820FDF720FF287819
:10386000A04206D1A878012803D1FF20E949486089
:1038700003E04FF05010E7494860E6484068009088
:10388000A01E332202EB0010103083B2A01E02EB08
:10389000001081B2C4227E20FDF793FAE01EE97881
:1038A00001EB810100EB4101D848D230405C022895
:1038B0000BDDA01E332202EB001081B20023AFF219
:1038C0000C527E20FDF7EBFE17E0E01EEB7803EBD9
:1038D000830300EB4303CD48D230C05C00EB4003D0
:1038E00003EBC000CC4BC218A01E332303EB001027
:1038F00081B200237E20FDF7D2FE4FF05010C54963
:1039000048604860E97801EB810104EB4101881EC1
:10391000012303220021FDF725FFA01E332202EB25
:10392000001081B20023BD4A0820FDF7B8FE601CDC
:10393000C4B20D2CFFF625AEF8BDF8B505464FF024
:103940005010B44948602878012800D100E00020D8
:1039500006461EB1FF20AF49486003E04FF050100B
:10396000AC494860AB4840682A2358221A2100908D
:103970003020FDF726FAAA4890F80C0400EB8000EE
:10398000A849421801231A213020FDF725FE287886
:10399000022801D1012000E0002006461EB1FF20D0
:1039A0009C49486003E04FF050109A49486099489C
:1039B000406840231E22302100900820FDF701FAC4
:1039C0000123AFF2CC1230210820FDF705FEFDF7F0
:1039D00033FF2878012819D16FF07F408D490860A6
:1039E0009148486000240EE004EB84018D4BCA1816
:1039F00004EB8401542303EB011188B20023F1216D
:103A0000FDF7EAFD641C022CEED320E028780228A2
:103A10001AD16FF07F407F490860834848600024D6
:103A20000FE0C4EBC401814BCA18E11C01EB81011A
:103A3000542303EB011188B20023F121FDF7CCFDE3
:103A4000641C022CEDD302E06878FEF76CF8F8BD38
:103A5000F8B505467248D0F8D00301280FD14FF0D1
:103A600050106C4948600123714AD2211E20FDF795
:103A7000B3FD01236E4AD2219620FDF7ADFD2878D3
:103A8000012800D100E0002006461EB1FF20614958
:103A9000486003E04FF050105E4948605D48406860
:103AA0002C23C022182100905720FDF78AF95C488A
:103AB000D0F8880300EBC0005E49421801231A21A8
:103AC0005820FDF789FD2878022801D1012000E067
:103AD000002006461EB1FF204E49486003E04FF02B
:103AE00050104C4948604B4840684223C0222E2168
:103AF00000905720FDF765F94948D0F8900300EB96
:103B0000400101EBC00042494218012330215820F6
:103B1000FDF762FD2878032801D1012000E0002094
:103B200006461EB1FF203B49486003E04FF05010AD
:103B300038494860374840685823C02244210090E3
:103B40005720FDF73EF93648D0F8940300EB4001CA
:103B500001EBC00030494218012346215820FDF7EF
:103B60003BFD2878042801D1012000E00020064612
:103B70001EB1FF202749486003E04FF0501025494F
:103B80004860244840682C234FF4DD7218210090CF
:103B900040F25110FDF715F92148D0F8C40300EBAD
:103BA000400101EBC0002449421800231A214FF4C0
:103BB000A970FDF711FD2878052801D1012000E04A
:103BC000002006461EB1FF201249486003E04FF076
:103BD0005010104948600F48406842234FF4DD728E
:103BE0002E21009040F25110FDF7EBF80C48D0F870
:103BF000C80300EB400101EBC0001049421801234B
:103C000030214FF4A970FDF7E7FC19E06E060010B3
:103C1000DC7F010028000010F18101006C410010E0
:103C200060020010F98201003800310003830100B6
:103C3000EE820100957D010022820100AA8201002E
:103C4000FDF7FAFD287806287ED2DFE800F00306AB
:103C5000F0EFEEEDFDF72FFFC5E16878002874D195
:103C60006FF07F40FA490860FA484860A87890B938
:103C700000240DE0F84901EBC40204EB8401542355
:103C800003EB011188B20023F121FDF7A5FC641CB0
:103C9000052CEFD309E1A878012812D100240DE00A
:103CA000EE4901EBC40204EB8401542303EB011140
:103CB00088B20023F121FDF78FFC641C052CEFD3A3
:103CC000F3E0A878022812D100240DE0E44901EBCA
:103CD000C40204EB8401542303EB011188B20023D6
:103CE000F121FDF779FC641C052CEFD3DDE0A87809
:103CF000032812D100240DE0DA4901EBC40204EBE1
:103D00008401542303EB011188B20023F121FDF754
:103D100063FC641C052CEFD3C7E000240EE0D249FD
:103D200001EBC40204EB8401542303EB01110F31B6
:103D300088B20023F121FDF74FFC641C042CEED364
:103D40000023CA4AF22101E04CE10BE040F293105B
:103D5000FDF742FC0023C6A2F22140F2BD10FDF7A0
:103D60003BFCA2E0687801287ED16FF07F40B84923
:103D70000860B8484860A87890B900240DE0BD49B3
:103D800001EBC40204EB8401542303EB011188B25C
:103D90000023F121FDF720FC641C052CEFD384E007
:103DA000A878012812D100240DE0B34901EBC40228
:103DB00004EB8401542303EB011188B20023F121A9
:103DC000FDF70AFC641C052CEFD36EE0A8780228EE
:103DD00012D100240DE0A94901EBC40204EB8401D7
:103DE000542303EB011188B20023F121FDF7F4FB0A
:103DF000641C052CEFD358E0A878032812D10024C6
:103E00000DE09E4901EBC40204EB8401542303EB53
:103E1000011188B20023F121FDF7DEFB641C052CA3
:103E2000EFD342E0002412E0B1E085E06AE03DE03B
:103E3000934901EBC40204EB8401542303EB011109
:103E4000143188B20023F121FDF7C6FB641C042C59
:103E5000EED30023854AF22140F29310FDF7BCFB1C
:103E60000023824A283200E005E0F22140F2BD1032
:103E7000FDF7B2FB19E06FF07F40754908607548A7
:103E8000486000237F4AF1215420FDF7A5FB002361
:103E9000764AF22140F29310FDF79EFB00237AA2AE
:103EA000F22140F2BD10FDF797FB9CE06FF07F40E0
:103EB0006749086067484860002420E0012C01D071
:103EC000022C0ED1714901EBC40204EB840154238E
:103ED00003EB0111491D88B20023F121FDF77CFBA2
:103EE0000CE06A4901EBC40204EB8401542303EBA8
:103EF000011188B20023F121FDF76EFB641C042C34
:103F0000DCD370E06FF07F40514908605148486051
:103F100000240EE05E4901EBC40204EB840154234B
:103F200003EB0111091D88B20023F121FDF754FBB9
:103F3000641C022CEED356E06FF07F4044490860C9
:103F40004448486000241FE0022C0ED2514901EB86
:103F5000C40204EB8401542303EB0111103188B235
:103F60000023F121FDF738FB0DE04A4901EBC402C3
:103F700004EB8401542303EB0111091D88B20023D3
:103F8000F121FDF729FB641C042CDDD32BE06FF03D
:103F90007F402F4908602F48486000241FE0012C13
:103FA0000ED13D4901EBC40204EB8401542303EB21
:103FB0000111143188B20023F121FDF70DFB0DE052
:103FC000354901EBC40204EB8401542303EB0111D6
:103FD000103188B20023F121FDF7FEFA641C032C96
:103FE000DDD300E000BF00BFF8BDF8B50546287876
:103FF000012800D100E0002006461EB1FF20144930
:10400000486003E04FF05010114948601048406884
:104010002C23C022182100905720FCF7D2FE1F4805
:10402000D0F8880300EBC0001D49421801231A2173
:104030005820FDF7D1FA2878022801D1012000E0AC
:10404000002006461EB1FF20014948602EE029E00D
:104050002800001038003100557C01007D7C0100F3
:10406000A57C0100F57C0100DD7B0100A81C00009F
:10407000312F32001D7D0100457D01006D7D010065
:10408000057C01002D7C0100332F3300C981010024
:10409000128201006F820100CB82010060020010D9
:1040A000957D01004FF05010F9494860F84840688C
:1040B0004223C0222E2100905720FCF782FEF548B3
:1040C000D0F8900300EB400101EBC000F249421828
:1040D000012330215820FDF77FFA2878032801D1E9
:1040E000012000E0002006461EB1FF20E84948609C
:1040F00003E04FF05010E6494860E5484068582317
:10410000C022442100905720FCF75BFEE148D0F824
:10411000940300EB400101EBC000E0494218012389
:1041200046215820FDF758FA2878042801D10120AB
:1041300000E0002006461EB1FF20D549486002E09D
:10414000D748D3494860D24840686E23C0225A21DC
:1041500000905720FCF735FECE48D0F8980300EBCE
:10416000400101EBC000CF49421801235C215820D7
:10417000FDF732FA2878052801D1012000E000205F
:1041800006461EB1FF20C249486002E0C448C0494B
:104190004860BF4840688423C022702100905720A7
:1041A000FCF70FFEBB48D0F89C0300EB400101EB8D
:1041B000C000BD494218002372215820FDF70CFAB7
:1041C0002878062801D1012000E0002006461EB113
:1041D000FF20AF49486003E04FF05010AC49486001
:1041E000AB4840682C234FF4DD721821009040F258
:1041F0005110FCF7E6FDA748D0F84C0301280DD17B
:10420000A448D0F80404C0EBC000A8494218002319
:104210001A214FF4A970FDF7DFF910E09D48D0F89E
:104220004C0360B99B48D0F80404C0EBC000A0491F
:10423000421800231A214FF4A970FDF7CDF9287810
:10424000072801D1012000E0002006461EB1FF2012
:104250008F49486003E04FF050108D4948608C480A
:10426000406842234FF4DD722E21009040F251103D
:10427000FCF7A7FD8748D0F8C40300EB400101EB31
:10428000C0008C494218002330214FF4A970FDF77B
:10429000A3F92878082801D1012000E00020064673
:1042A0001EB1FF207A49486003E04FF05010784972
:1042B00048607748406858234FF4DD7244210090ED
:1042C00040F25110FCF77DFD7248D0F8C80300EBB6
:1042D000400101EBC00078494218012346214FF408
:1042E000A970FDF779F92878092801D1012000E0AB
:1042F000002006461EB1FF206549486002E068487C
:1043000063494860624840686E234FF4DD725A2169
:10431000009040F25110FCF754FD5E48D0F8D003F5
:1043200000EB400101EBC0006449421801235C210D
:104330004FF4A970FDF750F928780A2801D101201F
:1043400000E0002006461EB1FF205149486002E00F
:1043500053484F4948604E48406884234FF4DD720B
:104360007021009040F25110FCF72BFD4948D0F825
:104370000804C0EBC00052494218002372214FF4D8
:10438000A970FDF729F9FDF757FA28780B287DD297
:10439000DFE800F0060A61B3CDF0EEEDECEBEA00E9
:1043A0006878FDF7D4FD09E2687840BB6FF07F4084
:1043B000374908604348486000240EE0424901EB59
:1043C000C40204EB8401542303EB01110E3188B2C3
:1043D0000023F121FDF700F9641C042CEED3002327
:1043E0003A4AF22140F29310FDF7F6F80023AFF2BB
:1043F0008032F22140F2BD10FDF7EEF82AE0687835
:10440000012827D16FF07F40214908602D4848607E
:1044100000240EE02E4901EBC40204EB8401542376
:1044200003EB01110E3188B20023F121FDF7D4F81E
:10443000641C042CEED30023244AF22140F2931092
:10444000FDF7CAF80023214A2832F22140F2BD10BC
:10445000FDF7C2F8B2E16FF07F400D4908601948DE
:104460004860002446E0012C01D0022C34D11949C7
:1044700001EBC40204EB8401542303EB0111091D79
:1044800088B20023F121FDF7A7F832E095E10000A2
:104490002800001060020010DC7F0100F1810100A3
:1044A0003434650095830100078401009F81010079
:1044B000B481010022820100AA820100BF840100B0
:1044C0001B8C010038003100DD7B0100A81C0000BE
:1044D000057C0100C9810100FE4901EBC40204EB27
:1044E0008401542303EB011188B20023F121FDF76D
:1044F00073F8641C042CB6D360E16FF07F40F6497A
:104500000860F648486000240EE0F54901EBC4025B
:1045100004EB8401542303EB0111091D88B200232D
:10452000F121FDF759F8641C022CEED346E16FF03F
:104530007F40E9490860E9484860002411E004EB45
:10454000440101EBC401E74BCA1804EB8401542376
:1045500003EB0111143188B20023F121FDF73CF87F
:10456000641C042CEBD329E10DE1E2E0B6E08AE023
:1045700030E0FFE76FF07F40D7490860D7484860D8
:10458000002424E08CB904EB440101EBC401D64BB8
:10459000CA1804EB8401542303EB01110E3188B2D5
:1045A0000023F121FDF718F810E004EB440101EBC2
:1045B000C401CD4BCA1804EB8401542303EB011151
:1045C000133188B20023F121FDF706F8641C022C98
:1045D000D8D3F3E06FF07F40BF490860BF48486020
:1045E000C248D0F84C03012826D1002421E0022C37
:1045F0000FD1C4EBC401BE4BCA1804EB8401542391
:1046000003EB01110A3188B20023F121FCF7E4FF2A
:104610000EE0C4EBC401B64BCA1804EB840154236A
:1046200003EB0111123188B20023F121FCF7D4FF12
:10463000641C032CDBD325E0002421E0022C0FD1E5
:10464000C4EBC401AB4BCA1804EB8401542303EB45
:1046500001110A3188B20023F121FCF7BDFF0EE001
:10466000C4EBC401A34BCA1804EB8401542303EB2D
:104670000111123188B20023F121FCF7ADFF641C57
:10468000032CDBD39AE06FF07F4093490860934896
:10469000486000241FE0022C0ED2974901EBC402AF
:1046A00004EB8401542303EB0111103188B2002381
:1046B000F121FCF791FF0DE08F4901EBC40204EBFF
:1046C0008401542303EB0111091D88B20023F12159
:1046D000FCF782FF641C042CDDD36FE06FF07F4099
:1046E0007D4908607D48486000241FE0012C0ED100
:1046F000824901EBC40204EB8401542303EB011152
:10470000143188B20023F121FCF766FF0DE07B49EC
:1047100001EBC40204EB8401542303EB01111031BB
:1047200088B20023F121FCF757FF641C032CDDD372
:1047300044E06FF07F4068490860684848600024A2
:104740001EE074B96E4901EBC40204EB84015423EA
:1047500003EB0111193188B20023F121FCF73CFF72
:104760000DE0674901EBC40204EB8401542303EB21
:104770000111143188B20023F121FCF72DFF641CD4
:10478000022CDED31AE06FF07F4053490860534893
:10479000486000240EE05B4901EBC40204EB840195
:1047A000542303EB0111091D88B20023F121FCF70A
:1047B00013FF641C022CEED300E000BF00BFF8BD65
:1047C0002DE9F04104460D46164604EB44034E4FD6
:1047D000DA19B1B2A8B20123FCF761FFBDE8F0819C
:1047E000F8B505464FF050103B4948603F48D0F8B7
:1047F000FC0078B93D493F22D1F888034FF4B971E4
:10480000FFF7DEFF39493F22D1F88803C821FFF7BF
:10481000D7FF0CE000233DA23F214FF4B970FCF715
:104820003EFF002339A23F21C820FCF738FF28783B
:10483000012800D100E0002006461EB1FF202649D5
:10484000486003E04FF05010234948602248406818
:104850002A239922182100904520FCF7B2FA234818
:10486000D0F8880300EBC000294942180123182121
:104870004620FCF7B1FE2878022801D1012000E093
:10488000002006461EB1FF201349486003E04FF0A8
:10489000501011494860154A92F8EC100023D2F8E4
:1048A000E8000522FCF75EFF0B4840682A2340F22F
:1048B000451218210090E220FCF783FA0123154AE3
:1048C0001821E520FCF788FE0848D0F8F00000EB3E
:1048D000400021E0C98101002800001038003100AB
:1048E000128201009583010007840100600200101C
:1048F0009F810100B48101006F820100CB82010021
:104900005F8301009A820100C28C01002500000033
:10491000957D01006C410010F849421801231821CF
:1049200040F22910FCF758FEF5491822D1F8880307
:1049300040F23311FDF755FF2878032801D10120FB
:1049400000E0002006461EB1FF20EE49486003E06B
:104950004FF05010EB494860EA4840682A2340F283
:10496000DD121821009040F28F10FCF72AFAE4487B
:10497000D0F8FC00E44901EB8002012318214FF438
:10498000C870FCF729FE2878042801D1012000E036
:10499000002006461EB1FF20DA49486003E04FF0D0
:1049A0005010D8494860D74840683E2399222C21AE
:1049B00000904520FCF705FAD148D0F8E00000EB64
:1049C0008000D249421800232C214620FCF704FE27
:1049D0002878052801D1012000E0002006461EB1FC
:1049E000FF20C849486003E04FF05010C5494860B7
:1049F000C44840683E234FF49C722C210090E42070
:104A0000FCF7DFF9BE48D0F8040100EB8000BF4995
:104A1000421801232C21E520FCF7DEFD06246DE081
:104A20002878A04203D1FF20B64948600CE0A01FBF
:104A3000022805D9072803D2B548B249486003E0E7
:104A40004FF05010AF494860AE4840680090A01F3A
:104A5000C0EB00105C3083B2A01FC0EB00104C30E4
:104A600081B2E6229420FCF7ACF9A01F00EB4001D4
:104A7000A84800EB01104068A0B3A21F02EB42035C
:104A8000A44A02EB0312117AA21F02EB4203A14ACD
:104A900002EB0312002350680522FCF763FEA01FFF
:104AA000C0EB00104C3081B201239B4AA020FCF7E0
:104AB000F6FD9348D0F8FC00F8B9A01F00EB4003C6
:104AC000944800EB0310C06800EB40008B4BC21809
:104AD000A01FC0EB00104C3081B20123D020FCF7A6
:104AE000DEFD0AE0FFE7A01FC0EB00104C3081B2F2
:104AF00001238A4AA020FCF7D2FD641C0F2C8FD31F
:104B000010247DE02878A04203D1FF207D49486031
:104B10000DE0A4F11000022805D9072803D27C4833
:104B20007849486003E04FF0501076494860754876
:104B300040680090A4F11000C0EB00105C3083B21C
:104B4000A4F11000C0EB00104C3081B24FF4C372DE
:104B50004FF49A70FCF735F9A4F1100000EB400116
:104B60006C4800EB0110C069E0B3A4F1100202EB45
:104B70004203684A02EB031292F82010A4F11002DB
:104B800002EB4203634A02EB03120023D0690522C1
:104B9000FCF7E8FDA4F11000C0EB00104C3081B22E
:104BA00000235D4A4FF4A570FCF779FD5448D0F816
:104BB000FC0020BBA4F1100000EB4003554800EBC3
:104BC0000310406A00EB40004C4BC218A4F11000E7
:104BD000C0EB00104C3081B201234FF4BD70FCF7E4
:104BE0005EFD0CE0FFE7A4F11000C0EB00104C30BC
:104BF00081B20123494A4FF4A570FCF750FD641CB3
:104C0000192CFFF47FAF28780F2803D1FF203D49EE
:104C1000486003E04FF050103A4948603948406816
:104C2000E323E622D32100909420FCF7CAF8344A0B
:104C300092F8C0120023D2F8BC020522FCF792FDC4
:104C40000123354AD321A020FCF729FD2C48D0F8B8
:104C5000C40200EB4000294942180123D321D0208F
:104C6000FCF71DFD2878192803D1FF20254948604D
:104C700003E04FF050102349486022484068E32386
:104C80004FF4C372D32100904FF49A70FCF799F857
:104C90001B4A92F8D8120023D2F8D4020522FCF75E
:104CA00061FD00231C4AD3214FF4A570FCF7F7FCEB
:104CB0001348D0F8DC0200EB4000104942180123F1
:104CC000D3214FF4BD70FCF7EAFCFCF7B5FD287862
:104CD000062875D2DFE800F00307080948756878F0
:104CE000FDF735F9C4E0C3E0C2E06FF07F4005494D
:104CF00008600B484860002433E000008F8C0100FE
:104D00006002001028000010018B01005083010098
:104D100034346500680300106C410010242B00003F
:104D20003800310074B9F34901EB840204EB8401CB
:104D3000542303EB0111143188B20023F121FCF755
:104D40004BFC0DE0EB4901EB840204EB840154239E
:104D500003EB01111E3188B20023F121FCF73CFC6A
:104D6000641C022CDED383E06FF07F40E2490860D0
:104D7000E2484860002420E07CB904EB8401E04B69
:104D8000CA1804EB8401542303EB0111143188B2D7
:104D90000023F121FCF720FC0EE004EB8401D84B4A
:104DA000CA1804EB8401542303EB0111193188B2B2
:104DB0000023F121FCF710FC641C022CDCD357E02B
:104DC0002BE06FF07F40CC490860CC48486000245D
:104DD00020E07CB904EB8401C94BCA1804EB8401C0
:104DE000542303EB0111143188B20023F121FCF7A5
:104DF000F3FB0EE004EB8401C14BCA1804EB840101
:104E0000542303EB0111193188B20023F121FCF77F
:104E1000E3FB641C022CDCD32AE06FF07F40B64930
:104E20000860B6484860B748D0F84C0301280DD157
:104E30000023B5A2F1215D20FCF7CEFB0023B4A234
:104E4000F2214FF4CA70FCF7C7FB10E0AD48D0F870
:104E50004C0360B90023B0A2F1215D20FCF7BCFB3C
:104E60000023AFA2F2214FF4CA70FCF7B5FB00BFDC
:104E700000BFF8BDF8B505462878012800D100E04C
:104E8000002006461EB1FF209B49486003E04FF01A
:104E9000501099494860984840682C23C022182136
:104EA00000905820FBF78DFF9648006800EB8000CB
:104EB0009349421801231A215820FCF78DFB2878CA
:104EC000022801D1012000E0002006461EB1FF208B
:104ED0008949486003E04FF0501087494860864890
:104EE00040684223C0222E2100905820FBF769FF22
:104EF0008448406800EB800081494218012330213A
:104F00005820FCF769FBFCF797FC2878152878D225
:104F1000DFE800F00B0F95BFD8EFEEEDECEBEAE920
:104F2000E8E7E6E5E4E3E2E1E0006878FDF70FF8A2
:104F300073E2687848BB6FF07F406F4908606F4844
:104F4000486000241EE074B9784901EBC40204EB08
:104F50008401542303EB0111133188B20023F121A2
:104F6000FCF73AFB0DE0714901EBC40204EB84014C
:104F7000542303EB0111183188B20023F121FCF70F
:104F80002BFB641C022CDED358E06878012839D151
:104F90006FF07F40584908605848486000241FE07F
:104FA000032C0ED1624901EBC40204EB84015423AB
:104FB00003EB0111133188B20023F121FCF70CFB44
:104FC0000DE05B4901EBC40204EB8401542303EBC5
:104FD00001110E3188B20023F121FCF7FDFA641CA7
:104FE000042CDDD30023534AF22140F29310FCF746
:104FF000F3FA002350A2F22140F2BD10FCF7ECFAC4
:105000001CE009E26FF07F403B4908603B48486084
:1050100000234A4A4FF482715420FCF7DDFA002342
:10502000444AF22140F29310FCF7D6FA0023AFF67F
:10503000A872F22140F2BD10FCF7CEFAEDE16FF05C
:105040007F402D4908602D48486000241EE074B957
:105050003B4901EBC40204EB8401542303EB01112F
:10506000133188B20023F121FCF7B6FA0DE0344980
:1050700001EBC40204EB8401542303EB011118314A
:1050800088B20023F121FCF7A7FA641C022CDED3BE
:10509000C3E16FF07F401849086018484860002459
:1050A0000DE0284901EBC40204EB8401542303EB17
:1050B000011188B20023F121FCF78EFA641C022C46
:1050C000EFD3AAE16FF07F400B4908600B484860BE
:1050D00000244AE09FE19DE19BE17EE164E147E13C
:1050E0002DE113E1F6E0DCE0C2E0A8E08EE074E040
:1050F00057E03DE0018B010028000010380031002E
:10510000508301006002001043656C2052000000D3
:1051100043656C4C69737400C7E5B3FDD0D00000E3
:10512000C7E5B3FDB1EDB8F100000000778A0100DA
:10513000057C0100A81C0000322F33002D7C0100EB
:10514000A78A01001282010004EB440101EBC401B3
:10515000FE4BCA1804EB8401542303EB011188B2FF
:105160000023F121FCF738FA641C042CECD354E141
:105170006FF07F40F6490860F648486000240DE073
:10518000F54901EBC40204EB8401542303EB011144
:1051900088B20023F121FCF71FFA641C022CEFD324
:1051A0003BE16FF07F40EA490860EA48486000242C
:1051B00010E004EB440101EBC401E84BCA1804EB16
:1051C0008401542303EB011188B20023F121FCF781
:1051D00003FA641C022CECD31FE16FF07F40DC4922
:1051E0000860DC48486000240DE0DD4901EBC402A2
:1051F00004EB8401542303EB011188B20023F12155
:10520000FCF7EAF9641C022CEFD306E16FF07F4053
:10521000CF490860CF48486000240DE0D04901EB39
:10522000C40204EB8401542303EB011188B2002370
:10523000F121FCF7D1F9641C022CEFD3EDE06FF003
:105240007F40C3490860C348486000240DE0C54959
:1052500001EBC40204EB8401542303EB011188B277
:105260000023F121FCF7B8F9641C032CEFD3D4E040
:105270006FF07F40B6490860B648486000240DE0F2
:10528000B94901EBC40204EB8401542303EB01117F
:1052900088B20023F121FCF79FF9641C042CEFD3A2
:1052A000BBE06FF07F40AA490860AA48486000242C
:1052B0000DE0AE4901EBC40204EB8401542303EB7F
:1052C000011188B20023F121FCF786F9641C032C3C
:1052D000EFD3A2E06FF07F409D4908609D48486091
:1052E000002410E004EB440101EBC401A04BCA18F8
:1052F00004EB8401542303EB011188B20023F12154
:10530000FCF76AF9641C022CECD386E06FF07F4056
:105310008F4908608F48486000240DE0904901EBF8
:10532000C40204EB8401542303EB011188B200236F
:10533000F121FCF751F9641C022CEFD36DE06FF002
:105340007F40834908608348486000240DE082491B
:1053500001EBC40204EB8401542303EB011188B276
:105360000023F121FCF738F9641C022CEFD354E040
:105370006FF07F407649086076484860002410E06E
:1053800004EB440101EBC4017A4BCA1804EB84011D
:10539000542303EB011188B20023F121FCF71CF91F
:1053A000641C022CECD338E06FF07F406849086041
:1053B0006848486000240DE06B4901EBC40204EB2F
:1053C0008401542303EB011188B20023F121FCF77F
:1053D00003F9641C042CEFD31FE06FF07F405C499D
:1053E00008605C484860002410E004EB440101EBD5
:1053F000C401604BCA1804EB8401542303EB011170
:1054000088B20023F121FCF7E7F8641C042CECD3EC
:1054100003E002E001E000E000BF00BFF8BDF8B526
:1054200005462878012800D100E0002006461EB17C
:10543000FF204749486003E04FF05010444948605E
:10544000434840682C23C0221A2100905E20FBF7BD
:10545000B8FC4948D0F84C03012806D1002347A2E4
:105460001C215F20FCF7B8F809E04348D0F84C0352
:1054700028B9002343A21C215F20FCF7ADF828784F
:10548000022801D1012000E0002006461EB1FF20C5
:105490002F49486003E04FF050102D4948602C48D8
:1054A00040684223C022302100905E20FBF789FC37
:1054B000364890F87D0200EB800035494218012300
:1054C00032215F20FCF788F82878032801D10120D9
:1054D00000E0002006461EB1FF201D49486003E0A1
:1054E0004FF050101A494860194840685823C022AC
:1054F000462100905E20FBF764FC244890F87E0271
:1055000000EB800022494218012348215F20FCF76C
:1055100063F82878042801D1012000E00020064625
:105520001EB1FF200A49486003E04FF050100849BF
:105530004860074840686E23C0225C2100905E20CE
:10554000FBF73FFC0C48D0F84C0323E095830100A7
:1055500028000010380031005F830100078401003B
:105560009A8201005E8401006F820100CB820100FB
:10557000E3820100E5840100600200104272696468
:1055800000000000B5E7C7C5000000006C3D00103A
:1055900050830100FE4901EBC00200235E215F2021
:1055A000FCF71AF82878052801D1012000E0002036
:1055B00006461EB1FF20F749486003E04FF0501047
:1055C000F4494860F34840688423C0227221009067
:1055D0005E20FBF7F6FB0023EFA274215F20FBF7B0
:1055E000FBFF2878062801D1012000E000200646B4
:1055F0001EB1FF20E749486003E04FF05010E54935
:105600004860E44840689A237322882100905E2015
:10561000FBF7D7FBE24901230222C8690021FCF70E
:10562000A1F80023DF4A8A215F20FBF7D5FF4FF066
:105630005010D84948600023DBA28A217320FBF771
:10564000CBFF2878072801D1012000E00020064682
:105650001EB1FF20CF49486003E04FF05010CD4904
:105660004860CC4840689A239122882100907C2091
:10567000FBF7A7FBCA490123022288690021FCF736
:1056800071F80023C74A8A217D20FBF7A5FF4FF060
:105690005010C04948600023C3A28A219120FBF723
:1056A0009BFF2878082801D1012000E00020064651
:1056B0001EB1FF20B749486003E04FF05010B549D4
:1056C0004860B44840689A23B122882100909C2009
:1056D000FBF777FBB24901230222C8680021FCF7DF
:1056E00041F80020AF49887000230A468A219D2096
:1056F000FBF772FF4FF05010A64948600023ABA2A1
:10570000A0211846FBF768FF0023AB4AA0215E20CA
:10571000FBF762FF2878092801D1012000E0002072
:1057200006461EB1FF209B49486003E04FF0501031
:1057300098494860974840682C234FF4DD721A213D
:1057400000904FF4AC70FBF73CFB00239B4A1C21FC
:1057500040F25910FBF740FF28780A2801D10120B8
:1057600000E0002006461EB1FF208A49486003E0A1
:105770004FF05010874948608648406842234FF4F4
:10578000DD72302100904FF4AC70FBF71AFB01235F
:105790008B4A322140F25910FBF71EFF28780B2864
:1057A00001D1012000E0002006461EB1FF2079490A
:1057B000486003E04FF050107649486075484068F3
:1057C00058234FF4DD72462100904FF4AC70FBF784
:1057D000F8FA01237B4A482140F25910FBF7FCFEFE
:1057E00028780C2801D1012000E0002006461EB1D7
:1057F000FF206849486003E04FF050106549486059
:10580000644840686E234FF4DD725C2100904FF4D1
:10581000AC70FBF7D6FA6C486CA1D0F880236148D5
:105820000DF09AF801236AA25E2140F25910FBF7AD
:10583000D3FE28780D2801D1012000E00020064683
:105840001EB1FF205349486003E04FF0501051490A
:1058500048605048406884234FF4DD727221009004
:105860004FF4AC70FBF7ADFA01235B4A742140F2B0
:105870005910FBF7B1FE28780E2801D1012000E075
:10588000002006461EB1FF204249486003E04FF069
:105890005010404948603F4840689A2340F26D12DA
:1058A000882100904FF4AC70FBF78BFA3C49012340
:1058B000022288680021FBF755FF0023394A8A211C
:1058C00040F25910FBF788FE4FF050103149486004
:1058D000002338A28A2140F26D10FBF77DFE287864
:1058E0000F2801D1012000E0002006461EB1FF2054
:1058F0002849486003E04FF0501026494860254889
:1059000040689A2340F28B12882100904FF4BB70BC
:10591000FBF757FA22490123022248680021FBF7CE
:1059200021FF00231F4A8A2140F27710FBF754FE23
:105930004FF050101749486000231EA28A2140F200
:105940008B10FBF749FE2878102801D1012000E0D8
:10595000002006461EB1FF200E49486003E04FF0CC
:1059600050100C4948600B4840689A2340F2AB1233
:10597000882100904FF4CB70FBF723FA08490123EC
:10598000022208680021FBF7EDFE0020054925E012
:105990000B8C010028000010484F4C440000000010
:1059A000784100106C4100102D00000046616374C6
:1059B000204E6F2E3A000000EB3F00104C8C01008F
:1059C0001F8301004983010060020010253264003A
:1059D0004E4F4E45000000005A830100887000239E
:1059E0000A468A2140F29710FBF7F6FDFBF724FFE9
:1059F000287816287DD2DFE800F00B0E2D5783A6FD
:105A0000B4CEF4F2F1F0EFEEEDECEB7C7CEAE9E8F9
:105A1000FCF74DFC30E26FF07F40FE490860FE4825
:105A20004860FE48D0F84C03012807D10023AFF2AC
:105A3000B442F1216620FBF7CFFD0AE0F748D0F829
:105A40004C0330B90023AFF2C442F1216620FBF7CA
:105A5000C3FD11E26FF07F40EE490860EE484860F8
:105A600000241EE05CB904EB440000EBC400EC49E8
:105A700042180023F1216720FBF7AEFD10E004EB94
:105A8000440101EBC401E64BCA1804EB8401542322
:105A900003EB0111183188B20023F121FBF79CFDC3
:105AA000641C022CDED3E7E16FF07F40D949086027
:105AB000D9484860002420E05CB904EB440000EBC6
:105AC000C400D74942180023F1216720FBF784FD69
:105AD00012E004EB440101EBC401D14BCA1804EB02
