:020000040001F9
:10800000E84F0010295102003151020033510200A3
:1080100035510200375102003951020000000000C2
:108020000000000000000000000000003B510200C2
:108030003D510200000000003F5102009784010002
:1080400043510200A3850100D3850100E3850100AF
:10805000F38501007F650200435102004351020095
:1080600015670200435102004351020043510200D0
:1080700043510200435102004351020043510200A8
:1080800043510200294F02004351020043510200B4
:108090004351020043510200435102004351020088
:1080A000FB790200435102000B50020043510200D1
:1080B0004351020043510200435102004351020068
:1080C0004351020043510200435102004351020058
:1080D0004351020043510200218301004351020039
:1080E00043510200DFF80CD010F07CFD004800473F
:1080F00065830100E84F0010834840F20121C0F879
:108100008011C0F88411C0F88811C0F88C11C0F833
:108110009011C0F89411C0F89811C0F89C11C0F8E3
:10812000A011C0F8A411C0F8A811C0F8AC11C0F893
:10813000B011C0F8B411C0F8B811C0F8BC11C0F843
:10814000C011C0F8C411C0F8C811C0F8CC11C0F8F3
:10815000D011C0F8D411C0F8D811C0F8DC11C0F8A3
:10816000E011C0F8E411C0F8E811C0F8EC11C0F853
:10817000F011C0F8F411C0F8F811C0F8FC11C0F803
:108180000012C0F80412C0F80812C0F80C12C0F8AF
:108190001012C0F81412C0F81812C0F81C12C0F85F
:1081A0002012C0F82412C0F82812C0F82C12C0F80F
:1081B0003012C0F83412C0F83812C0F83C12C0F8BF
:1081C0004012C0F84412C0F84812C0F84C12C0F86F
:1081D0005012C0F85412C0F85812C0F85C12C0F81F
:1081E0006412C0F84011C0F84411C0F84811C0F83A
:1081F0005011C0F86011C0F87011C0F87411C0F8C7
:108200007811C0F87C1170472DE9F041DFF8FC804F
:10821000434653F8C40F40F40060186041F61F70E5
:10822000C3F818013A4C012222600026A660FFF72D
:1082300063FF384838490068B0FBF1F5D86B00B1EE
:108240006D084FF47A77B7FBF5F000F11301B1FB3D
:10825000F0F323630F236363A663E263B1FBF0F1E2
:10826000891C2164626400F13E01B1FBF0FCC4F89A
:1082700048C0B1FBF0FCC4F84CC02365B1FBF0F082
:108280006065A265A26240F20330C4F804014FF4B5
:10829000D060C4F800016421002000F02FF940F202
:1082A00083102062C821002000F028F940F203105A
:1082B0002062022060620020401C8028FCD340F233
:1082C000E7104543B5FBF7F080B26062832020627F
:1082D000124800882662D4F8000140F40020C4F857
:1082E00000010121002000F009F90121002000F027
:1082F00005F9D8F8DC0120F01F0040F01100C8F8A3
:10830000DC01BDE8F081000000C0024000C00F4069
:1083100000C009205802001040420F00003003A0A6
:1083200010B50122132100200DF07CF8002818D090
:108330006FF07F40401EFDD16A486B4901220378EF
:108340001BB1002202700F2001E0027002200860C1
:108350004FF4002100200DF085F864494020C1F859
:10836000800110BD00200DF064F9614905464FF40D
:10837000C030002408601D2000F099F862B64FF468
:108380007A70B5FBF0F00026401EB0F1807F0CD271
:1083900020F07F404FF0E025401E68611F216817E4
:1083A00000F090F8AE61072028610122D10400207E
:1083B0000DF01BF80121262000F084F8262000F0A3
:1083C00076F80CF018FD0CF08AFC0EF030F84548F9
:1083D000067004200EF049F90CF0DAFD0EF0BEFB39
:1083E0000CF0B7FD0CF0A5FB0CF005FD0CF04CFCFF
:1083F000FFF70AFF002000F0CFF93E480021406956
:1084000000F0F3F9012000F0C7F900200CF0CFFCD8
:10841000C82000F037FFC82000F034FF324D0F2095
:108420004FF0501628600CF051FDFF2803D0641C5B
:10843000022C02D004E0002402E0304600F0A6FA4C
:1084400029680B2924D00DDC022912D0052916D069
:108450000629E8D1304600F099FA0CF039FB09F012
:1084600043FBE0E70C2910D00F29DCD10BF0D7FF3C
:10847000D9E7002000F08AFA08F0F0FED3E7304692
:1084800000F084FA09F007FECDE70BF01CF8CAE70C
:108490000BF0DDFCC7E718480168491C0160704714
:1084A00015490A680B689B1A8342FBD3704700F09A
:1084B0001F02012191404009800000F1E020C0F836
:1084C00000117047C906090E002806DA00F00F00F7
:1084D00000F1E02080F8141D704700F1E02080F8E2
:1084E00000147047440200104802001004E000E04D
:1084F00008ED00E02400001000000010F0B59E4AD6
:1085000000230224FF2612684FF47A7504274FF0E7
:10851000010CA8B1012824D0022832D003280ED1A2
:1085200096484460C360B2FBF5F2521E4A43826132
:1085300006604761C0F804C04168C907FCD1F0BDBE
:108540004FF040204460C360B2FBF5F2521E4A4334
:10855000826106604761C0F804C04168C907FCD168
:10856000F0BD87484460C360B2FBF5F2521E4A4337
:10857000826106604761C0F804C04168C907FCD148
:10858000F0BD80484460C360B2FBF5F2521E4A431E
:10859000826106604761C0F804C04168C907FCD128
:1085A000F0BD4FF0402101200860774801880A297A
:1085B00003D0491C018008F0B0BF74490A68521CFE
:1085C0000A604168491C41608168491C8160002142
:1085D000F0E76B49012008606B480169491C0161A3
:1085E00070476849012008606748C168491CC1603C
:1085F00070476248016841F03001016062480169DA
:10860000491C01617047012138B1012808D00228B6
:1086100009D0032806D1594803E04FF0402000E07C
:108620005748416070475748FBE7002140B1012897
:1086300009D0544A022801D0032800D15160704764
:108640004FF0402000E04E484160704738B10128AB
:1086500008D002280CD0032809D1484903E04FF084
:10866000402100E04649486840F0020048607047F9
:108670004449F8E74648D0F85C1121F00701C0F8FA
:108680005C11D0F85C1141F00301C0F85C11D0F826
:10869000581121F00701C0F85811D0F8581141F0D5
:1086A0000301C0F858113B4850F8C41F41F40001C1
:1086B000016032484EF65F21C160816A41F01B01C2
:1086C00081620021816001214160704770B5002303
:1086D0002D4C304A47F22F56032538B1012816D0C9
:1086E000022825D003282ED0002070BD636052F8E8
:1086F000C40F40F0020010604FF04020426842F08A
:1087000002024260C66081614561012025E023616B
:1087100052F8C40F40F0040010601948426842F05B
:1087200002024260C660C16118214161022014E06A
:10873000E36052F8C40F40F480001060114881617A
:108740004561032009E0236152F8C40F40F40000A2
:1087500010600A4881614561042000F002F80120A0
:1087600070BD00F01F02012191404009800000F11E
:10877000E020C0F8001170475C0200100040094082
:1087800000800040000009400400001004020010B6
:1087900000C0024000C00F40FA4908B500288869AF
:1087A00042F210720CD040F001008861009288699A
:1087B00040F4006088610098401E0090F7D108BD29
:1087C00020F40060886110460092401E0090FCD1A9
:1087D000886920F00100886108BDEB49002208C8C3
:1087E000521C08C1802AFAD3704770B5E84BE74C99
:1087F0004FF0270208001A615A61C3F87022C3F8CB
:108800007422C3F81821C3F81C21C3F82021C3F82F
:1088100024219A61DA61C3F8D020C3F8D420C3F8C8
:10882000D820C3F8DC20C3F8E020C3F8E4201A62A3
:108830005A62C3F83021C3F83421C3F8E820C3F8E2
:10884000EC20C3F8F020C3F8F420C3F80821C3F8E3
:108850001421C3F80C21C3F81021C3F80021CD4A1C
:10886000116C41F002011164916D41F00A019165B2
:10887000C94B53F8C41F41F001011960C7490A6888
:1088800022F001020A60BF4A4FF00005956191692C
:1088900021F00E019161916941F00A0191619169A4
:1088A00041F020019161916921F08001916191690C
:1088B00021F480719161916921F400719161916954
:1088C00021F480619161916921F400619161B44961
:1088D000B44E0968B1FBF6F1C3F8F410916841F0A9
:1088E00080619160916821F020019160916841F46C
:1088F00000619160916841F480519160916821F428
:1089000000519160916821F4804191609168A64B7B
:1089100001EA030191609168A44B41EA030191606F
:108920001560116841F01C511160116841F48021FB
:108930001160116841F480711160116841F0740197
:1089400011605560516841F000615160516841F417
:1089500000215160516841F480615160516840F2DA
:108960000F1341EA030151601461546101D0FFF714
:1089700034FF00204FF47F01CA1102C4401C904212
:10898000FBD342F21070401EFDD170BD7F49002222
:108990004FF4FF3301C1521C9A42FBD37047F0B52C
:1089A000C3F58874C4EB0414C2F5F075E40104EB5C
:1089B0008504764D121A2C440025C2F5F077591A19
:1089C000059E08E0002001E040C4401C8242FBD824
:1089D00004EB87046D1CA942F4D8F0BD6B4BB0F5D5
:1089E000F07F0DD2B1F5887F0AD2A1F20F11C0F548
:1089F000F070A1EB011100EB4110401E43F8202064
:108A000070472DE9F0439446DDF81C901F460C4654
:108A10000546604501D9AC4695B2BC4201D90F4626
:108A20009CB2ACEB0500391B00B20EB250B1A6B13E
:108A3000B04230DDC0EB46010FB27100404201EBA5
:108A4000400825E04A4621462846FFF7C7FF641C38
:108A5000A4B2A742F6D2BDE8F0834A462146284692
:108A6000FFF7BCFF6D1CADB2AC45F6D2F3E74A464A
:108A700021462846FFF7B2FF6D1CADB2002F04DD82
:108A8000641CA4B208EB070001E007EB460007B244
:108A90006545ECD11DE0C6EB40010FFA81FC710089
:108AA000404201EB400812E04A4621462846FFF7C3
:108AB00095FF641CA4B2BCF1000F04DD6D1CADB2C7
:108AC00008EB0C0001E00CEB46000FFA80FCBC4206
:108AD000EAD14A4621462846BDE8F0437EE72DE923
:108AE000FF5F884607469A4611466846DDF838B06B
:108AF00008F04CFA0025E946002419F805C008EBF7
:108B00000506C4F107002CFA00F0C00707EB0400CB
:108B1000B1B280B201D0524600E05A46FFF75EFF84
:108B2000641C082CEDD36D1C102DE5D3BDE8FF9F10
:108B30002DE9FE4F884607469A4611466846DDF8FD
:108B400030B008F02BFA0025E946002419F805C0DA
:108B500008EB0506C4F107002CFA00F0C00707EB8C
:108B60000400B1B280B201D0524600E05A46FFF78D
:108B700035FF641C082CEDD36D1C0C2DE5D3BDE82E
:108B8000FE8F00000080082000820820000001A065
:108B900000C002400080092000C00F40008C082067
:108BA0005C020010B0475D00FFFF00FC0000DF0129
:108BB0002DE9F8439946089F16460D4604464FF4A2
:108BC000EC7816F8012B4B46294620460097FFF714
:108BD00086FF444502D20834A4B207E0FF2D4FF0CF
:108BE000000402D81035ADB200E00025307800282E
:108BF000E7D1BDE8F8832DE9FF4F81B090468C4660
:108C0000074604460D460026A4F1140080B24246F1
:108C10006146FFF7E3FEA5F11400641C81B2A4B223
:108C200042463846FFF7DAFE6D1C761CB6B2ADB28E
:108C3000282EE9D3ACF114003C46654600260CF121
:108C4000140AA7F1140B07F1140900900098A4F17D
:108C5000140881B21FFA88F0049AFFF7BFFE1FFACA
:108C60008AF11FFA88F0049AFFF7B8FE641CA5F198
:108C70001408A4B21FFA88F11FFA8BF0049AFFF7C8
:108C8000ADFE1FFA88F11FFA89F0049AFFF7A6FEDD
:108C90006D1C761CB6B2ADB20A2ED7D30024ACF14F
:108CA000140A0CF11409A7F1140807F1140507F1CF
:108CB0000A061FFA8AF1B0B2049AFFF78FFE1FFA74
:108CC00089F1B0B2049AFFF789FE7F1C0CF10A0605
:108CD000BFB2B1B21FFA88F0049AFFF77FFEB1B2BB
:108CE000A8B2049AFFF77AFE641C0CF1010CA4B23E
:108CF0001FFA8CFC0A2CDAD305B0BDE8F08F30B532
:108D00000446F84A2378002000EB8011555C9D4210
:108D100004D11144657849788D4204D0401C80B25A
:108D20007728F1D3002030BD30B50446EE4A2378D1
:108D3000002000EB001112F811509D4205D102EB0A
:108D40004101657849788D4204D0401C80B2B12839
:108D5000EFD3002030BD2DE9F04F044684468A460B
:108D6000002702FB03F0C1179146DFF8808300EB78
:108D7000517B21E009980025C65D300602D5D8F860
:108D8000002001E0D8F8042051462046FFF726FED7
:108D9000641C7006A4B2060EA4EB0C01494505D173
:108DA0000AF1010064461FFA80FA03E06D1CEDB27F
:108DB000082DE2D37F1CBFB2B7EBEB0FDADB9CE7E9
:108DC0002DE9F047884604460546C74902EB0210E4
:108DD000DFF818A301EB40094FF0000C43BB09EB8F
:108DE0000C0000268778380602D5DAF8002001E06A
:108DF000DAF8042041462046FFF7F0FD7806641CAF
:108E0000070EA4B2601B10280CD0761CF6B2082EF8
:108E1000E9D30CF1010C0CF0FF0CBCF1200FDED3F8
:108E2000BDE8F08708F101002C461FFA80F8F0E752
:108E300009EB0C0000268778380602D5DAF8042002
:108E400001E0DAF8002041462046FFF7C7FD78062A
:108E5000641C070EA4B2601B10280BD0761CF6B25F
:108E6000082EE9D30CF1010C0CF0FF0CBCF1200F23
:108E7000DED3D5E708F101002C461FFA80F8F1E7B0
:108E80002DE9F047884604460546964902EB8210D4
:108E9000DFF858A200EB01094FF0000C3BBB09EBD7
:108EA0000C0000268778380602D5DAF8002001E0A9
:108EB000DAF8042041462046FFF790FD7806641C4E
:108EC000070EA4B2601B18280BD0761CF6B2082E31
:108ED000E9D30CF1010C0CF0FF0CBCF13F0FDED319
:108EE0009EE708F101002C461FFA80F8F1E709EB34
:108EF0000C0000268778380602D5DAF8042001E055
:108F0000DAF8002041462046FFF768FD7806641C29
:108F1000070EA4B2601B18280BD0761CF6B2082EE0
:108F2000E9D30CF1010C0CF0FF0CBCF13F0FDED3C8
:108F300076E708F101002C461FFA80F8F1E730B51A
:108F400014460D46024621462846FFF799FF182091
:108F500030BD30B514460D46024621462846FFF77F
:108F60002FFF122030BD2DE9F84F9A4615460C46CA
:108F7000064600274FF4F0794FF488782A78002AC3
:108F80003AD0F01986B2802A15D906F11800484562
:108F900005D916340026A4B2444500D90024284639
:108FA000FFF7ADFE80B2534622463146FFF7C7FFBA
:108FB0000746AD1CE2E70D2A15D00A2A1AD006F1A1
:108FC0000C00484505D90C340026A4B2444500D90C
:108FD0000024464841680091036821463046FFF767
:108FE0007EFD6D1CCAE71634A4B2444500D90024A6
:108FF0000027F6E70026FBE7BDE8F88F2DE9F841EA
:109000003B4F1546884606460024287800281CD089
:10901000A0F13001092901D888B202E02E2812D02F
:109020000B2000EBC001C1EB801007EB800000902B
:10903000301980B2372320224146FFF78CFE2034BE
:10904000A4B26D1CE1E70A20EBE7BDE8F8812DE949
:10905000F841284F154688460646002428780028FF
:10906000F3D0A0F13001092901D888B202E02E28FE
:109070000ED00B2007EB80100090301980B2202317
:1090800010224146FFF767FE1034A4B26D1CE5E7DD
:109090000A20EFE7D9E72DE9F84306469946154639
:1090A0000C4600204FF4F0784FF488772A78002A95
:1090B00044D0304486B2802A1ED906F110004045C3
:1090C00005D910340026A4B2BC4200D90024284699
:1090D000FFF72AFE80B24B4622463146FFF739FFA2
:1090E000AD1CE3E76CA10200A3BF02001C0000104E
:1090F000C8FB0200C8F802000D2A16D00A2A1BD0AD
:1091000006F10800404505D908340026A4B2BC4247
:1091100000D900245948416800910368214630462F
:10912000FFF7DDFC0A206D1CC0E71034A4B2BC427E
:1091300000D900240020F6E70026FBE759E52DE9D9
:10914000F8430646994615460C4600204FF4F07841
:109150004FF488772A78002A3AD0304486B2802AA1
:1091600014D906F11000404505D910340026A4B2E8
:10917000BC4200D900242846FFF7D6FD80B24B46FA
:1091800022463146FFF7E5FEAD1CE3E70D2A16D077
:109190000A2A1BD006F10800404505D908340026EC
:1091A000A4B2BC4200D9002434484168009103684D
:1091B00021463046FFF7BCFC08206D1CCAE710347E
:1091C000A4B2BC4200D900240020F6E70026FBE749
:1091D0000FE5F0B5062A01D90A2201E002B9012201
:1091E000052900D90521914200D91146244D0024BA
:1091F0004FF0200C05F804C0641CE4B20C2CF9D329
:1092000014460A270CE0B0FBF7F607FB1606B0FB86
:10921000F7F005EB040E3036641E0EF8016CE4B274
:10922000002CF0D169B1104605E02C1814F8014C5F
:109230002C54401EC0B2491EC9B2F6D22E21295468
:1092400001E005F802C07BB90020511E0AE02B5C4A
:10925000302B09D12B185B782E2B05D005F800C0D8
:10926000401CC0B28842F2DB521CD0B2002102E0A6
:109270002954401CC0B20C28FAD3F0BD1C000010C9
:10928000B4480010002240F2754306E00021491C5A
:1092900089B29942FBD3521C92B28242F6D37047F4
:1092A000002205E00C21491EC9B2FCD2521C92B228
:1092B0008242F7D3704711B5FF4C81B00120206185
:1092C00001A8206000222146FC480CF07FFA10F033
:1092D000FF0003D0C4F808D09DF800001CBD10B5F5
:1092E00086B00522132101200DF080FB05221221FA
:1092F00001200DF07BFB02220D2100200DF076FBFA
:109300000720009000204021CDE901010390049046
:1093100068460CF02EFAE94C694620460CF0D6F966
:10932000012120460CF02FFA06B010BD10B5002226
:109330000F2102200DF05AFB00224FF400410220C1
:109340000CF02BF801221402214610460CF025F8EF
:10935000214601200CF02FF8BDE81040BFE72DE9B1
:10936000F0410122884607461602314610460CF0AD
:1093700014F8314601200CF026F89020FFF79BFFEF
:109380000020FFF798FF4006040D0020FFF793FF31
:1093900044EAD004D020FFF78EFF0020FFF78BFFB8
:1093A0004006050D0020FFF786FF45EAD005802026
:1093B000FFF781FF0122314610460BF0EEFF3146E8
:1093C00001200BF0F8FFBE48048045803C60C8F8DF
:1093D0000050BDE8F081F0B595B000244821684602
:1093E0000EF08AFF6D4613A912A8FFF7B8FF129876
:1093F00045F8240005EB84011398641C4862E4B22C
:1094000002200BF0EBFF000401D4092CEBD3092C54
:1094100072D1DDE900010844029903270844DDE91F
:1094200003121144059A90FBF7F0114491FBF7F2F7
:10943000DDE906131944089B841A194491FBF7F1DE
:10944000A2EB0105A1EB000C4FF0000600D1344661
:1094500005B93546BCF1000F00D1B446022C04D941
:10946000022D02D9BCF1020F46D8954B1B1DAC4210
:1094700005D2A44501D2084404E0104402E0AC4502
:10948000F9D3501840081880DDE9090108440B9908
:109490000844DDE90C1211440E9A90FBF7F01144D8
:1094A00091FBF7F2DDE90F142144119C214491FB5B
:1094B000F7F1841AA2EB0105A1EB000700D13446B5
:1094C00005B9354607B13E46022C03D9022D01D914
:1094D000022E11D8AC4205D2A64201D2084404E0C3
:1094E000104402E0AE42F9D3501840085880744846
:1094F000001D15B0F0BDFFE70020FAE72DE9F047A9
:109500000C4605460988208916460A1AE3886189AF
:1095100001275B1A5A43A388C01A6388591A00FBB3
:1095200001200FF096F900221346C6E90C010FF056
:10953000EFF901D1002781E029882889E3880A1AF8
:1095400061895B1A5A43AB88C01A6388591A00FBB9
:1095500001200FF07EF9C6E9000121882089AB883F
:109560000A1A29895B1A5A432B88C91AA388181A20
:1095700001FB00200FF06DF9C6E90201A9882389DB
:10958000894603FB01F0A288298902FB110C60883F
:109590000CFB00FC208800FB01F8298803FB1183E9
:1095A000B4F806804A4303FB08C300FB1920618915
:1095B00000FB01300FF04DF9C6E9040169886889A4
:1095C000E3880A1A61895B1A5A43EB88C01A6388D8
:1095D000591A00FB01200FF03CF9C6E90601218869
:1095E0002089EB880A1A69895B1A5A436B88C91A61
:1095F000A388181A01FB00200FF02BF9C6E9080117
:109600002289B5F80680A1886B8902FB08F001FB6E
:10961000130C60886D880CFB00FC20886943434371
:1096200002FB1532E38800FB181002FB03C26189BC
:1096300000FB01200FF00DF9C6E90A013846BDE82C
:10964000F0872DE9F04714460D468146D4E90C0118
:1096500000224FF0010813460FF05AF947D06888EE
:109660000FF008F9D4E902230FF00DF806460F4673
:1096700028880FF0FFF8D4E900230FF004F83246F1
:109680003B460EF059FFD4E904230EF055FFD4E910
:109690000C230FF06AF80FF00EF9A9F800006888A3
:1096A0000FF0E8F8D4E908230EF0EDFF06460F4668
:1096B00028880FF0DFF805E00803001000000340E1
:1096C00040000010D4E906230EF0DDFF32463B4691
:1096D0000EF032FFD4E90A230EF02EFFD4E90C235A
:1096E0000FF043F80FF0E7F8A9F8020001E04FF09F
:1096F00000084046A3E72DE9F84F0024294D2646EF
:109700004FF050176FF07F4841F288394FF47F0ACD
:109710003846FFF73BF9434623A2282178200096DC
:10972000FFF746FA4846FFF7ADFD05EB84005346C8
:10973000418835F82400FF22FFF75DFAFFF74BFE62
:109740000028FBD02049028821F8242001EB840165
:10975000641C4088E4B24880032CD9D31A4A1A49C1
:10976000383A1048FFF7CAFE3846BDE8F84FFFF711
:109770000DB970B54FF47F060C4605463246FFF72B
:109780002DF932462146681CFFF728F93246611C44
:109790002846FFF723F9611C3246681CBDE870407B
:1097A000FFF71CB948000010546F7563682063729E
:1097B0006F73736861697220746F2063616C696292
:1097C0007261746500000000580300102DE9F04F2D
:1097D000C3B0DFF8988600F1290904460D461FFA48
:1097E00089F20B46CDF80080FFF70BF9681E83B2B3
:1097F000209004F12B0082B208902098661E81B25E
:10980000CDF80080B0B2FFF7FCF8A81ECDF80080BC
:1098100083B20F9004F12D0082B214900F9881B2A0
:10982000B0B2FFF7EEF8E81ECDF8008083B21990D1
:1098300004F12E0082B21890199881B22046FFF7E9
:10984000E0F8281F83B2159004F1300082B22A900C
:109850001598CDF8008081B2A01C80B2FFF7D1F836
:10986000681F83B21A9004F1310082B225901A98D1
:1098700004F1230781B2CDF80080B8B2FFF7C1F838
:10988000A81F83B2333681B22B90B2B2CDF80080DC
:10989000B8B2FFF7B6F8E81F83B281B20490B2B253
:1098A000CDF80080B8B2FFF7ACF8A5F1080083B29C
:1098B00081B27F1C1B90B2B2CDF80080B8B2FFF726
:1098C000A0F8A5F1090083B2761C81B23490B2B23F
:1098D000CDF80080B8B2FFF794F8A5F10A00CDF8F2
:1098E000008083B281B204F1250A0A90B2B21FFA55
:1098F0008AF0FFF786F8A5F10B0083B281B21790CA
:10990000B2B2CDF800801FFA8AF0FFF77AF8A5F11D
:109910000C00CDF8008083B281B21E90B2B21FFA63
:109920008AF0FFF76EF8A5F10D0083B2761C81B2C4
:10993000BF1C3890B2B2CDF80080B8B2FFF761F822
:10994000A5F10E0083B281B21C90B2B2CDF80080B6
:109950001FFA8AF0FFF755F8A5F10F0083B281B224
:109960000B90B2B2CDF80080B8B2FFF74AF8A5F17B
:10997000100083B281B20C90B2B2CDF80080B8B2C0
:10998000FFF73FF8A5F11100CDE9008083B2761C06
:1099900081B2B2B2B8B2FFF734F840460090A5F1F8
:1099A000120083B281B27F1C0590B2B2B8B2FFF749
:1099B00028F840460090A5F1130083B281B20690CA
:1099C000B2B2B8B2FFF71DF840460090A5F11400FE
:1099D00083B2761C81B21090B2B2B8B2FFF711F820
:1099E00040460090A5F1150083B281B27F1C029021
:1099F000B2B2B8B2FFF705F84046A5F1160B0090D9
:109A00001FFA8BF3B2B21FFA8BF1B8B2FEF7F9FF6F
:109A100040460090A5F1170083B281B21190B2B216
:109A2000B8B2FEF7EEFF40460090A5F1180083B2F1
:109A300081B21D90B2B2B8B2FEF7E3FF4046A5F185
:109A4000190A00901FFA8AF3B2B21FFA8AF11FFABC
:109A500089F0FEF7D6FF4046A5F11A08761C009063
:109A60001FFA88F3B2B21FFA88F11FFA89F0FEF7E5
:109A7000C8FFFE480090A5F11B0083B281B222907E
:109A8000B2B21FFA89F0FEF7BCFFF8480090A5F1CA
:109A90001C0083B20790701C82B20390079804F1F7
:109AA0002A0981B21FFA89F0FEF7ABFFEF48009058
:109AB0000398A5F11D0782B2BBB2B9B21FFA89F0B3
:109AC000FEF79FFFE9480090781E83B22490039828
:109AD00082B2249881B21FFA89F0FEF792FFE34820
:109AE0000090B81E83B2B61C81B21290B2B21FFAB7
:109AF00089F0FEF786FFDD480090F81E83B281B240
:109B00000D90B2B21FFA89F0FEF77BFFD7480090A4
:109B10000398A5F1210982B208981FFA89F31FFA68
:109B200089F180B2FEF76DFFD0480090781F83B2B4
:109B300081B216900898B2B280B2FEF762FFCB48AD
:109B40000090B81F83B281B2089004F12C001390EA
:109B5000B2B280B2FEF755FFC448009004F13A005B
:109B600082B21F90FE1F1398B3B2B1B280B2FEF75B
:109B700048FFBE480090701E83B209901F9882B2C1
:109B8000099881B2139880B2FEF73BFFB748009066
:109B9000B01E83B20E9004F13B0082B228900E9862
:109BA00081B2139880B2FEF72CFFB0480090F01EEF
:109BB00083B20390289882B2039881B2139880B23E
:109BC000FEF71FFFA9480090301F83B2139028981A
:109BD00082B2139881B2149880B2FEF712FFA348A4
:109BE0000090701F83B22190289882B2219881B290
:109BF000149880B2FEF705FF9C480090B01F83B216
:109C00002C9004F13C0082B229902C9881B21498D7
:109C100080B2FEF7F6FE954800902999F01F8AB2AF
:109C200083B281B2149880B2FEF7EBFE8F480090A9
:109C3000A5F12C0083B22D90299882B22D9881B283
:109C4000189880B2FEF7DDFE88480090A5F12D003F
:109C500083B23090299882B2309881B2189880B23D
:109C6000FEF7CFFE81480090A5F12E0083B231901F
:109C700004F13D0082B22690319881B2189880B2EA
:109C8000FEF7BFFE79480090A5F12F0083B218902F
:109C9000269882B2189881B204F12F00239080B2E6
:109CA000FEF7AFFE71480090A5F1300083B2279017
:109CB000269882B2279881B2239880B2FEF7A1FE3F
:109CC0006A48009004F13E0082B21490A5F131017F
:109CD00023988BB289B280B2FEF793FE634800905E
:109CE000A5F1320083B23390149882B2339881B2D6
:109CF000239880B2FEF785FE5C480090A5F1330002
:109D000083B22F90269882B22F9881B2239880B286
:109D1000FEF777FE55480090A5F1340083B22390FA
:109D2000149882B2239881B22A9880B2FEF769FE15
:109D30004E4800901499A5F135008AB283B281B2E1
:109D40002A9880B2FEF75DFE48480090A5F13600E3
:109D500083B22A90149882B22A9881B2259880B250
:109D6000FEF74FFE41480090A5F1370083B23590D1
:109D700004F13F0082B22E90359881B2259880B2CE
:109D8000FEF73FFE394800902F9883B204F154004B
:109D900082B236902A9881B204F14800329080B2A3
:109DA000FEF7FDFD31480090239883B204F1530083
:109DB00082B22590239881B204F147002A9080B2A4
:109DC000FEF71FFE29480090189883B2259882B2AA
:109DD0002F9881B22A9880B2FEF7E1FD23480090C7
:109DE0002D9883B204F1520082B23790189881B254
:109DF00004F1460080B2FEF7D2FD1C480090139893
:109E000083B204F1510082B2139881B204F144008C
:109E10002F9080B2FEF7F5FD14480090039883B2AE
:109E2000379882B2039881B204F14500379080B22E
:109E3000FEF7E7FD0D4800900E9883B204F1500044
:109E400082B23A900E9881B22F9880B2FEF7D9FD77
:109E500006480090099883B204F14F0082B239900D
:109E6000099881B22F9880B202E00000F3520300FB
:109E7000FEF7C7FDFE4800903A981FFA89F382B2B8
:109E800004F143003A90B1B280B2FEF788FDF84881
:109E9000009004F14E0082B22F903A981FFA89F395
:109EA0001FFA89F180B2FEF7ACFDF14800903998B5
:109EB000BBB282B20D9881B204F142003A9080B2F6
:109EC000FEF76DFDEA48009004F14D0082B2399032
:109ED0003A98BBB2B9B280B2FEF793FDE448009065
:109EE0002F981FFA88F382B2079881B204F14100DB
:109EF0003A9080B2FEF753FDDD48009004F14C002B
:109F000082B22F903A981FFA88F31FFA88F180B234
:109F1000FEF777FDD648009039981FFA8BF382B28E
:109F200004F140001FFA8AF180B2FEF738FDD048F4
:109F300000902F981FFA8BF382B22E981FFA8BF1A4
:109F400080B2FEF75EFDCA480090069883B22F9853
:109F500082B2029881B22E9880B2FEF720FDC448EA
:109F60000090019883B204F14B0082B2069881B24E
:109F70002E9880B2FEF713FDBD480090019883B281
:109F800004F14A0082B22E90019881B2149880B2F6
:109F9000FEF737FDB64800901C9883B22E9882B227
:109FA0000C9881B2149880B2FEF7F9FCB04800908A
:109FB000179883B22E9882B21C9881B2269880B2EC
:109FC000FEF7EDFCAA480090179883B2329882B24F
:109FD000179881B2269880B2FEF713FDA44800902E
:109FE000049883B204F1490082B20A9881B2299898
:109FF00080B2FEF7D4FC9E4800901A9883B2329843
:10A0000082B2049881B2289880B2FEF7C8FC9848C2
:10A010000090199883B22A9882B21A9881B21F9838
:10A0200080B2FEF7BCFC92480090199883B22A983F
:10A0300082B2199881B21F9880B2FEF7E2FC8C4878
:10A0400000902A982B4682B20F9881B21F9880B256
:10A05000FEF7A5FC8648009037982B4682B21F98E1
:10A06000194680B2FEF7CDFC81480090139883B268
:10A0700004F16E0082B22890139881B204F1580066
:10A0800080B2FEF7BEFC7A480090039883B204F1D8
:10A090006F0082B22690039881B204F155001490AB
:10A0A00080B2FEF7AEFC724800900E9883B204F1C5
:10A0B000710082B22E900E9881B2369880B2FEF76F
:10A0C000A0FC6B480090099883B204F1720082B240
:10A0D0001F90099881B2259880B2FEF792FC6448DF
:10A0E00000901498B3B282B22598B1B280B2FEF754
:10A0F00088FC5F48009004F1730082B22F900B3807
:10A100001490B3B2B1B280B2FEF77BFC5848009015
:10A11000089883B2259882B2089881B2259880B2B7
:10A12000FEF76FFC52480090089883B22F9882B2D5
:10A13000089881B2149880B2FEF763FC4C480090F6
:10A14000129883B204F1740082B22590169881B2FD
:10A15000149880B2FEF723FC45480090079883B21C
:10A16000259882B2129881B204F16700299080B2DA
:10A17000FEF715FC3E480090079883B21F9882B204
:10A18000079881B204F16600149080B2FEF739FCA2
:10A1900037480090229883B21F9882B2229881B2E9
:10A1A000299880B2FEF72DFC314800901F981FFAC5
:10A1B00088F382B214981FFA88F180B2FEF721FC6E
:10A1C0002B48009011981FFA8AF183B21F9882B22F
:10A1D00004F16500149080B2FEF7E1FB2448009082
:10A1E000029883B22E9882B2119881B2149880B2EC
:10A1F000FEF7D5FB1E480090059883B22E9882B2D8
:10A20000029881B204F1640080B2FEF7C8FB1848DE
:10A2100000900B9883B204F1700082B232900598DE
:10A2200081B204F16300149080B2FEF7B8FB1048CD
:10A2300000900B9883B2289882B20B9881B2149840
:10A2400080B2FEF7DEFB0A480090179883B226988A
:10A2500082B21C9881B204F16200269080B2FEF7AF
:10A260009EFB03480090179883B204F16D0001E053
:10A27000F352030082B21490179881B2269880B2EC
:10A28000FEF7BFFBFE4800900A9883B2149882B292
:10A290000A9881B204F16100269080B2FEF7B1FB0A
:10A2A000F74800901A9883B2149882B2349881B219
:10A2B000269880B2FEF773FBF14800900F9883B2A6
:10A2C00004F16C0082B214901A9881B204F160001B
:10A2D00080B2FEF764FBEA480090681C83B21498D1
:10A2E00082B20F9881B204F15F0080B2FEF757FB93
:10A2F000E348009004F18A0082B21490A5F138017D
:10A300000B388BB23C9089B280B2FEF77AFBDC4806
:10A310000090239883B204F18B0082B23990359873
:10A3200081B204F17E00349080B2FEF738FBD4484D
:10A330000090339883B2149882B2239881B23498F3
:10A3400080B2FEF72CFBCE480090279883B204F130
:10A35000890082B24190339881B204F17D0033903C
:10A3600080B2FEF71CFBC6480090279883B204F128
:10A37000880082B23590279881B204F17C00239046
:10A3800080B2FEF73EFBBE480090189883B204F1FD
:10A39000870082B22990189881B2239880B2FEF784
:10A3A00030FBB7480090319883B2359882B231982B
:10A3B00081B2239880B2FEF724FBB1480090309818
:10A3C00083B2299882B2309881B2239880B2FEF786
:10A3D00018FBAB4800902C9883B2359882B22D9828
:10A3E00081B204F17B003A9080B2FEF7D8FAA4481B
:10A3F0000090039883B2299882B22C9881B23A983F
:10A4000080B2FEF7CCFA9E480090219883B204F106
:10A41000A40082B22C90219881B204F1990030906E
:10A4200080B2FEF7EEFA96480090139883B204F1DA
:10A43000A30082B22D90139881B204F19700289066
:10A4400080B2FEF7DEFA8E480090039883B204F1E2
:10A45000860082B22A90039881B204F17A001890A3
:10A4600080B2FEF7CEFA86480090039883B204F1DA
:10A47000A10082B22690039881B204F19600369032
:10A4800080B2FEF7BEFA7E4800902A98B3B282B23C
:10A490000E9881B2189880B2FEF781FA7848009041
:10A4A0000E9883B204F1A00082B223900E9881B27C
:10A4B00004F19400429080B2FEF7A3FA7048009035
:10A4C000099883B204F19E0082B2099881B204F126
:10A4D000930080B2FEF795FA694800902A981FFA17
:10A4E00089F382B204F179003190B1B280B2FEF703
:10A4F00056FA6348009004F19D0082B20B38B3B263
:10A50000B1B280B2FEF77DFA5D480090089883B240
:10A5100004F19B0082B23F90089881B204F191004F
:10A520003D9080B2FEF76DFA55480090169883B2C0
:10A5300004F19A0082B22790169881B204F18F003C
:10A540003E9080B2FEF75DFA4D48009004F1840021
:10A5500082B237900C3818901FFA89F31FFA89F1EC
:10A5600080B2FEF74EFA4648009030981FFA89F301
:10A5700082B204F18D0040901FFA89F180B2FEF79B
:10A5800040FA3F4800900D9883B2379882B20D98F8
:10A5900081B2319880B2FEF734FA394800900D98B4
:10A5A00083B2289882B20D9881B204F18C00319068
:10A5B00080B2FEF726FA32480090129883B237989C
:10A5C00082B2129881B2189880B2FEF71AFA2C481B
:10A5D0000090129883B2369882B2129881B2149881
:10A5E00080B2FEF70EFA26480090249883B204F158
:10A5F000830082B23B90249881B2189880B2FEF713
:10A6000000FA1F480090249883B204F1950082B2AA
:10A610001890249881B2419880B2FEF7F2F9184858
:10A6200000903B98BBB282B204F177002490B9B29B
:10A6300080B2FEF7E6F9124800901898BBB282B2D9
:10A640002998B9B280B2FEF7DCF90D48009007985E
:10A6500083B204F1820082B2079881B2249880B25A
:10A66000FEF7CFF906480090079883B2189882B297
:10A67000079881B22A9880B2FEF7C3F9004801E03A
:10A68000F35203000090229883B2189882B2229865
:10A6900081B2249880B2FEF7B4F9FE480090429847
:10A6A0001FFA88F382B204F1760022901FFA88F133
:10A6B00080B2FEF7A6F9F748009018981FFA8AF3BF
:10A6C00082B222981FFA8AF180B2FEF79AF9F14815
:10A6D00000901D9883B2189882B21D9881B222987A
:10A6E00080B2FEF78EF9EB480090119883B218986B
:10A6F00082B2119881B204F17500249080B2FEF705
:10A7000080F9E448009035981FFA8BF382B22298C2
:10A710001FFA8BF180B2FEF774F9DE4800901898AA
:10A720001FFA8BF382B214981FFA8BF180B2FEF7F6
:10A7300068F9D8480090029883B2299882B20298AA
:10A7400081B2249880B2FEF75CF9D248009002985A
:10A7500083B2189882B2029881B2149880B2FEF740
:10A7600050F9CC480090109883B22A9882B2109881
:10A7700081B2249880B2FEF744F9C6480090109840
:10A7800083B2369882B2109881B2149880B2FEF7E4
:10A7900038F9C0480090069883B2379882B206987C
:10A7A00081B2259880B2FEF72CF9BA48009006983D
:10A7B00083B2369882B2069881B2149880B2FEF7BE
:10A7C00020F9B4480090059883B23B9882B205986E
:10A7D00081B2259880B2FEF714F9AE480090059832
:10A7E00083B2289882B2059881B2149880B2FEF79D
:10A7F00008F9A8480090019883B204F1810082B260
:10A80000019881B2259880B2FEF7FBF8A14800902C
:10A81000019883B2289882B2019881B2149880B2CC
:10A82000FEF7EFF89B4800900C9883B204F180008B
:10A8300082B218900C9881B2259880B2FEF7E1F8A8
:10A84000944800900C9883B2289882B20C9881B2F8
:10A85000149880B2FEF7D5F88E4800901E9883B207
:10A86000189882B20B9881B22F9880B2FEF797F8B1
:10A87000884800901E9883B2349882B21E9881B2A4
:10A880002F9880B2FEF7BDF8824800901B9883B2E3
:10A890003C9882B2179881B21F9880B2FEF77FF879
:10A8A0007C4800901B9883B2339882B21B9881B287
:10A8B0001F9880B2FEF7A5F876480090159883B2ED
:10A8C000349882B2049881B22E9880B2FEF767F86D
:10A8D00070480090159883B2339882B2159881B26F
:10A8E000329880B2FEF78DF86A48009033982B4674
:10A8F00082B2199881B2329880B2FEF750F865485A
:10A9000000903A982B4682B23298194680B2FEF7F0
:10A9100078F8604800901E9883B204F1980082B2E3
:10A920000B9881B2399880B2FEF739F859480090F7
:10A930000A9883B2309882B21E9881B2399880B258
:10A94000FEF72DF853480090049883B2309882B2F5
:10A950000A9881B2319880B2FEF721F84D480090F4
:10A96000159883B2279882B2049881B2319880B248
:10A97000FEF715F8474800900F9883B23F9882B2CF
:10A98000159881B2319880B2FEF709F841480090DD
:10A990000F9883B2279882B20F9881B2409880B204
:10A9A000FEF72FF83B480090209883B2279882B298
:10A9B000209881B23E9880B2FEF723F83548009087
:10A9C00027982B4682B23D98194680B2FEF719F8B7
:10A9D00030480090219883B204F1CF0082B21490E5
:10A9E000219881B204F1AD00179080B2FEF709F80A
:10A9F00028480090139883B204F1D10082B21890D5
:10AA0000139881B204F1AB00139080B2FDF7F9FF07
:10AA100020480090039883B2189882B2039881B2BC
:10AA200004F1A90080B2FDF7ECFF1A4800900E98DF
:10AA300083B204F1D20082B203900E9881B204F185
:10AA4000A80080B2FDF7DDFF12480090099883B29C
:10AA500004F1B30082B2099881B204F1A70080B278
:10AA6000FDF7CFFF0B480090099804F1C60583B2AB
:10AA7000039882B2099881B2A8B2FDF7C2FF0548D7
:10AA8000009004F1B20082B21E900C38B3B2B1B2A1
:10AA90001F9001E0F352030080B2FDF7B2FFFE48C1
:10AAA000009004F1D30082B209900C380E90B3B23A
:10AAB000B1B280B2FDF7A5FFF7480090089804F105
:10AAC000B10683B281B21F98B2B280B2FDF799FF8E
:10AAD000F1480090089883B2099882B2089881B230
:10AAE000A8B2FDF78EFFEC4800901698B2B283B280
:10AAF00081B204F1A500089080B2FDF782FFE6481C
:10AB00000090169883B2099882B2169881B2A8B2C2
:10AB1000FDF777FFE048009008981FFA89F3B2B27A
:10AB20001FFA89F180B2FDF76CFFDB4800900398B3
:10AB30001FFA89F382B21FFA89F1A8B2FDF761FF0B
:10AB4000D54800900D98B2B283B281B2089880B215
:10AB5000FDF757FFD04800900D9883B2039882B25A
:10AB60000D9881B2A8B2FDF74CFFCB4800901E981B
:10AB7000BBB282B2129881B22C9880B2FDF70FFF5F
:10AB8000C54800900998BBB282B2129881B2681E83
:10AB9000089080B2FDF703FFBF480090701E82B29C
:10ABA0002C98BBB2B9B280B2FDF72BFFBA48009027
:10ABB0001898BBB282B20898B9B280B2FDF721FFF3
:10ABC000B548009007981FFA88F381B22D98B2B269
:10ABD00080B2FDF7E4FEB048009003981FFA88F3B6
:10ABE00082B2079881B2A81E039080B2FDF7D7FE0B
:10ABF000A94800902D98B61E1FFA88F3B2B21FFA2A
:10AC000088F180B2FDF7FDFEA348009003980A3555
:10AC10001FFA88F3AAB21FFA88F180B2FDF7F1FE9D
:10AC20009D4804F1A20900901FFA8AF3B2B21FFAFC
:10AC30008AF11FFA89F0FDF7E4FE97480090039827
:10AC40001FFA8AF3AAB21FFA8AF180B2FDF7D9FE81
:10AC50009148771E00901FFA8AF3BAB21FFA8AF160
:10AC60001FFA89F0FDF7CDFE8B48009004F1C30078
:10AC700007901FFA8AF3AAB21FFA8AF180B2FDF791
:10AC8000C0FE854800901D98B2B283B281B21FFA0F
:10AC900089F0FDF7B6FE1D987F4D009583B214989C
:10ACA00082B21D9881B2079880B2FDF7AAFE119872
:10ACB000009583B281B2BAB21FFA89F0FDF7A1FE06
:10ACC0001198009583B2149882B2119881B20798B6
:10ACD00080B2FDF796FE26981FFA8BF3BAB21FFAE0
:10ACE0008BF1009580B2FDF78CFE00951498133619
:10ACF00082B21FFA8BF31FFA8BF1B0B2FDF781FE1F
:10AD00000298009583B281B22698BAB280B2FDF75C
:10AD100078FE0298009583B2149882B2029881B2AC
:10AD2000B0B2FDF76EFE1098009583B2179882B20C
:10AD3000109881B2269880B2FDF763FE10982037F4
:10AD400083B281B20095BAB2B0B2FDF75AFE06984E
:10AD5000009583B2179882B2069881B2239880B288
:10AD6000FDF74FFE0698009583B281B2BAB2B0B239
:10AD7000FDF747FE0095059883B2179882B20598B3
:10AD800081B2239880B2FDF73CFE0095059804F14E
:10AD9000C10A83B281B2BAB21FFA8AF0FDF731FE5E
:10ADA0000198009583B281B22398163EB2B280B268
:10ADB000FDF727FE0198009583B281B2BAB21FFA5F
:10ADC0008AF0FDF71EFE0C9804F19F0883B281B251
:10ADD0000095B2B21FFA88F0FDF713FE0C980095AB
:10ADE00083B281B2BAB21FFA8AF0FDF70AFE0B985D
:10ADF000009583B281B22398B2B280B2FDF701FE12
:10AE00000B987F1E83B281B20095BAB21FFA8AF006
:10AE1000FDF7F7FD00950A98B2B283B21C9881B293
:10AE20001FFA88F0FDF7BBFD1C9804F1C00A83B23D
:10AE300081B20095BAB21FFA8AF0FDF7E2FD0095E3
:10AE40000A98BAB283B2389881B21FFA8AF0FDF735
:10AE5000A6FD0498009583B2139882B20A9881B235
:10AE60001FFA88F0FDF79BFD1B98009583B2781EB2
:10AE700082B20A9881B204F1BF0080B2FDF78FFD63
:10AE80001B98009583B2F81E82B21B9881B204F120
:10AE9000BE0080B202E00000F3520300FDF7B1FDF6
:10AEA0000498009583B281B2B2B21FFA88F0FDF720
:10AEB000A8FD04981D3683B281B204F1BC00009550
:10AEC000B2B280B2FDF79DFD2B98009583B281B29E
:10AED000B2B21FFA88F0FDF794FD1A98009583B27C
:10AEE00081B22398C834A2B280B2FDF78AFD1598CA
:10AEF000009583B20E9882B2159881B2269880B2DE
:10AF0000FDF77FFD0095199883B2089882B21998D1
:10AF100081B21FFA89F0FDF774FD00950F9883B296
:10AF2000039882B20F9881B22D9880B2FDF769FD27
:10AF30002098009583B2079882B2209881B22C980D
:10AF400080B2FDF75EFD43B0BDE8F08F2DE9F84F0C
:10AF50000024A2464FF04C0940F20F18FE4F4FF06C
:10AF60004E0BFE48009004EB4401A00001EB0411DD
:10AF700000EB810004EB840509EB051680B2B2B248
:10AF80004346E421FDF70BFD012000EB0510E32310
:10AF9000B2B280B219460097FDF733FDB2B2B0B23B
:10AFA0004346E3210097FDF72CFD4D2000EB0510F3
:10AFB00082B2564680B24346E321CDF800A0FDF7A9
:10AFC00020FD0BEB051082B280B24346E3210096D0
:10AFD000FDF717FD4F2000EB051082B280B243460B
:10AFE000E3210096FDF70DFD641C062CB9D3BDE8E6
:10AFF000F88F10B5FFF7AAFFD948D8490023416060
:10B000006FF07F410160D7A2F1215420FEF743F891
:10B010000023F121BDE81040D4A2A420FEF73BB8E4
:10B0200010B5FFF793FFCE48CC49002341606FF085
:10B030007F410160F121BDE81040CDA25420FEF710
:10B040002AB810B5FFF782FFC548C4490023416004
:10B050006FF07F410160F121BDE81040C5A254208E
:10B06000FEF719B810B5FFF771FFBD48BB490023C3
:10B0700041606FF07F410160F121BDE81040BEA248
:10B080005420FEF708B82DE9F0470446FFF75EFFAD
:10B09000B349B24A6FF07F40C1E90002B74E002CBD
:10B0A00006F118054FF4D1784FF071094FF0000404
:10B0B00003D0AF1D4FF06C0A2DE0474601E0042C91
:10B0C00011D004EB440006EB400204EB840109EBD1
:10B0D00001100023F121FDF7DEFF641CE4B2052C12
:10B0E000EDD3BDE8F0872A463846F2E7042C0ED0AF
:10B0F0008CB1032C14D004EB440006EB400204EBAB
:10B10000840109EB01100023F1211E320EE005F14C
:10B110001E02404601E03A4650460023F12105E078
:10B12000964A4FF4A77030320023F121FDF7B3FFA8
:10B13000641CE4B2052CD9D3D3E710B5FFF706FFA2
:10B1400087488649002341606FF07F4101608CA2EF
:10B15000F1215420FDF79FFF0023F121BDE81040AD
:10B1600088A2A420FDF797BF10B5FFF7EFFE7C483B
:10B170007A49002341606FF07F410160F121BDE811
:10B18000104081A25420FDF786BF10B5FFF7DEFE08
:10B1900073486FF07F410160704941607B4890F8CF
:10B1A0007F0301280FD0002816D1002378A2F221B6
:10B1B0005320FDF770FF002378A2F221BDE8104074
:10B1C000A320FDF768BF002377A2F2215320FDF7EB
:10B1D00062FF002376A2F0E710BD10B50446FFF72A
:10B1E000B5FE5F495D4B694A6FF07F40BCB1C1E974
:10B1F0000003012C3BD092F87F03012866D0002881
:10B200006DD100236CA2F2215320FDF744FF0023EF
:10B210006BA2F221A320BDE81040FDF73CBFC1E9BD
:10B22000000392F87F03012812D0002857D1002391
:10B2300065A2F2215320FDF72EFF002365A2F22123
:10B24000A320FDF728FF002365A2F221FC20E2E7FE
:10B25000002355A2F2215320FDF71DFF002362A217
:10B26000F221A320FDF717FF002361A2EDE792F87A
:10B270007F1340F29314012901D079B120E000231B
:10B280005DA2F2215320FDF706FF00235DA2F2210B
:10B29000A320FDF700FF00235DA20DE000235EA2C6
:10B2A000F2215320FDF7F7FE00235EA2F221A32036
:10B2B000FDF7F1FE00235EA2F2212046FDF7EBFE32
:10B2C00000235DA2F22140F2BD10A4E700235BA29F
:10B2D000F2215320FDF7DFFE00235AA299E710BDAB
:10B2E00010B5FFF733FE1E486FF07F41274C016019
:10B2F0001A49416094F87F03012824D0002829D1FD
:10B30000002352A2E7215420FDF7C5FE002351A2DD
:10B31000FB215420FDF7BFFE94F87F134FF4A27079
:10B320004FF4CA74012916D0002913D100234BA26F
:10B33000F121FDF7B0FE00234AA22046BDE81040EF
:10B34000F121FDF7A8BE002348A2E7215420FDF714
:10B35000A2FE8FE099E090E0684369003800310078
:10B360001C0000106D7365630000000073656300CE
:10B3700056000000410000006D73000060EA02000A
:10B38000487A00004B487A002A31000068400010DB
:10B39000B2E2C1BFC9E8D6C300000000CFB5CDB34B
:10B3A000C9E8D6C3000000004D4541535345540041
:10B3B00053595353455400002020C8A1CFFB20000F
:10B3C0002020C8B7C8CF2000B2E2C1BFCFD4CABEC8
:10B3D00000000000B5B5BAC5CFD4CABE0000000059
:10B3E000B5B5BCC6CAFD00004E6F2E44495350008F
:10B3F000434F554E5420000046494C452053455478
:10B400000000000053617665446174610000000033
:10B410004D4F524500000000CEC4BCFEB9DCC0ED6B
:10B4200000000000B1A3B4E6CAFDBEDD00000000CC
:10B43000B8FCB6E000000000322F320043414E431A
:10B44000454C2000434F4E4649524D00C7E5B3FDE1
:10B4500000000000B1EDB8F100000000C9CFD2BB80
:10B46000D2B30000CFC2D2BBD2B30000434C45419F
:10B47000000000000023F7A24AE70023F7A2F12111
:10B48000FDF709FE0023F7A257E710BD70B5064689
:10B49000FFF75CFDF548F64BF6494FF4A2744FF404
:10B4A000CA756FF07F425EB3012E29D0C0E9002338
:10B4B00091F87F13012965D000297DD10023EEA2E8
:10B4C000F1215420FDF7E7FD0023EDA2E721A420A0
:10B4D000FDF7E1FD0023ECA2FB21A420FDF7DBFD3D
:10B4E0000023AFF28802F1212046FDF7D4FD0023AE
:10B4F000AFF290022846BDE87040F121FDF7CBBDC8
:10B50000C0E9002391F87F1301291ED0002956D1EC
:10B510000023D9A2F1215420FDF7BDFD0023DCA2B8
:10B52000E721A420FDF7B7FD0023D5A2FB21A4202D
:10B53000FDF7B1FD0023D8A2E721F420FDF7ABFD14
:10B540000023FB21CEA2F420C8E70023D4A2F121DE
:10B550005420FDF7A0FD0023D3A2E721A420FDF78E
:10B560009AFD0023D2A2FB21A420FDF794FD002325
:10B57000D1A2E721F420FDF78EFD0023FB21CCA210
:10B58000F4200FE00023C6A2F1215420FDF783FD33
:10B590000023C7A2E721A420FDF77DFD0023C8A258
:10B5A000FB21A420FDF777FD0023ACA2F12120466A
:10B5B000FDF771FD002300E001E0AAA29AE770BD4B
:10B5C00010B50446FFF7C2FCA849A948A94A6FF084
:10B5D0007F43ECB1C1E90030012C38D092F87F03F1
:10B5E00001286FD000286ED10023B7A2F22153208A
:10B5F000FDF751FD0023B7A2F221A320FDF74BFD7B
:10B600000023B7A2F221F320BDE81040FDF743BDAF
:10B61000C1E9003092F87F0301280ED0002852D1F2
:10B620000023AFF25C22F2215320FDF734FD00230A
:10B63000AFF29822F221A320E6E70023ABA2F22189
:10B640005320FDF728FD0023AFF29C22F2E792F889
:10B650007F134FF4CA74012936D000296BD100231F
:10B66000A4A2E7215420FDF716FD0023AFF25422D7
:10B67000FB215420FDF70FFD0023A0A2E721A42009
:10B68000FDF709FD0023AFF2F422FB21A420FDF712
:10B6900002FD00239BA2F121F420FDF7FCFC002316
:10B6A000AFF21032FB21F420FDF7F5FC0023AFF2DE
:10B6B0008022E7212046FDF7EEFC002393A2FB2128
:10B6C0002046A1E728E036E0002392A2E72154209B
:10B6D000FDF7E1FC002391A2FB215420FDF7DBFCE8
:10B6E000002390A2E721A420FDF7D5FC00238FA220
:10B6F000FB21A420FDF7CFFC00238EA2F121F42032
:10B70000FDF7C9FC002389A2FB21F420FDF7C3FC4F
:10B710000023AFF20432CCE7002388A2F2215320A9
:10B72000FDF7B9FC002387A2F221A320FDF7B3FCAB
:10B73000002386A266E710BD4C4810B56FF07F412C
:10B7400001604B4941604B4890F87F03012811D0BC
:10B75000002818D10023AFF29032F2215320FDF7D8
:10B760009AFC0023AFF2D832F221BDE81040A320AA
:10B77000FDF791BC00235DA2F2215320FDF78BFC65
:10B78000002374A2F0E710BD70B538486FF07F4118
:10B790004FF48374016036494160364840F2931596
:10B7A00090F87F1301291BD000292ED100236BA212
:10B7B000F2215320FDF76FFC00236BA2F221A3209E
:10B7C000FDF769FC00236BA2F2212046FDF763FC24
:10B7D00000236AA22846BDE87040F221FDF75BBC59
:10B7E000002369A2F2215320FDF755FC002369A232
:10B7F000F221A320FDF74FFC002369A2F22120468D
:10B80000FDF749FC002368A2E4E770BD08B569486C
:10B81000002100901623D2220846FDF7C0F808BD8B
:10B8200008B565480090CD2340F2DF125C2100206E
:10B83000FDF7B5F808BD08B55E4800210090162355
:10B84000A0220846FDF7ABF8FFF780FBBDE80840F3
:10B85000E6E700004C495354000000004C6173744B
:10B86000205000004E657874205000001C0000102D
:10B870003800310068400010C9BEB3FDD0D00000D0
:10B88000D7D4B6AF00000000B8B4D6C600000000A0
:10B89000CFDFD0D400000000B6D4CAFD0000000005
:10B8A00044656C526F7700004C494E450000000023
:10B8B00041544F55000000004C4F4720000000004D
:10B8C000434F505900000000B5E7D1B9D0A3D5FDD2
:10B8D00000000000BFD8D6C6D0A3D5FD00000000F0
:10B8E000B5E7C1F7D0A3D5FD000000004D454144A8
:10B8F00049535000CEC4BCFE00000000CFB5CDB30C
:10B9000000000000B9A4BEDF0000000020322F328A
:10B910000000000046494C45000000004D414E45E6
:10B9200000000000535953200000000053455420EC
:10B9300000000000544F4F4C00000000564F4C4395
:10B94000616C00004374726C43616C004375724318
:10B95000616C00004D65617353657400B5E7C8DD27
:10B96000D0A3D5FD00000000B5E7D7E8D0A3D5FDF2
:10B9700000000000CDCBB3F600000000C7E5B3FD2A
:10B98000D0A3D5FD000000004320436F72726574A0
:10B99000000000005220436F7272657400000000C6
:10B9A0004578697400000000436C6520436F727233
:10B9B00000000000F3520300343465002DE9F04725
:10B9C000FFF739FFF84CF9486FF07F46F84DC4E9AE
:10B9D000006095F87F03012801D018B109E0002329
:10B9E000F44A02E0F34A0023F23A04210020FDF772
:10B9F00052FB4FF05010C4E90060EF4F00244FF0AD
:10BA00001A0907F150086FF0270601E0032C1AD23B
:10BA100095F87F03012801D028B119E004EB8400D8
:10BA200007EB400203E0C4EB041101EB080204EB56
:10BA3000440000EBC40109EB410081B20023184629
:10BA4000FDF729FB04E095F87F03012807D058B1E2
:10BA5000641C062CDAD3BDE8F047FFF796BB04EB75
:10BA6000840007EB400203E0C4EB041101EB080281
:10BA700004EB440000EBC40006EB400081B200235D
:10BA8000FA20DDE708B5CD480090BE2340F2DF1272
:10BA9000A0210020FCF783FF08BD08B5C3480021A2
:10BAA00000901623A0220846FCF779FFFFF74EFA14
:10BAB000BDE80840E6E738B5BB4D04464FF05010EE
:10BAC0006860BF48012300EB8402C8211420FDF701
:10BAD000E2FABB4801235C3000EB8402C8214FF43A
:10BAE0008C70FDF7D8FAB5486860B64800903723E7
:10BAF00028227A215020FDF72EF9B34800903723F1
:10BB000028227A217820FDF726F9B04800903723C3
:10BB100028227A218C20FDF71EF938BD2DE9F04747
:10BB2000FFF7BBFFA04CA1486FF07F46A04DC4E9D2
:10BB3000006095F87F03012801D018B10AE00023C6
:10BB40009C4A02E09B4A0023F23A0421002016326C
:10BB5000FDF7A1FA4FF05010C4E900609C4F00249B
:10BB60004FF01A09A7F130086FF0270601E0032C07
:10BB700016D295F87F03012801D018B115E007EB24
:10BB8000C40201E008EBC40204EB440000EBC40172
:10BB900009EB410081B200231846FDF77CFA04E06E
:10BBA00095F87F0301280DD078B1641C062CDED3F4
:10BBB000884890F88803FFF77EFFBDE8F047002033
:10BBC000FFF70BBB07EBC40201E008EBC40204EB78
:10BBD000440000EBC40006EB400081B20023FA20D1
:10BBE000DBE738B5754C40F2DF15A0232A46562115
:10BBF00000200094FCF7D3FEE3232A46C121002055
:10BC00000094FCF7CCFE38BD08B5684800210090D0
:10BC10001623B2220846FCF7C2FEFFF797F9BDE8EB
:10BC20000840DEE70B4630B46B491446085C183117
:10BC300000EB40004218A1B298B230BC0023FDF7DF
:10BC40002ABA2DE9F05FFFF7DFFF574C57486FF036
:10BC50007F45C4E90050564E96F87F03012801D075
:10BC600018B10AE00023534A02E0524A0023F23A94
:10BC7000042100202C32FDF70EFA4B48DFF85C91CE
:10BC8000002405604FF05015BE274FF4B478A9F199
:10BC9000150A4FF6FF7B456003E0012C08D0022C0B
:10BCA00015D096F87F0301287BD000287AD01EE0BB
:10BCB00096F87F03012801D0C8B902E009F1070214
:10BCC00001E00AF107023846002318210DE096F83A
:10BCD0007F03012801D050B901E0404A01E03F4A0A
:10BCE000153A4046002318210E32FDF7D4F9641CA2
:10BCF000032CD2D3374F0123D7F89003E83700EB5A
:10BD0000400101EBC0012E48D4300A1818213C2014
:10BD1000FDF7C1F93979002306223868FDF759FA91
:10BD200001232F4A1821FA20FDF7B5F9B8682A49EE
:10BD300000EB40001B394218012318214FF4A0707A
:10BD4000FDF7A9F9D7F8A00218224FF4A571E83F32
:10BD5000FFF768FF002323A22C211846FDF7EFF917
:10BD6000002321A22C217820FDF7E9F9002320A24D
:10BD70002C21FA20FDF7E3F900231FA22C2140F229
:10BD80009D10FDF7DCF9DFF83480074E0624A4F19E
:10BD90000800052802D3A01F08283FD9C6F8048050
:10BDA0003DE02DE031E000001C000010F3520300E4
:10BDB00068400010ACE7020029DD02003434650061
:10BDC00045E002002D1003007022030083230300CE
:10BDD000FEE4020058050010CFEA0200B3E80200BA
:10BDE000B448001042494E004C4F57205B465D005E
:10BDF000484947485B465D00434F554E540000009C
:10BE0000C4EBC40101EB090203E0C4EBC40101EB84
:10BE10000A0204EB84010BEA411055E7756004EB5C
:10BE2000440007EB001151F8140C60B111F8101C1C
:10BE300001230622FDF7CDF9C4EB0410203881B2AE
:10BE40000123F94A05E0C4EB0410203881B2012334
:10BE5000F6A27820FDF773F9641C0F2C97D3C6F86F
:10BE60000480D7F8D4024446B14640B197F8D812BE
:10BE700001230622FDF7ADF90123EB4A01E001237E
:10BE8000EAA2C421FA20FDF75AF9B84610264F4617
:10BE9000A6F11200052802D3801C082801D97C6075
:10BEA00000E07D6006EB460108EB0111A1F5805131
:10BEB000D1F8240E60B191F8281E01230622FDF767
:10BEC00088F9C6EB0610B63881B20123D64A05E0E0
:10BED000C6EB0610B63881B20123D4A2FA20FDF7D2
:10BEE0002EF9761C192ED3D37C60D8F8D402A14643
:10BEF000464650B196F8C01201230622D6F8BC027D
:10BF0000FDF767F90123C84A01E00123C7A2C42154
:10BF10007820FDF714F9C846DFF818930124E01ED5
:10BF2000052802D2C7F8048000E07D6004EBC4015C
:10BF300001EB0902C4EB04102B3081B2002308206E
:10BF4000093AFDF7FCF8641C0A2CE8D3C7F8048012
:10BF5000B949D6F88803002301EB8002C4211846B2
:10BF6000FDF7EDF80023B5A2D4211846FDF7E7F858
:10BF70000023B4A2D421F820FDF7E1F8BDE8F05F7A
:10BF80000020FFF72AB908B5B0480090A02340F27E
:10BF9000DF12AF210020FCF702FD08BD10B5FFF74E
:10BFA00035FCFEF7D3FFBDE81040ECE770B5FFF7B6
:10BFB000F5FFA74CA7486FF07F45C4E90050002368
:10BFC000A54A04211846FDF766F84FF05010C4E961
:10BFD0000050A24890F87F03012801D078B120E0FA
:10BFE00000239FA21A211846FDF755F800239EA2B0
:10BFF00030212820FDF74FF800239EA20DE00023FA
:10C000009EA21A211846FDF746F800239DA2302172
:10C010002820FDF740F800239DA230218C20FDF759
:10C020003AF800239CA23021F020FDF734F80023D9
:10C030009BA230214FF4AA70FDF72DF800239AA29D
:10C0400030214FF4DC70FDF726F8BDE87040002089
:10C05000FFF7C3B808B57D4800909A2340F2DF127D
:10C060005A210020FCF79BFC08BD08B57948002147
:10C0700000901623A8220846FCF791FCFEF766FF05
:10C08000BDE80840E6E72DE9F05FFFF7EEFF704DF1
:10C0900070486FF07F44714FC5E9004097F87F0307
:10C0A000012801D020B10AE06B4A0023423A01E0A6
:10C0B0007E4A0023042100205832FCF7ECFF4FF0A9
:10C0C0005016C5E90046DFF8E8B1604F00244FF094
:10C0D0001A086FF02709ABF1480A604890F87F030F
:10C0E000012801D0C0B142E0032C0AD2E01E022890
:10C0F00001D26F6000E06E6004EB84010BEB410243
:10C1000016E0A01F022801D26F6000E06E6004EB11
:10C1100084010BEB41021FE0032C13D2E01E022826
:10C1200001D26F6000E06E6004EB44010AEB810213
:10C1300004EB440000EBC40108EB410081B2002392
:10C14000184612E0A01F022801D26F6000E06E6066
:10C1500004EB44010AEB810204EB440000EBC40150
:10C1600009EB410081B20023FA20FCF794FF641C24
:10C17000062CB2D3BDE8F05F0020FFF721BA2DE90D
:10C18000F843334E4B4C4FF0501507467560D4F8CA
:10C190008803494900EBC000421801231A214920B5
:10C1A00004F56274FCF777FFA068012300EB4001FF
:10C1B00001EBC00020497831421830214920FCF7BA
:10C1C0006AFFE068012300EB400101EBC0003B493E
:10C1D000421846214920FCF75EFFE06B40F243180D
:10C1E00000EB400101EBC00034490023313142181B
:10C1F0001A214046FCF74FFF206C012300EB400161
:10C2000001EBC0002D49A4F56274AE314218302113
:10C210004046FCF740FF3878012800D0002010B1DC
:10C22000FF2070604EE04BE0B44800102D2D2D2D06
:10C230002D2D0000D8DC0200A1E002004155583A43
:10C24000000000004F55543A0000000034346500EF
:10C250001C000010F3520300EEE7020068400010DB
:10C260004D657468203A0000467265715B487A5DDE
:10C27000000000004C65766C5B565D00B7BDCABD22
:10C28000203A0000C6B5C2CA5B487A5D00000000D3
:10C29000B5E7C6BD5B565D0043705B465D000000C0
:10C2A000445B205D00000000434D5000BAE60200F0
:10C2B00076E50200580500106DDF0200DCE20200A6
:10C2C00028467560009058234FF4C47244214FF4FF
:10C2D000A170FCF764FBD4F8040100EB400101EB12
:10C2E000C000FE4D0123421946214046FCF7D3FE13
:10C2F000FEF72CFE3878012804D0BDE8F843002072
:10C30000FEF76BBF6FF07F403060F5480024682770
:10C3100070606D2613E094B104EB440000EBC400A0
:10C32000421904EB840006EB001080B20023F121D7
:10C33000FCF7B1FE641C022CEDD3BDE8F8832A465D
:10C340003846F3E7F8B5E74C06464FF0501060600A
:10C350003078012800D0002018B3FF2060600090E2
:10C3600028234FF4E672182140F2A310FCF717FBC4
:10C37000DD48DA4D0123D0F8181301EB410000EB42
:10C38000C100421918214FF4D270FCF784FEFEF769
:10C39000DDFD3078012806D0BDE8F8400020FEF72A
:10C3A0001CBF6068DBE76FF07F402060CC486060B6
:10C3B000002468276D2612E08CB104EB440000EBEA
:10C3C000C400421904EB840006EB001080B2002385
:10C3D000F121FCF760FE641C022CEDD3F8BD2A4667
:10C3E0003846F4E72DE9F05F0124DFF80093BD4EF5
:10C3F000DFF8F4824FF4AD7B4FF0501A3325E71E7F
:10C40000042F02D2C6F8049001E0C6F804A098F800
:10C410000D0400EB800004EB400000EB800008EB13
:10C420008001D1F8A805421C3DD091F8AC1501233C
:10C430000522FCF7CEFEAE4A05EB04110023F620E0
:10C44000FCF77DFE98F80D0400EB800004EB400043
:10C4500000EB800008EB800101F58051D1F8100657
:10C46000421C25D091F8141601230522FCF7B1FED9
:10C470009F4A05EB041100235846FCF760FE98F82C
:10C480000D0400EB800004EB4000404400F5005038
:10C4900090F88306FF2810D005EB04114FF000033D
:10C4A00080B194A20FE005EB0411002392A2C6E72D
:10C4B00005EB0411002390A2DEE705EB0411002335
:10C4C0008FA200E08FA24FF4DF70FCF738FE042F3C
:10C4D00002D2C6F8049001E0C6F804A098F80D0452
:10C4E000474600EB800004EB4000384490F80D0410
:10C4F0001E2804D905EB041100237FA208E000EBFD
:10C50000400101EBC0008049421805EB04110023F3
:10C510002620FCF714FE97F80D0400EB800004EBD6
:10C520004000384490F8DF04022804D905EB0411D8
:10C53000002371A209E000EB400101EBC000674954
:10C54000E739421805EB041100239220FCF7F7FDB0
:10C5500097F80D04012300EB800004EB4000032258
:10C560000021FCF736FE05EB04110023604A082089
:10C57000FCF7E5FD641CE4B20B2CFFF440AFBDE812
:10C58000F09F2DE9F84F0446007802280CD002D91C
:10C59000A078FEF77BFF2078524E4FF0FF094FF056
:10C5A0005017012803D004E0FEF79AFEF3E7A078C5
:10C5B000C8B13846776000902A235E221A213620BF
:10C5C000FCF7EDF9DFF8208150490023D8F840034B
:10C5D00000EBC00042181A213620FCF75CFD2078E1
:10C5E000022804D006E04846C6F80490E3E7A078A5
:10C5F000002871D038467760009042231E223221F5
:10C600000020FCF7CCF9002341A232211846FCF7A8
:10C6100042FDC3460325B246B8462078A84202D15F
:10C62000A078022859D0CAF80480DAF804000090F3
:10C63000232000EB0517132000EB05163B464FF4B3
:10C6400099723146FA20FCF7AAF9E07800EB8000F5
:10C6500005EB400000EB80010BEB8101D1F8800578
:10C66000421C7DD091F8841501230522FCF7B1FD11
:10C670001F4A31460023FA20FCF761FD2078A842CA
:10C6800002D1A07803286CD0CAF80480DAF804003C
:10C6900000903B4631464FF4C1724FF4A570FCF751
:10C6A0007EF9E07800EB800005EB400000EB8001B4
:10C6B0000BEB810101F58051D1F8E805421C77D0E0
:10C6C00091F8EC1501230522FCF783FD084A314659
:10C6D00000234FF4A5701DE06BE06EE0C3E30200A1
:10C6E000380031001C00001058050010343465007B
:10C6F000B4480010500000002D2D2D2D000000002A
:10C700002D0000004600000019E102006DDF02006C
:10C710004E6F2E00FCF713FD2078A84202D1A078BE
:10C7200004285BD0CAF80480DAF8040000903B4685
:10C73000314640F2DF124FF4D270FCF730F9E07866
:10C740004FF0000300EB800005EB400101EB0B0014
:10C7500000F50050314690F88106FF2841D001E0F5
:10C760002EE032E0AFF274024FF4D270FCF7E7FC37
:10C770002078A84201D1A07878B3CAF80480DAF80A
:10C78000040000903B4631467E222820FCF707F942
:10C79000E07800EB800005EB400101EB0B0090F826
:10C7A0000B04302823D931460023AFF2B40226E02F
:10C7B0000EE04846C6F804901EE7CAF8049034E735
:10C7C00031460023AFF2D00255E7CAF804905DE786
:10C7D00031460023AFF2E0027BE705E0CAF804909F
:10C7E000A2E7AFF2EC02BFE7CAF80490C7E700EB9C
:10C7F000400101EBC000FE494218314600232820C9
:10C80000FCF79DFC2078A84202D1A07801281AD01C
:10C81000CAF80480DAF8040000903B463146C4228E
:10C820007E20FCF7BCF8E07800EB800005EB4001CF
:10C8300001EB0B0090F8DD04022807D931460023F4
:10C84000AFF24C120AE0CAF80490E3E700EB4001B3
:10C8500001EBC000E7494218314600237E20FCF777
:10C860006EFCCAF80480E078012300EB800005EB41
:10C87000400003220021801EFCF7ABFC3146002360
:10C88000DD4A0820FCF75BFC6D1CEDB20D2DFFF4BA
:10C89000C4AEBDE8F88F2DE9F843D84D4FF05016DF
:10C8A00004466E600078012800D00020FF2700B108
:10C8B0006F60686800902A2358221A213020FCF704
:10C8C0006EF8CF48DFF82C83012390F80C0408F1B0
:10C8D000FD0800EB800101EB08021A213020FCF773
:10C8E000DAFB2078022803D0002018B16F6002E044
:10C8F0000120FAE76E606868009040231E22302114
:10C900000820FCF74CF80123AFF2FC12302108207C
:10C91000FCF7C1FBFEF71AFB2078BA496FF07F42A3
:10C92000012806D0022817D06078BDE8F843FEF74A
:10C9300054BCC5E9002100244546542604EB84007C
:10C94000421906EB001080B20023F121FCF7A3FB93
:10C95000641C022CF2D3F0E4C5E90021AA4D0024A6
:10C960004FF4A276C4EBC400421904EB840006EB3A
:10C97000001080B20023F121FCF78DFB641C022C17
:10C98000F0D3DAE42DE9F84F04469D489B4D4FF073
:10C990005016D0F8D00301280ED19B4A0123153A36
:10C9A0001746D2211E206E60FCF775FB01233A4624
:10C9B000D2219620FCF76FFB2078012800D00020C0
:10C9C0005FEA00084FF0FF0701D06F6000E06E6083
:10C9D000686800902C23C02218216720FBF7DFFF36
:10C9E0005FEA0800DFF82492DFF8248221D099F86A
:10C9F0000000012821D188498648686009780090A4
:10CA0000C1F10000032900EB800005D2A22101EB57
:10CA100040018AB29A2104E0982101EB40018AB2D8
:10CA2000902101EB400080B22C232A21FBF7B7FFB5
:10CA30006F6099F8000001281CD0D8F8040000238A
:10CA400005220321FCF7C5FB00236B4A1A2168204D
:10CA5000FCF721FB012371A21A21AE20FCF71BFB7E
:10CA60006F49042008702078022807D0002038B1D0
:10CA70006F6006E00123D8F80400E1E70120F6E743
:10CA80006E60002305220321D8F81C00FCF7A1FBEF
:10CA9000686800904223C0222E216720FBF77FFFA9
:10CAA0000023554A30216820FCF7F5FA01235DA2E6
:10CAB0003021AE20FCF7EFFA2078032803D00020C5
:10CAC00018B16F6002E00120FAE76E6000230522D2
:10CAD0000321D8F83400FCF77CFB686800905823E9
:10CAE000C02244216720FBF75AFF0023424A462117
:10CAF0006820FCF7D0FA01234AA24621AE20FCF7B9
:10CB0000CAFA2078042803D0002018B16F6002E030
:10CB10000120FAE76E6098F80801002300EB40005E
:10CB200008EBC0000522C06C0321FCF752FB6868CB
:10CB300040F2711900902C234FF4E17218214846FD
:10CB4000FBF72DFF4FF4B97A00232B4A1A215046E8
:10CB5000FCF7A1FA012331A21A214FF4DC70FCF793
:10CB60009AFA2078052803D0002018B16F6002E0FF
:10CB70000120FAE76E60002303221946D8F8DC0092
:10CB8000FCF727FB68680090422340F2C3122E2175
:10CB90004846FBF704FF0023174A30215046FCF7B4
:10CBA0007AFA4FF4D77B01231FA230215846FCF7B5
:10CBB00072FA2078062803D0002018B16F6002E0D6
:10CBC0000120FAE76E600023464603221946D8F892
:10CBD000F400FCF7FEFA68680090582340F2C31294
:10CBE00044214846FBF7DBFE0023034A46211DE0B3
:10CBF00019E10200DCE20200B44800101C00001041
:10CC00005805001038003100E3E30200F70100107E
:10CC10006840001000FFFF00F801001056000000FF
:10CC2000F9010010410000006D7300005046FCF750
:10CC300032FA0123AFF2100246215846FCF72BFAD4
:10CC4000FEF784F92278F94958276FF07F404FF4B6
:10CC5000A478052A71D2DFE802F0038E8E8E4D0093
:10CC6000C5E90001607800B3012866D1002560782D
:10CC7000002300EB4000284400EB400006EBC0001E
:10CC80000522C06C0321FCF7A4FA05EB850007EB35
:10CC9000001080B20023E64AF121FCF7FCF96D1C7C
:10CCA000032DE4D30023E3A21DE0002560780023D8
:10CCB00000EB4000284400EB400006EBC0000522DA
:10CCC000C06C0321FCF785FA05EB850007EB00102B
:10CCD00080B20023D64AF121FCF7DDF96D1C032D4B
:10CCE000E4D30023D5A201B04046BDE8F04FF121C6
:10CCF000FCF7D1B9C5E900016078F8B101281CD171
:10CD000000256078002300EB4000284400EB400041
:10CD100006EBC0000522C06C0321FCF75AFA05EBB4
:10CD2000850007EB001080B20023C14AF121FCF717
:10CD3000B2F96D1C032DE4D3B4E71CE00025607844
:10CD4000002300EB4000284400EB400006EBC0004D
:10CD50000522C06C0321FCF73CFA05EB850007EBCC
:10CD6000001080B20023B24AF121FCF794F96D1C47
:10CD7000032DE4D3B5E78CE52DE9F84F04460078A0
:10CD8000012800D00020AF4FFF254FF0501608B10A
:10CD90007D6000E07E60DFF8B08200230522032181
:10CDA000D8F84C00FCF715FA786800902C23C022C4
:10CDB00018216720FBF7F3FD00239D4A1A21682004
:10CDC000FCF769F90123AFF2AC121A21AE20FCF78F
:10CDD00062F92078022803D0002018B17D6002E0BB
:10CDE0000120FAE77E60002305220321D8F86400C1
:10CDF000FCF7EFF9786800904223C0222E216720CB
:10CE0000FBF7CDFD00238A4A30216820FCF743F967
:10CE10000123AFF2F8123021AE20FCF73CF9207864
:10CE2000032803D0002018B17D6002E00120FAE75A
:10CE30007E60002305220321D8F87C00FCF7C9F9A5
:10CE4000786800905823C02244216720FBF7A7FD93
:10CE50000023774A46216820FCF71DF90123AFF231
:10CE600044224621AE20FCF716F92078042803D08E
:10CE7000002018B17D6002E00120FAE77E60002307
:10CE800005220321D8F89400FCF7A3F9786840F252
:10CE9000611A00902C234FF4E17218215046FBF7E1
:10CEA0007EFD4FF4B17B0023614A1A215846FCF7FE
:10CEB000F2F80123AFF29C221A214FF4D470FCF750
:10CEC000EAF82078052803D0002018B17D6002E040
:10CED0000120FAE77E60002305220321D8F8AC0088
:10CEE000FCF777F97868009042234FF4E1722E2125
:10CEF0005046FBF754FD00234D4A30215846FCF7BD
:10CF0000CAF80123AFF2EC224FF4D479302148461D
:10CF1000FCF7C1F82078062803D0002018B17D6006
:10CF200002E00120FAE77E60002305220321D8F801
:10CF3000C400FCF74EF97868009058234FF4E17272
:10CF400044215046FBF72BFD0023394A4621584621
:10CF5000FCF7A1F80123AFF23C3246214846FCF72A
:10CF60009AF8FDF7F3FF2078002804D16078BDE837
:10CF7000F84FFEF725BB8CE430B40B46334914461A
:10CF800000EB40004218A1B298B230BC0123FCF77C
:10CF9000D6B82DE9F84F2B4E2D4F4FF050150446C3
:10CFA0007560D7F8FC004FF4B97CB0B1002329A21A
:10CFB0003F216046FCF7C3F8002326A23F21C8208A
:10CFC000FCF7BDF82078012800D000204FF0FF0AC0
:10CFD00080B15046C6F804A00EE03F226146D7F863
:10CFE0008803FFF7C9FF3F22C821D7F88803FFF75E
:10CFF000C3FFE7E72846756000902A23992218218D
:10D000004520FBF7CCFCD7F88803134900EBC000A0
:10D010004218012318214620FCF73DF82078022809
:10D020001CD00020E0B1C6F804A01AE0380031009E
:10D03000B448001050524556000000004E45585468
:10D04000000000001C00001068400010E7EA020029
:10D0500058050010250000006DDF02000120E1E707
:10D06000756097F8EC1057F8E80F00230522FCF7DD
:10D07000B0F8706800902A2340F245121821E2208F
:10D08000FBF78DFC0123F74A1821E520FCF703F894
:10D09000B868012300EB4001F3480A18182140F258
:10D0A0002910FBF7F8FFD7F8A002182240F233113D
:10D0B000E83FFEF7B7FD2078032805D0002028B10F
:10D0C0005046C6F804A003E00120F8E72846756042
:10D0D00000902A2340F2DD12182140F28F10FBF756
:10D0E0005EFCE248D7F8FC10012300EB8102182116
:10D0F0004FF4C870FBF7CFFF2078042805D000203C
:10D1000028B15046C6F804A003E00120F8E72846FD
:10D11000756000903E2399222C214520FBF73FFCAF
:10D12000D7F8E000DFF8488300EB800101EB08024C
:10D1300000232C214620FBF7AEFF2078052804D0E1
:10D14000002020B1C6F804A002E00120F9E77560D4
:10D1500070680090B1463E234FF49C722C21E4206D
:10D16000FBF71DFCD7F80401012300EB8001C04848
:10D170000A182C21E520FBF78EFF0626BB462078F7
:10D18000B04202D1C9F804A009E0A6F109000428C0
:10D1900003D2B848C9F8040001E0C9F80450D9F82E
:10D1A0000400C6EB06170090B81C83B20E3FB9B25C
:10D1B000E6229420FBF7F3FB06EB46010BEB01188C
:10D1C00058F8140C18B318F8101C00230522FCF7AB
:10D1D00000F8B9B20123A34AA020FBF7B0FFDBF8A7
:10D1E000FC0050B958F80C0C012300EB40019E489C
:10D1F0000A18B9B2D020FBF7A2FF761C0F2EBED3BF
:10D2000010262078B04208D1C9F804A00FE0B9B2C6
:10D210000123AFF6E872A020EDE7A6F11300042881
:10D2200003D29448C9F8040001E0C9F80450D9F8C1
:10D230000400C6EB06170090A7F1940083B2A43F48
:10D24000B9B24FF4C3724FF49A70FBF7A8FB06EB28
:10D2500046000BEB0010A0F58058D8F8240E0028EB
:10D260007CD098F8281E00230522FBF7B2FFB9B244
:10D2700000237C4A4FF4A570FBF761FFDBF8FC004C
:10D2800058B9D8F82C0E012300EB400176480A1853
:10D29000B9B24FF4BD70FBF752FF761C192EB0D314
:10D2A00020780F2867D0C9F80450D9F804000090FE
:10D2B000C846E323E622D3219420FBF770FB5E46A9
:10D2C0009BF8C01200230522DBF8BC02FBF781FFAC
:10D2D0000123644AD321A020FBF731FFD6F8C40212
:10D2E000614F00EB4001CA190123D321D020FBF785
:10D2F00026FF2078192841D02846C8F8045000900D
:10D30000E3234FF4C372D3214FF49A70FBF747FB2A
:10D3100096F8D812D6F8D4020023052206F5357601
:10D32000FBF757FF00234F4AD3214FF4A570FBF7BB
:10D3300006FFB068012300EB4001CA19D3214FF466
:10D34000BD70FBF7FCFEFDF701FE22784A49682715
:10D350006D266FF07F40062A60D201E005E00AE00A
:10D36000DFE802F0102A2A152E45B9B20123434AFC
:10D370004FF4A5708FE7C9F804A096E75046C8F8A7
:10D3800004A0BCE76078BDE8F84FFEF719B90024A7
:10D39000C8E90001354E72250FE074B104EB84003A
:10D3A00005EB001006EB840280B20023F121FBF7AD
:10D3B00072FE641C022CF0D3DDE432463846F4E7FA
:10D3C000C8E9000100242A4D0EE06CB104EB840092
:10D3D000421906EB001080B20023F121FBF75BFE3F
:10D3E000641C022CF1D3C6E42A463846F4E7C8E9A7
:10D3F000000100241E4D0EE06CB104EB84004219C4
:10D4000006EB001080B20023F121FBF744FE641C00
:10D41000022CF1D3AFE42A463846F4E7C8E900010C
:10D4200017484FF4CA7490F87F13012910D00029CF
:10D43000C2D1002313A2F1215D20FBF72CFE0023B3
:10D4400012A201B02046BDE8F04FF221FBF723BE47
:10D45000002311A2F1215D20FBF71DFE002310A285
:10D46000EFE70000B4480010B4EA0200D0DC02008C
:10D4700030E4020034346500380031002CC2010071
:10D4800068400010C7E5B3FDD0D00000C7E5B3FD8C
:10D49000B1EDB8F10000000043656C2052000000BF
:10D4A00043656C4C697374002DE9F84F06460078AB
:10D4B000012800D00020FD4CFF254FF0501708B187
:10D4C000656000E06760606800902C23C02218212E
:10D4D0005820FBF764FADFF8D883DFF8D8930123EC
:10D4E000D8F8000000EB800101EB09021A21582056
:10D4F000FBF7D1FD3078022803D0002018B1656019
:10D5000002E00120FAE76760606800904223C022D1
:10D510002E215820FBF743FAD8F80400012300EB32
:10D52000800101EB090230215820FBF7B4FDFDF723
:10D530000DFDE04F3278B63FDF4954256FF07F4054
:10D540004FF0670A4FF06C0B07F1D409A7F12008E0
:10D5500007F59F7C122A3FD2DFE802F0090E6E89A0
:10D560009CB3C5DCF8F6F5F4F3F2F1F0EFEE707869
:10D57000BDE8F84FFEF724B87278BAB140F29319BB
:10D5800040F2BD1A012AC4E9000129D00023CB4A88
:10D590004FF482715420FBF77EFD0023C84AF2212C
:10D5A0004846FBF778FD0023C6A23BE0C4E9000132
:10D5B0000024C54D57465E460FE074B104EB84006D
:10D5C00006EB001005EBC40280B20023F121FBF74B
:10D5D00062FD641C022CF0D3CDE42A463846F4E701
:10D5E000B64F0024283F07F1180540F257164FF0B8
:10D5F000620801E0032C1CD004EB840108EB01104D
:10D6000007EBC40280B20023F121FBF744FD641C48
:10D61000042CEFD30023AA4AF2214846FBF73BFD36
:10D620000023AAA201B05046BDE8F04FF221FBF75B
:10D6300032BD2A463046E6E7C4E90001A24D002487
:10D64000203557465E460FE074B104EB840006EBCC
:10D65000001005EBC40280B20023F121FBF71BFD93
:10D66000641C022CF0D386E42A463846F4E7C4E969
:10D670000001974E002404EB840005EB001006EB3C
:10D68000C40280B20023F121FBF705FD641C022CCB
:10D69000F1D370E4C4E90001864E00242E3604EB79
:10D6A000440000EBC400821904EB840005EB001079
:10D6B00080B20023F121FBF7EEFC641C042CEED3B6
:10D6C00059E4C4E90001002404EB840005EB0010D8
:10D6D00009EBC40280B20023F121FBF7DCFC641CDF
:10D6E000022CF1D347E4C4E90001724E00245A36FB
:10D6F00004EB440000EBC400821904EB840005EB4A
:10D70000001080B20023F121FBF7C5FC641C022C41
:10D71000EED330E4C4E90001002404EB840005EBFF
:10D72000001007EBC40280B20023F121FBF7B3FC29
:10D73000641C022CF1D31EE4CCE0A4E08DE07AE07E
:10D7400067E04FE03AE027E012E0FFE7C4E90001BC
:10D75000002404EB840005EB001007EBC40280B248
:10D760000023F121FBF797FC641C022CF1D323E684
:10D77000C4E900014F4E0024703604EB840005EB31
:10D78000001006EBC40280B20023F121FBF783FCFA
:10D79000641C032CF1D30FE6C4E90001002404EB60
:10D7A000840005EB001008EBC40280B20023F121D5
:10D7B000FBF771FC641C042CF1D3FDE5C4E9000106
:10D7C0003C4E0024853E04EB840005EB001006EB84
:10D7D000C40280B20023F121FBF75DFC641C032C22
:10D7E000F1D3E9E5C4E90001324E00246D3E04EBBB
:10D7F000440000EBC400821904EB840005EB001028
:10D8000080B20023F121FBF746FC641C022CEED30E
:10D81000D2E5C4E90001002404EB840005EB00100C
:10D8200007EBC40280B20023F121FBF734FC641C37
:10D83000022CF1D3C0E5C4E90001002404EB84000C
:10D8400005EB001009EBC40280B20023F121FBF7C5
:10D8500022FC641C022CF1D3AEE5C4E900010024D3
:10D86000664604EB440000EBC400821904EB84001C
:10D8700005EB001080B20023F121FBF70CFC641CC7
:10D88000022CEED398E5C4E90001002404EB8400E7
:10D8900005EB001008EBC40280B20023F121FBF776
:10D8A000FAFB641C042CF1D386E500001C00001078
:10D8B0005805001030E402003800310045DF020056
:10D8C00010B40100332F3300C8E80200322F3300B8
:10D8D000FDE20200C4E900010024664604EB4400B6
:10D8E00000EBC400821904EB840005EB001080B249
:10D8F0000023F121FBF7CFFB641C042CEED35BE586
:10D900002DE9F84F04460078012800D00020FA499C
:10D91000FF254FF0501608B14D6000E04E6048689A
:10D92000884600902C23C0221A215E20FBF737F88E
:10D93000F24F97F88A03012801D048B112E097F816
:10D940007D034FF0000308B1EDA207E0F0A205E06F
:10D9500097F87D034FF0000360B1F0A21C215F2017
:10D96000FBF799FB2078022806D0002030B1C8F8D8
:10D97000045005E0ECA2F1E70120F7E7C8F80460E5
:10D98000D8F8040000904223C02230215E20FBF72B
:10D9900006F897F87E03DFF89CA300EB800101EB0B
:10D9A0000A02B946012332215F20FBF774FB20787D
:10D9B000032806D000200028404604D0C8F80450B0
:10D9C00003E00120F7E7C8F80460074640680090CC
:10D9D0005823C02246215E20FAF7E1FFD6480123F2
:10D9E00090F87E0200EB800101EB0A0248215F20E3
:10D9F000FBF751FB2078042803D0002018B17D608C
:10DA000002E00120FAE77E60786800906E23C02271
:10DA10005C215E20FAF7C3FF99F87F13DFF81CB38F
:10DA2000C8460BEBC10200235E215F20FBF733FBEE
:10DA30002078052803D0002018B17D6002E0012085
:10DA4000FAE77E60786800908423C02272215E200D
:10DA5000FAF7A5FF98F88B03DFF8D8A200EB800156
:10DA60000AF10F0A01EB0A02002374215F20FBF781
:10DA700012FB2078062803D0002018B17D6002E058
:10DA80000120FAE77E60786800909A23732288214B
:10DA90005E20FAF784FFDFF8A8820123022200212A
:10DAA000D8F81C00FBF795FB0023A64A8A215F20CB
:10DAB000FBF7F1FA0023A4A28A2173207E60FBF712
:10DAC000EAFA2078072803D0002018B17D6002E030
:10DAD0000120FAE77E60786800909A2391228821DD
