:020000040000FA
:10000000D04D0010E1010000E9010000EB0100000B
:10001000ED010000EF010000F10100000000000010
:10002000000000000000000000000000F3010000DC
:10003000F501000000000000F7010000E1070000EA
:10004000FB0100003D0900005109000063090000A8
:1000500075090000D9010100FB010000FB0100004F
:10006000F5020100FB010000FB010000FB010000A4
:10007000FB010000FB010000FB010000FB01000090
:10008000FB01000079010000FB010000FB01000002
:10009000FB010000FB010000FB010000FB01000070
:1000A000D1150100FB010000FB010000FB01000075
:1000B000FB010000FB010000FB010000FB01000050
:1000C000FB010000FB010000FB010000FB01000040
:1000D000FB010000FB010000A9050000FB0100007E
:1000E000FB010000DFF80CD012F02AFC00480047AA
:1000F00005060000D04D001070B505460C46A4F171
:1001000020000B4A02EB00111022284600F0ABF849
:1001100070BDA1F1200202EB4202064B03EB82020A
:100120001368036053684360926882607047000000
:10013000C08D0100B09301000D4843F6103102E07C
:1001400000220270401C0A1EA1F1010399B2F7D1EE
:1001500008484FF45C5102E0FF220270401C0A1E66
:10016000A1F1010399B2F7D1014B83F80C24704738
:10017000C8040010D408001010B5012115480EF075
:10018000BBF950B1144913480EF0A8F801201349E7
:10019000087001210F480EF0B7F910BD10B50D48D9
:1001A0000DF0EAFE0B480DF000FF012109480DF0AB
:1001B00005FF0122002107480DF00CFF112001214D
:1001C00081404209920002F1E022C2F8001100BF12
:1001D00010BD00000040024028460010020200103E
:1001E0000648804706480047FEE7FEE7FEE7FEE7D1
:1001F000FEE7FEE7FEE7FEE7FEE7FEE781EC000034
:10020000E50000002DE9F05F0546002092469B4680
:1002100088460646814640241BE02846414647461C
:10022000224612F0A8FA53465A46C01A914110D3FA
:1002300011461846224612F08FFA2D1A67EB010874
:100240004F4622460120002112F086FA17EB0009E2
:100250004E41201EA4F10104DFDC484631462A4607
:100260004346BDE8F09F10B5431A934209D2831864
:10027000881803E010F8011D03F8011D521EF9D281
:1002800010BD40EA01039B0703D009E008C9121F13
:1002900008C0042AFAD203E011F8013B00F8013B40
:1002A000521EF9D210BDD2B201E000F8012B491E56
:1002B000FBD270470022F6E710B513460A46044603
:1002C0001946FFF7F0FF204610BD421E12F8013F0D
:1002D000002BFBD111F8013B02F8013B002BF9D1B7
:1002E0007047421C10F8011B0029FBD1801A70478F
:1002F00096230022114612F069BA7047FFFFFFFFF4
:1003000040F20120974908609749C1F88401954956
:1003100008310860091D0860091D0860091D086092
:10032000091D0860091D0860091D0860091D086095
:10033000091D0860091D0860091D0860091D086085
:10034000091D0860091D0860091D0860091D086075
:10035000091D0860091D0860091D0860091D086065
:10036000091D0860091D0860091D0860091D086055
:10037000091D0860091D0860091D0860091D086045
:10038000091D0860091D0860091D0860091D086035
:10039000091D0860091D0860091D0860091D086025
:1003A000091D0860091D0860091D0860091D086015
:1003B000091D0860091D0860091D0860091D086005
:1003C000091D0860091D0860091D0860091D0860F5
:1003D000091D0860091D0860091D0860091D0860E5
:1003E000091D0860091D08605E49E43108605D4927
:1003F00040390860091D0860091D086059493039F5
:100400000860584920390860564910390860091DAC
:100410000860091D08605449C1F87C0170472DE946
:10042000F04100BF00BF5148006840F400604F49F0
:10043000C439C1F8C40041F61F704D49086001205D
:100440004C49086000208860FFF75AFF4A4800685E
:100450004A49B0FBF1F74548C438D0F8000100B173
:100460007F084FF47A70B0FBF7F404F11300B0FB8F
:10047000F4F0404908630F2048630020886301209E
:10048000C86304F11300B0FBF4F0801C0864012081
:10049000486404F13E00B0FBF4F0886404F13E00CF
:1004A000B0FBF4F0C8640F20086504F13E00B0FB17
:1004B000F4F0486501208865886240F203303049D5
:1004C00008604FF48D402B49C1F800012C49091FE9
:1004D00008606421002000F0B3F940F28310254940
:1004E0000862C821002000F0ABF940F20310214956
:1004F000086202204862002600E0761C802EFCD3B1
:1005000041F68465A5F1100085B22D1105FB07F0B9
:100510004FF47A71B0FBF1F085B216484562832042
:10052000144908621748D0F8008000200862144877
:10053000001F006840F40020C1F8000101210020E4
:1005400000F07EF90121002000F07AF908480068E7
:1005500020F01F0848F011000449C439C1F8DC013B
:10056000BDE8F08180C1024000C00240C4C00F401D
:10057000DCC10F4000C009204002001040420F00C3
:1005800004C10920004006A010B5002807DACA06F9
:10059000140E9B4A00F00F031B1FD45403E0CA063D
:1005A000130E984A135410BD10B5012213210020D8
:1005B0000EF08CFC28B36FF07F4400E0641E002C2A
:1005C000FCD19148007830B100208F4908700F208D
:1005D0008E49086005E001208B49087002208B4994
:1005E00008604FF4002100200EF09BFC262000F054
:1005F0001F0201219140864A430942F8231000BF9F
:1006000000BF10BD8CB000200EF005FE8046002714
:100610004FF47A70B8FBF0F0451EB5F1807F00D33F
:1006200011E025F07F40401E4FF0E02148611F217E
:100630004FF0FF30FFF7A8FF00204FF0E021886166
:100640000720086100BF0122D10400200EF020FC29
:1006500001212620FFF798FF262000F01F0201212C
:1006600091404209920002F1E022C2F8001100BF5D
:100670000EF0F6F80EF070F80FF03BFD0020624926
:1006800008704FF416500FF0F7FD0FF0DDFFFFF785
:1006900085FD0EF0E5F80EF035F8FFF7C0FE0020FE
:1006A00000F048FA5B494869002100F07CFA01201B
:1006B00000F040FA00200EF0ACF80F20534908601B
:1006C0008DE00EF053F90446FF2C01D1002700E025
:1006D0007F1C022F03D14FF0501000F069FB4B48F4
:1006E0000068801E0E2878D2DFE800F0074A4351E8
:1006F0000E2E353C58746E5F66714FF0501000F04E
:1007000057FB08F03BFD69E010F06DFE11F05AF95F
:10071000C6B286B901AA0BA90AA811F0ACFBC6B2F1
:100720004EB910F005F9C6B21D213BA00DF05BF9E2
:100730000120414908704FF0501000F039FB0DF0D6
:100740002BFF09F0BAFC49E04FF0501000F030FBED
:100750000AF0B0FC42E04FF0501000F029FB0AF024
:100760007DFD3BE04FF0501000F022FB0AF061FEEF
:1007700034E04FF0501000F01BFB09F0DAFF2DE0E1
:100780004FF0501000F014FB0AF04EFC26E04FF042
:10079000501000F00DFB0AF012F81FE04FF050105F
:1007A00000F006FB0CF0D3FC18E04FF0501000F006
:1007B000FFFA0BF047FC11E04FF0501000F0F8FA90
:1007C0000AF05AFF0AE008E00BF0FDFE06E00DF02B
:1007D00027F903E00CF0A1FD00E000BF00BF70E7C7
:1007E00016480068401C154908607047134A116894
:1007F00000BF124A1268521A8242FAD370470000B0
:1008000018ED00E000E400E0200200102C020010CF
:1008100080E100E0300000104D61696E2050092039
:10082000205365636F2050094D5061727409535015
:100830006172740D0A000000FE010010000000103B
:10084000F8B902224FF040235A600022DA60B04A21
:1008500012684FF47A73B2FBF3F2521E4A434FF020
:1008600040239A61FF221A6004225A6101225A60D1
:1008700000BF4FF04022526802F00102002AF8D176
:100880005BE001281CD10222A24B5A600022DA60F0
:100890009F4A12684FF47A73B2FBF3F2521E4A4336
:1008A0009C4B9A61FF221A6004225A6101225A600D
:1008B00000BF984A526802F00102002AF9D13CE0D8
:1008C00002281CD10222944B5A600022DA60904A1E
:1008D00012684FF47A73B2FBF3F2521E4A438E4B06
:1008E0009A61FF221A6004225A6101225A6000BFF5
:1008F000894A526802F00102002AF9D11DE003285A
:100900001BD10222854B5A600022DA60804A1268AD
:100910004FF47A73B2FBF3F2521E4A437F4B9A6153
:10092000FF221A6004225A6101225A6000BF7B4AEA
:10093000526802F00102002AF9D1704701204FF0FD
:100940004021086076480068401C7549086070477F
:1009500001207049086073480068401C71490860B4
:10096000704701206C4908606F480068401C6E4960
:10097000086070470120694908606C480068401CA5
:100980006A490860704720B901214FF04022516048
:1009900010E0012803D101215E4A51600AE00228DB
:1009A00003D101215C4A516004E0032802D10121F6
:1009B0005A4A5160704720B900214FF040225160DF
:1009C00010E0012803D10021524A51600AE00228B8
:1009D00003D10021504A516004E0032802D10021D4
:1009E0004D4A51607047014631B94FF0402250687E
:1009F00040F00200506016E0012905D1454A5068D8
:100A000040F0020050600EE0022905D1424A5068D1
:100A100040F00200506006E0032904D13F4A5068CC
:100A200040F002005060704770B505460C46F5B9BD
:100A300000203B4908603E48006840F002003C4905
:100A4000C439C1F8C4004FF04020406840F00200B3
:100A50004FF0402148604EF65F20C8600846846130
:100A600003204861012000F048F8012070BD012DED
:100A700014D100202B4908602D48006840F0040084
:100A80002B49C439C1F8C40022488461032021499C
:100A90004861022000F031F80120E7E7022D13D170
:100AA0000020214908602248006840F48000204965
:100AB000C439C1F8C400184884610320164948614C
:100AC00000F01BF80120D1E7032D14D100201749B5
:100AD00008601748006840F400001549C439C1F89F
:100AE000C4000E48846103200C494861042000F0D2
:100AF00004F80120BAE70020B8E700F01F02012146
:100B000091404209920002F1E022C2F800117047C0
:100B100044020010008000400000094000400940ED
:100B2000180000101C00001020000010240000100D
:100B3000C4C00F4008B5B0B1F949896941F001015D
:100B4000F74A916142F21071009108E0F449896915
:100B500041F40061F24A91610099491E00910099A7
:100B60000029F3D115E0EE49896921F40061EC4ACE
:100B7000916142F21071009102E00099491E0091CA
:100B800000990029F9D1E649896921F00101E44A77
:100B9000916108BDE34A002102E008C808C2491C6F
:100BA0008029FAD370472DE9704381460D46DFF85E
:100BB000788300BF2720DD4908614861DC4908606F
:100BC000DA49C1F87402DB490860091D0860091D93
:100BD0000860091D0860D5498861C861D549483950
:100BE0000860091D0860091D0860091D0860091DCD
:100BF0000860091D0860CD4908624862CD49183176
:100C00000860091D0860CB4930390860091D08607B
:100C1000091D0860091D0860C64910390860C549EA
:100C2000091F0860C3490C390860091D0860BF49E5
:100C3000C1F80001C048006C40F00200BE490864E1
:100C40000846806D40F00A008865BC48D0F8C400B2
:100C500040F00100B949C1F8C400B948006820F06B
:100C60000100B74908600020AD49886108468069E5
:100C700020F00E0088610846806940F00A00886113
:100C80000846806940F0200088610846806920F0AD
:100C9000800088610846806920F480708861084679
:100CA000806920F4007088610846806920F48060C3
:100CB00088610846806920F400608861A148006866
:100CC000A149B0FBF1F09D49C1F8B8019448806892
:100CD00040F08060924988600846806820F02000DB
:100CE00088600846806840F4006088600846806834
:100CF00040F4805088600846806820F40050886086
:100D00000846806820F480408860084680688F49E3
:100D1000084083498860084680688D4908438049B7
:100D20008860002008600846006840F01C50086099
:100D30000846006840F4802008600846006840F4D7
:100D4000807008600846006840F074000860002069
:100D500048600846406840F00060486008464068C7
:100D600040F4002048600846406840F480604860D5
:100D70000846406840F20F11084369494860404600
:100D80000861486115B12846FFF704FF664E00244C
:100D900003E04FF47F0001C6641CB4F5FF3FF8D3B5
:100DA00042F2107400E0641E002CFCD1BDE8708398
:100DB0005D4A002101E001C2491CB1F5FF3FFAD3B1
:100DC00070472DE9F0410C46069FC3F5887CCCEBBB
:100DD0000C1CDFF8548108EBCC1CC2F5F0780CEB4E
:100DE000880100260EE0002501E080C16D1CA2EB09
:100DF000000CAC45F9D8A2EB000CCCF5F07C01EB73
:100E00008C01761CA3EB040CB445ECD8BDE8F08152
:100E100070B5454BB0F5F07F02DAB1F5887F00DBA5
:100E200070BDC0F5F0756D1EC1F58876761EC6EBF7
:100E3000061605EB461403EB84031A6000BFEFE7C8
:100E40002DE9F04F04460D4691469A46DDF824B050
:100E50004C4503DD0FFA89F7A146BCB2554503DDC9
:100E60000FFA8AF7AA46BDB2A9EB04000FFA80F880
:100E7000AAEB050006B2B8F1000F0BD100BF5A462D
:100E800029462046FFF7C4FF681C85B2AA45F6DA5A
:100E9000BDE8F08F56B900BF5A4629462046FFF7F5
:100EA000B7FF601C84B2A145F6DAF1E7B04521DD59
:100EB000C8EB460007B215E05A4629462046FFF720
:100EC000A7FF601C84B2002F08DD681C85B270008B
:100ED000022101FB1800384407B203E0022000FBA6
:100EE000067007B24C45E7D15A4629462046FFF71F
:100EF0008FFF3AE0C6EB480007B22FE05A4629467A
:100F00002046FFF785FF681C85B2002F22DD601C9C
:100F100084B27000022101FB1800384407B21DE0C2
:100F20000080082000820820000001A000C00240CC
:100F300070C2024018C102400080092000C00F406A
:100F4000008C0820440200109C997400FFFF00FCF4
:100F50000000DF01022000FB067007B25545CDD12D
:100F60005A4629462046FFF753FF00BF90E72DE978
:100F7000FF5F06460F4690469946DDF838B0414679
:100F80006846FFF7B9F800241DE01DF804A000250D
:100F900016E0C5F107004AFA00F000F0010038B190
:100FA0003A1991B2721990B24A46FFF731FF06E042
:100FB0003A1991B2721990B25A46FFF729FF6D1C87
:100FC000082DE6D3641C102CDFD3BDE8FF9F2DE96C
:100FD000FE4F06460F4690469946DDF830B0414632
:100FE0006846FFF796F800241DE01DF804A00025D0
:100FF00016E0C5F107004AFA00F000F0010038B130
:101000003A1991B2721990B24A46FFF701FF06E011
:101010003A1991B2721990B25A46FFF7F9FE6D1C57
:10102000082DE6D3641C0C2CDFD3BDE8FE8F2DE920
:10103000F84305460E4614469846DDF8209000BF5A
:1010400014F8017B43463A4631462846CDF80090D5
:10105000FFF78DFFB5F5EC7F03DA05F1080085B2E7
:1010600008E0FF2E04DC002506F1100086B201E046
:101070000025002620780028E2D1BDE8F8832DE97C
:10108000FF4F074688469B463C464546BA4646467D
:101090004FF0000915E0A4F1140188B22946029A24
:1010A000FFF7B6FE601C84B2A6F1140081B2504670
:1010B000029AFFF7ADFE701C86B209F101001FFA1B
:1010C00080F9B9F1280FE6DB3C464546BA4646466C
:1010D0004FF000092BE0A5F1140291B2A4F1140223
:1010E00090B25A46FFF794FE05F1140291B2A4F1B2
:1010F000140290B25A46FFF78BFE601C84B2A6F130
:10110000140291B2AAF1140290B25A46FFF780FE7F
:10111000A6F1140291B20AF1140290B25A46FFF7F6
:1011200077FE701C86B209F101001FFA80F9B9F14F
:101130000A0FD0DB3C464546BA4646464FF000090A
:101140002BE0A5F1140291B204F10A0290B25A46C2
:10115000FFF75EFE05F1140291B204F10A0290B2AB
:101160005A46FFF755FE601C84B206F10A0291B29E
:10117000AAF1140290B25A46FFF74AFE06F10A029B
:1011800091B20AF1140290B25A46FFF741FE701C68
:1011900086B209F101001FFA80F9B9F10A0FD0DB1C
:1011A000BDE8FF8F10B50246002112E001EB81106F
:1011B000F74B185C1378984209D1507801EB8113F2
:1011C000F34C23445B78984201D1084610BD481C7B
:1011D00081B27729EAD30020F8E710B50246002152
:1011E00014E001EB0110EB4B13F810001378984258
:1011F0000AD1507801EB0113E64C04EB43035B7812
:10120000984201D1084610BD481C81B2AD29E8D3EF
:101210000020F8E72DE9F04F04460F4615469846A2
:10122000A3464FF0000900262DE0099810F806901B
:101230004FF0000A21E009F0800030B1D64839466D
:1012400002682046FFF7E4FD05E0D34839464268CE
:101250002046FFF7DDFD4FEA49604FEA1069601C48
:1012600084B2A4EB0B00A84203D15C46781C87B281
:1012700006E00AF1010000F0FF0ABAF1080FDADB1C
:1012800000BF701C86B205FB08F0C11700EB51715E
:10129000B6EBE10FC9DBBDE8F08F2DE9F04F054655
:1012A000894692469B46A8460026BBF1000F32D1E4
:1012B00000242DE00AEB0A10B64901EB4000801C27
:1012C000065D00271FE006F0800030B1B2484946B5
:1012D00002682846FFF79CFD05E0AF484946426892
:1012E0002846FFF795FD7006060E681C85B2A5EB33
:1012F0000800102805D1454609F101001FFA80F9C0
:1013000003E0781CC7B2082FDDDB00BF601CC4B24D
:10131000202CCFDB31E000242DE00AEB0A109D49A0
:1013200001EB4000801C065D00271FE006F08000F6
:1013300030B19948494642682846FFF769FD05E003
:101340009548494602682846FFF762FD7006060E7A
:10135000681C85B2A5EB0800102805D1454609F1A7
:1013600001001FFA80F903E0781CC7B2082FDDDB0B
:1013700000BF601CC4B2202CCFDBBDE8F08F2DE98C
:10138000F04F0546894692469B46A8460026BBF18B
:10139000000F31D100242CE00AEB8A107C4908446C
:1013A000801C065D00271FE006F0800030B17A48FF
:1013B000494602682846FFF72BFD05E07648494676
:1013C00042682846FFF724FD7006060E681C85B2A9
:1013D000A5EB0800182805D1454609F101001FFAC0
:1013E00080F903E0781CC7B2082FDDDB00BF601C6A
:1013F000C4B23F2CD0DB30E000242CE00AEB8A1092
:1014000063490844801C065D00271FE006F0800049
:1014100030B16148494642682846FFF7F9FC05E0CB
:101420005D48494602682846FFF7F2FC7006060E42
:10143000681C85B2A5EB0800182805D1454609F1BE
:1014400001001FFA80F903E0781CC7B2082FDDDB2A
:1014500000BF601CC4B23F2CD0DBBDE8F08FF0B5FC
:1014600004460D4616461F463B4622463146284650
:10147000FFF785FF1820F0BDF0B504460D4616466F
:101480001F463B46224631462846FFF706FF1220FC
:10149000F0BD2DE9F84306460D4614461F464FF0B1
:1014A0000008C14652E0207800B950E006EB090080
:1014B00086B2207880281ADD06F11800B0F5F07F9A
:1014C00007DD002605F1160085B2B5F5887F00DD41
:1014D00000252046FFF766FE1FFA80F83B462A46A5
:1014E00031464046FFF7BBFF8146A41C2DE0207823
:1014F0000D280AD105F1160085B2B5F5887F00DD0B
:101500000025641C4FF0000920E020780A2804D14F
:101510000026641C4FF0000918E006F10C00B0F53D
:10152000F07F07DD002605F10C0085B2B5F5887F58
:1015300000DD0025184840680090174822782946A9
:1015400003683046FFF713FD641C00BFABE700BF24
:10155000BDE8F8832DE9F8470546884614464FF064
:10156000000A002634E0207800B932E020783028E4
:1015700007DB2078392804DC207830381FFA80F91E
:101580000EE020782E2809D14FF00A0908E000006B
:10159000C43E0100FB5C0100280000104FF00B0965
:1015A0004FEA4917F81707EB5070C01000EBC00165
:1015B000C1EB80109D490844A919009088B23723D7
:1015C00020224146FFF726FE641C06F1200086B269
:1015D000C9E700BFBDE8F8872DE9F84306460D4688
:1015E00014461F464FF00008C14654E0207800B969
:1015F00052E006EB090086B2207880281ADD06F159
:101600001000B0F5F07F07DD002605F1100085B26F
:10161000B5F5887F00DD00252046FFF7DEFD1FFAC7
:1016200080F83B462A4631464046FFF725FF814673
:10163000A41C2FE020780D280AD105F1100085B2F6
:10164000B5F5887F00DD0025641C4FF0000922E01D
:1016500020780A2804D10026641C4FF000091AE003
:1016600006F10800B0F5F07F07DD002605F108005F
:1016700085B2B5F5887F00DD00256D484068009093
:101680006B482278294603683046FFF770FC641CDB
:101690004FF00A0900BFA9E700BFBDE8F8832DE9B4
:1016A000F84306460D4614461F464FF00008C14653
:1016B00054E0207800B952E006EB090086B22078A9
:1016C00080281ADD06F11000B0F5F07F07DD002656
:1016D00005F1100085B2B5F5887F00DD00252046B4
:1016E000FFF77BFD1FFA80F83B462A46314640460D
:1016F000FFF7C2FE8146A41C2FE020780D280AD1F6
:1017000005F1100085B2B5F5887F00DD0025641C69
:101710004FF0000922E020780A2804D10026641C3A
:101720004FF000091AE006F10800B0F5F07F07DD80
:10173000002605F1080085B2B5F5887F00DD00259B
:101740003B48406800903A48227829460368304672
:10175000FFF73DFC641C4FF0080900BFA9E700BF7C
:10176000BDE8F883F0B504461D46062A00DD0A22CE
:1017700002B90122052900DD0521914200DD114653
:10178000002004E020262B4F3E54461CF0B20C28CB
:10179000F8D310460FE00A26B4FBF6F706FB17460F
:1017A0003036471EDFF88CC00CF807600A26B4FB01
:1017B000F6F4461EF0B20028EDDC89B11346084667
:1017C00005E05E1E1B4FBE5DFE545E1EF3B2061E9C
:1017D000A0F10107F8B2F4D12E26164FFE5402E014
:1017E0002026144FBE54A5B900200EE0114E365CE1
:1017F000302E07D10F4F461CBE5D2E2E02D0202664
:101800003E5400E004E0461CF0B2561E8642EDDC79
:1018100000BF561CF2B2104604E00026054F3E54AD
:10182000461CF0B20C28F8D3F0BD0000549A010019
:10183000280000101C46001038B5002474E0FA4857
:10184000A10004EB440303EB041301EB83010090BC
:1018500088B204EB84014C2303EB01118AB240F2FD
:101860000F13E421FFF7ADFAF04804EB84014C2399
:1018700003EB01118AB204EB84010901491C0090B9
:1018800088B2E3231946FFF7DBFAE84804EB84014A
:101890004C2303EB01118AB204EB840103EB011129
:1018A000009088B240F20F13E321FFF7C9FA00203D
:1018B00004EB84014C2303EB0111491C8AB204EBB5
:1018C000840103EB0111491C009088B240F20F1310
:1018D000E321FFF7B5FA002004EB84014C2303EB6E
:1018E0000111891C8AB204EB840103EB0111891CEC
:1018F000009088B240F20F13E321FFF7A1FA002015
:1019000004EB84014C2303EB0111C91C8AB204EBE4
:10191000840103EB0111C91C009088B240F20F133F
:10192000E321FFF78DFA641C062C88D338BD10B56F
:10193000FFF782FFBC48BE4948606FF07F400860F7
:101940000023BCA2F1215420FFF746FE0023BBA2D6
:10195000F121A420FFF740FE10BD10B5FFF76CFF8A
:10196000B148B34948606FF07F4008600023B4A2DB
:10197000F1215420FFF730FE10BD10B5FFF75CFFDA
:10198000A948AB4948606FF07F4008600023ADA2D2
:10199000F1215420FFF720FE10BD10B5FFF74CFFDA
:1019A000A148A34948606FF07F4008600023A6A2C9
:1019B000F1215420FFF710FE10BD70B50546FFF76A
:1019C0003BFF99489A4948606FF07F4008604DBBE3
:1019D000002424E0042C10D104EB44019B4B03EBC6
:1019E000410204EB8401542303EB01110E3188B250
:1019F0000023F121FFF7F0FD0FE004EB4401934BCE
:101A000003EB410204EB8401542303EB01111D316C
:101A100088B20023F121FFF7DFFD601CC4B2052C62
:101A2000D8DB51E000244DE0042C11D1611D01EB05
:101A30004101864B03EB410204EB8401542303EB89
:101A400001110E3188B20023F121FFF7C5FD37E007
:101A50008CB9611D01EB41017C4B03EB410204EBAE
:101A60008401542303EB0111183188B20023F121C2
:101A7000FFF7B2FD24E0032C11D1611D01EB410100
:101A8000724B03EB410204EB8401542303EB01117D
:101A90000A3188B20023F121FFF79EFD10E0611D9D
:101AA00001EB4101694B03EB410204EB8401542338
:101AB00003EB01111D3188B20023F121FFF78CFDEA
:101AC000601CC4B2052CAFDB70BD10B5FFF7B4FECF
:101AD0005548574948606FF07F40086000235CA27A
:101AE000F1215420FFF778FD00235AA2F121A42010
:101AF000FFF772FD10BD10B5FFF79EFE4A484C4936
:101B000048606FF07F400860002353A2F121542009
:101B1000FFF762FD10BD10B5FFF78EFE6FF07F403E
:101B200043490860404848604C48D0F84C030128BD
:101B30000CD100234AA2F2215320FFF74DFD0023D0
:101B400049A2F221A320FFF747FD0FE04348D0F858
:101B50004C0358B9002346A2F2215320FFF73CFD65
:101B6000002346A2F221A320FFF736FD10BD10B5D9
:101B70000446FFF761FE002C35D16FF07F402C4901
:101B80000860294848603548D0F84C03012812D134
:101B9000002333A2F2215320FFF71EFD00233AA2B7
:101BA000F221A320FFF718FD002339A2F221FC2027
:101BB000FFF712FDD9E02948D0F84C030028F9D1ED
:101BC000002335A2F2215320FFF706FD002335A2A2
:101BD000F221A320FFF700FD002335A2F221FC2013
:101BE000FFF7FAFCC1E0012C76D16FF07F4010497D
:101BF00008600D4848601948D0F84C0301286DD1A1
:101C000000232DA2F2215320FFF7E6FC00232DA292
:101C1000F221A320FFF7E0FC00232DA2F22140F2E5
:101C20009310FFF7D9FC70E0380031006843690079
:101C3000280000106D736563000000007365630089
:101C400056000000410000006D730000D38B0100BE
:101C5000487A00004B487A002A310000C80400107E
:101C60004D45415353455400535953534554000077
:101C7000B2E2C1BFC9E8D6C300000000CFB5CDB302
:101C8000C9E8D6C3000000004E6F2E4449535000EF
:101C9000434F554E54200000B2E2C1BFCFD4CABE5C
:101CA00000000000B5B5BAC5CFD4CABE0000000020
:101CB000B5B5BCC6CAFD000046494C452053455445
:101CC000000000005361766544617461000000000B
:101CD0004D4F5245000000001FE0FFE7FE48D0F8DE
:101CE0004C0390B90023FDA2F2215320FFF774FCAE
:101CF0000023FDA2F221A320FFF76EFC0023FDA22A
:101D0000F22140F29310FFF767FC0023FBA2F221BF
:101D100040F2BD10FFF760FC27E06FF07F40F8490C
:101D20000860F8484860EC48D0F84C0301280CD112
:101D30000023F5A2F2215320FFF74EFC0023F4A26A
:101D4000F221A320FFF748FC0FE0E348D0F84C0352
:101D500058B90023F0A2F2215320FFF73DFC0023E5
:101D6000EFA2F221A320FFF737FC10BD10B5FFF75B
:101D700063FD6FF07F40E2490860E2484860D64862
:101D8000D0F84C0301280CD10023E7A2E72154200E
:101D9000FFF722FC0023E6A2FB215420FFF71CFCE6
:101DA0000FE0CD48D0F84C0358B90023E2A2E72158
:101DB0005420FFF711FC0023E1A2FB215420FFF780
:101DC0000BFCC548D0F84C0301280ED10023DEA23D
:101DD000F1214FF4A270FFF7FFFB0023DCA2F121F9
:101DE0004FF4CA70FFF7F8FB11E0BB48D0F84C0382
:101DF00068B90023D8A2F1214FF4A270FFF7ECFBE1
:101E00000023D7A2F1214FF4CA70FFF7E5FB10BD04
:101E100010B50446FFF710FD0CB1012C69D16FF02D
:101E20007F40B7490860B7484860AB48D0F84C03DA
:101E300001282CD10023CCA2F1215420FFF7CCFBA8
:101E40000023CBA2E721A420FFF7C6FB0023CAA2F0
:101E5000FB21A420FFF7C0FB0023C9A2E721F42047
:101E6000FFF7BAFB0023C4A2FB21F420FFF7B4FB69
:101E70000023B5A2F1214FF4A270FFF7ADFB0023C0
:101E8000B3A2F1214FF4CA70FFF7A6FB81E092489C
:101E9000D0F84C0300287CD10023BBA2F1215420B0
:101EA000FFF79AFB0023BAA2E721A420FFF794FBD7
:101EB0000023B9A2FB21A420FFF78EFB0023B8A2C8
:101EC000E721F420FFF788FB0023B3A2FB21F420D5
:101ED000FFF782FB0023A0A2F1214FF4A270FFF7CD
:101EE0007BFB00239EA2F1214FF4CA70FFF774FB25
:101EF0004FE06FF07F408249086082484860764832
:101F0000D0F84C03012820D1002397A2F1215420BE
:101F1000FFF762FB002398A2E721A420FFF75CFBF8
:101F20000023A1A2FB21A420FFF756FB002386A2D9
:101F3000F1214FF4A270FFF74FFB002384A2F1219F
:101F40004FF4CA70FFF748FB23E06348D0F84C0316
:101F5000F8B900238CA2F1215420FFF73DFB0023A8
:101F60008DA2E721A420FFF737FB002390A2FB21DD
:101F7000A420FFF731FB002377A2F1214FF4A270D8
:101F8000FFF72AFB002376A2F1214FF4CA70FFF776
:101F900023FB10BD10B50446FFF74EFC002C46D1C4
:101FA0006FF07F4056490860564848604A48D0F86C
:101FB0004C0301281AD100237FA2F2215320FFF7FE
:101FC0000BFB00237EA2F221A320FFF705FB0023D9
:101FD0007DA2F221F320FFF7FFFA0023AFF278325F
:101FE000F22140F24310FFF7F7FA78E13A48D0F8CF
:101FF0004C030028F9D10023AFF26432F2215320C0
:10200000FFF7EAFA002372A2F221A320FFF7E4FA15
:10201000002372A2F221F320FFF7DEFA0023AFF2D1
:10202000A432F22140F24310FFF7D6FA57E1012C17
:1020300050D16FF07F4032490860324848602648EE
:10204000D0F84C03012833D1002367A2E7215420A4
:10205000FFF7C2FA002366A2FB215420FFF7BCFA67
:10206000002365A2E721A420FFF7B6FA002364A2AB
:10207000FB21A420FFF7B0FA002363A2F121F42092
:10208000FFF7AAFA00235EA2FB21F420FFF7A4FACF
:102090000023AFF2C432E7214FF4CA70FFF79CFA75
:1020A00000235BA2FB214FF4CA70FFF795FA16E1FB
:1020B0000948D0F84C03002897D1002356A2E72105
:1020C0005420FFF789FA002305A2FB215420FFF7D3
:1020D00083FAA5E0CFE00000C8040010CEC4BCFE27
:1020E000B9DCC0ED00000000B1A3B4E6CAFDBEDD5E
:1020F00000000000B8FCB6E000000000322F320003
:10210000280000103800310043414E43454C200068
:10211000434F4E4649524D002020C8A1CFFB20001E
:102120002020C8B7C8CF2000434C45410000000024
:102130004C49535400000000C7E5B3FD0000000007
:10214000B1EDB8F1000000004C6173742050000044
:102150004E65787420500000C9CFD2BBD2B30000C6
:10216000CFC2D2BBD2B3000044656C526F7700007F
:102170004C494E450000000041544F5500000000FE
:102180004C4F472000000000C9BEB3FDD0D0000076
:10219000CFDFD0D400000000D7D4B6AF00000000DD
:1021A000B6D4CAFD00000000434F505900000000A3
:1021B000B8B4D6C6000000004D4541444953500014
:1021C000434F5252454354004C4D54534554000024
:1021D000D3C3BBA7D0A3D5FD00000000BCABCFDEAE
:1021E000C9E8D6C30000000046494C450000000085
:1021F0004D414E450000000053595320000000009F
:102200005345542000000000544F4F4C0000000084
:1022100020322F3200000000CEC4BCFE00000000BF
:102220000023FEA2E721A420FFF7D6F90023AFF296
:102230005002FB21A420FFF7CFF90023F9A2F121DE
:10224000F420FFF7C9F90023AFF26C02FB21F42060
:10225000FFF7C2F90023AFF26412E7214FF4CA700E
:10226000FFF7BAF90023AFF25802FB214FF4CA700E
:10227000FFF7B2F933E06FF07F40EC490860EC48BB
:102280004860EC48D0F84C03012812D10023EAA2A0
:10229000F2215320FFF7A0F90023E9A2F221A320A5
:1022A000FFF79AF90023E8A2F221F320FFF794F94F
:1022B00015E0E048D0F84C0388B90023E4A2F221ED
:1022C0005320FFF789F90023E4A2F221A320FFF7AE
:1022D00083F90023E4A2F221F320FFF77DF910BD7A
:1022E00010B56FF07F40D1490860D1484860D148AF
:1022F000D0F84C03012806D10023DEA2F22153209E
:10230000FFF76AF90AE0CB48D0F84C0330B9002354
:10231000AFF2A462F2215320FFF75EF910BD10B5B1
:102320006FF07F40C1490860C1484860C148D0F89B
:102330004C0301281AD10023D0A2F2215320FFF729
:102340004BF90023D0A2F221A320FFF745F9002387
:10235000D0A2F2214FF48370FFF73EF90023CFA201
:10236000F22140F29310FFF737F91DE0B148D0F8A1
:102370004C03C8B90023CCA2F2215320FFF72CF95B
:102380000023CCA2F221A320FFF726F90023CCA240
:10239000F2214FF48370FFF71FF90023CAA2F22144
:1023A00040F29310FFF718F910BD08B5C94816237D
:1023B000D222002100900846FEF703FD08BD08B5B3
:1023C000C548CD2340F2DF125C2100900020FEF7CB
:1023D000F8FC08BD08B5BF481623A02200210090D4
:1023E0000846FEF7EEFCFFF727FAFFF7E8FF08BD07
:1023F00010B5FFF7EFFF6FF07F408C490860B548DC
:1024000048608C48D0F84C03012806D10023B34A19
:1024100004211846FFF7E0F809E08648D0F84C039D
:1024200028B90023AE4A04211846FFF7D5F86FF00B
:102430007F407E4908604FF05010486000245BE008
:10244000032C2BD27B48D0F84C03012811D104EB8C
:102450008400A44B03EB400204EB440000EBC400F7
:102460001A2303EB400081B200231846FFF7B4F8AB
:1024700041E07048D0F84C0338BBC4EB04109A4BD1
:10248000C21804EB440000EBC4001A2303EB400025
:1024900081B200231846FFF79FF82CE06548D0F87A
:1024A0004C03012812D104EB84008E4B03EB400255
:1024B000E01E00EB400303EBC0001A2303EB4000D7
:1024C00081B20023FA20FFF787F814E05948D0F8CA
:1024D0004C0380B9C4EB0410834BC218E01E00EB20
:1024E000400303EBC0001A2303EB400081B200233A
:1024F000FA20FFF771F8641C062CA1D3FFF70BFB41
:1025000010BD08B57448BE2340F2DF12A021009030
:102510000020FEF756FC08BD08B56E481623A02221
:10252000002100900846FEF74CFCFFF785F9FFF705
:10253000E8FF08BD38B504464FF050103B494860ED
:102540006A4800EB84020123C8211420FFF744F8F5
:10255000674800EB84020123C8214FF48C70FFF719
:102560003BF85D48314948606248372328227A2188
:1025700000905020FEF74EFE5F48372328227A2134
:1025800000907820FEF746FE5C48372328227A2107
:1025900000908C20FEF73EFE38BD10B5FFF7BCFF63
:1025A0006FF07F40214908604A4848602148D0F8D0
:1025B0004C03012807D10023484A1632042118464B
:1025C000FFF70AF80AE01B48D0F84C0330B90023A3
:1025D000434A163204211846FEF7FEFF6FF07F4093
:1025E000124908604FF0501048600024CCE0032CE2
:1025F00012D21048D0F84C0301280ED1404800EB0D
:10260000C40204EB440000EBC4001A2303EB4000B7
:1026100081B20023184675E08BE076E0CFB5CDB3EC
:1026200000000000B9A4BEDF000000002800001078
:1026300038003100C8040010564F4C43616C000054
:102640004374726C43616C0043757243616C0000AB
:10265000B5E7D1B9D0A3D5FD00000000BFD8D6C6DC
:10266000D0A3D5FD00000000B5E7C1F7D0A3D5FD8C
:10267000000000004D656173536574004320436F93
:1026800072726574000000005220436F72726574AC
:10269000000000004578697400000000436C65206C
:1026A000436F727200000000B5E7C8DDD0A3D5FD0E
:1026B00000000000B5E7D7E8D0A3D5FD000000007A
:1026C000CDCBB3F600000000C7E5B3FDD0A3D5FD28
:1026D00000000000F352030034346500C18801009B
:1026E000CF870100E9790100397A0100317E0100CC
:1026F0008D7E010079AC0100BCBE0100CFBF01009E
:1027000013860100FEF768FF3DE0FE48D0F84C0359
:1027100020BBFD4800EBC40204EB440000EBC40006
:102720001A2303EB400081B200231846FEF754FF42
:1027300029E0F448D0F84C03012810D1F34800EB0D
:10274000C402E01E00EB400303EBC0001A2303EBBE
:10275000400081B20023FA20FEF73EFF13E0E94873
:10276000D0F84C0378B9E84800EBC402E01E00EB57
:10277000400303EBC0001A2303EB400081B20023A7
:10278000FA20FEF729FF641C062CFFF430AFDD4968
:1027900091F88803FFF7CEFE0020FFF7E8F910BD9F
:1027A00008B5DB48A02340F2DF125621009000203C
:1027B000FEF707FBD648E32340F2DF12C121009069
:1027C0000020FEF7FEFA08BD08B5D2481623B22253
:1027D000002100900846FEF7F4FAFFF72DF8FFF706
:1027E000DFFF08BD2DE9F04104460D461646CA4BF1
:1027F0001B5D03EB4303C94FDA19B1B2A8B2002342
:10280000FEF7EAFEBDE8F08110B5FFF7DDFF6FF0DF
:102810007F40C3490860BF484860BA48D0F84C03BD
:10282000012806D10023BF4A04211846FEF7D4FE32
:1028300009E0B448D0F84C0328B90023BA4A04216F
:102840001846FEF7C9FE6FF07F40B54908604FF0AB
:1028500050104860002479E0012C27D1A948D0F815
:102860004C0301280ED1C4EBC401B04BCA1804EBD1
:1028700084011E2303EB411188B200231821FEF7C7
:10288000ABFE62E09F48D0F84C0300285DD1C4EB5A
:10289000C401A74BCA1804EB84011E2303EB4111AA
:1028A00088B200231821FEF797FE4EE0022C26D1B5
:1028B0009448D0F84C0301280ED1C4EBC4019B4BC3
:1028C000CA1804EB8401282303EB411188B20023CA
:1028D0001821FEF781FE38E08A48D0F84C0308BB87
:1028E000C4EBC401924BCA1804EB8401282303EB08
:1028F000411188B200231821FEF76EFE25E08148C1
:10290000D0F84C0301280ED1C4EBC401874BCA1880
:1029100004EB84014FF6FF7303EA411000231821F2
:10292000FEF75AFE11E07748D0F84C0368B9C4EBC3
:10293000C4017F4BCA1804EB84014FF6FF7303EA0E
:10294000411000231821FEF747FE641C032C83D39B
:102950006C48D0F8900300EB400101EBC0007549D2
:102960004218012318213C20FEF736FE654A92F8F2
:10297000EC100023D2F8E8000622FEF7F3FE012354
:102980006D4A1821FA20FEF727FE5E48D0F8F000C5
:1029900000EB400069494218012318214FF4A07050
:1029A000FEF71AFE57491822D1F888034FF4A57193
:1029B000FFF718FF002362A22C211846FEF76FFED6
:1029C000002360A22C217820FEF769FE00235FA27D
:1029D0002C21FA20FEF763FE00235EA22C2140F298
:1029E0009D10FEF75CFE06243FE0A01F012801D9E0
:1029F000072802D3A01F082803D945484849486042
:102A000003E04FF0501046494860A01F00EB400122
:102A1000524800EB01104068E0B1A21F02EB4203F4
:102A20004E4A02EB0312117AA21F02EB42034B4AF9
:102A300002EB0312012350680622FEF793FEA01F4B
:102A4000C0EB00103A3081B201233B4A7820FEF7F8
:102A500026FE09E0A01FC0EB00103A3081B201232E
:102A60003FA27820FEF71BFE641C0F2CBDD3284824
:102A70002B4948602348D0F8D40278B1214A92F813
:102A8000D8120123D2F8D4020622FEF76BFE0123EE
:102A9000294AC421FA20FEF702FE05E0012330A2F4
:102AA000C421FA20FEF7FBFD10247DE0A4F1100004
:102AB000012801D9072803D3A4F11000082803D95D
:102AC00013481749486003E04FF05010144948601C
:102AD000A4F1100000EB4001204800EB0110C06998
:102AE00070B1A4F1100202EB42031C4A02EB031284
:102AF00092F82010A4F1100202EB4203174A33E0CF
:102B000045E00000C8040010E385010013860100C1
:102B100034346500F35203002A8C0100428C01001A
:102B200028000010ED880100FB870100C889010022
:102B3000B3890100A07F01001C4600100F8C01002A
:102B400042494E004C4F57205B465D00484947487C
:102B50005B465D00434F554E54000000D005001009
:102B60002D2D2D2D2D2D000002EB03120123D069F8
:102B70000622FEF7F7FDA4F11000C0EB00103A307A
:102B800081B20123FE4AFA20FEF789FD0BE0A4F191
:102B90001000C0EB00103A3081B20123AFF24002C6
:102BA000FA20FEF77CFD641C192CFFF47FAFF5487A
:102BB000F5494860F548D0F8D40278B1F34A92F864
:102BC000C0120123D2F8BC020622FEF7CBFD01237E
:102BD000EB4AC4217820FEF762FD06E00123AFF244
:102BE0008002C4217820FEF75AFD012419E0022C4E
:102BF00005D9082C03D2E348E349486003E04FF0CD
:102C00005010E1494860601E00EBC000E04BC21864
:102C1000C4EB04102B3081B200230820FEF73FFDE7
:102C2000641C0A2CE3D3D748D7494860D748D0F86A
:102C30008803D84901EB80020023C4211846FEF71F
:102C40002EFD0023D4A2D4211846FEF728FD002330
:102C5000D3A2D421F820FEF722FD0020FEF787FF43
:102C600010BD08B5C748A02340F2DF12AF21009085
:102C70000020FEF7A6F808BD10B5FFF796FBFEF79B
:102C8000DBFDFFF7EEFF10BD10B5FFF7F5FF6FF0AE
:102C90007F40BD490860C44848600023C34A0421FE
:102CA0001846FEF799FC6FF07F40B74908604FF077
:102CB00050104860B548D0F84C03012812D10023C9
:102CC000BBA21A211846FEF787FC0023BAA23021C6
:102CD0002820FEF781FC0023BAA230218C20FEF7C9
:102CE0007BFC15E0A948D0F84C0388B90023B7A2B3
:102CF0001A211846FEF770FC0023B6A230212820C6
:102D0000FEF76AFC0023B6A230218C20FEF764FC9B
:102D10000023B5A23021F020FEF75EFC0023B4A210
:102D200030214FF4AA70FEF757FC0023B2A23021E5
:102D30004FF4DC70FEF750FC0020FEF718FF10BDCA
:102D400008B590489A2340F2DF125A2100900020E3
:102D5000FEF737F808BD08B593481623A8220021CE
:102D600000900846FEF72DF8FEF766FDFFF7E8FF36
:102D700008BD10B5002439E0052C19DA032C01D068
:102D8000042C03D17F488049486003E04FF0501085
:102D90007D49486004EB440000EBC4001A2202EBBA
:102DA0004000411C002395A24820FEF715FC1BE0C3
:102DB000082C01D0092C03D172487349486003E004
:102DC0004FF0501070494860601F00EB400202EB6A
:102DD000C0001A2202EB4000401C81B2002387A2EF
:102DE0004FF4A170FEF7F8FB601CC4B20A2CC3DBE1
:102DF00010BD10B5FFF7AFFF6FF07F40624908606C
:102E0000694848606148D0F84C03012807D1002385
:102E1000664A163204211846FEF7DEFB09E05B48DD
:102E2000D0F84C0328B90023754A04211846FEF750
:102E3000D3FB6FF07F40544908604FF0501048605A
:102E400000247AE05148D0F84C03012838D1032CF3
:102E50001AD2022C05D9052C03D24A484A494860A7
:102E600003E04FF050104849486004EB8400654B84
:102E700003EB4002162304FB03F01A3081B2002357
:102E80001846FEF7A9FB57E0E01E022805D90528E1
:102E900003D23C483C49486003E04FF050103A49A7
:102EA000486004EB8400574B03EB4002E01E1623FE
:102EB00058431A3081B20023FA20FEF78DFB3BE025
:102EC0003248D0F84C03B8BB032C1AD2022C05D9D7
:102ED000052C03D22B482C49486003E04FF05010DA
:102EE0002949486004EB4400474B03EB800216235A
:102EF00004FB03F01A3081B200231846FEF76CFB86
:102F00001AE0E01E022805D9052803D21D481E49F3
:102F1000486003E04FF050101B49486004EB440048
:102F2000394B03EB8002E01E162358431A3081B25E
:102F30000023FA20FEF750FB641C062C82D30020ED
:102F4000FFF728F810BDF8B505464FF050100E49B0
:102F500048600E48D0F8880300EBC0002B494218A7
:102F600001231A214920FEF737FB0848D0F89003C7
:102F700000EB400101EBC00025494218012349E064
:102F80001C4600103434650028000010C8040010EE
:102F9000987901008D7E01004155583A00000000EB
:102FA0004F55543A00000000F3520300038901001A
:102FB0004D657468203A0000467265715B487A5D21
:102FC000000000004C65766C5B565D00B7BDCABD65
:102FD000203A0000C6B5C2CA5B487A5D0000000016
:102FE000B5E7C6BD5B565D0043705B465D00000003
:102FF000445B205D00000000434D50003A0000009B
:10300000278801008B86010043860100597D01005D
:10301000A07F010030214920FEF7DEFAFE48D0F8FB
:10302000940300EB400101EBC000FC49421801236E
:1030300046214920FEF7D0FAF748D0F8C40300EB48
:10304000400101EBC000F649421800231A2140F26A
:103050004310FEF7C1FAF048D0F8C80300EB400176
:1030600001EBC000EF4942180123302140F2431028
:10307000FEF7B2FA2878012800D100E000200646C9
:103080001EB1FF20E849486003E04FF05010E649C8
:103090004860E548406858234FF4C47244210090CA
:1030A0004FF4A170FDF78DFEDB48D0F8040100EB72
:1030B000400101EBC000DD4942180123462140F2E6
:1030C0004310FEF789FAFEF7B7FB287801282FD1C5
:1030D0006FF07F40D4490860D5484860002424E060
:1030E0008CB904EB440101EBC401D04BCA1804EBCA
:1030F0008401542303EB0111143188B20023F12120
:10310000FEF76AFA10E004EB440101EBC401C74B7F
:10311000CA1804EB8401542303EB0111193188B25E
:103120000023F121FEF758FA641C022CD8D302E0E8
:103130000020FEF71CFDF8BDF8B505464FF0501015
:10314000B94948602878012800D100E000200646EF
:103150001EB1FF20B449486003E04FF05010B2495F
:103160004860B148406828234FF4E6721821009067
:1031700040F2A310FDF725FEA748D0F8180300EB96
:10318000400101EBC000A9494218012318214FF466
:10319000D270FEF721FAFEF74FFB287801282FD1D5
:1031A0006FF07F40A0490860A1484860002424E0F7
:1031B0008CB904EB440101EBC4019C4BCA1804EB2D
:1031C0008401542303EB0111143188B20023F1214F
:1031D000FEF702FA10E004EB440101EBC401934B4B
:1031E000CA1804EB8401542303EB0111193188B28E
:1031F0000023F121FEF7F0F9641C022CD8D302E081
:103200000020FEF7B4FCF8BD70B50546012466E168
:10321000022C05DD072C03DA86488349486003E069
:103220004FF0501080494860601E7B4991F80D14A2
:1032300001EB810100EB410000EB80017E4800EBD7
:1032400081008068401C40B9332000EB041100234A
:103250007AA2F620FEF723FA27E0621E6E4B93F85F
:103260000D3403EB830302EB430202EB8203724A49
:1032700002EB8302117B621E674B93F80D3403EB64
:10328000830302EB430202EB82036B4A02EB8302ED
:10329000012390680522FEF765FA332000EB041144
:1032A0000023684AF620FEF7FAF9601E5A4991F8A1
:1032B0000D1401EB810100EB410000EB800162483D
:1032C00000EB81008068401C48B9332000EB0411FA
:1032D00000235AA24FF4AD70FEF7E1F928E0621E18
:1032E0004D4B93F80D3403EB830302EB430202EBE7
:1032F0008203554A02EB8302117B621E464B93F810
:103300000D3403EB830302EB430202EB82034E4ACC
:1033100002EB8302012390680522FEF723FA332093
:1033200000EB04110023474A4FF4AD70FEF7B7F9E4
:10333000601E394991F80D1401EB810100EB410148
:103340004248405CFF2809D1332000EB04110023E0
:103350003FA24FF4DF70FEF7A2F91DE0601E2E4978
:1033600091F80D1401EB810100EB41013748405CFD
:1033700048B1332000EB0411002336A24FF4DF7074
:10338000FEF78DF908E0332000EB0411002332A290
:103390004FF4DF70FEF783F9022C05DD072C03DA0A
:1033A00024482149486003E04FF050101E4948600E
:1033B000601E194991F80D1401EB810100EB4101E8
:1033C0002648405C1E2808DD332000EB0411002352
:1033D0001AA22620FEF763F916E0601E0E4B93F842
:1033E0000D3403EB830300EB43031C48C05C00EB8C
:1033F000400303EBC0001A4BC218332000EB04114A
:1034000000232620FEF74BF9601E034991F80D14A6
:1034100001EB810126E00000C8040010B581010025
:10342000E68101006E82010028000010A7820100E1
:1034300038003100343465007C0A00102D2D2D2D0C
:10344000000000001C460010E41A00104C2B001075
:103450002D0000005000000046000000D6080010BB
:10346000A07F010000EB4101FE48405C022809DD1D
:10347000332000EB04110023AFF240029220FEF74C
:103480000EF916E0601EF84B93F80D3403EB83033E
:1034900000EB4303F348C05C00EB400303EBC000C8
:1034A000F24BC218332000EB041100239220FEF7E8
:1034B000F6F8ED4991F80D1401EB810104EB4100A0
:1034C000012303220021FEF74DF9332000EB041104
:1034D0000023E74A0820FEF7E2F8601CC4B20B2C78
:1034E000FFF696AE70BDF8B505462878022802D1E1
:1034F000FEF73CFC05E02878022802DDA878FEF7FC
:1035000087FC2878012805D1A87818B9FF20D94967
:10351000486003E04FF05010D6494860D5484068F5
:103520002A235E221A2100903620FDF74AFCCE485D
:10353000D0F8400300EBC000CF49421800231A2105
:103540003620FEF749F82878022805D1A87818B95E
:10355000FF20C849486003E04FF05010C54948605B
:10356000C448406842231E22322100900020FDF70B
:1035700028FC0023C1A232211846FEF72DF80324AF
:10358000D4E12878A04206D1A878022803D1FF20F0
:10359000B849486003E04FF05010B6494860B5485C
:1035A00040680090A01E332202EB0010103083B25E
:1035B000A01E02EB001081B24FF49972FA20FDF7C1
:1035C00000FCE01EE97801EB810100EB410000EB1B
:1035D0008001A448D43000EB81008068401C58B9B9
:1035E000A01E332202EB001081B20023AFF2B4120E
:1035F000FA20FEF754F827E0E21EEB7803EB830392
:1036000002EB430202EB8203964AD43202EB8302BE
:10361000117BE21EEB7803EB830302EB430202EB28
:103620008203904AD43202EB830201239068052280
:10363000FEF798F8A01E332202EB001081B200239F
:103640008B4AFA20FEF72BF82878A04206D1A878FA
:10365000032803D1FF208749486003E04FF0501052
:1036600084494860834840680090A01E332202EBE2
:103670000010103083B2A01E02EB001081B24FF494
:10368000C1724FF4A570FDF79CFBE01EE97801EBD9
:10369000810100EB410000EB8001794800EB8100E3
:1036A0008068401C60B9A01E332202EB001081B27A
:1036B0000023AFF278224FF4A570FDF7F0FF26E06B
:1036C000E21EEB7803EB830302EB430202EB82037F
:1036D0006B4A02EB8302117BE21EEB7803EB830360
:1036E00002EB430202EB8203654A02EB83020123F1
:1036F00090680522FEF736F8A01E332202EB001078
:1037000081B200235A4A4FF4A570FDF7C8FF28780C
:10371000A04206D1A878042803D1FF20554948606B
:1037200003E04FF050105349486052484068009001
:10373000A01E332202EB0010103083B2A01E02EB59
:10374000001081B240F2DF124FF4D270FDF739FB66
:10375000E01EE97801EB810100EB41014948405C42
:10376000FF280CD1A01E332202EB001081B20023EF
:10377000AFF238324FF4D270FDF791FF0BE0A01E8C
:10378000332202EB001081B20023AFF238324FF443
:10379000D270FDF784FF2878A04205D1A87818B927
:1037A000FF203449486003E04FF050103149486031
:1037B000304840680090A01E332202EB0010103009
:1037C00083B2A01E02EB001081B27E222820FDF7FA
:1037D000F8FAE01EE97801EB810100EB4101214894
:1037E000D238405C30280BDDA01E332202EB0010E3
:1037F00081B20023AFF2BC322820FDF750FF17E062
:10380000E01EEB7803EB830300EB43031548D2384B
:10381000C05C00EB400303EBC0001B4BC218A01EB2
:10382000332303EB001081B200232820FDF737FF7C
:103830002878A04206D1A878012803D1FF200D499D
:10384000486003E04FF050100A494860094840685A
:103850000090A01E332202EB0010103083B2A01E95
:1038600014E00000A8090010C8040010B581010090
:103870001C46001028000010597D01004E6F2E00DC
:10388000E41A00104C2B0010A07F010002EB001086
:1038900081B2C4227E20FDF794FAE01EE97801EBA4
:1038A000810100EB4101FE48405C02280BDDA01EB7
:1038B000332202EB001081B20023AFF280427E205F
:1038C000FDF7EDFE16E0E01EEB7803EB830300EB63
:1038D0004303F348C05C00EB400303EBC000F14B33
:1038E000C218A01E332303EB001081B200237E20F8
:1038F000FDF7D5FE4FF05010EB4948604860E9787D
:1039000001EB810104EB4101881E01230322002108
:10391000FDF728FFA01E332202EB001081B2002326
:10392000E24A0820FDF7BBFE601CC4B20D2CFFF676
:1039300028AEF8BDF8B505464FF05010DA4948609A
:103940002878012800D100E0002006461EB1FF20A3
:10395000D549486003E04FF05010D3494860D24841
:1039600040682A2358221A2100903020FDF729FAB6
:10397000CF4890F80C0400EB8000CE494218012398
:103980001A213020FDF728FE2878022801D10120D5
:1039900000E0002006461EB1FF20C349486003E056
:1039A0004FF05010C0494860BF48406840231E2275
:1039B000302100900820FDF704FA0123AFF24412F1
:1039C00030210820FDF708FEFDF736FF2878012892
:1039D00019D16FF07F40B4490860B74848600024AF
:1039E0000EE004EB8401B34BCA1804EB84015423AA
:1039F00003EB011188B20023F121FDF7EDFD641CFA
:103A0000022CEED320E0287802281AD16FF07F40F4
:103A1000A5490860A848486000240FE0C4EBC40131
:103A2000A64BCA18E11C01EB8101542303EB0111E1
:103A300088B20023F121FDF7CFFD641C022CEDD3E9
:103A400002E06878FEF793F8F8BDF8B504469848A8
:103A5000D0F8D00301280FD14FF0501092494860A0
:103A60000123974AD2211E20FDF7B6FD0123944A77
:103A7000D2219620FDF7B0FD2078012800D100E08A
:103A8000002006461EB1FF208749486003E04FF042
:103A90005010854948608B4900230522486803215E
:103AA000FDF760FE804840682C23C022182100905A
:103AB0006720FDF786F900237C4A1A216820FDF76C
:103AC0008BFD012380A21A21AE20FDF785FD207811
:103AD000022801D1012000E0002006461EB1FF208F
:103AE0007149486003E04FF050106F4948607549D4
:103AF00000230522C8690321FDF734FE6A484068A7
:103B00004223C0222E2100906720FDF75AF900239E
:103B1000664A30216820FDF75FFD01236BA230214A
:103B2000AE20FDF759FD2078032801D1012000E0E7
:103B3000002006461EB1FF205B49486003E04FF0BD
:103B40005010594948605F4900230522486B032102
:103B5000FDF708FE544840685823C02244210090D5
:103B60006720FDF72EF90023504A46216820FDF713
:103B700033FD012355A24621AE20FDF72DFD20780F
:103B8000042801D1012000E0002006461EB1FF20DC
:103B90004549486003E04FF05010434948604949A7
:103BA00091F8081101EB41024649483101EBC2018D
:103BB0000023052248680321FDF7D4FD3A484068F8
:103BC0002C234FF4E1721821009040F27110FDF7A0
:103BD000F8F80023354A1A214FF4B970FDF7FCFCC0
:103BE000012339A21A214FF4DC70FDF7F5FC20788F
:103BF000052801D1012000E0002006461EB1FF206B
:103C00002949486003E04FF05010274948602D498A
:103C100000230322D1F8DC001946FDF7A3FD22485A
:103C20004068422340F2C3122E21009040F27110EE
:103C3000FDF7C7F800231D4A30214FF4B970FDF796
:103C4000CBFC012322A230214FF4D770FDF7C4FC36
:103C50002078062801D1012000E0002006461EB190
:103C6000FF201149486003E04FF050100E494860B2
:103C7000144900230322D1F8F4001946FDF772FD20
:103C800009484068582340F2C3124421009040F292
:103C90007110FDF796F80023044A46211AE000004F
:103CA000A8090010B5810100280000101C46001072
:103CB000C8040010BD82010038003100C782010035
:103CC000B2820100D83F0010560000004100000001
:103CD0006D7300004FF4B970FDF77EFC0123AFF265
:103CE000100246214FF4D770FDF776FCFDF7A4FDD6
:103CF0002078062858D2DFE800F0030607080956A6
:103D0000FDF709FF51E050E04FE04EE06FF07F40DB
:103D1000FE490860FE484860607800BB00251BE053
:103D2000617801EB4101294401EB4102F94901EBC2
:103D3000C2010023052248680321FDF713FD05EBAE
:103D40008501542202EB0111091D88B20023F24AB9
:103D5000F121FDF741FC6D1C032DE1D322E06078D9
:103D600001281FD100251BE0617801EB41012944A6
:103D700001EB4102E74901EBC2010023052248683B
:103D80000321FDF7EFFC05EB8501542202EB011145
:103D9000091D88B20023E04AF121FDF71DFC6D1CCE
:103DA000032DE1D301E000E000BF00BFF8BD38B54E
:103DB00004462078012800D100E0002005461DB10E
:103DC000FF20D249486003E04FF05010CF494860CF
:103DD000D049483900230522C86C0321FDF7C2FCF5
:103DE000CA4840682C23C022182100906720FCF7A5
:103DF000E8FF0023C84A1A216820FDF7EDFB0123E4
:103E0000AFF23C121A21AE20FDF7E6FB2078022823
:103E100001D1012000E0002005461DB1FF20BB4973
:103E2000486003E04FF05010B8494860B94948393C
:103E300000230522486E0321FDF794FCB348406837
:103E40004223C0222E2100906720FCF7BAFF0023F6
:103E5000B14A30216820FDF7BFFB0123AFF2981271
:103E60003021AE20FDF7B8FB2078032801D10120D6
:103E700000E0002005461DB1FF20A449486003E092
:103E80004FF05010A1494860A2494839002305224B
:103E9000C86F0321FDF766FC9C4840685823C02288
:103EA000442100906720FCF78CFF00239A4A4621AA
:103EB0006820FDF791FB0123AFF2F4124621AE20FA
:103EC000FDF78AFB2078042801D1012000E00020C2
:103ED00005461DB1FF208D49486003E04FF05010AA
:103EE0008A4948608B49483900230522D1F894005B
:103EF0000321FDF737FC854840682C234FF4E1721D
:103F00001821009040F26110FCF75BFF0023824A09
:103F10001A214FF4B170FDF75FFB0123AFF2582275
:103F20001A214FF4D470FDF757FB2078052801D1F2
:103F3000012000E0002005461DB1FF2073494860C4
:103F400003E04FF05010714948607249483900232E
:103F50000522D1F8AC000321FDF704FC6B48406852
:103F600042234FF4E1722E21009040F26110FCF7E1
:103F700028FF0023684A30214FF4B170FDF72CFB75
:103F80000123AFF2BC2230214FF4D470FDF724FBA3
:103F90002078062801D1012000E0002005461DB14F
:103FA000FF205A49486003E04FF0501057494860DD
:103FB0005849483900230522D1F8C4000321FDF7F0
:103FC000D1FB5248406858234FF4E17244210090DD
:103FD00040F26110FCF7F5FE00234F4A46214FF4F2
:103FE000B170FDF7F9FA0123AFF2243246214FF404
:103FF000D470FDF7F1FAFDF71FFC207818B960784E
:10400000FDF7C8FF00BF00BF38BD2DE9F0410446F1
:104010000D46164604EB4403404FDA19B1B2A8B27C
:104020000123FDF73CFBBDE8F081F8B505464FF0F4
:104030005010364948603A48D0F8FC0078B9384901
:104040003F22D1F888034FF4B971FFF7DEFF3449FE
:104050003F22D1F88803C821FFF7D7FF0CE00023E7
:1040600030A23F214FF4B970FDF719FB00232DA2B8
:104070003F21C820FDF713FB2878012800D100E07C
:10408000002006461EB1FF202049486003E04FF0A3
:1040900050101E4948601D4840682A239922182163
:1040A00000904520FCF78DFE1D48D0F8880300EBFA
:1040B000C0001D494218012318214620FDF78CFA43
:1040C0002878022801D1012000E0002006461EB118
:1040D000FF200E49486003E04FF050100B49486044
:1040E0000F4A92F8EC100023D2F8E8000522FDF701
:1040F00039FB064840682A2340F2451218210090F7
:10410000E220FCF75EFE0123034A0FE028000010C6
:1041100038003100204000101C460010428C010085
:10412000C804001025000000597D01001821E52079
:10413000FDF752FAFA48D0F8F00000EB4000F949D8
:1041400042180123182140F22910FDF745FAF449DD
:104150001822D1F8880340F23311FEF743FB287888
:10416000032801D1012000E0002006461EB1FF20F7
:10417000ED49486003E04FF05010EB494860EA48D1
:1041800040682A2340F2DD121821009040F28F107F
:10419000FCF717FEE248D0F8FC00E44901EB80028E
:1041A000012318214FF4C870FDF716FA2878042867
:1041B00001D1012000E0002006461EB1FF20DA49AF
:1041C000486003E04FF05010D7494860D648406837
:1041D0003E2399222C2100904520FCF7F2FDD04887
:1041E000D0F8E00000EB8000D149421800232C21D8
:1041F0004620FDF7F1F92878052801D1012000E0DB
:10420000002006461EB1FF20C749486003E04FF07A
:104210005010C5494860C44840683E234FF49C7222
:104220002C210090E420FCF7CCFDBD48D0F804011F
:1042300000EB8000BE49421801232C21E520FDF748
:10424000CBF906246DE02878A04203D1FF20B649BF
:1042500048600CE0A01F022805D9072803D2B54802
:10426000B149486003E04FF05010AF494860AE4894
:1042700040680090A01FC0EB00105C3083B2A01F0C
:10428000C0EB00104C3081B2E6229420FCF799FD7F
:10429000A01F00EB4001A84800EB01104068A0B34C
:1042A000A21F02EB4203A44A02EB0312117AA21FDF
:1042B00002EB4203A04A02EB0312002350680522DE
:1042C000FDF750FAA01FC0EB00104C3081B2012363
:1042D0009A4AA020FDF7E3F99148D0F8FC00F8B91C
:1042E000A01F00EB4003944800EB0310C06800EBF4
:1042F00040008C4BC218A01FC0EB00104C3081B2A4
:104300000123D020FDF7CBF90AE0FFE7A01FC0EBA7
:1043100000104C3081B20123894AA020FDF7BFF97B
:10432000641C0F2C8FD310247DE02878A04203D189
:10433000FF207D4948600DE0A4F11000022805D956
:10434000072803D27B487849486003E04FF05010BB
:1043500075494860744840680090A4F11000C0EBB3
:1043600000105C3083B2A4F11000C0EB00104C30A0
:1043700081B24FF4C3724FF49A70FCF722FDA4F19E
:10438000100000EB40016C4800EB0110C069E0B385
:10439000A4F1100202EB4203674A02EB031292F807
:1043A0002010A4F1100202EB4203634A02EB031255
:1043B0000023D0690522FDF7D5F9A4F11000C0EB68
:1043C00000104C3081B200235C4A4FF4A570FDF719
:1043D00066F95348D0F8FC0020BBA4F1100000EBB4
:1043E0004003554800EB0310406A00EB40004D4B82
:1043F000C218A4F11000C0EB00104C3081B20123B0
:104400004FF4BD70FDF74BF90CE0FFE7A4F110008D
:10441000C0EB00104C3081B20123494A4FF4A57023
:10442000FDF73DF9641C192CFFF47FAF28780F28A5
:1044300003D1FF203C49486003E04FF050103A4957
:10444000486039484068E323E622D3210090942055
:10445000FCF7B7FC324A92F8C0120023D2F8BC0233
:104460000522FDF77FF90123344AD321A020FDF76F
:1044700016F92B48D0F8C40200EB40002949421835
:104480000123D321D020FDF70AF92878192803D178
:10449000FF202549486003E04FF050102249486052
:1044A00021484068E3234FF4C372D32100904FF4B6
:1044B0009A70FCF786FC1A4A92F8D8120023D2F8B8
:1044C000D4020522FDF74EF900231C4AD3214FF4F4
:1044D000A570FDF7E4F81248D0F8DC0200EB4000CC
:1044E000104942180123D3214FF4BD70FDF7D7F8CE
:1044F000FDF7A2F92878062874D2DFE800F0030758
:10450000080947746878FDF745FDC3E0C2E0C1E0E3
:104510006FF07F40044908600A484860002432E098
:10452000C80400100F8C010028000010818A0100CF
:104530001483010034346500D00500101C460010BF
:10454000602B00003800310074B9F34901EB84029C
:1045500004EB8401542303EB0111143188B20023CE
:10456000F121FDF739F80DE0EB4901EB840204EB92
:104570008401542303EB01111E3188B20023F12181
:10458000FDF72AF8641C022CDED383E06FF07F4035
:10459000E2490860E2484860002420E07CB904EB6E
:1045A0008401E04BCA1804EB8401542303EB01118E
:1045B000143188B20023F121FDF70EF80EE004EB70
:1045C0008401D84BCA1804EB8401542303EB011176
:1045D000193188B20023F121FCF7FEFF641C022C84
:1045E000DCD357E02BE06FF07F40CC490860CC482B
:1045F0004860002420E07CB904EB8401C94BCA1850
:1046000004EB8401542303EB0111143188B200231D
:10461000F121FCF7E1FF0EE004EB8401C14BCA1865
:1046200004EB8401542303EB0111193188B20023F8
:10463000F121FCF7D1FF641C022CDCD32AE06FF0DF
:104640007F40B6490860B6484860B748D0F84C0388
:1046500001280DD10023B5A2F1215D20FCF7BCFF9C
:104660000023B4A2F2214FF4CA70FCF7B5FF10E0AA
:10467000AD48D0F84C0360B90023B0A2F1215D2011
:10468000FCF7AAFF0023AFA2F2214FF4CA70FCF797
:10469000A3FF00BF00BFF8BDF8B505462878012884
:1046A00000D100E0002006461EB1FF209B49486073
:1046B00003E04FF0501099494860984840682C2317
:1046C000C022182100905820FCF77BFB9648006818
:1046D00000EB80009349421801231A215820FCF76F
:1046E0007BFF2878022801D1012000E00020064647
:1046F0001EB1FF208949486003E04FF05010874900
:104700004860864840684223C0222E2100905820ED
:10471000FCF757FB8448406800EB80008149421851
:10472000012330215820FCF757FFFDF785F8287842
:10473000152878D2DFE800F00B0F94BED7EEEDEC31
:10474000EBEAE9E8E7E6E5E4E3E2E1E0DF006878E8
:10475000FDF720FC75E2687848BB6FF07F406F4939
:1047600008606F48486000241EE074B9784901EB86
:10477000C40204EB8401542303EB0111133188B20A
:104780000023F121FCF728FF0DE0714901EBC40281
:1047900004EB8401542303EB0111183188B2002388
:1047A000F121FCF719FF641C022CDED357E0687876
:1047B000012839D16FF07F40584908605848486057
:1047C00000241FE0032C0ED1624901EBC40204EB6C
:1047D0008401542303EB0111133188B20023F1212A
:1047E000FCF7FAFE0DE05B4901EBC40204EB840127
:1047F000542303EB01110E3188B20023F121FCF7A1
:10480000EBFE641C042CDDD30023534AF22140F25A
:104810009310FCF7E1FE002350A2F22140F2BD10FC
:10482000FCF7DAFE1BE00BE26FF07F403B490860CB
:104830003B48486000234A4A4FF482715420FCF7F9
:10484000CBFE0023444AF22140F29310FCF7C4FE51
:10485000002344A2F22140F2BD10FCF7BDFEF0E1BE
:104860006FF07F402D4908602D48486000241EE00D
:1048700074B93D4901EBC40204EB8401542303EBFA
:104880000111133188B20023F121FCF7A5FE0DE0E0
:10489000354901EBC40204EB8401542303EB0111FD
:1048A000183188B20023F121FCF796FE641C022C1B
:1048B000DED3C6E16FF07F401849086018484860B1
:1048C00000240DE0294901EBC40204EB84015423C8
:1048D00003EB011188B20023F121FCF77DFE641C7B
:1048E000022CEFD3ADE16FF07F400C4908600C481B
:1048F000486000244DE0A2E1A0E19EE181E167E192
:104900004AE130E116E1F9E0DFE0C5E0ABE091E03B
:1049100077E05AE040E00000818A010028000010A2
:104920003800310014830100C804001043656C2076
:104930005200000043656C4C69737400C7E5B3FD19
:10494000D0D00000C7E5B3FDB1EDB8F10000000024
:10495000F7890100C97B0100D01C0000322F330011
:10496000F17B0100332F3300278A0100D68101003B
:1049700004EB440101EBC401FE4BCA1804EB8401B3
:10498000542303EB011188B20023F121FCF724FE2C
:10499000641C042CECD354E16FF07F40F6490860AE
:1049A000F648486000240DE0F54901EBC40204EB31
:1049B0008401542303EB011188B20023F121FCF799
:1049C0000BFE641C022CEFD33BE16FF07F40EA4901
:1049D0000860EA484860002410E004EB440101EB61
:1049E000C401E84BCA1804EB8401542303EB011102
:1049F00088B20023F121FCF7EFFD641C022CECD3FC
:104A00001FE16FF07F40DC490860DC48486000240B
:104A10000DE0DD4901EBC40204EB8401542303EBF8
:104A2000011188B20023F121FCF7D6FD641C022C91
:104A3000EFD306E16FF07F40CF490860CF48486070
:104A400000240DE0D04901EBC40204EB840154239F
:104A500003EB011188B20023F121FCF7BDFD641CBA
:104A6000022CEFD3EDE06FF07F40C3490860C348EC
:104A7000486000240DE0C54901EBC40204EB840149
:104A8000542303EB011188B20023F121FCF7A4FDAC
:104A9000641C032CEFD3D4E06FF07F40B64908606C
:104AA000B648486000240DE0B94901EBC40204EBAC
:104AB0008401542303EB011188B20023F121FCF798
:104AC0008BFD641C042CEFD3BBE06FF07F40AA4940
:104AD0000860AA48486000240DE0AE4901EBC4021A
:104AE00004EB8401542303EB011188B20023F1216C
:104AF000FCF772FD641C032CEFD3A2E06FF07F4043
:104B00009D4908609D484860002410E004EB440182
:104B100001EBC401A04BCA1804EB8401542303EB3E
:104B2000011188B20023F121FCF756FD641C022C10
:104B3000ECD386E06FF07F408F4908608F48486073
:104B400000240DE0904901EBC40204EB84015423DE
:104B500003EB011188B20023F121FCF73DFD641C39
:104B6000022CEFD36DE06FF07F40834908608348EB
:104B7000486000240DE0824901EBC40204EB84018B
:104B8000542303EB011188B20023F121FCF724FD2B
:104B9000641C022CEFD354E06FF07F40764908602C
:104BA00076484860002410E004EB440101EBC401A6
:104BB0007A4BCA1804EB8401542303EB011188B229
:104BC0000023F121FCF708FD641C022CECD338E033
:104BD0006FF07F40684908606848486000240DE035
:104BE0006B4901EBC40204EB8401542303EB011174
:104BF00088B20023F121FCF7EFFC641C042CEFD3F6
:104C00001FE06FF07F405C4908605C48486000240A
:104C100010E004EB440101EBC401604BCA1804EB43
:104C20008401542303EB011188B20023F121FCF726
:104C3000D3FC641C042CECD303E002E001E000E0B0
:104C400000BF00BFF8BDF8B505462878012800D19F
:104C500000E0002006461EB1FF204749486003E0FF
:104C60004FF0501044494860434840682C23C0220C
:104C70001A2100905E20FCF7A4F84948D0F84C03B4
:104C8000012806D1002347A21C215F20FCF7A4FCC9
:104C900009E04348D0F84C0328B9002343A21C2163
:104CA0005F20FCF799FC2878022801D1012000E060
:104CB000002006461EB1FF202F49486003E04FF058
:104CC00050102D4948602C4840684223C0223021B2
:104CD00000905E20FCF775F8364890F87D0200EBF6
:104CE000800035494218012332215F20FCF774FC13
:104CF0002878032801D1012000E0002006461EB1DB
:104D0000FF201D49486003E04FF050101A494860E9
:104D1000194840685823C022462100905E20FCF7C5
:104D200050F8244890F87E0200EB80002249421897
:104D3000012348215F20FCF74FFC2878042801D18B
:104D4000012000E0002006461EB1FF200A4948600D
:104D500003E04FF0501008494860074840686E2350
:104D6000C0225C2100905E20FCF72BF80C48D0F8A4
:104D70004C0323E059830100280000103800310063
:104D800023830100CB8301005E82010022840100A5
:104D9000338201008F820100A7820100A9840100F3
:104DA000C80400104272696400000000B5E7C7C57E
:104DB000000000000442001014830100FE4901EBD2
:104DC000C00200235E215F20FCF706FC287805283E
:104DD00001D1012000E0002006461EB1FF20F74966
:104DE000486003E04FF05010F4494860F3484068D1
:104DF0008423C022722100905E20FBF7E2FF002393
:104E0000EFA274215F20FCF7E7FB2878062801D188
:104E1000012000E0002006461EB1FF20E74948605F
:104E200003E04FF05010E5494860E44840689A2399
:104E30007322882100905E20FBF7C3FFE249012323
:104E40000222C8690021FCF78DFC0023DF4A8A2179
:104E50005F20FCF7C1FB4FF05010D8494860002399
:104E6000DBA28A217320FCF7B7FB2878072801D141
:104E7000012000E0002006461EB1FF20CF49486017
:104E800003E04FF05010CD494860CC4840689A2369
:104E90009122882100907C20FBF793FFCA490123CF
:104EA000022288690021FCF75DFC0023C74A8A21A1
:104EB0007D20FCF791FB4FF05010C0494860002363
:104EC000C3A28A219120FCF787FB2878082801D10A
:104ED000012000E0002006461EB1FF20B7494860CF
:104EE00003E04FF05010B5494860B44840689A2339
:104EF000B122882100909C20FBF763FFB249012377
:104F00000222C8680021FCF72DFC0020AF49887000
:104F100000230A468A219D20FCF75EFB4FF05010CB
:104F2000A64948600023ABA2A0211846FCF754FB19
:104F30000023AB4AA0215E20FCF74EFB287809280D
:104F400001D1012000E0002006461EB1FF209B4950
:104F5000486003E04FF05010984948609748406817
:104F60002C234FF4DD721A2100904FF4AC70FBF744
:104F700028FF00239B4A1C2140F25910FCF72CFB10
:104F800028780A2801D1012000E0002006461EB141
:104F9000FF208A49486003E04FF05010874948607D
:104FA0008648406842234FF4DD72302100904FF470
:104FB000AC70FBF706FF01238B4A322140F25910F7
:104FC000FCF70AFB28780B2801D1012000E0002023
:104FD00006461EB1FF207949486003E04FF05010AB
:104FE000764948607548406858234FF4DD72462181
:104FF00000904FF4AC70FBF7E4FE01237B4A48219C
:1050000040F25910FCF7E8FA28780C2801D1012069
:1050100000E0002006461EB1FF206849486003E01A
:105020004FF0501065494860644840686E234FF463
:10503000DD725C2100904FF4AC70FBF7C2FE6C484F
:105040006CA1D0F8802361480DF008FD01236AA20D
:105050005E2140F25910FCF7BFFA28780D2801D1E3
:10506000012000E0002006461EB1FF2053494860A1
:1050700003E04FF050105149486050484068842385
:105080004FF4DD72722100904FF4AC70FBF799FE83
:1050900001235B4A742140F25910FCF79DFA2878ED
:1050A0000E2801D1012000E0002006461EB1FF209D
:1050B0004249486003E04FF05010404948603F4883
:1050C00040689A2340F26D12882100904FF4AC7032
:1050D000FBF777FE3C490123022288680021FCF798
:1050E00041FB0023394A8A2140F25910FCF774FA37
:1050F0004FF0501031494860002338A28A2140F215
:105100006D10FCF769FA28780F2801D1012000E022
:10511000002006461EB1FF202849486003E04FF0FA
:10512000501026494860254840689A2340F28B1267
:10513000882100904FF4BB70FBF743FE2249012306
:10514000022248680021FCF70DFB00231F4A8A2138
:1051500040F27710FCF740FA4FF0501017494860C2
:1051600000231EA28A2140F28B10FCF735FA287822
:10517000102801D1012000E0002006461EB1FF20CA
:105180000E49486003E04FF050100C4948600B484E
:1051900040689A2340F2AB12882100904FF4CB7004
:1051A000FBF70FFE08490123022208680021FCF7E3
:1051B000D9FA0020054925E08B8B0100280000105A
:1051C000484F4C4400000000284600101C460010C8
:1051D0002D00000046616374204E6F2E3A000000DF
:1051E00083440010CC8B0100E38201000D83010099
:1051F000C8040010253264004E4F4E4500000000E8
:105200001E830100887000230A468A2140F297100D
:10521000FCF7E2F9FCF710FB287816287DD2DFE8CE
:1052200000F00B0E2D5783A6B4CEF4F2F1F0EFEEA2
:10523000EDECEB7C7CEAE9E8FDF752F830E26FF048
:105240007F40FE490860FE484860FE48D0F84C03A5
:10525000012807D10023AFF2B442F1216620FCF708
:10526000BBF90AE0F748D0F84C0330B90023AFF29D
:10527000C442F1216620FCF7AFF911E26FF07F40E4
:10528000EE490860EE48486000241EE05CB904EB7B
:10529000440000EBC400EC4942180023F1216720D0
:1052A000FCF79AF910E004EB440101EBC401E64B72
:1052B000CA1804EB8401542303EB0111183188B29E
:1052C0000023F121FCF788F9641C022CDED3E7E10E
:1052D0006FF07F40D9490860D9484860002420E039
:1052E0005CB904EB440000EBC400D749421800232A
:1052F000F1216720FCF770F912E004EB440101EBA7
:10530000C401D14BCA1804EB8401542303EB0111EF
:10531000183188B20023F12100E0C0E1FCF75CF90C
:10532000641C022CDCD3BBE16FF07F40C3490860F2
:10533000C3484860002417E044B9C44800EBC402E5
:105340000023F1216620FCF747F90CE0BF4901EB8F
:10535000C40204EB8401542303EB011188B200233F
:10536000F121FCF739F9641C022CE5D398E16FF0C8
:105370007F40B2490860B24848600023AFF2C012D3
:10538000F1216220FCF728F98AE16FF07F40AB49F8
:105390000860AB48486000240EE0AD4901EBC40250
:1053A00004EB8401542303EB0111091D88B200238F
:1053B000F121FCF711F9641C022CEED370E16FF0BF
:1053C0007F409E4908609E48486000240EE0A04946
:1053D00001EBC40204EB8401542303EB0111091D0A
:1053E00088B20023F121FCF7F7F8641C022CEED3FD
:1053F00056E153E151E14FE134E106E1EBE0C0E079
:10540000A5E062E035E01AE0FFE76FF07F408B49EE
:1054100008608B48486000240EE08D4901EBC4020F
:1054200004EB8401542303EB0111091D88B200230E
:10543000F121FCF7D1F8641C022CEED330E16FF0BF
:105440007F407E4908607E48486000240EE0804925
:1054500001EBC40204EB8401542303EB0111091D89
:1054600088B20023F121FCF7B7F8641C022CEED3BC
:1054700016E16FF07F407149086071484860002470
:1054800020E07CB9C4EBC401724BCA1804EB840160
:10549000542303EB0111133188B20023F121FCF7EF
:1054A0009BF80EE0C4EBC4016A4BCA1804EB8401FC
:1054B000542303EB0111091D88B20023F121FCF7ED
:1054C0008BF8641C022CDCD3EAE06FF07F405B4970
:1054D00008605B484860002436E01CB1022C01D013
:1054E000032C0FD1C4EBC4015B4BCA1804EB84013D
:1054F000542303EB0111091D88B20023F121FCF7AD
:105500006BF820E0012C0FD1C4EBC401524BCA1838
:1055100004EB8401542303EB01110E3188B2002304
:10552000F121FCF759F80EE0C4EBC4014A4BCA184C
:1055300004EB8401542303EB0111093188B20023E9
:10554000F121FCF749F8641C052CC6D3A8E06FF0E4
:105550007F403A4908603A48486000240EE03C49E0
:1055600001EBC40204EB8401542303EB0111091D78
:1055700088B20023F121FCF72FF8641C022CEED333
:105580008EE06FF07F402D4908602D484860002470
:105590001EE074B9314901EBC40204EB84015423C9
:1055A00003EB0111183188B20023F121FCF714F844
:1055B0000DE02A4901EBC40204EB8401542303EB00
:1055C0000111133188B20023F121FCF705F8641CA6
:1055D000022CDED364E06FF07F4018490860184861
:1055E000486000240EE01A4901EBC40204EB840178
:1055F000542303EB0111091D88B20023F121FBF7AD
:10560000EBFF641C022CEED34AE06FF07F400B49A5
:1056100008600B48486000240EE00D4901EBC4020D
:1056200004EB8401542303EB0111091D88B200230C
:10563000F121FBF7D1FF641C022C11E028000010BF
:1056400038003100C8040010A78201008B8B0100D4
:105650005E820100D5820100EA82010023830100FD
:10566000DBD31DE06FF07F40FD490860FD484860D6
:1056700000240EE0FC4901EBC40204EB8401542336
:1056800003EB0111091D88B20023F121FBF7A4FFF0
:10569000641C022CEED303E002E001E000E000BF56
:1056A00000BFF8BD08B5F1481623962200210090EE
:1056B0000846FBF786FBFCF7BFF808BD70B505464A
:1056C000FFF7F0FF6FF07F40E5490860E74848606A
:1056D0000023E74A04211846FBF77EFF6FF07F4066
:1056E000DF4908604FF0501048606878012815D1F4
:1056F000002410E0C4EB0410DE4BC21804EB44009D
:1057000000EBC4001A2303EB400081B200231846CB
:10571000FBF762FF641C062CECD330E068780228AB
:1057200015D1002410E0C4EB0410D34BC21804EBD5
:10573000440000EBC4001A2303EB400081B20023B5
:105740001846FBF749FF641C062CECD317E0687879
:10575000032814D1002410E0C4EB0410C74BC21876
:1057600004EB440000EBC4001A2303EB400081B2B9
:1057700000231846FBF730FF641C062CECD30220F4
:10578000FCF708FC70BDF8B505466878012873D1B0
:1057900000241BE04FF05010B149486008464068B3
:1057A000009004EB440000EBC4001A2202EB40001E
:1057B000103083B204EB440000EBC40002EB400065
:1057C00081B2AC225020FBF7FCFA641C062CE1D31A
:1057D00000244DE02978601C814201D1012000E0C5
:1057E000002006461EB1FF209D49486003E04FF0AF
:1057F00050109B49486004EB4402A14901EBC201EF
:105800000023052248680321FBF7ACFF9448406859
:10581000009004EB440000EBC4001A2202EB4000AD
:10582000103083B204EB440000EBC40002EB4000F4
:1058300081B29C225020FBF7C4FA04EB440000EB39
:10584000C4001A2202EB400081B200238D4A50208E
:10585000FBF7C2FE04EB440000EBC4001A2202EB8B
:10586000400081B2012388A29C20FBF7B5FE641C96
:10587000042CAFD3EEE0FFE76878022874D100244F
:105880001BE04FF050107649486008464068009091
:1058900004EB440000EBC4001A2202EB400010307D
:1058A00083B204EB440000EBC40002EB400081B281
:1058B000AC225020FBF785FA641C062CE1D30024AF
:1058C0004EE02978601C814201D1012000E00020D7
:1058D00006461EB1FF206249486003E04FF05010B9
:1058E0005F49486004EB44026549603101EBC20145
:1058F0000023052248680321FBF734FF584840681D
:10590000009004EB440000EBC4001A2202EB4000BC
:10591000103083B204EB440000EBC40002EB400003
:1059200081B29C225020FBF74CFA04EB440000EBC0
:10593000C4001A2202EB400081B20023514A5020D9
:10594000FBF74AFE04EB440000EBC4001A2202EB12
:10595000400081B201234CA29C20FBF73DFE641C59
:10596000022CAED376E0FFE76878032872D10024DA
:105970001BE04FF050103A494860084640680090DC
:1059800004EB440000EBC4001A2202EB400010308C
:1059900083B204EB440000EBC40002EB400081B290
:1059A000AC225020FBF70DFA641C062CE1D3002436
:1059B0004EE02978601C814201D1012000E00020E6
:1059C00006461EB1FF202649486003E04FF0501004
:1059D0002349486004EB44022949903101EBC2019C
:1059E0000023052248680321FBF7BCFE1C484068E1
:1059F000009004EB440000EBC4001A2202EB4000CC
:105A0000103083B204EB440000EBC40002EB400012
:105A100081B29C225020FBF7D4F904EB440000EB48
:105A2000C4001A2202EB400081B20023154A502024
:105A3000FBF7D2FD04EB440000EBC4001A2202EB9A
:105A4000400081B2012311A29C20FBF7C5FD641C1C
:105A5000062CAED3FBF7F0FE2878052832D217E0EB
:105A600028000010380031005E820100F35203006C
:105A7000AB880100937A0100477B0100ED7A0100B9
:105A8000E44000101C4600105600000041000000D9
:105A9000DFE800F0030708090A000220FCF77AFAA1
:105AA00010E000BF00BF00BF6FF07F40FA49086000
:105AB000FA4848600023FA4AF1214FF4CC70FBF712
:105AC0008BFD00BF00BFF8BDF8B504462078012863
:105AD00000D100E0002006461EB1FF20EE494860DC
