:020000040000FA
:10000000584F0010E1010000E9010000EB01000081
:10001000ED010000EF010000F10100000000000010
:10002000000000000000000000000000F3010000DC
:10003000F501000000000000F7010000B507000016
:10004000FB010000ED080000290900003B09000049
:100050004D09000091000100FB010000FB010000C0
:1000600013030100FB010000FB010000FB01000085
:10007000FB010000FB010000FB010000FB01000090
:10008000FB01000079010000FB010000FB01000002
:10009000FB010000FB010000FB010000FB01000070
:1000A000B91C0100FB01000069E60000FB01000033
:1000B000FB010000FB010000FB010000FB01000050
:1000C000FB010000FB010000FB010000FB01000040
:1000D000FB010000FB010000A9050000FB0100007E
:1000E000FB010000DFF80CD012F09EFF0048004733
:1000F00005060000584F001070B505460C46A4F1E7
:1001000020000B4A02EB00111022284600F0ABF849
:1001100070BDA1F1200202EB4202064B03EB82020A
:100120001368036053684360926882607047000000
:100130000C950100FC9A01000D4843F6103102E0D5
:1001400000220270401C0A1EA1F1010399B2F7D1EE
:1001500008484FF45C5102E0FF220270401C0A1E66
:10016000A1F1010399B2F7D1014B83F80C24704738
:100170001C0500102809001010B5012115480DF0CC
:10018000C9FF50B1144913480DF0B6FE01201349C0
:10019000087001210F480DF0C5FF10BD10B50D48C6
:1001A0000DF0F8FC0B480DF00EFD012109480DF093
:1001B00013FD0122002107480DF01AFD1120012135
:1001C00081404209920002F1E022C2F8001100BF12
:1001D00010BD000000400240504700102E020010E9
:1001E0000648804706480047FEE7FEE7FEE7FEE7D1
:1001F000FEE7FEE7FEE7FEE7FEE7FEE7FDEA0000BA
:10020000E50000002DE9F05F0546002092469B4680
:1002100088460646814640241BE02846414647461C
:10022000224612F01CFE53465A46C01A914110D382
:1002300011461846224612F003FE2D1A67EB0108FC
:100240004F4622460120002112F0FAFD17EB00096B
:100250004E41201EA4F10104DFDC484631462A4607
:100260004346BDE8F09F10B5431A934209D2831864
:10027000881803E010F8011D03F8011D521EF9D281
:1002800010BD40EA01039B0703D009E008C9121F13
:1002900008C0042AFAD203E011F8013B00F8013B40
:1002A000521EF9D210BDD2B201E000F8012B491E56
:1002B000FBD270470022F6E710B513460A46044603
:1002C0001946FFF7F0FF204610BD421E12F8013F0D
:1002D000002BFBD111F8013B02F8013B002BF9D1B7
:1002E0007047421C10F8011B0029FBD1801A70478F
:1002F00096230022114612F0DDBD7047FFFFFFFF7D
:1003000040F20120974908609749C1F88401954956
:1003100008310860091D0860091D0860091D086092
:10032000091D0860091D0860091D0860091D086095
:10033000091D0860091D0860091D0860091D086085
:10034000091D0860091D0860091D0860091D086075
:10035000091D0860091D0860091D0860091D086065
:10036000091D0860091D0860091D0860091D086055
:10037000091D0860091D0860091D0860091D086045
:10038000091D0860091D0860091D0860091D086035
:10039000091D0860091D0860091D0860091D086025
:1003A000091D0860091D0860091D0860091D086015
:1003B000091D0860091D0860091D0860091D086005
:1003C000091D0860091D0860091D0860091D0860F5
:1003D000091D0860091D0860091D0860091D0860E5
:1003E000091D0860091D08605E49E43108605D4927
:1003F00040390860091D0860091D086059493039F5
:100400000860584920390860564910390860091DAC
:100410000860091D08605449C1F87C0170472DE946
:10042000F04100BF00BF5148006840F400604F49F0
:10043000C439C1F8C40041F61F704D49086001205D
:100440004C49086000208860FFF75AFF4A4800685E
:100450004A49B0FBF1F74548C438D0F8000100B173
:100460007F084FF47A70B0FBF7F404F11300B0FB8F
:10047000F4F0404908630F2048630020886301209E
:10048000C86304F11300B0FBF4F0801C0864012081
:10049000486404F13E00B0FBF4F0886404F13E00CF
:1004A000B0FBF4F0C8640F20086504F13E00B0FB17
:1004B000F4F0486501208865886240F203303049D5
:1004C00008604FF48D402B49C1F800012C49091FE9
:1004D00008606421002000F08BF940F28310254968
:1004E0000862C821002000F083F940F2031021497E
:1004F000086202204862002600E0761C802EFCD3B1
:1005000041F68465A5F1100085B22D1105FB07F0B9
:100510004FF47A71B0FBF1F085B216484562832042
:10052000144908621748D0F8008000200862144877
:10053000001F006840F40020C1F8000101210020E4
:1005400000F056F90121002000F052F90848006837
:1005500020F01F0848F011000449C439C1F8DC013B
:10056000BDE8F08180C1024000C00240C4C00F401D
:10057000DCC10F4000C009207402001040420F008F
:1005800004C10920004006A010B5002807DACA06F9
:10059000140E904A00F00F031B1FD45403E0CA0648
:1005A000130E8D4A135410BD10B5012213210020E3
:1005B0000EF0CAFB28B36FF07F4400E0641E002CED
:1005C000FCD18648007830B10020844908700F20A3
:1005D0008349086005E001208049087002208049B5
:1005E00008604FF4002100200EF0D9FB262000F017
:1005F0001F02012191407B4A430942F8231000BFAA
:1006000000BF10BD00200EF044FD074600264FF449
:100610007A70B7FBF0F0451EB5F1807F00D311E092
:1006200025F07F40401E4FF0E02148611F214FF030
:10063000FF30FFF7A9FF00204FF0E021886107207D
:10064000086100BF0122D10400200EF05FFB0121F0
:100650002620FFF799FF262000F01F02012191407C
:100660004209920002F1E022C2F8001100BF0DF031
:100670003BFF0DF0B0FE0FF091FC002057490870D1
:1006800004200FF0E1FD0EF05DF810F091F9FFF796
:1006900085FD0DF0C1FD0DF027FF0DF072FEFFF797
:1006A000BEFE002000F036FA4F494869002100F0F4
:1006B0006AFA012000F02EFA00200DF0EEFE0F2065
:1006C0004749086075E00DF095FF0446FF2C01D105
:1006D000002600E0761C022E03D14FF0501000F0EF
:1006E00057FB3F480068801E0E2860D2DFE800F00C
:1006F00007332C3A0E171E25415C56484F594FF0D0
:10070000501000F045FB08F0E8FD51E04FF05010AC
:1007100000F03EFB0DF04EFD09F069FB48E04FF0A4
:10072000501000F035FB0AF0AEFA41E04FF05010E7
:1007300000F02EFB0AF061FB3AE04FF0501000F0A1
:1007400027FB0AF01CFC33E04FF0501000F020FBB8
:1007500009F066FE2CE04FF0501000F019FB0AF093
:100760002CF825E04FF0501000F012FB09F09EFE2F
:100770001EE04FF0501000F00BFB0CF0B3FA17E046
:100780004FF0501000F004FB0BF020FA10E04FF097
:10079000501000F0FDFA0AF035FD09E00BF0D9FC2D
:1007A00006E00CF04CFF03E00CF064FB00E000BF3F
:1007B00000BF88E70D480068401C0C49086070477E
:1007C0000A4A116800BF094A1268521A8242FAD3D3
:1007D0007047000018ED00E000E400E04C0200105B
:1007E0005802001080E100E030000010000000100E
:1007F000F8B902224FF040235A600022DA60BA4A68
:1008000012684FF47A73B2FBF3F2521E4A434FF070
:1008100040239A61FF221A6004225A6101225A6021
:1008200000BF4FF04022526802F00102002AF8D1C6
:100830005BE001281CD10222AC4B5A600022DA6036
:10084000A94A12684FF47A73B2FBF3F2521E4A437C
:10085000A64B9A61FF221A6004225A6101225A6053
:1008600000BFA24A526802F00102002AF9D13CE01E
:1008700002281CD102229E4B5A600022DA609A4A5A
:1008800012684FF47A73B2FBF3F2521E4A43984B4C
:100890009A61FF221A6004225A6101225A6000BF45
:1008A000934A526802F00102002AF9D11DE00328A0
:1008B0001BD102228F4B5A600022DA608A4A1268EA
:1008C0004FF47A73B2FBF3F2521E4A43894B9A619A
:1008D000FF221A6004225A6101225A6000BF854A31
:1008E000526802F00102002AF9D1704701204FF04E
:1008F0004021086080480068401C7F4908607F48AC
:100900000078012805D17E480068401C7C490860B9
:1009100004E07C480068401C7A4908607A48006816
:10092000401C79490860704701207049086076488A
:100930000068401C74490860704701206C490860D9
:1009400070480068401C6F49086070470120694981
:1009500008606E480068401C6C490860704720B908
:1009600001214FF04022516010E0012803D1012104
:100970005E4A51600AE0022803D101215C4A5160BD
:1009800004E0032802D101215A4A5160704720B97E
:1009900000214FF04022516010E0012803D10021D6
:1009A000524A51600AE0022803D10021504A5160A6
:1009B00004E0032802D100214D4A516070470146EE
:1009C00031B94FF04022506840F00200506016E00C
:1009D000012905D1454A506840F0020050600EE000
:1009E000022905D1424A506840F00200506006E0FA
:1009F000032904D13F4A506840F00200506070471C
:100A000070B505460C46F5B900203D4908604048E0
:100A1000006840F002003E49C439C1F8C4004FF0FC
:100A20004020406840F002004FF0402148604EF600
:100A30005F20C8600846846103204861012000F0FF
:100A400048F8012070BD012D14D100202E49086006
:100A50002F48006840F004002D49C439C1F8C40093
:100A600022488461032021494861022000F031F8C6
:100A70000120E7E7022D13D1002022490860244815
:100A8000006840F480002249C439C1F8C400184805
:100A9000846103201649486100F01BF80120D1E76A
:100AA000032D14D10020194908601948006840F44A
:100AB00000001749C439C1F8C4000E4884610320FE
:100AC0000C494861042000F004F80120BAE7002036
:100AD000B8E700F01F02012191404209920002F1A3
:100AE000E022C2F800117047780200100080004038
:100AF0000000094000400940F80100102F020010DA
:100B000018000010200000101C000010240000102D
:100B1000C4C00F4008B5B0B1F949896941F001017D
:100B2000F74A916142F21071009108E0F449896935
:100B300041F40061F24A91610099491E00910099C7
:100B40000029F3D115E0EE49896921F40061EC4AEE
:100B5000916142F21071009102E00099491E0091EA
:100B600000990029F9D1E649896921F00101E44A97
:100B7000916108BDE34A002102E008C808C2491C8F
:100B80008029FAD370472DE9704381460D46DFF87E
:100B9000788300BF2720DD4908614861DC4908608F
:100BA000DA49C1F87402DB490860091D0860091DB3
:100BB0000860091D0860D5498861C861D549483970
:100BC0000860091D0860091D0860091D0860091DED
:100BD0000860091D0860CD4908624862CD49183196
:100BE0000860091D0860CB4930390860091D08609C
:100BF000091D0860091D0860C64910390860C5490B
:100C0000091F0860C3490C390860091D0860BF4905
:100C1000C1F80001C048006C40F00200BE49086401
:100C20000846806D40F00A008865BC48D0F8C400D2
:100C300040F00100B949C1F8C400B948006820F08B
:100C40000100B74908600020AD4988610846806905
:100C500020F00E0088610846806940F00A00886133
:100C60000846806940F0200088610846806920F0CD
:100C7000800088610846806920F480708861084699
:100C8000806920F4007088610846806920F48060E3
:100C900088610846806920F400608861A148006886
:100CA000A149B0FBF1F09D49C1F8B80194488068B2
:100CB00040F08060924988600846806820F02000FB
:100CC00088600846806840F4006088600846806854
:100CD00040F4805088600846806820F400508860A6
:100CE0000846806820F480408860084680688F4904
:100CF000084083498860084680688D4908438049D8
:100D00008860002008600846006840F01C500860B9
:100D10000846006840F4802008600846006840F4F7
:100D2000807008600846006840F074000860002089
:100D300048600846406840F00060486008464068E7
:100D400040F4002048600846406840F480604860F5
:100D50000846406840F20F11084369494860404620
:100D60000861486115B12846FFF704FF664E00246C
:100D700003E04FF47F0001C6641CB4F5FF3FF8D3D5
:100D800042F2107400E0641E002CFCD1BDE87083B8
:100D90005D4A002101E001C2491CB1F5FF3FFAD3D1
:100DA00070472DE9F0410C46069FC3F5887CCCEBDB
:100DB0000C1CDFF8548108EBCC1CC2F5F0780CEB6E
:100DC000880100260EE0002501E080C16D1CA2EB29
:100DD000000CAC45F9D8A2EB000CCCF5F07C01EB93
:100DE0008C01761CA3EB040CB445ECD8BDE8F08173
:100DF00070B5454BB0F5F07F02DAB1F5887F00DBC6
:100E000070BDC0F5F0756D1EC1F58876761EC6EB17
:100E1000061605EB461403EB84031A6000BFEFE7E8
:100E20002DE9F04F04460D4691469A46DDF824B070
:100E30004C4503DD0FFA89F7A146BCB2554503DDE9
:100E40000FFA8AF7AA46BDB2A9EB04000FFA80F8A0
:100E5000AAEB050006B2B8F1000F0BD100BF5A464D
:100E600029462046FFF7C4FF681C85B2AA45F6DA7A
:100E7000BDE8F08F56B900BF5A4629462046FFF715
:100E8000B7FF601C84B2A145F6DAF1E7B04521DD79
:100E9000C8EB460007B215E05A4629462046FFF740
:100EA000A7FF601C84B2002F08DD681C85B27000AB
:100EB000022101FB1800384407B203E0022000FBC6
:100EC000067007B24C45E7D15A4629462046FFF73F
:100ED0008FFF3AE0C6EB480007B22FE05A4629469A
:100EE0002046FFF785FF681C85B2002F22DD601CBD
:100EF00084B27000022101FB1800384407B21DE0E3
:100F00000080082000820820000001A000C00240EC
:100F100070C2024018C102400080092000C00F408A
:100F2000008C0820780200109C997400FFFF00FCE0
:100F30000000DF01022000FB067007B25545CDD14D
:100F40005A4629462046FFF753FF00BF90E72DE998
:100F5000FF5F06460F4690469946DDF838B0414699
:100F60006846FFF7C9F800241DE01DF804A000251D
:100F700016E0C5F107004AFA00F000F0010038B1B0
:100F80003A1991B2721990B24A46FFF731FF06E062
:100F90003A1991B2721990B25A46FFF729FF6D1CA7
:100FA000082DE6D3641C102CDFD3BDE8FF9F2DE98C
:100FB000FE4F06460F4690469946DDF830B0414652
:100FC0006846FFF7A6F800241DE01DF804A00025E0
:100FD00016E0C5F107004AFA00F000F0010038B150
:100FE0003A1991B2721990B24A46FFF701FF06E032
:100FF0003A1991B2721990B25A46FFF7F9FE6D1C78
:10100000082DE6D3641C0C2CDFD3BDE8FE8F2DE940
:10101000F84305460E4614469846DDF8209000BF7A
:1010200014F8017B43463A4631462846CDF80090F5
:10103000FFF78DFFB5F5EC7F03DA05F1080085B207
:1010400008E0FF2E04DC002506F1100086B201E066
:101050000025002620780028E2D1BDE8F8832DE99C
:10106000FF4F074688469B463C464546BA4646469D
:101070004FF0000915E0A4F1140188B22946029A44
:10108000FFF7B6FE601C84B2A6F1140081B2504690
:10109000029AFFF7ADFE701C86B209F101001FFA3B
:1010A00080F9B9F1280FE6DB3C464546BA4646468C
:1010B0004FF000092BE0A5F1140291B2A4F1140243
:1010C00090B25A46FFF794FE05F1140291B2A4F1D2
:1010D000140290B25A46FFF78BFE601C84B2A6F150
:1010E000140291B2AAF1140290B25A46FFF780FEA0
:1010F000A6F1140291B20AF1140290B25A46FFF717
:1011000077FE701C86B209F101001FFA80F9B9F16F
:101110000A0FD0DB3C464546BA4646464FF000092A
:101120002BE0A5F1140291B204F10A0290B25A46E2
:10113000FFF75EFE05F1140291B204F10A0290B2CB
:101140005A46FFF755FE601C84B206F10A0291B2BE
:10115000AAF1140290B25A46FFF74AFE06F10A02BB
:1011600091B20AF1140290B25A46FFF741FE701C88
:1011700086B209F101001FFA80F9B9F10A0FD0DB3C
:10118000BDE8FF8F10B50246002112E001EB81108F
:10119000F74B185C1378984209D1507801EB811312
:1011A000F34C23445B78984201D1084610BD481C9B
:1011B00081B27729EAD30020F8E710B50246002172
:1011C00014E001EB0110EB4B13F810001378984278
:1011D0000AD1507801EB0113E64C04EB43035B7832
:1011E000984201D1084610BD481C81B2B029E8D30D
:1011F0000020F8E72DE9F04F04460F4615469846C3
:10120000A3464FF0000900262DE0099810F806903B
:101210004FF0000A21E009F0800030B1D64839468D
:1012200002682046FFF7E4FD05E0D34839464268EE
:101230002046FFF7DDFD4FEA49604FEA1069601C68
:1012400084B2A4EB0B00A84203D15C46781C87B2A1
:1012500006E00AF1010000F0FF0ABAF1080FDADB3C
:1012600000BF701C86B205FB08F0C11700EB51717E
:10127000B6EBE10FC9DBBDE8F08F2DE9F04F054675
:10128000894692469B46A8460026BBF1000F32D104
:1012900000242DE00AEB0A10B64901EB4000801C47
:1012A000065D00271FE006F0800030B1B2484946D5
:1012B00002682846FFF79CFD05E0AF4849464268B2
:1012C0002846FFF795FD7006060E681C85B2A5EB53
:1012D0000800102805D1454609F101001FFA80F9E0
:1012E00003E0781CC7B2082FDDDB00BF601CC4B26E
:1012F000202CCFDB31E000242DE00AEB0A109D49C1
:1013000001EB4000801C065D00271FE006F0800016
:1013100030B19948494642682846FFF769FD05E023
:101320009548494602682846FFF762FD7006060E9A
:10133000681C85B2A5EB0800102805D1454609F1C7
:1013400001001FFA80F903E0781CC7B2082FDDDB2B
:1013500000BF601CC4B2202CCFDBBDE8F08F2DE9AC
:10136000F04F0546894692469B46A8460026BBF1AB
:10137000000F31D100242CE00AEB8A107C4908448C
:10138000801C065D00271FE006F0800030B17A481F
:10139000494602682846FFF72BFD05E07648494696
:1013A00042682846FFF724FD7006060E681C85B2C9
:1013B000A5EB0800182805D1454609F101001FFAE0
:1013C00080F903E0781CC7B2082FDDDB00BF601C8A
:1013D000C4B23F2CD0DB30E000242CE00AEB8A10B2
:1013E00063490844801C065D00271FE006F080006A
:1013F00030B16148494642682846FFF7F9FC05E0EC
:101400005D48494602682846FFF7F2FC7006060E62
:10141000681C85B2A5EB0800182805D1454609F1DE
:1014200001001FFA80F903E0781CC7B2082FDDDB4A
:1014300000BF601CC4B23F2CD0DBBDE8F08FF0B51C
:1014400004460D4616461F463B4622463146284670
:10145000FFF785FF1820F0BDF0B504460D4616468F
:101460001F463B46224631462846FFF706FF12201C
:10147000F0BD2DE9F84306460D4614461F464FF0D1
:101480000008C14652E0207800B950E006EB0900A0
:1014900086B2207880281ADD06F11800B0F5F07FBA
:1014A00007DD002605F1160085B2B5F5887F00DD61
:1014B00000252046FFF766FE1FFA80F83B462A46C5
:1014C00031464046FFF7BBFF8146A41C2DE0207843
:1014D0000D280AD105F1160085B2B5F5887F00DD2B
:1014E0000025641C4FF0000920E020780A2804D170
:1014F0000026641C4FF0000918E006F10C00B0F55E
:10150000F07F07DD002605F10C0085B2B5F5887F78
:1015100000DD0025184840680090174822782946C9
:1015200003683046FFF713FD641C00BFABE700BF44
:10153000BDE8F8832DE9F8470546884614464FF084
:10154000000A002634E0207800B932E02078302804
:1015500007DB2078392804DC207830381FFA80F93E
:101560000EE020782E2809D14FF00A0908E000008B
:10157000AC450100E3630100280000104FF00B09A7
:101580004FEA4917F81707EB5070C01000EBC00185
:10159000C1EB80109D490844A919009088B23723F7
:1015A00020224146FFF726FE641C06F1200086B289
:1015B000C9E700BFBDE8F8872DE9F84306460D46A8
:1015C00014461F464FF00008C14654E0207800B989
:1015D00052E006EB090086B2207880281ADD06F179
:1015E0001000B0F5F07F07DD002605F1100085B290
:1015F000B5F5887F00DD00252046FFF7DEFD1FFAE8
:1016000080F83B462A4631464046FFF725FF814693
:10161000A41C2FE020780D280AD105F1100085B216
:10162000B5F5887F00DD0025641C4FF0000922E03D
:1016300020780A2804D10026641C4FF000091AE023
:1016400006F10800B0F5F07F07DD002605F108007F
:1016500085B2B5F5887F00DD00256D4840680090B3
:101660006B482278294603683046FFF770FC641CFB
:101670004FF00A0900BFA9E700BFBDE8F8832DE9D4
:10168000F84306460D4614461F464FF00008C14673
:1016900054E0207800B952E006EB090086B22078C9
:1016A00080281ADD06F11000B0F5F07F07DD002676
:1016B00005F1100085B2B5F5887F00DD00252046D4
:1016C000FFF77BFD1FFA80F83B462A46314640462D
:1016D000FFF7C2FE8146A41C2FE020780D280AD116
:1016E00005F1100085B2B5F5887F00DD0025641C8A
:1016F0004FF0000922E020780A2804D10026641C5B
:101700004FF000091AE006F10800B0F5F07F07DDA0
:10171000002605F1080085B2B5F5887F00DD0025BB
:101720003B48406800903A48227829460368304692
:10173000FFF73DFC641C4FF0080900BFA9E700BF9C
:10174000BDE8F883F0B504461D46062A00DD0A22EE
:1017500002B90122052900DD0521914200DD114673
:10176000002004E020262B4F3E54461CF0B20C28EB
:10177000F8D310460FE00A26B4FBF6F706FB17462F
:101780003036471EDFF88CC00CF807600A26B4FB21
:10179000F6F4461EF0B20028EDDC89B11346084687
:1017A00005E05E1E1B4FBE5DFE545E1EF3B2061EBC
:1017B000A0F10107F8B2F4D12E26164FFE5402E034
:1017C0002026144FBE54A5B900200EE0114E365C01
:1017D000302E07D10F4F461CBE5D2E2E02D0202684
:1017E0003E5400E004E0461CF0B2561E8642EDDC9A
:1017F00000BF561CF2B2104604E00026054F3E54CE
:10180000461CF0B20C28F8D3F0BD0000A0A10100E6
:10181000280000104447001038B5002474E0FA484E
:10182000A10004EB440303EB041301EB83010090DC
:1018300088B204EB84014C2303EB01118AB240F21D
:101840000F13E421FFF7ADFAF04804EB84014C23B9
:1018500003EB01118AB204EB84010901491C0090D9
:1018600088B2E3231946FFF7DBFAE84804EB84016A
:101870004C2303EB01118AB204EB840103EB011149
:10188000009088B240F20F13E321FFF7C9FA00205D
:1018900004EB84014C2303EB0111491C8AB204EBD5
:1018A000840103EB0111491C009088B240F20F1330
:1018B000E321FFF7B5FA002004EB84014C2303EB8E
:1018C0000111891C8AB204EB840103EB0111891C0C
:1018D000009088B240F20F13E321FFF7A1FA002035
:1018E00004EB84014C2303EB0111C91C8AB204EB05
:1018F000840103EB0111C91C009088B240F20F1360
:10190000E321FFF78DFA641C062C88D338BD10B58F
:10191000FFF782FFBC48BE4948606FF07F40086017
:101920000023BCA2F1215420FFF746FE0023BBA2F6
:10193000F121A420FFF740FE10BD10B5FFF76CFFAA
:10194000B148B34948606FF07F4008600023B4A2FB
:10195000F1215420FFF730FE10BD10B5FFF75CFFFA
:10196000A948AB4948606FF07F4008600023ADA2F2
:10197000F1215420FFF720FE10BD10B5FFF74CFFFA
:10198000A148A34948606FF07F4008600023A6A2E9
:10199000F1215420FFF710FE10BD70B50546FFF78A
:1019A0003BFF99489A4948606FF07F4008604DBB03
:1019B000002424E0042C10D104EB44019B4B03EBE6
:1019C000410204EB8401542303EB01110E3188B270
:1019D0000023F121FFF7F0FD0FE004EB4401934BEE
:1019E00003EB410204EB8401542303EB01111D318D
:1019F00088B20023F121FFF7DFFD601CC4B2052C83
:101A0000D8DB51E000244DE0042C11D1611D01EB25
:101A10004101864B03EB410204EB8401542303EBA9
:101A200001110E3188B20023F121FFF7C5FD37E027
:101A30008CB9611D01EB41017C4B03EB410204EBCE
:101A40008401542303EB0111183188B20023F121E2
:101A5000FFF7B2FD24E0032C11D1611D01EB410120
:101A6000724B03EB410204EB8401542303EB01119D
:101A70000A3188B20023F121FFF79EFD10E0611DBD
:101A800001EB4101694B03EB410204EB8401542358
:101A900003EB01111D3188B20023F121FFF78CFD0A
:101AA000601CC4B2052CAFDB70BD10B5FFF7B4FEEF
:101AB0005548574948606FF07F40086000235CA29A
:101AC000F1215420FFF778FD00235AA2F121A42030
:101AD000FFF772FD10BD10B5FFF79EFE4A484C4956
:101AE00048606FF07F400860002353A2F12154202A
:101AF000FFF762FD10BD10B5FFF78EFE6FF07F405F
:101B000043490860404848604C48D0F84C030128DD
:101B10000CD100234AA2F2215320FFF74DFD0023F0
:101B200049A2F221A320FFF747FD0FE04348D0F878
:101B30004C0358B9002346A2F2215320FFF73CFD85
:101B4000002346A2F221A320FFF736FD10BD10B5F9
:101B50000446FFF761FE002C35D16FF07F402C4921
:101B60000860294848603548D0F84C03012812D154
:101B7000002333A2F2215320FFF71EFD00233AA2D7
:101B8000F221A320FFF718FD002339A2F221FC2047
:101B9000FFF712FDD9E02948D0F84C030028F9D10D
:101BA000002335A2F2215320FFF706FD002335A2C2
:101BB000F221A320FFF700FD002335A2F221FC2033
:101BC000FFF7FAFCC1E0012C76D16FF07F4010499D
:101BD00008600D4848601948D0F84C0301286DD1C1
:101BE00000232DA2F2215320FFF7E6FC00232DA2B3
:101BF000F221A320FFF7E0FC00232DA2F22140F206
:101C00009310FFF7D9FC70E0380031006843690099
:101C1000280000106D7365630000000073656300A9
:101C200056000000410000006D7300001F9301008A
:101C3000487A00004B487A002A3100001C05001049
:101C40004D45415353455400535953534554000097
:101C5000B2E2C1BFC9E8D6C300000000CFB5CDB322
:101C6000C9E8D6C3000000004E6F2E44495350000F
:101C7000434F554E54200000B2E2C1BFCFD4CABE7C
:101C800000000000B5B5BAC5CFD4CABE0000000040
:101C9000B5B5BCC6CAFD000046494C452053455465
:101CA000000000005361766544617461000000002B
:101CB0004D4F5245000000001FE0FFE7FE48D0F8FE
:101CC0004C0390B90023FDA2F2215320FFF774FCCE
:101CD0000023FDA2F221A320FFF76EFC0023FDA24A
:101CE000F22140F29310FFF767FC0023FBA2F221E0
:101CF00040F2BD10FFF760FC27E06FF07F40F8492D
:101D00000860F8484860EC48D0F84C0301280CD132
:101D10000023F5A2F2215320FFF74EFC0023F4A28A
:101D2000F221A320FFF748FC0FE0E348D0F84C0372
:101D300058B90023F0A2F2215320FFF73DFC002305
:101D4000EFA2F221A320FFF737FC10BD10B5FFF77B
:101D500063FD6FF07F40E2490860E2484860D64882
:101D6000D0F84C0301280CD10023E7A2E72154202E
:101D7000FFF722FC0023E6A2FB215420FFF71CFC06
:101D80000FE0CD48D0F84C0358B90023E2A2E72178
:101D90005420FFF711FC0023E1A2FB215420FFF7A0
:101DA0000BFCC548D0F84C0301280ED10023DEA25D
:101DB000F1214FF4A270FFF7FFFB0023DCA2F12119
:101DC0004FF4CA70FFF7F8FB11E0BB48D0F84C03A2
:101DD00068B90023D8A2F1214FF4A270FFF7ECFB01
:101DE0000023D7A2F1214FF4CA70FFF7E5FB10BD25
:101DF00010B50446FFF710FD0CB1012C69D16FF04E
:101E00007F40B7490860B7484860AB48D0F84C03FA
:101E100001282CD10023CCA2F1215420FFF7CCFBC8
:101E20000023CBA2E721A420FFF7C6FB0023CAA210
:101E3000FB21A420FFF7C0FB0023C9A2E721F42067
:101E4000FFF7BAFB0023C4A2FB21F420FFF7B4FB89
:101E50000023B5A2F1214FF4A270FFF7ADFB0023E0
:101E6000B3A2F1214FF4CA70FFF7A6FB81E09248BC
:101E7000D0F84C0300287CD10023BBA2F1215420D0
:101E8000FFF79AFB0023BAA2E721A420FFF794FBF7
:101E90000023B9A2FB21A420FFF78EFB0023B8A2E8
:101EA000E721F420FFF788FB0023B3A2FB21F420F5
:101EB000FFF782FB0023A0A2F1214FF4A270FFF7ED
:101EC0007BFB00239EA2F1214FF4CA70FFF774FB45
:101ED0004FE06FF07F408249086082484860764852
:101EE000D0F84C03012820D1002397A2F1215420DF
:101EF000FFF762FB002398A2E721A420FFF75CFB19
:101F00000023A1A2FB21A420FFF756FB002386A2F9
:101F1000F1214FF4A270FFF74FFB002384A2F121BF
:101F20004FF4CA70FFF748FB23E06348D0F84C0336
:101F3000F8B900238CA2F1215420FFF73DFB0023C8
:101F40008DA2E721A420FFF737FB002390A2FB21FD
:101F5000A420FFF731FB002377A2F1214FF4A270F8
:101F6000FFF72AFB002376A2F1214FF4CA70FFF796
:101F700023FB10BD10B50446FFF74EFC002C2CD1FE
:101F80006FF07F4056490860564848604A48D0F88C
:101F90004C0301280DD100237FA2F2215320FFF72B
:101FA0000BFB0023AFF26032F221A320FFF704FB0A
:101FB0005FE14148D0F84C030028F9D10023AFF28B
:101FC0004832F2215320FFF7F7FA0023AFF27432C0
:101FD000F221A320FFF7F0FA4BE1012C6AD16FF058
:101FE0007F403F4908603F4848603348D0F84C0381
:101FF000012833D100236AA2E7215420FFF7DCFA3D
:10200000002369A2FB215420FFF7D6FA002368A21F
:10201000E721A420FFF7D0FA002367A2FB21A42028
:10202000FFF7CAFA002366A2F121F420FFF7C4FAF1
:10203000002361A2FB21F420FFF7BEFA0023AFF2D8
:102040009032E7214FF4CA70FFF7B6FA00235EA280
:10205000FB214FF4CA70FFF7AFFA0AE11648D0F837
:102060004C030028A4D1002359A2E7215420FFF7F4
:10207000A3FA002312A2FB215420FFF79DFA0023AC
:1020800055A2E721A420FFF797FA0023AFF23C42C4
:10209000FB21A420FFF790FA002351A2F121F420A4
:1020A000FFF78AFA0023AFF25442FB21F420FFF736
:1020B00083FA99E0A9E000001C050010CEC4BCFE24
:1020C000B9DCC0ED00000000B1A3B4E6CAFDBEDD7E
:1020D00000000000B8FCB6E000000000322F320023
:1020E000280000103800310043414E43454C200089
:1020F000434F4E4649524D002020C8A1CFFB20003F
:102100002020C8B7C8CF2000434C45410000000044
:102110004C49535400000000C7E5B3FD0000000027
:10212000B1EDB8F1000000004C6173742050000064
:102130004E65787420500000C9CFD2BBD2B30000E6
:10214000CFC2D2BBD2B3000044656C526F7700009F
:102150004C494E450000000041544F55000000001E
:102160004C4F472000000000C9BEB3FDD0D0000096
:10217000CFDFD0D400000000D7D4B6AF00000000FD
:10218000B6D4CAFD00000000434F505900000000C3
:10219000B8B4D6C6000000004D4541444953500034
:1021A00046494C45000000004D414E4500000000EE
:1021B00053595320000000005345542000000000F4
:1021C000544F4F4C0000000020322F32000000001E
:1021D000CEC4BCFE00000000CFB5CDB300000000AF
:1021E000B9A4BEDF000000000023AFF21812E721FF
:1021F0004FF4CA70FFF7E0F90023AFF23402FB217D
:102200004FF4CA70FFF7D8F933E06FF07F40FA4916
:102210000860FA484860FA48D0F84C03012812D107
:102220000023F8A2F2215320FFF7C6F90023F7A2FA
:10223000F221A320FFF7C0F90023F6A2F221F32038
:10224000FFF7BAF915E0EE48D0F84C0388B900233F
:10225000F2A2F2215320FFF7AFF90023F2A2F221FC
:10226000A320FFF7A9F90023F2A2F221F320FFF740
:10227000A3F910BD10B56FF07F40DF490860DF485B
:102280004860DF48D0F84C0301280DD10023AFF29D
:10229000F802F2215320FFF78FF90023E8A2F22180
:1022A000A320FFF789F911E0D548D0F84C0368B9AD
:1022B0000023AFF23C62F2215320FFF77DF90023A7
:1022C000AFF27462F221A320FFF776F910BD10B5CA
:1022D0006FF07F40C8490860C8484860C848D0F8D7
:1022E0004C0301281AD10023D7A2F2215320FFF773
:1022F00063F90023D7A2F221A320FFF75DF90023A1
:10230000D7A2F2214FF48370FFF756F90023D6A22B
:10231000F22140F29310FFF74FF91DE0B848D0F8D2
:102320004C03C8B90023D3A2F2215320FFF744F98C
:102330000023D3A2F221A320FFF73EF90023D3A26A
:10234000F2214FF48370FFF737F90023D1A2F22175
:1023500040F29310FFF730F910BD08B5D0481623AE
:10236000D222002100900846FEF71BFD08BD08B5EB
:10237000CC48CD2340F2DF125C2100900020FEF714
:1023800010FD08BD08B5C6481623A0220021009004
:102390000846FEF706FDFFF73FFAFFF7E8FF08BD26
:1023A00010B5FFF7EFFF6FF07F4093490860BC481E
:1023B00048609348D0F84C03012806D10023BA4A5C
:1023C00004211846FFF7F8F809E08D48D0F84C03CF
:1023D00028B90023B54A04211846FFF7EDF86FF03D
:1023E0007F40854908604FF05010486000245BE052
:1023F000032C2BD28248D0F84C03012811D104EBD6
:102400008400AB4B03EB400204EB440000EBC40040
:102410001A2303EB400081B200231846FFF7CCF8E3
:1024200041E07748D0F84C0338BBC4EB0410A14B13
:10243000C21804EB440000EBC4001A2303EB400075
:1024400081B200231846FFF7B7F82CE06C48D0F8AB
:102450004C03012812D104EB8400954B03EB40029E
:10246000E01E00EB400303EBC0001A2303EB400027
:1024700081B20023FA20FFF79FF814E06048D0F8FB
:102480004C0380B9C4EB04108A4BC218E01E00EB69
:10249000400303EBC0001A2303EB400081B200238A
:1024A000FA20FFF789F8641C062CA1D3FFF723FB61
:1024B00010BD08B57B48BE2340F2DF12A02100907A
:1024C0000020FEF76EFC08BD08B575481623A02253
:1024D000002100900846FEF764FCFFF79DF9FFF726
:1024E000E8FF08BD38B504464FF050104249486037
:1024F000714800EB84020123C8211420FFF75CF827
:102500006E4800EB84020123C8214FF48C70FFF762
:1025100053F86448384948606948372328227A21AB
:1025200000905020FEF766FE6648372328227A2165
:1025300000907820FEF75EFE6348372328227A2138
:1025400000908C20FEF756FE38BD10B5FFF7BCFF9B
:102550006FF07F4028490860514848602848D0F80B
:102560004C03012807D100234F4A16320421184694
:10257000FFF722F80AE02248D0F84C0330B90023D4
:102580004A4A163204211846FFF716F86FF07F40CA
:10259000194908604FF0501048600024C5E0032C32
:1025A00029D21748D0F84C0301280FD1474800EB37
:1025B000C40204EB440000EBC4001A2303EB400008
:1025C00081B200231846FEF7F7FFADE00C48D0F8C3
:1025D0004C0378B93E4800EBC40204EB440000EB26
:1025E000C4001A2303EB400081B200231846FEF713
:1025F000E3FF99E098E06DE028000010380031001A
:102600001C050010564F4C43616C00004374726C03
:1026100043616C0043757243616C0000B5E7D1B94A
:10262000D0A3D5FD00000000BFD8D6C6D0A3D5FDED
:1026300000000000B5E7C1F7D0A3D5FD0000000001
:102640004D656173536574004320436F7272657406
:10265000000000005220436F727265740000000099
:102660004578697400000000436C6520436F727206
:1026700000000000B5E7C8DDD0A3D5FD00000000D4
:10268000B5E7D7E8D0A3D5FD00000000CDCBB3F669
:1026900000000000C7E5B3FDD0A3D5FD0000000099
:1026A000F3520300343465000D9001001B8F0100CC
:1026B00035810100858101007D850100D9850100FA
:1026C000C5B3010008C601001BC701005F8D0100F2
:1026D0002F8D0100FC48D0F84C03012810D1FB4895
:1026E00000EBC402E01E00EB400303EBC0001A2322
:1026F00003EB400081B20023FA20FEF75DFF13E0F8
:10270000F148D0F84C0378B9F14800EBC402E01E60
:1027100000EB400303EBC0001A2303EB400081B23F
:102720000023FA20FEF748FF641C062CFFF437AFA5
:10273000E54991F88803FFF7D5FE0020FFF707FA77
:1027400010BD08B5E348A02340F2DF1256210090E7
:102750000020FEF726FBDF48E32340F2DF12C12111
:1027600000900020FEF71DFB08BD08B5DA481623CF
:10277000B222002100900846FEF713FBFFF74CF849
:10278000FFF7DFFF08BD2DE9F04104460D46164670
:10279000D24B1B5D03EB4303D14FDA19B1B2A8B2A0
:1027A0000023FEF709FFBDE8F08110B5FFF7DDFF5C
:1027B0006FF07F40CB490860C7484860C248D0F8F6
:1027C0004C03012806D10023C74A04211846FEF70E
:1027D000F3FE09E0BC48D0F84C0328B90023C34AF3
:1027E00004211846FEF7E8FE6FF07F40BD490860FF
:1027F0004FF050104860002479E0012C27D1B248F6
:10280000D0F84C0301280ED1C4EBC401B84BCA1850
:1028100004EB84011E2303EB411188B2002318212D
:10282000FEF7CAFE62E0A848D0F84C0300285DD14C
:10283000C4EBC401AF4BCA1804EB84011E2303EBA5
:10284000411188B200231821FEF7B6FE4EE0022C9B
:1028500026D19D48D0F84C0301280ED1C4EBC40109
:10286000A34BCA1804EB8401282303EB411188B25F
:1028700000231821FEF7A0FE38E09348D0F84C035F
:1028800008BBC4EBC4019B4BCA1804EB840128238A
:1028900003EB411188B200231821FEF78DFE25E0DD
:1028A0008948D0F84C0301280ED1C4EBC401904BE9
:1028B000CA1804EB84014FF6FF7303EA41100023AA
:1028C0001821FEF779FE11E07F48D0F84C0368B973
:1028D000C4EBC401874BCA1804EB84014FF6FF73A5
:1028E00003EA411000231821FEF766FE641C032C46
:1028F00083D37548D0F8900300EB400101EBC00092
:102900007D494218012318213C20FEF755FE6E4AEE
:1029100092F8EC100023D2F8E8000622FEF712FF2E
:102920000123764A1821FA20FEF746FE6648D0F8C1
:10293000F00000EB400072494218012318214FF4C7
:10294000A070FEF739FE60491822D1F888034FF4D1
:10295000A571FFF718FF00236AA22C211846FEF785
:102960008EFE002368A22C217820FEF788FE00232B
:1029700067A22C21FA20FEF782FE002366A22C21FA
:1029800040F29D10FEF77BFE06243FE0A01F0128C9
:1029900001D9072802D3A01F082803D94D4851495F
:1029A000486003E04FF050104E494860A01F00EB14
:1029B00040015B4800EB01104068E0B1A21F02EB50
:1029C0004203574A02EB0312117AA21F02EB4203A1
:1029D000534A02EB0312012350680622FEF7B2FEAF
:1029E000A01FC0EB00103A3081B20123434A782087
:1029F000FEF745FE09E0A01FC0EB00103A3081B29F
:102A0000012348A27820FEF73AFE641C0F2CBDD3A8
:102A10003048344948602C48D0F8D40278B12A4A6A
:102A200092F8D8120123D2F8D4020622FEF78AFEC9
:102A30000123324AC421FA20FEF721FE05E00123DA
:102A400038A2C421FA20FEF71AFE10247BE0A4F17C
:102A50001000012801D9072803D3A4F11000082889
:102A600003D91C481F49486003E04FF050101D492E
:102A70004860A4F1100000EB4001294800EB011070
:102A8000C06900B3A4F1100202EB4203244A02EB36
:102A9000031292F82010A4F1100202EB4203204A24
:102AA00002EB03120123D0690622FEF74BFEA4F1CC
:102AB0001000C0EB00103A3081B201230F4AFA2017
:102AC000FEF7DDFD3EE031E01C0500105F8D0100EA
:102AD0002F8D010034346500F3520300769301001A
:102AE0008E9301002800001039900100478F0100EB
:102AF00014910100FF900100EC8601004447001092
:102B00005B93010042494E004C4F57205B465D00ED
:102B1000484947485B465D00434F554E540000000E
:102B2000240600102D2D2D2D2D2D0000A4F11000B8
:102B3000C0EB00103A3081B20123AFF21802FA2044
:102B4000FEF79DFD641C192C81D3FE48FE494860A8
:102B5000FE48D0F8D40278B1FC4A92F8C0120123A2
:102B6000D2F8BC020622FEF7EDFD0123F84AC4218B
:102B70007820FEF784FD06E00123AFF25802C4215D
:102B80007820FEF77CFD012419E0022C05D9082CE1
:102B900003D2EC48EC49486003E04FF05010EA499A
:102BA0004860601E00EBC000EA4BC218C4EB041082
:102BB0002B3081B200230820FEF761FD641C0A2C33
:102BC000E3D3E048E0494860E048D0F88803E249B0
:102BD00001EB80020023C4211846FEF750FD0023BC
:102BE000DEA2D4211846FEF74AFD0023DDA2D4213F
:102BF000F820FEF744FD0020FEF7A9FF10BD08B540
:102C0000D048A02340F2DF12AF2100900020FEF751
:102C1000C8F808BD10B5FFF7A0FBFEF7FDFDFFF7F4
:102C2000EEFF10BD10B5FFF7F5FF6FF07F40C6490E
:102C30000860CE4848600023CD4A04211846FEF7BC
:102C4000BBFC6FF07F40C04908604FF050104860F7
:102C5000BE48D0F84C03012812D10023C5A21A2186
:102C60001846FEF7A9FC0023C4A230212820FEF755
:102C7000A3FC0023C4A230218C20FEF79DFC15E0AC
:102C8000B248D0F84C0388B90023C1A21A211846D3
:102C9000FEF792FC0023C0A230212820FEF78CFC16
:102CA0000023C0A230218C20FEF786FC0023BFA2A7
:102CB0003021F020FEF780FC0023BEA230214FF42B
:102CC000AA70FEF779FC0023BCA230214FF4DC701F
:102CD000FEF772FC0020FEF73AFF10BD08B59948D8
:102CE0009A2340F2DF125A2100900020FEF759F893
:102CF00008BD08B59D481623A8220021009008466B
:102D0000FEF74FF8FEF788FDFFF7E8FF08BD10B5A6
:102D1000002439E0052C19DA032C01D0042C03D14E
:102D200088488949486003E04FF050108649486060
:102D300004EB440000EBC4001A2202EB4000411CEB
:102D400000239FA24820FEF737FC1BE0082C01D08F
:102D5000092C03D17B487C49486003E04FF05010B8
:102D600079494860601F00EB400202EBC0001A2264
:102D700002EB4000401C81B2002391A24FF4A170ED
:102D8000FEF71AFC601CC4B20A2CC3DB10BD10B5E0
:102D9000FFF7AFFF6FF07F406B49086073484860F2
:102DA0006A48D0F84C03012807D10023704A163234
:102DB00004211846FEF700FC09E06448D0F84C03F3
:102DC00028B900237F4A04211846FEF7F5FB6FF06F
:102DD0007F405D4908604FF05010486000247AE061
:102DE0005A48D0F84C03012838D1032C1AD2022CAF
:102DF00005D9052C03D253485349486003E04FF0EE
:102E000050105149486004EB84006F4B03EB4002C3
:102E1000162304FB03F01A3081B200231846FEF794
:102E2000CBFB57E0E01E022805D9052803D2454810
:102E30004549486003E04FF050104349486004EBB7
:102E40008400614B03EB4002E01E162358431A3006
:102E500081B20023FA20FEF7AFFB3BE03B48D0F8FD
:102E60004C03B8BB032C1AD2022C05D9052C03D273
:102E700034483549486003E04FF05010324948600B
:102E800004EB4400514B03EB8002162304FB03F0D8
:102E90001A3081B200231846FEF78EFB1AE0E01EBE
:102EA000022805D9052803D226482749486003E0AF
:102EB0004FF050102449486004EB4400434B03EBAF
:102EC0008002E01E162358431A3081B20023FA20F4
:102ED000FEF772FB641C062C82D30020FFF74AF831
:102EE00010BDF8B505464FF0501017494860174817
:102EF000D0F8880300EBC0003549421801231A219D
:102F00004920FEF759FB1148D0F8900300EB40012F
:102F100001EBC0002F494218012330214920FEF760
:102F20004BFB0A48D0F8940300EB400101EBC000D2
:102F300029494218012346214920FEF73DFB034859
:102F40004CE0000034346500280000101C0500101F
:102F500044470010E4800100D98501004155583AEA
:102F6000000000004F55543A00000000F3520300E7
:102F70004F9001004D657468203A000046726571FB
:102F80005B487A5D000000004C65766C5B565D0026
:102F9000B7BDCABD203A0000C6B5C2CA5B487A5D5B
:102FA00000000000B5E7C6BD5B565D0043705B46A0
:102FB0005D000000445B205D00000000434D5000B8
:102FC0003A000000738F0100D78D01008F8D010042
:102FD000A5840100EC86010001890100D0F8C4033A
:102FE00000EB400101EBC000FB49421800231A210D
:102FF00040F24310FEF7E0FAF848D0F8C80300EBBF
:10300000400101EBC000F64942180123302140F293
:103010004310FEF7D1FA2878012800D100E0002003
:1030200006461EB1FF20EF49486003E04FF0501004
:10303000EC494860EB48406858234FF4C47244217F
:1030400000904FF4A170FDF7ACFEE448D0F8040105
:1030500000EB400101EBC000E34942180123462187
:1030600040F24310FEF7A8FAFEF7D6FB28780128B5
:103070002FD16FF07F40DB490860DC4848600024B6
:1030800024E08CB904EB440101EBC401D64BCA180F
:1030900004EB8401542303EB0111143188B20023A3
:1030A000F121FEF789FA10E004EB440101EBC401C1
:1030B000CD4BCA1804EB8401542303EB01111931E1
:1030C00088B20023F121FEF777FA641C022CD8D3D2
:1030D00002E00020FEF73BFDF8BDF8B505464FF0D5
:1030E0005010C04948602878012800D100E0002035
:1030F00006461EB1FF20BB49486003E04FF0501068
:10310000B8494860B748406828234FF4E672182150
:10311000009040F2A310FDF744FEB048D0F8180329
:1031200000EB400101EBC000AF4942180123182118
:103130004FF4D270FEF740FAFEF76EFB28780128B4
:103140002FD16FF07F40A7490860A848486000244D
:1031500024E08CB904EB440101EBC401A24BCA1872
:1031600004EB8401542303EB0111143188B20023D2
:10317000F121FEF721FA10E004EB440101EBC40158
:10318000994BCA1804EB8401542303EB0111193144
:1031900088B20023F121FEF70FFA641C022CD8D369
:1031A00002E00020FEF7D3FCF8BD70B5054601240F
:1031B00063E1022C05DD072C03DA8D48894948605C
:1031C00003E04FF0501087494860601E834991F832
:1031D0000D1401EB810100EB410000EB80018548FB
:1031E00000EB81008068401C40B9332000EB0411E3
:1031F000002381A2F620FEF742FA27E0621E774BF9
:1032000093F80D3403EB830302EB430202EB8203DA
:10321000784A02EB8302117B621E704B93F80D34E7
:1032200003EB830302EB430202EB8203714A02EBDE
:103230008302012390680522FEF784FA332000EB15
:10324000041100236E4AF620FEF719FA601E634946
:1032500091F80D1401EB810100EB410000EB8001BE
:10326000684800EB81008068401C48B9332000EBBF
:103270000411002360A24FF4AD70FEF700FA28E0BD
:10328000621E564B93F80D3403EB830302EB4302AB
:1032900002EB82035B4A02EB8302117B621E4F4BFF
:1032A00093F80D3403EB830302EB430202EB82033A
:1032B000544A02EB8302012390680522FEF742FA8A
:1032C000332000EB041100234D4A4FF4AD70FEF79C
:1032D000D6F9601E414991F80D1401EB810100EB14
:1032E00041014948405CFF2809D1332000EB04111B
:1032F000002346A24FF4DF70FEF7C1F91DE0601E07
:10330000364991F80D1401EB810100EB41013E4873
:10331000405C48B1332000EB041100233CA24FF481
:10332000DF70FEF7ACF908E0332000EB0411002356
:1033300038A24FF4DF70FEF7A2F9022C05DD072C4E
:1033400003DA2B482749486003E04FF05010254925
:103350004860601E214991F80D1401EB810100EBDA
:1033600041012D48405C1E2808DD332000EB04118C
:10337000002321A22620FEF782F916E0601E174BDB
:1033800093F80D3403EB830300EB43032248C05C46
:1033900000EB400303EBC000204BC218332000EBCE
:1033A000041100232620FEF76AF9601E0B4991F8EC
:1033B0000D1401EB810100EB41011748D230405C54
:1033C00002282DDD332000EB041100230AA29220F5
:1033D000FEF755F93BE00000328901001C050010A2
:1033E000BA89010028000010F3890100380031007B
:1033F00034346500D00A00102D2D2D2D0000000062
:1034000044470010381B0010A02B00102D000000B6
:1034100050000000460000002A090010EC86010060
:10342000601EFE4B93F80D3403EB830300EB430364
:10343000FB48C05C00EB400303EBC000F94BC21833
:10344000332000EB041100239220FEF718F9F34912
:1034500091F80D1401EB810104EB410001230322DB
:103460000021FEF76FF9332000EB04110023EE4A30
:103470000820FEF704F9601CC4B20B2CFFF699AECD
:1034800070BDF8B505462878022802D1FEF75EFC2B
:1034900005E02878022802DDA878FEF7A9FC287844
:1034A000012805D1A87818B9FF20E049486003E059
:1034B0004FF05010DD494860DC4840682A235E2206
:1034C0001A2100903620FDF76CFCD448D0F8400358
:1034D00000EBC000D649421800231A213620FEF71F
:1034E0006BF82878022805D1A87818B9FF20CF49B1
:1034F000486003E04FF05010CC494860CB4840682A
:1035000042231E22322100900020FDF74AFC0023B6
:10351000C8A232211846FEF74FF80324D3E12878D9
:10352000A04206D1A878022803D1FF20BF494860F5
:1035300003E04FF05010BD494860BC48406800901F
:10354000A01E332202EB0010103083B2A01E02EB4B
:10355000001081B24FF49972FA20FDF722FCE01EB0
:10356000E97801EB810100EB410000EB8001AC4800
:10357000D43000EB81008068401C58B9A01E332273
:1035800002EB001081B20023AFF29412FA20FEF792
:1035900076F827E0E21EEB7803EB830302EB4302AD
:1035A00002EB82039E4AD43202EB8302117BE21EBD
:1035B000EB7803EB830302EB430202EB8203984AAE
:1035C000D43202EB8302012390680522FEF7BAF899
:1035D000A01E332202EB001081B20023924AFA208F
:1035E000FEF74DF82878A04206D1A878032803D129
:1035F000FF208E49486003E04FF050108B4948602F
:103600008A4840680090A01E332202EB0010103060
:1036100083B2A01E02EB001081B24FF4C1724FF4CE
:10362000A570FDF7BEFBE01EE97801EB810100EB20
:10363000410000EB8001804800EB81008068401C65
:1036400060B9A01E332202EB001081B20023AFF25A
:1036500058224FF4A570FEF712F826E0E21EEB7830
:1036600003EB830302EB430202EB8203724A02EB99
:103670008302117BE21EEB7803EB830302EB430230
:1036800002EB82036C4A02EB83020123906805225D
:10369000FEF758F8A01E332202EB001081B200237F
:1036A000614A4FF4A570FDF7EAFF2878A04206D1E1
:1036B000A878042803D1FF205C49486003E04FF05C
:1036C00050105A494860594840680090A01E332263
:1036D00002EB0010103083B2A01E02EB001081B28A
:1036E00040F2DF124FF4D270FDF75BFBE01EE97889
:1036F00001EB810100EB41015048405CFF280CD1F7
:10370000A01E332202EB001081B20023AFF2183268
:103710004FF4D270FDF7B3FF0BE0A01E332202EB93
:10372000001081B20023AFF218324FF4D270FDF7CF
:10373000A6FF2878A04205D1A87818B9FF203B49F8
:10374000486003E04FF050103849486037484068FF
:103750000090A01E332202EB0010103083B2A01E96
:1037600002EB001081B27E222820FDF71AFBE01E3A
:10377000E97801EB810100EB41012948D238405C36
:1037800030280BDDA01E332202EB001081B2002393
:10379000AFF29C322820FDF772FF17E0E01EEB78B5
:1037A00003EB830300EB43031D48D238C05C00EBFE
:1037B000400303EBC000224BC218A01E332303EBCF
:1037C000001081B200232820FDF759FF2878A0427D
:1037D00006D1A878012803D1FF201449486003E0EE
:1037E0004FF0501011494860104840680090A01EEA
:1037F000332202EB0010103083B2A01E02EB001047
:1038000081B2C4227E20FDF7CCFAE01EE97801EBFC
:10381000810100EB41010248405C13E01C050010EF
:10382000FC09001001890100444700102800001025
:10383000A58401004E6F2E00381B0010A02B001035
:10384000EC86010002280BDDA01E332202EB0010E3
:1038500081B20023AFF260427E20FDF710FF16E038
:10386000E01EEB7803EB830300EB4303FA48C05CF4
:1038700000EB400303EBC000F84BC218A01E33233B
:1038800003EB001081B200237E20FDF7F8FE4FF01D
:103890005010F34948604860E97801EB810104EB7E
:1038A0004101881E012303220021FDF74BFFA01ECA
:1038B000332202EB001081B20023EA4A0820FDF710
:1038C000DEFE601CC4B20D2CFFF629AEF8BDF8B5C3
:1038D00005464FF05010E24948602878012800D191
:1038E00000E0002006461EB1FF20DD49486003E0ED
:1038F0004FF05010DA494860D94840682A235822CE
:103900001A2100903020FDF74CFAD74890F80C04AB
:1039100000EB8000D549421801231A213020FDF721
:103920004BFE2878022801D1012000E00020064645
:103930001EB1FF20CA49486003E04FF05010C8494B
:103940004860C748406840231E223021009008206C
:10395000FDF727FA0123AFF2241230210820FDF7EA
:103960002BFEFDF759FF2878012819D16FF07F4011
:10397000BB490860BE48486000240EE004EB8401A7
:10398000BA4BCA1804EB8401542303EB011188B22B
:103990000023F121FDF710FE641C022CEED320E081
:1039A000287802281AD16FF07F40AD490860B048EE
:1039B000486000240FE0C4EBC401AE4BCA18E11C00
:1039C00001EB8101542303EB011188B20023F121A3
:1039D000FDF7F2FD641C022CEDD302E06878FEF7DF
:1039E000B6F8F8BDF8B504469F48D0F8D0030128D2
:1039F0000FD14FF050109A49486001239E4AD221BE
:103A00001E20FDF7D9FD01239B4AD2219620FDF708
:103A1000D3FD2078012800D100E0002006461EB129
:103A2000FF208F49486003E04FF050108C494860F8
:103A300092490023052248680321FDF783FE884848
:103A400040682C23C022182100906720FDF7A9F9B7
:103A50000023844A1A216820FDF7AEFD012388A2C5
:103A60001A21AE20FDF7A8FD2078022801D10120FF
:103A700000E0002006461EB1FF207949486003E0BF
:103A80004FF05010764948607C4900230522C869F0
:103A90000321FDF757FE724840684223C0222E21C1
:103AA00000906720FDF77DF900236E4A30216820E1
:103AB000FDF782FD012373A23021AE20FDF77CFDCE
:103AC0002078032801D1012000E0002006461EB125
:103AD000FF206349486003E04FF0501060494860A0
:103AE000664900230522486B0321FDF72BFE5C4845
:103AF00040685823C022442100906720FDF751F907
:103B00000023584A46216820FDF756FD01235DA297
:103B10004621AE20FDF750FD2078042801D1012078
:103B200000E0002006461EB1FF204D49486003E03A
:103B30004FF050104A494860504991F8081101EB84
:103B400041024E49483101EBC20100230522486879
:103B50000321FDF7F7FD424840682C234FF4E17242
:103B60001821009040F27110FDF71BF900233D4A27
:103B70001A214FF4B970FDF71FFD012340A21A214D
:103B80004FF4DC70FDF718FD2078052801D10120E5
:103B900000E0002006461EB1FF203149486003E0E6
:103BA0004FF050102E494860344900230322D1F8C9
:103BB000DC001946FDF7C6FD29484068422340F263
:103BC000C3122E21009040F27110FDF7EAF8002395
:103BD000244A30214FF4B970FDF7EEFC01232AA2EC
:103BE00030214FF4D770FDF7E7FC2078062801D18B
:103BF000012000E0002006461EB1FF201849486061
:103C000003E04FF05010164948601C49002303227E
:103C1000D1F8F4001946FDF795FD11484068582386
:103C200040F2C3124421009040F27110FDF7B9F840
:103C300000230C4A46214FF4B970FDF7BDFC012367
:103C400011A246214FF4D770FDF7B6FCFDF7E4FD55
:103C5000207806287ED219E0FC09001001890100B5
:103C600028000010444700101C050010098A0100BC
:103C700038003100138A0100FE8901002C40001039
:103C800056000000410000006D730000DFE800F006
:103C9000030607080966FDF72EFF61E060E05FE0BC
:103CA0005EE06FF07F40FA490860FA48486060784B
:103CB00038BB00251BE0617801EB4101294401EB91
:103CC0004102F54901EBC2010023052248680321A6
:103CD000FDF738FD05EB8501542202EB0111091DAA
:103CE00088B20023ED4AF121FDF766FC6D1C032D1F
:103CF000E1D30023EAA2F1214FF4A470FDF75CFCAC
:103D00002BE06078012828D100251BE0617801EBC9
:103D10004101294401EB4102DF4901EBC2010023CB
:103D2000052248680321FDF70DFD05EB85015422AE
:103D300002EB0111091D88B20023D84AF121FDF7D9
:103D40003BFC6D1C032DE1D30023D7A2F1214FF4DE
:103D5000A47000E003E0FDF72FFC01E000E000BFED
:103D600000BFF8BD38B504462078012800D100E036
:103D7000002005461DB1FF20C549486003E04FF013
:103D80005010C3494860C449483900230522C86C13
:103D90000321FDF7D7FCBE4840682C23C022182120
:103DA00000906720FCF7FDFF0023BC4A1A21682021
:103DB000FDF702FC0123AFF238121A21AE20FDF705
:103DC000FBFB2078022801D1012000E000200546FD
:103DD0001DB1FF20AE49486003E04FF05010AC49E0
:103DE0004860AD49483900230522486E0321FDF79C
:103DF000A9FCA74840684223C0222E2100906720DA
:103E0000FCF7CFFF0023A54A30216820FDF7D4FB43
:103E10000123AFF294123021AE20FDF7CDFB2078C4
:103E2000032801D1012000E0002005461DB1FF203C
:103E30009749486003E04FF0501095494860964913
:103E4000483900230522C86F0321FDF77BFC904809
:103E500040685823C022442100906720FCF7A1FF4E
:103E600000238E4A46216820FDF7A6FB0123AFF20E
:103E7000F0124621AE20FDF79FFB2078042801D1E7
:103E8000012000E0002005461DB1FF208049486068
:103E900003E04FF050107E4948607F4948390023C5
:103EA0000522D1F894000321FDF74CFC78484068C6
:103EB0002C234FF4E1721821009040F26110FCF7BE
:103EC00070FF0023754A1A214FF4B170FDF774FB9F
:103ED0000123AFF254221A214FF4D470FDF76CFB8A
:103EE0002078052801D1012000E0002005461DB101
:103EF000FF206749486003E04FF050106449486074
:103F00006549483900230522D1F8AC000321FDF7AB
:103F100019FC5F48406842234FF4E1722E21009063
:103F200040F26110FCF73DFF00235C4A30214FF462
:103F3000B170FDF741FB0123AFF2BC2230214FF4F9
:103F4000D470FDF739FB2078062801D1012000E06C
:103F5000002005461DB1FF204D49486003E04FF0A9
:103F600050104B4948604C49483900230522D1F88C
:103F7000C4000321FDF7E6FB4548406858234FF491
:103F8000E1724421009040F26110FCF70AFF002327
:103F9000424A46214FF4B170FDF70EFB0123AFF208
:103FA000203246214FF4D470FDF706FBFDF734FCB8
:103FB000207818B96078FDF7DDFF00BF00BF38BD7D
:103FC0002DE9F04104460D46164604EB4403384FF4
:103FD000DA19B1B2A8B20123FDF751FBBDE8F081B7
:103FE000F8B505464FF05010294948603148D0F8DF
:103FF000FC0078B92F493F22D1F888034FF4B971FA
:10400000FFF7DEFF2B493F22D1F88803C821FFF7D5
:10401000D7FF0CE0002328A23F214FF4B970FDF731
:104020002EFB002324A23F21C820FDF728FB28787F
:10403000012800D100E0002006461EB1FF201449EF
:10404000486003E04FF05010114948601048406844
:104050002A239922182100904520FCF7A2FE15483A
:10406000D0F8880300EBC00014494218012318213E
:104070004620FDF7A1FA2878022801D1012000E0AE
:1040800000200646E6B1FF20014948601CE0000020
:104090002800001038003100744000104447001020
:1040A0004E45585400000000505245560000000094
:1040B0008E9301001C05001025000000A58401005E
:1040C0004FF05010FE494860FE4A92F8EC10002371
:1040D000D2F8E8000522FDF735FBF94840682A23AD
:1040E00040F2451218210090E220FCF75AFE01230D
:1040F000F54A1821E520FDF75FFAF248D0F8F00004
:1041000000EB4000F14942180123182140F2291028
:10411000FDF752FAEB491822D1F8880340F2331127
:10412000FEF731FB2878032801D1012000E00020B0
:1041300006461EB1FF20E249486003E04FF05010F0
:10414000DF494860DE4840682A2340F2DD1218212A
:10415000009040F28F10FCF724FEDA48D0F8FC0003
:10416000DB4901EB8002012318214FF4C870FDF7F1
:1041700023FA2878042801D1012000E00020064617
:104180001EB1FF20CE49486003E04FF05010CC49EB
:104190004860CB4840683E2399222C21009045205E
:1041A000FCF7FFFDC748D0F8E00000EB8000C949EC
:1041B000421800232C214620FDF7FEF92878052817
:1041C00001D1012000E0002006461EB1FF20BC49BD
:1041D000486003E04FF05010B9494860B848406863
:1041E0003E234FF49C722C210090E420FCF7D9FD73
:1041F000B448D0F8040100EB8000B649421801230E
:104200002C21E520FDF7D8F906246DE02878A0429E
:1042100003D1FF20AA4948600CE0A01F022805D95D
:10422000072803D2AC48A649486003E04FF050107D
:10423000A3494860A24840680090A01FC0EB00104E
:104240005C3083B2A01FC0EB00104C3081B2E6227C
:104250009420FCF7A6FDA01F00EB40019F4800EB57
:1042600001104068A0B3A21F02EB42039B4A02EB7D
:104270000312117AA21F02EB4203984A02EB0312C7
:10428000002350680522FDF75DFAA01FC0EB001067
:104290004C3081B201238C4AA020FDF7F0F9894807
:1042A000D0F8FC00F8B9A01F00EB40038B4800EBEE
:1042B0000310C06800EB4000844BC218A01FC0EB85
:1042C00000104C3081B20123D020FDF7D8F90AE06C
:1042D000FFE7A01FC0EB00104C3081B20123804AE1
:1042E000A020FDF7CCF9641C0F2C8FD310247DE0A7
:1042F0002878A04203D1FF20714948600DE0A4F165
:104300001000022805D9072803D273486C49486079
:1043100003E04FF050106A494860694840680090D7
:10432000A4F11000C0EB00105C3083B2A4F11000C7
:10433000C0EB00104C3081B24FF4C3724FF49A704E
:10434000FCF72FFDA4F1100000EB4001634800EBE7
:104350000110C069E0B3A4F1100202EB42035F4A0E
:1043600002EB031292F82010A4F1100202EB4203B8
:104370005A4A02EB03120023D0690522FDF7E2F945
:10438000A4F11000C0EB00104C3081B200234E4A63
:104390004FF4A570FDF773F94A48D0F8FC0020BB34
:1043A000A4F1100000EB40034C4800EB0310406AFE
:1043B00000EB4000454BC218A4F11000C0EB001008
:1043C0004C3081B201234FF4BD70FDF758F90CE079
:1043D000FFE7A4F11000C0EB00104C3081B20123C4
:1043E0003F4A4FF4A570FDF74AF9641C192CFFF4FD
:1043F0007FAF28780F2803D1FF203149486003E0C0
:104400004FF050102E4948602D484068E323E622C3
:10441000D32100909420FCF7C4FC2A4A92F8C012E1
:104420000023D2F8BC020522FDF78CF90123264AAD
:10443000D321A020FDF723F92248D0F8C40200EBD5
:104440004000224942180123D321D020FDF717F95B
:104450002878192803D1FF201949486003E04FF05C
:1044600050101749486016484068E3234FF4C37260
:10447000D32100904FF49A70FCF793FC114A92F804
:10448000D8120023D2F8D4020522FDF75BF90023ED
:104490000D4AD3214FF4A570FDF7F1F80948D0F883
:1044A000DC0200EB4000094942180123D3214FF4FC
:1044B000BD70FDF7E4F8FDF7AFF92878062811E0A4
:1044C000280000101C050010444700105B930100F9
:1044D000CD910100608A010034346500240600108B
:1044E000242B000079D2DFE800F003070809335FCE
:1044F0006878FDF73FFDAFE0AEE0ADE06FF07F40E4
:10450000F6490860F648486000241EE074B9F54991
:1045100001EB840204EB8401542303EB01111431F9
:1045200088B20023F121FDF747F80DE0ED4901EBDA
:10453000840204EB8401542303EB01111E3188B281
:104540000023F121FDF738F8641C022CDED383E050
:104550006FF07F40E1490860E1484860002420E0B6
:104560007CB904EB8401E04BCA1804EB84015423AA
:1045700003EB0111143188B20023F121FDF71CF87F
:104580000EE004EB8401D84BCA1804EB84015423D9
:1045900003EB0111193188B20023F121FDF70CF86A
:1045A000641C022CDCD357E06FF07F40CB490860DD
:1045B000CB484860002421E084B904EB8401CA4B55
:1045C000CA1804EB8401542303EB0111143188B29F
:1045D0000023F121FCF7F0FF0FE012E004EB84016F
:1045E000C14BCA1804EB8401542303EB01111931A8
:1045F00088B20023F121FCF7DFFF641C022CDBD31F
:104600002AE06FF07F40B5490860B5484860B74878
:10461000D0F84C0301280DD10023B5A2F1215D2073
:10462000FCF7CAFF0023B4A2F2214FF4CA70FCF7D2
:10463000C3FF10E0AD48D0F84C0360B90023B0A22E
:10464000F1215D20FCF7B8FF0023AFA2F2214FF467
:10465000CA70FCF7B1FF00BF00BFF8BDF8B5054652
:104660002878012800D100E0002006461EB1FF2076
:104670009A49486003E04FF05010984948609748C5
:1046800040682C23C022182100905820FCF789FB99
:104690009648006800EB80009349421801231A21D4
:1046A0005820FCF789FF2878022801D1012000E07A
:1046B000002006461EB1FF208849486003E04FF005
:1046C000501086494860854840684223C0222E2108
:1046D00000905820FCF765FB8448406800EB8000A0
:1046E00081494218012330215820FCF765FFFDF76E
:1046F00093F82878152878D2DFE800F00B0F94BEE5
:10470000D7EEEDECEBEAE9E8E7E6E5E4E3E2E1E049
:10471000DF006878FDF72EFC75E2687848BB6FF023
:104720007F406E4908606E48486000241EE074B9FE
:10473000784901EBC40204EB8401542303EB01111B
:10474000133188B20023F121FCF736FF0DE07149E7
:1047500001EBC40204EB8401542303EB0111183173
:1047600088B20023F121FCF727FF641C022CDED362
:1047700057E06878012839D16FF07F4057490860C9
:104780005748486000241FE0032C0ED1624901EB1A
:10479000C40204EB8401542303EB0111133188B2EA
:1047A0000023F121FCF708FF0DE05B4901EBC40297
:1047B00004EB8401542303EB01110E3188B2002372
:1047C000F121FCF7F9FE641C042CDDD30023534ACD
:1047D000F22140F29310FCF7EFFE002350A2F221E9
:1047E00040F2BD10FCF7E8FE1BE00BE26FF07F40EB
:1047F0003A4908603A48486000234A4A4FF48271B7
:104800005420FCF7D9FE0023444AF22140F29310D1
:10481000FCF7D2FE002344A2F22140F2BD10FCF7C7
:10482000CBFEF0E16FF07F402C4908602C484860D7
:1048300000241EE074B93D4901EBC40204EB84017D
:10484000542303EB0111133188B20023F121FCF74B
:10485000B3FE0DE0354901EBC40204EB840154239F
:1048600003EB0111183188B20023F121FCF7A4FEFB
:10487000641C022CDED3C6E16FF07F40174908604C
:104880001748486000240DE0294901EBC40204EBFD
:104890008401542303EB011188B20023F121FCF7BA
:1048A0008BFE641C022CEFD3ADE16FF07F400B490F
:1048B00008600B48486000244DE0A2E1A0E19EE1C1
:1048C00081E167E14AE130E116E1F9E0DFE0C5E0CE
:1048D000ABE091E077E05AE040E0000028000010F3
:1048E00038003100CD910100608A01001C050010E4
:1048F00043656C205200000043656C4C6973740082
:10490000C7E5B3FDD0D00000C7E5B3FDB1EDB8F108
:10491000000000004391010015830100B01C00005D
:10492000322F33003D830100332F33007391010098
:104930002289010004EB440101EBC401FE4BCA18BB
:1049400004EB8401542303EB011188B20023F1210D
:10495000FCF732FE641C042CECD354E16FF07F4072
:10496000F6490860F648486000240DE0F54901EB7F
:10497000C40204EB8401542303EB011188B2002329
:10498000F121FCF719FE641C022CEFD33BE16FF020
:104990007F40EA490860EA484860002410E004EBE0
:1049A000440101EBC401E84BCA1804EB8401542311
:1049B00003EB011188B20023F121FCF7FDFD641C1B
:1049C000022CECD31FE16FF07F40DC490860DC482B
:1049D000486000240DE0DD4901EBC40204EB8401D2
:1049E000542303EB011188B20023F121FCF7E4FD0D
:1049F000641C022CEFD306E16FF07F40CF490860C2
:104A0000CF48486000240DE0D04901EBC40204EB1C
:104A10008401542303EB011188B20023F121FCF738
:104A2000CBFD641C022CEFD3EDE06FF07F40C34957
:104A30000860C348486000240DE0C54901EBC4028A
:104A400004EB8401542303EB011188B20023F1210C
:104A5000FCF7B2FD641C032CEFD3D4E06FF07F4071
:104A6000B6490860B648486000240DE0B94901EB3A
:104A7000C40204EB8401542303EB011188B2002328
:104A8000F121FCF799FD641C042CEFD3BBE06FF01F
:104A90007F40AA490860AA48486000240DE0AE495A
:104AA00001EBC40204EB8401542303EB011188B22F
:104AB0000023F121FCF780FD641C032CEFD3A2E05E
:104AC0006FF07F409D4908609D484860002410E0D9
:104AD00004EB440101EBC401A04BCA1804EB8401B0
:104AE000542303EB011188B20023F121FCF764FD8C
:104AF000641C022CECD386E06FF07F408F49086085
:104B00008F48486000240DE0904901EBC40204EB9B
:104B10008401542303EB011188B20023F121FCF737
:104B20004BFD641C022CEFD36DE06FF07F40834996
:104B300008608348486000240DE0824901EBC4020C
:104B400004EB8401542303EB011188B20023F1210B
:104B5000FCF732FD641C022CEFD354E06FF07F4071
:104B60007649086076484860002410E004EB440170
:104B700001EBC4017A4BCA1804EB8401542303EB04
:104B8000011188B20023F121FCF716FD641C022CF0
:104B9000ECD338E06FF07F406849086068484860AF
:104BA00000240DE06B4901EBC40204EB84015423A3
:104BB00003EB011188B20023F121FCF7FDFC641C1A
:104BC000042CEFD31FE06FF07F405C4908605C4825
:104BD0004860002410E004EB440101EBC401604B89
:104BE000CA1804EB8401542303EB011188B200239B
:104BF000F121FCF7E1FC641C042CECD303E002E09F
:104C000001E000E000BF00BFF8BDF8B50546287818
:104C1000012800D100E0002006461EB1FF204749D0
:104C2000486003E04FF050104449486043484068F2
:104C30002C23C0221A2100905E20FCF7B2F84948CC
:104C4000D0F84C03012806D1002347A21C215F2085
:104C5000FCF7B2FC09E04348D0F84C0328B9002324
:104C600043A21C215F20FCF7A7FC2878022801D171
:104C7000012000E0002006461EB1FF202F494860B9
:104C800003E04FF050102D4948602C484068422303
:104C9000C022302100905E20FCF783F8374890F85E
:104CA0007D0200EB800036494218012332215F204B
:104CB000FCF782FC2878032801D1012000E00020C5
:104CC00006461EB1FF201D49486003E04FF050101A
:104CD0001A494860194840685823C022462100906C
:104CE0005E20FCF75EF8254890F87E0200EB80001D
:104CF00023494218012348215F20FCF75DFC2878F6
:104D0000042801D1012000E0002006461EB1FF204A
:104D10000A49486003E04FF05010084948600748CE
:104D200040686E23C0225C2100905E20FCF739F8B9
:104D30000C48D0F84C0325E0A58A0100280000109B
:104D4000380031006F8A0100178B0100AA89010029
:104D50006E8B01007F890100DB890100F38901006E
:104D6000F58B01001C05001053696D426174000051
:104D7000C4A3C4E2B5E7B3D8000000008842001025
:104D8000608A0100FE4901EBC00200235E215F2022
:104D9000FCF712FC2878052801D1012000E0002052
:104DA00006461EB1FF20F749486003E04FF050105F
:104DB000F4494860F34840688423C022722100907F
:104DC0005E20FBF7EEFF0023EFA274215F20FCF7CB
:104DD000F3FB2878062801D1012000E000200646D8
:104DE0001EB1FF20E749486003E04FF05010E5494D
:104DF0004860E44840689A237322882100905E202E
:104E0000FBF7CFFFE24901230222C8690021FCF72A
:104E100099FC0023DF4A8A215F20FCF7CDFB4FF08D
:104E20005010D84948600023DBA28A217320FCF788
:104E3000C3FB2878072801D1012000E000200646A6
:104E40001EB1FF20CF49486003E04FF05010CD491C
:104E50004860CC4840689A239122882100907C20A9
:104E6000FBF79FFFCA490123022288690021FCF752
:104E700069FC0023C74A8A217D20FCF79DFB4FF087
:104E80005010C04948600023C3A28A219120FCF73A
:104E900093FB2878082801D1012000E00020064675
:104EA0001EB1FF20B749486003E04FF05010B549EC
:104EB0004860B44840689A23B122882100909C2021
:104EC000FBF76FFFB24901230222C8680021FCF7FB
:104ED00039FC0020AF49887000230A468A219D20B2
:104EE000FCF76AFB4FF05010A64948600023ABA2C4
:104EF000A0211846FCF760FB0023AB4AA0215E20EE
:104F0000FCF75AFB2878092801D1012000E0002095
:104F100006461EB1FF209B49486003E04FF0501049
:104F200098494860974840682C234FF4DD721A2155
:104F300000904FF4AC70FBF734FF00239B4A1C2118
:104F400040F25910FCF738FB28780A2801D10120DB
:104F500000E0002006461EB1FF208A49486003E0B9
:104F60004FF05010874948608648406842234FF40C
:104F7000DD72302100904FF4AC70FBF712FF01237B
:104F80008B4A322140F25910FCF716FB28780B2887
:104F900001D1012000E0002006461EB1FF20794922
:104FA000486003E04FF0501076494860754840680B
:104FB00058234FF4DD72462100904FF4AC70FBF79C
:104FC000F0FE01237B4A482140F25910FCF7F4FA25
:104FD00028780C2801D1012000E0002006461EB1EF
:104FE000FF206849486003E04FF050106549486071
:104FF000644840686E234FF4DD725C2100904FF4EA
:10500000AC70FBF7CEFE6C486CA1D0F880236148F1
:105010000EF098F801236AA25E2140F25910FCF7C5
:10502000CBFA28780D2801D1012000E000200646A7
:105030001EB1FF205349486003E04FF05010514922
:1050400048605048406884234FF4DD72722100901C
:105050004FF4AC70FBF7A5FE01235B4A742140F2CC
:105060005910FCF7A9FA28780E2801D1012000E098
:10507000002006461EB1FF204249486003E04FF081
:105080005010404948603F4840689A2340F26D12F2
:10509000882100904FF4AC70FBF783FE3C4901235C
:1050A000022288680021FCF74DFB0023394A8A213F
:1050B00040F25910FCF780FA4FF050103149486027
:1050C000002338A28A2140F26D10FCF775FA287887
:1050D0000F2801D1012000E0002006461EB1FF206C
:1050E0002849486003E04FF05010264948602548A1
:1050F00040689A2340F28B12882100904FF4BB70D5
:10510000FBF74FFE22490123022248680021FCF7E9
:1051100019FB00231F4A8A2140F27710FCF74CFA52
:105120004FF050101749486000231EA28A2140F218
:105130008B10FCF741FA2878102801D1012000E0FB
:10514000002006461EB1FF200E49486003E04FF0E4
:1051500050100C4948600B4840689A2340F2AB124B
:10516000882100904FF4CB70FBF71BFE0849012308
:10517000022208680021FCF7E5FA0020054925E035
:10518000D792010028000010484F4C440000000056
:1051900050470010444700102D0000004661637422
:1051A000204E6F2E3A0000000745001018930100B2
:1051B0002F8A0100598A01001C0500102532640065
:1051C0004E4F4E45000000006A8A0100887000239F
:1051D0000A468A2140F29710FCF7EEF9FCF71CFB17
:1051E0002878162876D2DFE800F00B0E0F39638797
:1051F00095AFC9E3F4F3F2F1F0EFEE7575EDECEB7A
:10520000FDF738F80CE20BE26FF07F40FA490860D6
:10521000FA48486000241EE05CB904EB440000EB4F
:10522000C400F74942180023F1216720FCF7C4F9B4
:1052300010E004EB440101EBC401F14BCA1804EB8C
:105240008401542303EB0111183188B20023F121AA
:10525000FCF7B2F9641C022CDED3E1E16FF07F4071
:10526000E5490860E548486000241EE05CB904EBAD
:10527000440000EBC400E24942180023F1216720FA
:10528000FCF79AF910E004EB440101EBC401DC4B9C
:10529000CA1804EB8401542303EB0111183188B2BE
:1052A0000023F121FCF788F9641C022CDED3B7E15E
:1052B0006FF07F40D0490860D0484860002418E073
:1052C0004CB9D04800EBC4020023F1216620FCF762
:1052D00073F90DE0A3E1CB4901EBC40204EB8401B7
:1052E000542303EB011188B20023F121FCF764F988
:1052F000641C022CE4D393E16FF07F40BE49086048
:10530000BE4848600023AFF28012F1216220FCF712
:1053100053F985E16FF07F40B7490860B7484860AE
:1053200000240EE0B84901EBC40204EB84015423CD
:1053300003EB0111091D88B20023F121FCF73CF9B0
:10534000641C022CEED36BE16FF07F40AA49086029
:10535000AA48486000240EE0AB4901EBC40204EB0C
:105360008401542303EB0111091D88B20023F121AC
:10537000FCF722F9641C022CEED351E16FF07F4060
:105380009D4908609D48486000240EE09E4901EB5D
:10539000C40204EB8401542303EB0111091D88B2FC
:1053A0000023F121FCF708F9641C022CEED337E14D
:1053B0006FF07F409049086090484860002418E0F2
:1053C0002CE12AE128E1FDE0E2E0C7E09CE081E099
:1053D0003EE011E08C4901EBC40204EB840154234C
:1053E00003EB0111091D88B20023F121FCF7E4F859
:1053F000641C022CEED313E16FF07F407E490860FD
:105400007E484860002420E07CB9C4EBC4017F4B97
:10541000CA1804EB8401542303EB0111133188B241
:105420000023F121FCF7C8F80EE0C4EBC401774B70
:10543000CA1804EB8401542303EB0111091D88B23F
:105440000023F121FCF7B8F8641C022CDCD3E7E060
:105450006FF07F406849086068484860002436E083
:105460001CB1022C01D0032C0FD1C4EBC401684B3A
:10547000CA1804EB8401542303EB0111091D88B2FF
:105480000023F121FCF798F820E0012C0FD1C4EBA8
:10549000C4015F4BCA1804EB8401542303EB0111D0
:1054A0000E3188B20023F121FCF786F80EE0C4EB40
:1054B000C401574BCA1804EB8401542303EB0111B8
:1054C000093188B20023F121FCF776F8641C052C21
:1054D000C6D3A5E06FF07F40474908604748486061
:1054E00000240EE0484901EBC40204EB840154237C
:1054F00003EB0111091D88B20023F121FCF75CF8D0
:10550000641C022CEED38BE06FF07F403A490860B8
:105510003A48486000241EE074B93E4901EBC402D9
:1055200004EB8401542303EB0111183188B20023EA
:10553000F121FCF741F80DE0364901EBC40204EB20
:105540008401542303EB0111133188B20023F121AC
:10555000FCF732F8641C022CDED361E06FF07F4070
:10556000254908602548486000240EE0264901EBE3
:10557000C40204EB8401542303EB0111091D88B21A
:105580000023F121FCF718F8641C022CEED347E04D
:105590006FF07F40184908601848486000240EE00A
:1055A000194901EBC40204EB8401542303EB0111FC
:1055B000091D88B20023F121FBF7FEFF641C022CB9
:1055C000EED32DE06FF07F400B4908600B48486038
:1055D00000240EE00C4901EBC40204EB84015423C7
:1055E00003EB0111091D88B20023F121FBF7E4FF51
:1055F000641C022CEED313E02800001038003100A8
:10560000F3890100D7920100AA890100218A0100D3
:10561000368A01006F8A010002E001E000E000BF6D
:1056200000BFF8BD08B5FD48162396220021009062
:105630000846FBF7B6FBFCF7EFF808BD70B505466A
:10564000FFF7F0FF6FF07F40F5490860F3484860CE
:105650000023F44A04211846FBF7AEFF6FF07F40A9
:10566000EF4908604FF0501048606878012815D164
:10567000002410E0C4EB0410EB4BC21804EB440010
:1056800000EBC4001A2303EB400081B2002318464C
:10569000FBF792FF641C062CECD330E068780228FC
:1056A00015D1002410E0C4EB0410E04BC21804EB49
:1056B000440000EBC4001A2303EB400081B2002336
:1056C0001846FBF779FF641C062CECD317E06878CA
:1056D000032814D1002410E0C4EB0410D44BC218EA
:1056E00004EB440000EBC4001A2303EB400081B23A
:1056F00000231846FBF760FF641C062CECD3022045
:10570000FCF738FC70BDF8B505466878012873D100
:1057100000241BE04FF05010C14948600846406823
:10572000009004EB440000EBC4001A2202EB40009E
:10573000103083B204EB440000EBC40002EB4000E5
:1057400081B2AC225020FBF72CFB641C062CE1D369
:1057500000244DE02978601C814201D1012000E045
:10576000002006461EB1FF20AD49486003E04FF01F
:105770005010AB49486004EB4402AE4901EBC20152
:105780000023052248680321FBF7DCFFA44840689A
:10579000009004EB440000EBC4001A2202EB40002E
:1057A000103083B204EB440000EBC40002EB400075
:1057B00081B29C225020FBF7F4FA04EB440000EB8A
:1057C000C4001A2202EB400081B200239A4A502002
:1057D000FBF7F2FE04EB440000EBC4001A2202EBDC
:1057E000400081B2012395A29C20FBF7E5FE641CDA
:1057F000062CAFD3EEE0FFE76878022874D10024CE
:105800001BE04FF050108649486008464068009001
:1058100004EB440000EBC4001A2202EB40001030FD
:1058200083B204EB440000EBC40002EB400081B201
:10583000AC225020FBF7B5FA641C062CE1D30024FF
:105840004EE02978601C814201D1012000E0002057
:1058500006461EB1FF207249486003E04FF0501029
:105860006F49486004EB44027249603101EBC201A8
:105870000023052248680321FBF764FF684840685D
:10588000009004EB440000EBC4001A2202EB40003D
:10589000103083B204EB440000EBC40002EB400084
:1058A00081B29C225020FBF77CFA04EB440000EB11
:1058B000C4001A2202EB400081B200235E4A50204D
:1058C000FBF77AFE04EB440000EBC4001A2202EB63
:1058D000400081B2012359A29C20FBF76DFE641C9D
:1058E000042CAED376E0FFE76878032872D1002459
:1058F0001BE04FF050104A4948600846406800904D
:1059000004EB440000EBC4001A2202EB400010300C
:1059100083B204EB440000EBC40002EB400081B210
:10592000AC225020FBF73DFA641C062CE1D3002486
:105930004EE02978601C814201D1012000E0002066
:1059400006461EB1FF203649486003E04FF0501074
:105950003349486004EB44023649C03101EBC201CF
:105960000023052248680321FBF7ECFE2C48406821
:10597000009004EB440000EBC4001A2202EB40004C
:10598000103083B204EB440000EBC40002EB400093
:1059900081B29C225020FBF704FA04EB440000EB98
:1059A000C4001A2202EB400081B20023224A502098
:1059B000FBF702FE04EB440000EBC4001A2202EBEA
:1059C000400081B201231EA29C20FBF7F5FD641C60
:1059D000062CAED3FBF720FF287807281CD2DFE87F
:1059E00000F00408090A0B0C0D000220FCF7C2FAB3
:1059F00012E000BF00BF00BF00BF00BF6FF07F40DC
:105A0000074908600F48486000230F4AF1214FF40E
:105A1000CC70FBF7D1FD00BF00BFF8BDF35203000F
:105A200028000010F78F0100DF8101009382010040
:105A30003982010038410010444700105600000030
:105A4000410000003800310020260000F8B504466F
:105A50002078012800D100E0002006461EB1FF207A
:105A6000FE49486003E04FF05010FC494860FB4895
:105A700040682C23C022182100905C20FBF791F98C
:105A80000023F74A1A215C20FBF796FD20780228B4
:105A900001D1012000E0002006461EB1FF20EF49A1
:105AA000486003E04FF05010EC494860EB48406814
:105AB0004223C0222E2100905C20FBF772F90023C4
:105AC000E74A083230215C20FBF776FD2078032876
:105AD00001D1012000E0002006461EB1FF20DF4971
