:020000040001F9
:10800000304E0010154902001D4902001F490200B0
:108010002149020023490200254902000000000016
:1080200000000000000000000000000027490200DE
:1080300029490200000000002B490200E7840100EA
:108040002F490200F78501002786010037860100CD
:10805000478601005F5A02002F4902002F490200A3
:10806000F75B02002F4902002F4902002F4902004E
:108070002F4902002F4902002F4902002F49020018
:108080002F490200114702002F4902002F49020028
:108090002F4902002F4902002F4902002F490200F8
:1080A0001F6F02002F490200F34702002F49020010
:1080B0002F4902002F4902002F4902002F490200D8
:1080C0002F4902002F4902002F4902002F490200C8
:1080D0002F4902002F490200218301002F4902008D
:1080E0002F490200DFF80CD010F00CF800480047D0
:1080F00063830100304E0010834840F20121C0F834
:108100008011C0F88411C0F88811C0F88C11C0F833
:108110009011C0F89411C0F89811C0F89C11C0F8E3
:10812000A011C0F8A411C0F8A811C0F8AC11C0F893
:10813000B011C0F8B411C0F8B811C0F8BC11C0F843
:10814000C011C0F8C411C0F8C811C0F8CC11C0F8F3
:10815000D011C0F8D411C0F8D811C0F8DC11C0F8A3
:10816000E011C0F8E411C0F8E811C0F8EC11C0F853
:10817000F011C0F8F411C0F8F811C0F8FC11C0F803
:108180000012C0F80412C0F80812C0F80C12C0F8AF
:108190001012C0F81412C0F81812C0F81C12C0F85F
:1081A0002012C0F82412C0F82812C0F82C12C0F80F
:1081B0003012C0F83412C0F83812C0F83C12C0F8BF
:1081C0004012C0F84412C0F84812C0F84C12C0F86F
:1081D0005012C0F85412C0F85812C0F85C12C0F81F
:1081E0006412C0F84011C0F84411C0F84811C0F83A
:1081F0005011C0F86011C0F87011C0F87411C0F8C7
:108200007811C0F87C1170472DE9F041DFF8FC804F
:10821000434653F8C40F40F40060186041F61F70E5
:10822000C3F818013A4C012222600026A660FFF72D
:1082300063FF384838490068B0FBF1F5D86B00B1EE
:108240006D084FF47A77B7FBF5F101F11300B0FB3D
:10825000F1F323630F236363A663E263B0FBF1F0E2
:10826000801C2064626401F13E00B0FBF1FCC4F8A4
:1082700048C0B0FBF1FCC4F84CC02365B0FBF1F082
:108280006065A265A26240F20330C4F804014FF4B5
:108290008D40C4F80001C4F800016421002000F002
:1082A00057F940F283102062C821002000F050F9F5
:1082B00040F20310206202206062401C8028FCD340
:1082C00040F2E7104543B5FBF7F080B260628320CF
:1082D0002062124800682662D4F8000140F40020B1
:1082E000C4F800010121002000F032F90121002032
:1082F00000F02EF9D8F8DC1121F01F0141F0110136
:10830000C8F8DC11BDE8F08100C0024000C00F4099
:1083100000C009202002001040420F00004006A0CB
:1083200010B50122132100200CF071FC002817D099
:108330008048401EFDD180488049012203781BB14E
:10834000002202700F2001E00270022008604FF44A
:10835000002100200CF07AFC79494020C1F880010E
:1083600010BD00200CF059FD764905464FF4C03091
:10837000002408601D2000F0C2F862B64FF47A7045
:10838000B5FBF0F00026401EB0F1807F0CD220F04B
:108390007F404FF0E025401E68611F21681700F004
:1083A000B9F8AE61072028610122D10400200CF049
:1083B00012FC0121262000F0ADF8262000F09FF8E5
:1083C0000CF00DF90CF08AF80DF0A2FA5A4806707C
:1083D00004200DF0BBFB0CF0CFF90DF033FE0CF0D8
:1083E000ADF90BF0A6FF0CF0FAF80CF04CF8FFF723
:1083F0000BFF002000F0CAF953480021406900F04B
:10840000EEF9012000F0C2F900200CF0C4F84B4D49
:108410000F204FF0501628600CF04CF9FF2803D0C5
:10842000641C022C02D004E0002402E0304600F07C
:10843000A7FA2868801E0E28EED2DFE800F0072D8C
:1084400027330D151B2139514B3F454E002000F0BD
:1084500097FA08F020FCDFE7304600F091FA0BF0C5
:1084600037FF09F024F8D7E7304600F089FA09F021
:1084700065FDD1E7304600F083FA09F0F8FDCBE75F
:10848000304600F07DFA09F08DFEC5E7304600F079
:1084900077FA09F09EFABFE7304600F071FA09F06A
:1084A000ABFBB9E7304600F06BFA09F09DFAB3E791
:1084B000304600F065FA0AF056FFADE7304600F0AE
:1084C0005FFA0AF088FAA7E7304600F059FA09F097
:1084D0005EFFA1E70AF007FC9EE70BF0A5FB9BE718
:1084E0000BF0EEF898E719480168491C01607047E5
:1084F000164A116813685B1A8342FBD3704700F079
:108500001F02012191404009800000F1E020C0F8E5
:1085100000117047C906090E002806DA00F00F00A6
:1085200000F1E02080F8141D704700F1E02080F891
:1085300000147047FDFFFF000B0200101002001036
:1085400004E000E008ED00E01C0000100000001056
:10855000F0B5864A0023FF25042612684FF0020C6E
:108560004FF47A740127A8B1012824D0022832D010
:1085700003280ED17E48C0F804C0C360B2FBF4F2F9
:10858000521E4A4382610560466147604168C907DF
:10859000FCD1F0BD4FF04020C0F804C0C360B2FB76
:1085A000F4F2521E4A4382610560466147604168A9
:1085B000C907FCD1F0BD6F48C0F804C0C360B2FB6E
:1085C000F4F2521E4A438261056046614760416889
:1085D000C907FCD1F0BD6848C0F804C0C360B2FB55
:1085E000F4F2521E4A438261056046614760416869
:1085F000C907FCD1F0BD4FF04021012008605F4861
:108600000168491C01605E4801785E48012906D076
:108610008168491C81604168491C4160704701685C
:10862000491C0160F7E7534901200860554841683B
:10863000491C4160704750490120086051488168D9
:10864000491C816070474A49012008604D48C16853
:10865000491CC1607047012138B1012808D00228A7
:1086600009D0032806D1424803E04FF0402000E043
:108670004048416070474048FBE7002140B1012875
:1086800009D03D4A022801D0032800D1516070472B
:108690004FF0402000E037484160704738B1012872
:1086A0000CD002280CD0032807D1314809E04FF044
:1086B0004021486840F00200486070472D4800E0C3
:1086C0002D48416841F002014160704770B50024B7
:1086D0002C4D2D4A032338B1012818D0022821D06F
:1086E00003282AD0002070BD2C6052F8C40F40F03F
:1086F000020010604FF04020426842F002024260E7
:108700004EF65F22C2608161436101201FE06C6010
:1087100052F8C40F40F004001060164881614361B4
:10872000022014E0AC6052F8C40F40F480001060E6
:10873000114881614361032009E0EC6052F8C40FE5
:1087400040F4000010600A4881614361042000F099
:1087500002F8012070BD00F01F0201219140400984
:10876000800000F1E020C0F80011704724020010E2
:10877000004009400080004000000940DC0100107A
:10878000080200100400001000C00F40FC4908B5AA
:108790000028886942F210720CD040F00100886114
:1087A0000092886940F4006088610098401E009043
:1087B000F7D108BD20F40060886110460092401E89
:1087C0000090FCD1886920F00100886108BDED4A65
:1087D000002108C8491C08C28029FAD3704770B527
:1087E000EA4BE94C4FF0270208001A615A61C3F8BE
:1087F0007022C3F87422C3F81821C3F81C21C3F8EF
:108800002021C3F824219A61DA61C3F8D020C3F88B
:10881000D420C3F8D820C3F8DC20C3F8E020C3F884
:10882000E4201A625A62C3F83021C3F83421C3F835
:10883000E820C3F8EC20C3F8F020C3F8F420C3F814
:108840000821C3F81421C3F80C21C3F81021C3F880
:108850000021CF4A116C41F002011164916D41F089
:108860000A019165CB4951F8C42F42F001020A6018
:10887000C94A136823F001031360C14A4FF0000393
:108880009361956925F00E059561956945F00A0596
:108890009561956945F020059561956925F08005FC
:1088A0009561956925F480759561956925F4007544
:1088B0009561956925F480659561956925F4006554
:1088C0009561B64DB64E2D68B5FBF6F5C1F8F4507E
:1088D000916841F080619160916821F02001916080
:1088E000916841F400619160916841F48051916018
:1088F000916821F400519160916821F48041916068
:108900009168A84D01EA050191609168A64D41EA80
:10891000050191601360116841F01C5111601168EC
:1089200041F480211160116841F480711160116877
:1089300041F0740111605360516841F00061516071
:10894000516841F400215160516841F480615160E7
:10895000516840F20F1341EA030151601461546100
:1089600001D0FFF734FF00204FF47F01CA1102C489
:10897000401C9042FBD342F20E70401EFDD170BDF0
:10898000814A00214FF4FF3301C2491C9942FBD3B5
:108990007047F0B5C3F58874C4EB0414C2F5F075E4
:1089A000E40104EB8504784D121A2C440025C2F52D
:1089B000F076591A059F08E0002001E080C4401CB1
:1089C0008242FBD804EB86046D1CA942F4D8F0BDAA
:1089D0006D4BB0F5F07F0DD2B1F5887F0AD2A1F2D0
:1089E0000F11C0F5F070A1EB011100EB4110401E1A
:1089F00043F8202070472DE9F0431746DDF81C901E
:108A00001E460D460446B84201D9274694B2B542E7
:108A100001D90E469DB2381B711B00B20FFA81FCC2
:108A200068B1BCF1000F15D0604531DDC0EB4C01E1
:108A30000EB24FEA4C01404201EB400825E04A46A5
:108A400029462046FFF7C4FF6D1CADB2AE42F6D2F8
:108A5000BDE8F0834A4629462046FFF7B9FF641C6B
:108A6000A4B2A742F6D2F3E74A4629462046FFF7CA
:108A7000AFFF641CA4B2002E04DD6D1CADB208EB88
:108A8000060001E006EB4C0006B2BC42ECD11BE054
:108A9000CCEB40010FB24FEA4C01404201EB4008E1
:108AA00010E04A4629462046FFF792FF6D1CADB202
:108AB000002F04DD641CA4B208EB070001E007EB03
:108AC0004C0007B2B542ECD14A4629462046BDE8E3
:108AD000F0437DE72DE9FF5F884606469A4611463A
:108AE0006846DDF838B007F08BFE00254FEA0D0927
:108AF000002419F805C008EB050700BFC4F1070002
:108B00002CFA00F0C00706EB0400B9B280B201D025
:108B1000524600E05A46FFF75BFF641C082CEDD379
:108B20006D1C102DE4D3BDE8FF9F2DE9FE4F884654
:108B300006469A4611466846DDF830B007F068FEF2
:108B40000025E946002419F805C008EB050700BF19
:108B5000C4F107002CFA00F0C00706EB0400B9B21C
:108B600080B201D0524600E05A46FFF731FF641C44
:108B7000082CEDD36D1C0C2DE4D3BDE8FE8F000056
:108B80000080082000820820000001A000C00240F0
:108B90000080092000C00F40008C08202402001033
:108BA0009C997400FFFF00FC0000DF012DE9F843F1
:108BB0009946DDF8207016460D4604464FF4EC78D1
:108BC00016F8012B4B46294620460097FFF782FFF7
:108BD000444502D20834A4B207E0FF2D4FF0000450
:108BE00002D81035ADB200E0002530780028E7D17A
:108BF000BDE8F8832DE9FF4F81B090460C4605464D
:108C000006460F464FF0000CA6F1140080B2424613
:108C10002146FFF7DDFEA7F11400761C81B2B6B243
:108C200042462846FFF7D4FE7F1C0CF1010C1FFAC8
:108C30008CFCBFB2BCF1280FE6D3A4F114002E4681
:108C400027464FF0000C04F1140AA5F1140B05F1AE
:108C5000140900900098A6F1140881B21FFA88F058
:108C6000049AFFF7B5FE1FFA8AF11FFA88F0049AFA
:108C7000FFF7AEFE761CA7F11408B6B21FFA88F112
:108C80001FFA8BF0049AFFF7A3FE1FFA88F11FFA70
:108C900089F0049AFFF79CFE7F1C0CF1010C1FFA6F
:108CA0008CFCBFB2BCF10A0FD4D30026A4F1140A85
:108CB00004F11409A5F1140805F1140705F10A0CD3
:108CC0001FFA8AF11FFA8CF0049AFFF781FE1FFA4F
:108CD00089F11FFA8CF0049AFFF77AFE6D1C04F1FB
:108CE0000A0CADB21FFA8CF11FFA88F0049AFFF754
:108CF0006FFE1FFA8CF1B8B2049AFFF769FE641C8C
:108D0000761CB6B2A4B20A2ED8D305B0BDE8F08F57
:108D100030B50246FB491378002000BF00EB8014F9
:108D20000D5D9D4204D10C4455786478A54204D071
:108D3000401C80B27728F1D3002030BD30B5024608
:108D4000F1491378002000BF00EB001411F8145013
:108D50009D4205D101EB440455786478A54204D0C6
:108D6000401C80B2B028EFD3002030BD2DE9F04F79
:108D7000044684468B46002502FB03F0C11790464B
:108D8000DFF888A300EB517921E009980026475DC0
:108D9000380602D5DAF8002001E0DAF80420594656
:108DA0002046FFF715FE641C7806A4B2070EA4EB5C
:108DB0000C01414505D10BF1010064461FFA80FB0F
:108DC00003E0761CF6B2082EE2D36D1CADB2B5EB13
:108DD000E90FDADB9AE72DE9F047894604460546B4
:108DE000C94902EB0210DFF824A301EB40084FF061
:108DF000000653BB08EB06005FF0000790F802C0C6
:108E00005FEA0C6002D5DAF8002001E0DAF804200D
:108E100049462046FFF7DCFD4FEA4C60641C4FEAF0
:108E2000106CA4B2601B102809D07F1CFFB2082F61
:108E3000E6D3761CF6B2202EDCD3BDE8F08709F12C
:108E400001002C461FFA80F9F3E708EB0600002723
:108E500090F802C05FEA0C6002D5DAF8042001E065
:108E6000DAF8002049462046FFF7B2FD4FEA4C6091
:108E7000641C4FEA106CA4B2601B102808D07F1C41
:108E8000FFB2082FE6D3761CF6B2202EDDD3D4E74E
:108E900009F101002C461FFA80F9F4E72DE9F047AB
:108EA000894604460546974902EB8210DFF85CA22A
:108EB00000EB01084FF0000653BB00BF08EB0600B3
:108EC0005FF0000790F802C05FEA0C6002D5DAF8A4
:108ED000002001E0DAF8042049462046FFF778FD3B
:108EE0004FEA4C60641C4FEA106CA4B2601B182857
:108EF00008D07F1CFFB2082FE6D3761CF6B23F2EB7
:108F0000DCD39AE709F101002C461FFA80F9F4E757
:108F100008EB06005FF0000790F802C05FEA0C6003
:108F200002D5DAF8042001E0DAF8002049462046AC
:108F3000FFF74EFD4FEA4C60641C4FEA106CA4B280
:108F4000601B182808D07F1CFFB2082FE6D3761CC0
:108F5000F6B23F2EDCD370E709F101002C461FFA70
:108F600080F9F4E730B514460D46024621462846FE
:108F7000FFF794FF182030BD30B514460D46024669
:108F800021462846FFF727FF122030BD2DE9F84F74
:108F90009A4615460C46064600274FF4F0784FF4E3
:108FA00088792A78002A3AD0F01986B2802A15D911
:108FB00006F11800404505D916340026A4B24C45E8
:108FC00000D900242846FFF7A3FE80B2534622466C
:108FD0003146FFF7C7FF0746AD1CE2E70D2A15D063
:108FE0000A2A1AD006F10C00404505D90C34002697
:108FF000A4B24C4500D9002444484168009103685C
:1090000021463046FFF766FD6D1CCAE71634A4B250
:109010004C4500D900240027F6E70026FBE7BDE811
:10902000F88F2DE9F8413A4F154688460646002448
:10903000287800281CD0A0F13001092901D888B275
:1090400002E02E2812D00B2000EBC001C1EB8010F3
:1090500007EB80000090301980B237232022414670
:10906000FFF784FE2034A4B26D1CE1E70A20EBE791
:10907000BDE8F8812DE9F8430646994615460C46A9
:1090800000204FF4F0774FF488782A78002A43D0F4
:10909000304486B2802A14D906F11000B84205D9AE
:1090A00010340026A4B2444500D900242846FFF716
:1090B00045FE80B24B4622463146FFF75DFFAD1CB0
:1090C000E3E70D2A16D00A2A24D006F10800B84298
:1090D00005D908340026A4B2444500D900240B4821
:1090E00041680091036821463046FFF7F3FC0A20EF
:1090F0006D1CCAE71034A4B2444500D900240020F6
:10910000F6E700008C960200C3B4020014000010C1
:1091100080ED02000026F2E76AE52DE9F8430646F5
:10912000994615460C4600204FF4F0774FF48878A6
:109130002A78002A3AD0304486B2802A14D906F11F
:109140001000B84205D910340026A4B2444500D915
:1091500000242846FFF7F2FD80B24B4622463146F6
:10916000FFF70AFFAD1CE3E70D2A16D00A2A1BD031
:1091700006F10800B84205D908340026A4B24445D7
:1091800000D90024334841680091036821463046E5
:10919000FFF7CBFC08206D1CCAE71034A4B244458D
:1091A00000D900240020F6E70026FBE720E5F0B513
:1091B000062A01D90A2201E002B90122052900D9B3
:1091C0000521914200D911460025234C20266655E1
:1091D0006D1CEDB20C2DFAD315460A270EE000BF28
:1091E000B0FBF7FC07FB1C0CB0FBF7F004EB050E23
:1091F0000CF1300C6D1E0EF801CCEDB2002DEFD14C
:1092000069B1104605E0251815F8015C2554401E8B
:10921000C0B2491EC9B2F6D22E21215400E0A65494
:1092200073B90020511E09E0235C302B08D12318AC
:109230005B782E2B04D02654401CC0B28842F3DB4E
:10924000521CD0B2002102E02154401CC0B20C28B4
:10925000FAD3F0BD14000010FC4600102DE9F04FC9
:10926000CDB0DFF89C8600F1290904460D461FFAAF
:1092700089F20B46CDF80080FFF7BDFB681ECDF8E4
:10928000008083B2239004F12B0082B210902398C7
:10929000661E81B2B0B2FFF7AEFBA81E83B20C907F
:1092A00004F12D0082B22E900C98CDF8008081B28E
:1092B000B0B2FFF7A0FBE81E83B2249004F12E00A9
:1092C00082B235902498CDF8008081B22046FFF715
:1092D00092FB281F83B2159004F1300082B23390C4
:1092E0001598CDF8008081B2A01C80B2FFF783FBF7
:1092F000681F83B2259004F1310082B22290259834
:10930000243681B2CDF80080B0B2FFF774FBA81FFD
:1093100083B204F1320781B22690BAB2CDF8008050
:10932000B0B2FFF768FBE81F83B281B22090BAB2F7
:10933000CDF80080B0B2FFF75EFBA5F10800BAB22D
:1093400083B281B2771C2790CDF80080B8B2FFF7C6
:1093500052FBA5F10900CDF8008083B2103681B22E
:109360000F90B2B2B8B2FFF746FBA5F10A0083B284
:1093700081B204F1250A1390B2B2CDF800801FFA31
:109380008AF0FFF738FBA5F10B0083B281B20E9093
:10939000B2B2CDF800801FFA8AF0FFF72CFBA5F1DE
:1093A0000C0083B281B22B90B2B2CDF800801FFACC
:1093B0008AF0FFF720FBA5F10D00771CCDF80080A7
:1093C00083B281B20D3E2890BAB2B0B2FFF713FB60
:1093D000A5F10E0083B281B22990BAB2CDF8008017
:1093E0001FFA8AF0FFF707FBA5F10F0083B281B2E5
:1093F0001290BAB2CDF80080B0B2FFF7FCFAA5F136
:10940000100083B281B21690BAB2CDF80080B0B22B
:10941000FFF7F1FAA5F1110083B27F1C81B21B9016
:10942000BAB2CDF80080B0B2FFF7E5FA404600903E
:10943000A5F1120083B281B2761C0690BAB2B0B226
:10944000FFF7D9FA40460090A5F1130083B281B22C
:109450000590BAB2B0B2FFF7CEFA40460090A5F13F
:10946000140083B27F1C81B20990BAB2B0B2FFF788
:10947000C2FA40460090A5F1150083B281B2761C75
:109480001E90BAB2B0B2FFF7B6FA4046A5F1160B7D
:1094900000901FFA8BF3BAB21FFA8BF1B0B2FFF74C
:1094A000AAFA40460090A5F1170083B281B20A9053
:1094B000BAB2B0B2FFF79FFA40460090A5F118008B
:1094C00083B281B22A90BAB2B0B2FFF794FA4046A2
:1094D000A5F1190A00901FFA8AF3BAB21FFA8AF1AD
:1094E0001FFA89F0FFF787FA4046A5F11A080F36F0
:1094F00000901FFA88F3B2B21FFA88F11FFA89F0C0
:10950000FFF779FAFE480090A5F11B0083B281B203
:109510002F90B2B21FFA89F0FFF76DFAF848009069
:10952000A5F11C0083B2761C81B204F12A090890CF
:10953000B2B21FFA89F0FFF75EFAF148A5F11D07F4
:109540000090BBB2B2B2B9B21FFA89F0FFF753FA7A
:10955000EB480090781E83B281B23290B2B21FFA0B
:1095600089F0FFF748FAE6480090B81E83B21F90D2
:10957000701C82B218901F9881B21FFA89F0FFF711
:109580003AFADF480090F81E83B21990189882B218
:10959000199881B21FFA89F0FFF72DFAD848009088
:1095A000A5F1210910981FFA89F3B2B21FFA89F1C7
:1095B00080B2FFF720FAD2480090781F83B21A9049
:1095C000189882B21A9881B2109880B2FFF713FAF5
:1095D000CB480090B81F83B21D90189882B21D9896
:1095E00081B204F12C00109080B2FFF704FAC44855
:1095F000009004F13A0082B23490FE1F1098B3B28A
:10960000B1B280B2FFF7F7F9BD480090701E83B287
:109610001190349882B2119881B2109880B2FFF7FD
:10962000EAF9B7480090B01E83B2219004F13B00E4
:1096300082B23690219881B2109880B2FFF7DBF9A0
:10964000AF480090F01E83B21C90369882B21C98EE
:1096500081B2109880B2FFF7CEF9A9480090301F70
:1096600083B21090369882B2109881B22E9880B250
:10967000FFF7C1F9A2480090701F83B22C90369872
:1096800082B22C9881B22E9880B2FFF7B4F99C4830
:109690000090B01F83B22D9004F13C0082B237904D
:1096A0002D9881B22E9880B2FFF7A5F994480090CA
:1096B0003799F01F8AB283B281B22E9880B2FFF739
:1096C0009AF98F480090A5F12C0083B22E9037981C
:1096D00082B22E9881B2359880B2FFF78CF9884813
:1096E0000090A5F12D0083B23090379882B2309867
:1096F00081B2359880B2FFF77EF981480090A5F1DC
:109700002E0083B2319004F13D0082B23B9031983B
:1097100081B2359880B2FFF76EF979480090A5F1D3
:109720002F0083B238903B9882B2389881B204F10E
:109730002F00359080B2FFF75EF971480090A5F1D7
:10974000300083B239903B9882B2399881B2359813
:1097500080B2FFF750F96A48009004F13E0082B2EF
:109760003E90A5F1310135988BB289B280B2FFF7F6
:1097700042F963480090A5F1320083B23A903E98D6
:1097800082B23A9881B2359880B2FFF734F95C48DA
:109790000090A5F1330083B240903B9882B240988C
:1097A00081B2359880B2FFF726F955480090A5F1AF
:1097B000340083B23C903E9882B23C9881B2339898
:1097C00080B2FFF718F94E4800903E99A5F1350098
:1097D0008AB283B281B2339880B2FFF70CF948485D
:1097E0000090A5F1360083B233903E9882B2339850
:1097F00081B2229880B2FFF7FEF841480090A5F1AF
:10980000370083B23D9004F13F0082B241903D9811
:1098100081B2229880B2FFF7EEF839480090409864
:1098200083B204F1540082B23590339881B204F1CE
:1098300048003F9080B2FFF7ACF8314800903C9868
:1098400083B204F1530082B222903C9881B204F1B9
:109850004700339080B2FFF7CEF82948009038983F
:1098600083B2229882B2409881B2339880B2FFF7D7
:1098700090F8234800902E9883B204F1520082B2EF
:109880004090389881B204F1460080B2FFF781F829
:109890001B480090109883B204F1510082B21098D6
:1098A00081B204F14400429080B2FFF7A4F814485A
:1098B00000901C9883B2409882B21C9881B204F147
:1098C0004500409080B2FFF796F80D48009021982F
:1098D00083B204F1500082B24490219881B2429840
:1098E00080B2FFF788F806480090119883B204F11F
:1098F0004F0082B24390119881B2429880B201E049
:10990000F3520300FFF777F8FE48009044981FFADF
:1099100089F382B204F143004290B1B280B2FFF702
:1099200038F8F848009004F14E0082B24490429812
:109930001FFA89F31FFA89F180B2FFF75CF8F1484A
:1099400000904398BBB282B2199881B204F14200F0
:10995000439080B2FFF71DF8EA48009004F14D00F3
:1099600082B242904398BBB2B9B280B2FFF743F8DB
:10997000E448009044981FFA88F382B2089881B2B4
:1099800004F14100449080B2FFF703F8DD480090F5
:1099900004F14C0082B2439044981FFA88F31FFAF6
:1099A00088F180B2FFF727F8D648009042981FFA56
:1099B0008BF382B204F140001FFA8AF180B2FEF705
:1099C000E8FFD048009043981FFA8BF382B2419889
:1099D0001FFA8BF180B2FFF70EF8CA480090059885
:1099E00083B2439882B21E9881B2419880B2FEF74A
:1099F000D0FFC44800901B9883B204F14B0082B2A0
:109A0000059881B2419880B2FEF7C3FFBD4800902F
:109A10001B9883B204F14A0082B241901B9881B234
:109A20003E9880B2FEF7E7FFB6480090299883B2CF
:109A3000419882B2169881B23E9880B2FEF7A9FF93
:109A4000B04800900E9883B2419882B2299881B2B2
:109A50003B9880B2FEF79DFFAA4800900E9883B213
:109A60003F9882B20E9881B23B9880B2FEF7C3FF56
:109A7000A4480090209883B204F1490082B2139860
:109A800081B2379880B2FEF784FF9E4800902598F7
:109A900083B23F9882B2209881B2369880B2FEF7A6
:109AA00078FF98480090249883B2339882B2259822
:109AB00081B2349880B2FEF76CFF924800902498EF
:109AC00083B2339882B2249881B2349880B2FEF780
:109AD00092FF8C48009033982B4682B20C9881B24A
:109AE000349880B2FEF755FF8648009040982B4688
:109AF00082B23498194680B2FEF77DFF814800900B
:109B0000109883B204F16E0082B23E90109881B238
:109B100004F1580080B2FEF76EFF7A4800901C985E
:109B200083B204F16F0082B23B901C9881B204F1C1
:109B30005500369080B2FEF75EFF72480090219883
:109B400083B204F1710082B23390219881B23598CA
:109B500080B2FEF750FF6B480090119883B204F179
:109B6000720082B23490119881B2229880B2FEF7CE
:109B700042FF644800903698B3B282B22298B1B2E4
:109B800080B2FEF738FF5F48009004F1730082B2A4
:109B900035900B383690B3B2B1B280B2FEF72BFFDE
:109BA000584800901D9883B2229882B21D9881B2C5
:109BB000229880B2FEF71FFF524800901D9883B292
:109BC000359882B21D9881B2369880B2FEF713FFA5
:109BD0004C4800901F9883B204F1740082B2379011
:109BE0001A9881B2369880B2FEF7D3FE45480090AD
:109BF000089883B2379882B21F9881B204F1670047
:109C0000369080B2FEF7C5FE3E480090089883B2B9
:109C1000349882B2089881B204F16600229080B232
:109C2000FEF7E9FE374800902F9883B2349882B24D
:109C30002F9881B2369880B2FEF7DDFE3148009051
:109C400034981FFA88F382B222981FFA88F180B202
:109C5000FEF7D1FE2B4800900A981FFA8AF183B2D2
:109C6000349882B204F16500229080B2FEF791FE32
:109C7000244800901E9883B2339882B20A9881B229
:109C8000229880B2FEF785FE1E480090069883B2A7
:109C9000339882B21E9881B204F1640080B2FEF75C
:109CA00078FE18480090129883B204F1700082B2D6
:109CB0003690069881B204F16300229080B2FEF7DC
:109CC00068FE10480090129883B23E9882B21298B3
:109CD00081B2229880B2FEF78EFE0A4800900E985C
:109CE00083B23B9882B2299881B204F162003B9022
:109CF00080B2FEF74EFE034800900E9883B204F146
:109D00006D0001E0F352030082B222900E9881B2FE
:109D10003B9880B2FEF76FFEFE480090139883B226
:109D2000229882B2139881B204F161003B9080B214
:109D3000FEF761FEF7480090259883B2229882B220
:109D40000F9881B23B9880B2FEF723FEF148009055
:109D50000C9883B204F16C0082B20F90259881B206
:109D600004F1600080B2FEF714FEEA480090681C1F
:109D700083B20F9882B20C9881B204F15F0080B276
:109D8000FEF707FEE348009004F18A0082B22290B9
:109D9000A5F138010B388BB23E9089B280B2FEF744
:109DA0002AFEDC4800903C9883B204F18B0082B21A
:109DB0003B903D9881B204F17E003D9080B2FEF769
:109DC000E8FDD44800903A9883B2229882B23C9839
:109DD00081B23D9880B2FEF7DCFDCE480090399804
:109DE00083B204F1890082B249903A9881B204F1B9
:109DF0007D003A9080B2FEF7CCFDC64800903998BD
:109E000083B204F1880082B24690399881B204F19D
:109E10007C000F9080B2FEF7EEFDBE4800903898AF
:109E200083B204F1870082B24590389881B20F98CE
:109E300080B2FEF7E0FDB7480090319883B24698B3
:109E400082B2319881B20F9880B2FEF7D4FDB1484A
:109E50000090309883B2459882B2309881B20F98C2
:109E600080B2FEF7C8FDAB4800902D9883B24698AB
:109E700082B22E9881B204F17B00399080B2FEF755
:109E800088FDA44800901C9883B2459882B22D9812
:109E900081B2399880B2FEF77CFD9E4800902C98E4
:109EA00083B204F1A40082B22D902C9881B204F107
:109EB0009900389080B2FEF79EFD96480090109869
:109EC00083B204F1A30082B22E90109881B204F103
:109ED0009700439080B2FEF78EFD8E4800901C984C
:109EE00083B204F1860082B248901C9881B204F1DA
:109EF0007A000F9080B2FEF77EFD864800901C9895
:109F000083B204F1A10082B230901C9881B204F1B6
:109F10009600479080B2FEF76EFD7E48009048980C
:109F2000B3B282B2219881B20F9880B2FEF731FDB0
:109F300078480090219883B204F1A00082B2319059
:109F4000219881B204F194004C9080B2FEF753FD49
:109F500070480090119883B204F19E0082B211986B
:109F600081B204F1930080B2FEF745FD694800908C
:109F700048981FFA89F382B204F179004490B1B293
:109F800080B2FEF706FD6348009004F19D0082B2A6
:109F90000B38B3B2B1B280B2FEF72DFD5D48009030
:109FA0001D9883B204F19B0082B241901D9881B24A
:109FB00004F191003C9080B2FEF71DFD55480090E1
:109FC0001A9883B204F19A0082B23F901A9881B233
:109FD00004F18F00409080B2FEF70DFD4D480090D7
:109FE00004F1840082B24A900C380F901FFA89F372
:109FF0001FFA89F180B2FEF7FEFC464800903898BF
:10A000001FFA89F382B204F18D0042901FFA89F1A0
:10A0100080B2FEF7F0FC3F480090199883B24A984E
:10A0200082B2199881B2449880B2FEF7E4FC3948B4
:10A030000090199883B2439882B2199881B204F1C2
:10A040008C00449080B2FEF7D6FC324800901F98F6
:10A0500083B24A9882B21F9881B20F9880B2FEF7FD
:10A06000CAFC2C4800901F9883B2479882B21F9870
:10A0700081B2229880B2FEF7BEFC2648009032984A
:10A0800083B204F1830082B24B90329881B20F9870
:10A0900080B2FEF7B0FC1F480090329883B204F102
:10A0A000950082B20390329881B2499880B2FEF74F
:10A0B000A2FC184800904B98BBB282B204F1770022
:10A0C0003290B9B280B2FEF796FC12480090039825
:10A0D000BBB282B24598B9B280B2FEF78CFC0D4893
:10A0E0000090089883B204F1820082B2089881B28D
:10A0F000329880B2FEF77FFC06480090089883B241
:10A10000039882B2089881B2489880B2FEF773FC37
:10A11000004801E0F352030000902F9883B20398A7
:10A1200082B22F9881B2329880B2FEF764FCFE486A
:10A1300000904C981FFA88F382B204F176003290B6
:10A140001FFA88F180B2FEF756FCF748009003989A
:10A150001FFA8AF382B232981FFA8AF180B2FEF7B0
:10A160004AFCF14800902A9883B2039882B22A9858
:10A1700081B2329880B2FEF73EFCEB4800900A981C
:10A1800083B2039882B20A9881B204F175002F90CD
:10A1900080B2FEF730FCE448009046981FFA8BF33B
:10A1A00082B232981FFA8BF180B2FEF724FCDE48AF
:10A1B000009003981FFA8BF382B222981FFA8BF15A
:10A1C00080B2FEF718FCD84800901E9883B24598DC
:10A1D00082B21E9881B22F9880B2FEF70CFCD24852
:10A1E00000901E9883B2039882B21E9881B2229882
:10A1F00080B2FEF700FCCC480090099883B24898E2
:10A2000082B2099881B22F9880B2FEF7F4FBC6485B
:10A210000090099883B2479882B2099881B2229837
:10A2200080B2FEF7E8FBC0480090059883B24A98D8
:10A2300082B2059881B2379880B2FEF7DCFBBA484B
:10A240000090059883B2479882B2059881B222980F
:10A2500080B2FEF7D0FBB4480090069883B24B98CA
:10A2600082B2069881B2379880B2FEF7C4FBAE483E
:10A270000090069883B2439882B2069881B22298E1
:10A2800080B2FEF7B8FBA84800901B9883B204F197
:10A29000810082B21B9881B2379880B2FEF7ABFB87
:10A2A000A14800901B9883B2439882B21B9881B258
:10A2B000229880B2FEF79FFB9B480090169883B2CD
:10A2C00004F1800082B20F90169881B2379880B264
:10A2D000FEF791FB94480090169883B2439882B29F
:10A2E000169881B2229880B2FEF785FB8E480090C6
:10A2F0002B9883B20F9882B2129881B2359880B2AF
:10A30000FEF747FB884800902B9883B23D9882B2B5
:10A310002B9881B2359880B2FEF76DFB8248009091
:10A32000279883B23E9882B20E9881B2349880B258
:10A33000FEF72FFB7C480090279883B23A9882B2B0
:10A34000279881B2349880B2FEF755FB764800908A
:10A35000159883B23D9882B2209881B2339880B22A
:10A36000FEF717FB70480090159883B23A9882B2B6
:10A37000159881B2369880B2FEF73DFB6A4800908E
:10A380003A982B4682B2249881B2369880B2FEF772
:10A3900000FB6548009039982B4682B236981946E2
:10A3A00080B2FEF728FB604800902B9883B204F13E
:10A3B000980082B2129881B23B9880B2FEF7E9FA17
:10A3C00059480090139883B2389882B22B9881B282
:10A3D0003B9880B2FEF7DDFA53480090209883B294
:10A3E000389882B2139881B2449880B2FEF7D1FABD
:10A3F0004D480090159883B23F9882B2209881B260
:10A40000449880B2FEF7C5FA474800900C9883B292
:10A41000419882B2159881B2449880B2FEF7B9FA99
:10A42000414800900C9883B23F9882B20C9881B258
:10A43000429880B2FEF7DFFA3B480090239883B23F
:10A440003F9882B2239881B2409880B2FEF7D3FA47
:10A45000354800903F982B4682B23C98194680B20E
:10A46000FEF7C9FA304800902C9883B204F1CF006F
:10A4700082B22B902C9881B204F1AD00229080B270
:10A48000FEF7B9FA28480090109883B204F1D10081
:10A4900082B22C90109881B204F1AB000F9080B280
:10A4A000FEF7A9FA204800901C9883B22C9882B23B
:10A4B0001C9881B204F1A90080B2FEF79CFA1A48F8
:10A4C0000090219883B204F1D20082B210902198BA
:10A4D00081B204F1A80080B2FEF78DFA1248009014
:10A4E000119883B204F1B30082B2119881B204F1E1
:10A4F000A70080B2FEF77FFA0B480090119804F194
:10A50000C60583B2109882B2119881B2A8B2FEF744
:10A5100072FA0548009004F1B20082B22F900C3814
:10A52000B3B2B1B2329001E0F352030080B2FEF751
:10A5300062FAFE48009004F1D30082B221900C38F8
:10A540000E90B3B2B1B280B2FEF755FAF748009060
:10A550001D9804F1B10683B281B23298B2B280B2D2
:10A56000FEF749FAF14800901D9883B2219882B213
:10A570001D9881B2A8B2FEF73EFAEC4800901A98F6
:10A58000B2B283B281B204F1A500189080B2FEF796
:10A5900032FAE64800901A9883B2219882B21A984B
:10A5A00081B2A8B2FEF727FAE048009018981FFA87
:10A5B00089F3B2B21FFA89F180B2FEF71CFADB48C8
:10A5C000009010981FFA89F382B21FFA89F1A8B29D
:10A5D000FEF711FAD54800901998B2B283B281B251
:10A5E000189880B2FEF707FAD0480090199883B205
:10A5F000109882B2199881B2A8B2FEF7FCF9CB4844
:10A6000000902F98BBB282B21F9881B22D9880B271
:10A61000FEF7BFF9C54800902198BBB282B21F98DF
:10A6200081B2681E0D9080B2FEF7B3F9BF4800906A
:10A63000701E82B22D98BBB2B9B280B2FEF7DBF9C0
:10A64000BA4800902C98BBB282B20D98B9B280B2D1
:10A65000FEF7D1F9B548009008981FFA88F381B247
:10A660002E98B2B280B2FEF794F9B04800901098DC
:10A670001FFA88F382B2089881B2A81E089080B2AF
:10A68000FEF787F9A94800902E98B61E1FFA88F3A6
:10A69000B2B21FFA88F180B2FEF7ADF9A34800907C
:10A6A00008980A351FFA88F3AAB21FFA88F180B217
:10A6B000FEF7A1F99D4804F1A20900901FFA8AF360
:10A6C000B2B21FFA8AF11FFA89F0FEF794F997489F
:10A6D000009008981FFA8AF3AAB21FFA8AF180B292
:10A6E000FEF789F99148771E00901FFA8AF3BAB2F3
:10A6F0001FFA8AF11FFA89F0FEF77DF98B48009066
:10A7000004F1C3000B901FFA8AF3AAB21FFA8AF170
:10A7100080B2FEF770F9854800902A98B2B283B2F1
:10A7200081B21FFA89F0FEF766F92A987F4D83B24D
:10A730002B98009582B22A9881B20B9880B2FEF7CE
:10A740005AF900950A98BAB283B281B21FFA89F019
:10A75000FEF751F900950A9883B22B9882B20A98B5
:10A7600081B20B9880B2FEF746F930981FFA8BF34E
:10A77000BAB21FFA8BF1009580B2FEF73CF92B9824
:10A78000133682B21FFA8BF300951FFA8BF1B0B229
:10A79000FEF731F900951E98BAB283B281B23098B3
:10A7A00080B2FEF728F900951E9883B22B9882B2EA
:10A7B0001E9881B2B0B2FEF71EF90998009583B2D7
:10A7C000229882B2099881B2309880B2FEF713F9CC
:10A7D0000998203783B281B20095BAB2B0B2FEF7C1
:10A7E0000AF90095059883B2229882B2059881B241
:10A7F000319880B2FEF7FFF800950598BAB283B29F
:10A8000081B2B0B2FEF7F7F80698009583B22298AD
:10A8100082B2069881B2319880B2FEF7ECF80698C1
:10A8200004F1C10A83B281B20095BAB21FFA8AF06C
:10A83000FEF7E1F81B98163E83B281B2319800957D
:10A84000B2B280B2FEF7D7F81B98009583B281B2FE
:10A85000BAB21FFA8AF0FEF7CEF8169804F19F08F4
:10A8600083B281B20095B2B21FFA88F0FEF7C3F846
:10A870001698009583B281B2BAB21FFA8AF0FEF739
:10A88000BAF81298009583B281B23198B2B280B210
:10A89000FEF7B1F812987F1E83B281B20095BAB26A
:10A8A0001FFA8AF0FEF7A7F81398009583B229984B
:10A8B000B2B281B21FFA88F0FEF76BF8299804F162
:10A8C000C00A83B281B20095BAB21FFA8AF0FEF7CD
:10A8D00092F81398009583B22898BAB281B21FFA01
:10A8E0008AF0FEF756F82098009583B20F9882B24E
:10A8F000139881B21FFA88F0FEF74BF8279800955D
:10A9000083B2781E82B2139881B204F1BF0080B284
:10A91000FEF73FF82798009583B2F81E82B2279879
:10A9200081B204F1BE0080B202E00000F3520300E5
:10A93000FEF761F82098009583B281B2B2B21FFA97
:10A9400088F0FEF758F820981D3683B281B204F1E2
:10A95000BC000095B2B280B2FEF74DF82698009583
:10A9600083B281B2B2B21FFA88F0FEF744F825989C
:10A97000C83483B281B231980095A2B280B2FEF79A
:10A980003AF81598009583B20E9882B2159881B264
:10A99000309880B2FEF72FF82498009583B20D9876
:10A9A00082B2249881B21FFA89F0FEF724F80C983D
:10A9B000009583B2089882B20C9881B22E9880B22A
:10A9C000FEF719F80095239883B20B9882B223986A
:10A9D00081B22D9880B2FEF70EF84DB0BDE8F08F31
:10A9E0002DE9F84F0024A2464FF04C0940F20F1811
:10A9F000FE4F4FF04E0BFE48009004EB4401A000C8
:10AA000001EB041100EB810004EB840509EB051652
:10AA100080B2B2B24346E421FDF7BBFF012000EB58
:10AA20000510E323B2B280B219460097FDF7E3FFA9
:10AA3000B2B2B0B24346E3210097FDF7DCFF4D20F0
:10AA400000EB051082B2564680B24346E321CDF8B2
:10AA500000A0FDF7D0FF0BEB051082B280B2434699
:10AA6000E3210096FDF7C7FF4F2000EB051082B2EF
:10AA700080B24346E3210096FDF7BDFF641C062C1F
:10AA8000B9D3BDE8F88F10B5FFF7AAFFD948D84968
:10AA9000002341606FF07F410160D7A2F121542073
:10AAA000FEF7E8FA0023F121BDE81040D4A2A4206B
:10AAB000FEF7E0BA10B5FFF793FFCE48CC4900236C
:10AAC00041606FF07F410160F121BDE81040CDA2EF
:10AAD0005420FEF7CFBA10B5FFF782FFC548C4492E
:10AAE000002341606FF07F410160F121BDE810401B
:10AAF000C5A25420FEF7BEBA10B5FFF771FFBD48DE
:10AB0000BB49002341606FF07F410160F121BDE846
:10AB10001040BEA25420FEF7ADBA2DE9F04704461E
:10AB2000FFF75EFFB348B249B94E41606FF07F4115
:10AB3000002C06F118054FF4D1794FF0710A01602D
:10AB40004FF0000404D037461E364FF06C082EE05C
:10AB50004F46D04601E0042C11D004EB440006EB34
:10AB6000400204EB840108EB01100023F121FEF701
:10AB700081FA641CE4B2052CEDD3BDE8F0872A46C7
:10AB80003846F2E7042C0ED08CB1032C14D004EB21
:10AB9000440007EB400204EB84010AEB01100023A0
:10ABA000F1211E320EE005F11E02484601E0324658
:10ABB00040460023F12105E0954A4FF4A77030325A
:10ABC0000023F121FEF756FA641CE4B2052CD9D318
:10ABD000D3E710B5FFF704FF86488549002341609D
:10ABE0006FF07F4101608BA2F1215420FEF742FA01
:10ABF0000023F121BDE8104087A2A420FEF73ABA55
:10AC000010B5FFF7EDFE7B487949002341606FF0F6
:10AC10007F410160F121BDE8104080A25420FEF781
:10AC200029BA10B5FFF7DCFE72486FF07F41016072
:10AC30006F4941607A4890F85F0201280FD00028E0
:10AC400016D1002377A2F2215320FEF713FA002336
:10AC500077A2F221BDE81040A320FEF70BBA002333
:10AC600076A2F2215320FEF705FA002375A2F0E741
:10AC700010BD10B50446FFF7B3FE5E495C48684A54
:10AC80006FF07F43BCB1C1E90030012C3BD092F89A
:10AC90005F02012866D000286DD100236BA2F2214B
:10ACA0005320FEF7E7F900236AA2F221A320BDE8B2
:10ACB0001040FEF7DFB9C1E9003092F85F020128C9
:10ACC00012D0002857D1002364A2F2215320FEF7AE
:10ACD000D1F9002364A2F221A320FEF7CBF90023CF
:10ACE00064A2F221FC20E2E7002354A2F2215320C7
:10ACF000FEF7C0F9002361A2F221A320FEF7BAF902
:10AD0000002360A2EDE792F85F1240F2931401294C
:10AD100001D079B120E000235CA2F2215320FEF79C
:10AD2000A9F900235CA2F221A320FEF7A3F90023D6
:10AD30005CA20DE000235DA2F2215320FEF79AF9F8
:10AD400000235DA2F221A320FEF794F900235DA267
:10AD5000F2212046FEF78EF900235CA2F22140F298
:10AD6000BD10A4E700235AA2F2215320FEF782F976
:10AD7000002359A299E710BD10B5FFF731FE1D4819
:10AD80006FF07F41264C01601949416094F85F02E1
:10AD9000012824D0002827D1002351A2E7215420E4
:10ADA000FEF768F9002350A2FB215420FEF762F958
:10ADB00094F85F124FF4A2704FF4CA74012914D0B2
:10ADC000002911D100234AA2F121FEF753F90023F3
:10ADD00049A22046BDE81040F121FEF74BB90023FF
:10ADE000E72147A254208FE09BE092E0684369008E
:10ADF00038003100140000106D736563000000001E
:10AE00007365630056000000410000006D73000090
:10AE10002DDF0200487A00004B487A002A310000FA
:10AE2000D43F0010B2E2C1BFC9E8D6C300000000A1
:10AE3000CFB5CDB3C9E8D6C3000000004D4541539E
:10AE40005345540053595353455400002020C8A182
:10AE5000CFFB20002020C8B7C8CF2000B2E2C1BF7E
:10AE6000CFD4CABE00000000B5B5BAC5CFD4CABEA3
:10AE700000000000B5B5BCC6CAFD00004E6F2E44F0
:10AE800049535000434F554E5420000046494C450D
:10AE9000205345540000000053617665446174619D
:10AEA000000000004D4F524500000000CEC4BCFE23
:10AEB000B9DCC0ED00000000B1A3B4E6CAFDBEDD00
:10AEC00000000000B8FCB6E000000000322F3200A5
:10AED00043414E43454C2000434F4E4649524D009E
:10AEE000C7E5B3FD00000000B1EDB8F100000000BF
:10AEF000C9CFD2BBD2B30000CFC2D2BBD2B3000005
:10AF0000434C454100000000FEF7B4F80023F6A2D0
:10AF10004AE70023F6A2F121FEF7ACF80023F6A2DF
:10AF200057E710BD70B50446FFF75AFDF448F54ADF
:10AF3000F5494FF4A2754FF4CA766FF07F435CB3C6
:10AF4000012C29D0C0E9003291F85F02012865D0B8
:10AF500000287DD10023EDA2F1215420FEF78AF8CC
:10AF60000023ECA2E721A420FEF784F80023EBA243
:10AF7000FB21A420FEF77EF80023AFF28C02F12122
:10AF80002846FEF777F80023AFF294023046BDE87A
:10AF90007040F121FEF76EB8C0E9003291F85F020F
:10AFA00001281ED0002856D10023D8A2F121542018
:10AFB000FEF760F80023DBA2E721A420FEF75AF891
:10AFC0000023D4A2FB21A420FEF754F80023D7A22B
:10AFD000E721F420FEF74EF80023FB21CDA2F42058
:10AFE000C8E70023D3A2F1215420FEF743F8002341
:10AFF000D2A2E721A420FEF73DF80023D1A2FB2135
:10B00000A420FEF737F80023D0A2E721F420FEF7B2
:10B0100031F80023FB21CBA2F4200FE00023C5A2CE
:10B02000F1215420FEF726F80023C6A2E721A42030
:10B03000FEF720F80023C7A2FB21A420FEF71AF890
:10B040000023ABA2F1212846FEF714F8002300E00C
:10B0500001E0A9A29AE770BD10B50446FFF7C0FC55
:10B06000A749A848A84A6FF07F43ECB1C1E9003076
:10B0700092F85F02012C36D001287BD000287AD1CB
:10B080000023B6A2F2215320FDF7F4FF0023B6A25D
:10B09000F221A320FDF7EEFF0023B6A2F221F32058
:10B0A000BDE81040FDF7E6BFC1E9003092F85F024D
:10B0B00001280ED000285ED10023AFF26022F221D9
:10B0C0005320FDF7D7FF0023AFF29C22F221A320EB
:10B0D000E6E70023AAA2F2215320FDF7CBFF0023CD
:10B0E000AFF2A022F2E74FF4CA74012834D000284E
:10B0F0006CD10023A4A2E7215420FDF7BBFF00235D
:10B10000AFF25422FB215420FDF7B4FF0023A0A28C
:10B11000E721A420FDF7AEFF0023AFF2F422FB21CC
:10B12000A420FDF7A7FF00239BA2F121F420FDF747
:10B13000A1FF0023AFF21032FB21F420FDF79AFFAC
:10B140000023AFF28022E7212046FDF793FF002382
:10B1500093A2FB212046A3E7002393A2E7215420DA
:10B16000FDF788FF002392A2FB215420FDF782FF08
:10B17000002301E01BE029E08FA2E721A420FDF7D6
:10B1800079FF00238EA2FB21A420FDF773FF00238B
:10B190008DA2F121F420FDF76DFF002388A2FB2191
:10B1A000F420FDF767FF0023AFF20832CBE700235E
:10B1B00087A2F2215320FDF75DFF002386A2F22132
:10B1C000A320FDF757FF002385A267E710BD4C4879
:10B1D00010B56FF07F4101604A4941604A4890F8DC
:10B1E0005F02012811D0002818D10023AFF2943259
:10B1F000F2215320FDF73EFF0023AFF2D832F221B7
:10B20000BDE81040A320FDF735BF00235CA2F2216A
:10B210005320FDF72FFF002373A2F0E710BD70B598
:10B2200037486FF07F414FF48374016035494160C6
:10B23000354840F2931590F85F1201291BD0002980
:10B240002ED100236AA2F2215320FDF713FF002321
:10B250006AA2F221A320FDF70DFF00236AA2F221CA
:10B260002046FDF707FF002369A22846BDE870408D
:10B27000F221FDF7FFBE002368A2F2215320FDF763
:10B28000F9FE002368A2F221A320FDF7F3FE0023BC
:10B2900068A2F2212046FDF7EDFE002367A2E4E755
:10B2A00070BD08B56848002100901623D2220846D8
:10B2B000FDF76FFB08BD08B564480090CD2340F250
:10B2C000DF125C210020FDF764FB08BD08B55E4875
:10B2D000002100901623A0220846FDF75AFBFFF735
:10B2E0007FFBBDE80840E6E74C49535400000000EE
:10B2F0004C617374205000004E657874205000003B
:10B300001400001038003100D43F0010C9BEB3FD56
:10B31000D0D00000D7D4B6AF00000000B8B4D6C675
:10B3200000000000CFDFD0D400000000B6D4CAFD7A
:10B330000000000044656C526F7700004C494E4598
:10B340000000000041544F55000000004C4F4720C2
:10B3500000000000434F505900000000B5E7D1B98C
:10B36000D0A3D5FD00000000BFD8D6C6D0A3D5FD20
:10B3700000000000B5E7C1F7D0A3D5FD0000000034
:10B380004D45414449535000CEC4BCFE000000006E
:10B39000CFB5CDB300000000B9A4BEDF00000000AF
:10B3A00020322F320000000046494C4500000000CA
:10B3B0004D414E450000000053595320000000004D
:10B3C0005345542000000000544F4F4C0000000033
:10B3D000564F4C43616C00004374726C43616C00C7
:10B3E00043757243616C00004D6561735365740071
:10B3F000B5E7C8DDD0A3D5FD00000000B5E7D7E86C
:10B40000D0A3D5FD00000000CDCBB3F600000000B6
:10B41000C7E5B3FDD0A3D5FD000000004320436F76
:10B4200072726574000000005220436F727265747E
:10B43000000000004578697400000000436C65203E
:10B44000436F727200000000F35203003434650051
:10B450002DE9F047FFF73AFFFC4CFD486FF07F46BF
:10B46000FC4DC4E9006095F85F02012801D018B1D5
:10B4700009E00023F84A02E0F74A0023F23A0421E7
:10B480000020FDF7F7FD4FF05010C4E90060F34EC7
:10B4900000241A2706F150096FF0270801E0032C59
:10B4A0001BD295F85F02012801D028B11AE004EB05
:10B4B000840006EB400203E0C4EB041101EB090237
:10B4C00004EB440000EBC40007EB400081B2002312
:10B4D0004FEA0300FDF7CEFD04E095F85F02012876
:10B4E00007D058B1641C062CD9D3BDE8F047FFF74C
:10B4F00098BB04EB840006EB400203E0C4EB0411AC
:10B5000001EB090204EB440000EBC40108EB41002D
:10B5100081B20023FA20DDE708B5D1480090BE23B0
:10B5200040F2DF12A0210020FDF733FA08BD08B574
:10B53000C748002100901623A0220846FDF729FAEB
:10B54000FFF74EFABDE80840E6E738B5BF4D0446C0
:10B550004FF050106860C348012300EB8402C821FB
:10B560001420FDF787FDBF4801235C3000EB840207
:10B57000C8214FF48C70FDF77DFDB9486860BA486A
:10B580000090372328227A215020FDF7EFFBB7489F
:10B590000090372328227A217820FDF7E7FBB44872
:10B5A0000090372328227A218C20FDF7DFFB38BD5D
:10B5B0002DE9F047FFF7BBFFA44CA5486FF07F468D
:10B5C000A44DC4E9006095F85F02012801D018B1CC
:10B5D0000AE00023A04A02E09F4A0023F23A042135
:10B5E00000201632FDF746FD4FF05010C4E9006010
:10B5F000A04E00241A27A6F130096FF0270801E0B9
:10B60000032C16D295F85F02012801D018B115E07D
:10B6100006EBC40201E009EBC40204EB440000EBBA
:10B62000C40007EB400081B200231846FDF722FD5D
:10B6300004E095F85F0201280DD078B1641C062C57
:10B64000DED38D4890F88803FFF77FFFBDE8F04711
:10B650000020FFF70EBB06EBC40201E009EBC402B9
:10B6600004EB440000EBC40108EB410081B200236D
:10B67000FA20DBE738B57A4C40F2DF15A0232A46E2
:10B68000562100200094FDF784F9E3232A46C121C6
:10B6900000200094FDF77DF938BD08B56C48002105
:10B6A00000901623B2220846FDF773F9FFF798F9C8
:10B6B000BDE80840DEE70B46704930B4085C18313D
:10B6C00000EB4000441891B2224698B230BC0023EF
:10B6D000FDF7D0BC2DE9F05FFFF7DFFF5B4D5C4865
:10B6E0006FF07F445B4EC5E9004096F85F02012889
:10B6F00001D018B10AE00023574A02E0564A00235D
:10B70000F23A042100202C32FDF7B4FC4FF050191E
:10B71000C5E900495A4F00244FF0BE08A7F1150BA8
:10B720004FF6FF7A03E0012C07D0022C11D096F8D7
:10B730005F02012828D058B336E096F85F0201284E
:10B7400001D070B114E0FA1D404600231821FDF726
:10B7500091FC96F85F124FF4B47001290AD059B1E8
:10B7600025E00BF10702404600231821FDF782FC7B
:10B770000224D8E7424A01E0414A153A0023182141
:10B780000E32FDF777FC12E0C4EBC400C21903E0EF
:10B79000C4EBC40101EB0B0204EB84010AEA411083
:10B7A00000231821FDF766FC641C032CBBD3324E2A
:10B7B0000123D6F89003E83600EB400101EBC0000E
:10B7C0002849D431421818213C20FDF753FC317927
:10B7D000002306223068FDF7EAFC0123294A1821DC
:10B7E000FA20FDF747FCB068244900EB40001B3904
:10B7F0004218012318214FF4A070FDF73BFCD6F846
:10B80000A00218224FF4A571E83EFFF754FF002371
:10B810001DA22C211846FDF780FC00231BA22C2121
:10B820007820FDF77AFC00231AA22C21FA20FDF7DC
:10B8300074FC002319A22C2140F29D10FDF76DFC31
:10B840000624DFF81C804F4636E00000140000108C
:10B85000F3520300D43F001079DC020029D2020029
:10B860003434650009D50200A5FF0200E811030089
:10B87000FB120300B3D90200C404001084DF0200ED
:10B8800080DD0200FC46001042494E004C4F57201C
:10B890005B465D00484947485B465D00434F554E57
:10B8A00054000000A4F10800052802D3A01F0828B6
:10B8B00002D9C5F8048000E06F6004EB440006EB99
:10B8C000001151F8140C60B111F8101C012306226C
:10B8D000FDF76DFCC4EB0410203881B20123FE4A51
:10B8E00005E0C4EB0410203881B20123FBA27820CC
:10B8F000FDF713FC641C0F2CD4D3C5F80480D6F8D4
:10B90000D40240B196F8D81201230622FDF74FFC6D
:10B910000123F14A01E00123F0A2C421FA20FDF73E
:10B92000FCFB10240AE000BFA4F11200052802D39A
:10B93000801C082802D9C5F8048000E06F6004EB81
:10B94000440006EB0011A1F58051D1F8240E60B13E
:10B9500091F8281E01230622FDF729FCC4EB0410F0
:10B96000B63881B20123DC4A05E0C4EB0410B638D6
:10B9700081B20123D9A2FA20FDF7CFFB641C192C58
:10B98000D2D3C5F80480C146D6F8D402B04650B12F
:10B9900098F8C01201230622D8F8BC02FDF707FC74
:10B9A0000123CD4A01E00123CCA2C4217820FDF778
:10B9B000B4FB4E46B9460124CA4F04E0E01E0528F8
:10B9C00001D26E6001E0C5F8049004EBC400C21916
:10B9D000C4EB04102B3081B200230820093AFDF794
:10B9E0009CFB641C0A2CE9D36E60BF49D8F888031D
:10B9F000002301EB8002C4211846FDF78EFB0023D3
:10BA0000BAA2D4211846FDF788FB0023B9A2D4219D
:10BA1000F820FDF782FBBDE8F05F0020FFF729B9B1
:10BA200008B5B6480090A02340F2DF12AF210020F5
:10BA3000FCF7AFFF08BD10B5FFF733FCFEF7D0FFF2
:10BA4000BDE81040ECE770B5FFF7F5FFAC4CAD4832
:10BA50006FF07F45C4E900500023AB4A042118462B
:10BA6000FDF708FB4FF05010C4E90050A74890F8CC
:10BA70005F02012801D078B120E00023A4A21A219E
:10BA80001846FDF7F7FA0023A3A230212820FDF77E
:10BA9000F1FA0023A3A20DE00023A4A21A21184664
:10BAA000FDF7E8FA0023A3A230212820FDF7E2FAEF
:10BAB0000023A3A230218C20FDF7DCFA0023A2A2F0
:10BAC0003021F020FDF7D6FA0023A1A230214FF457
:10BAD000AA70FDF7CFFA00239FA230214FF4DC704B
:10BAE000FDF7C8FABDE870400020FFF7C2B808B5FE
:10BAF000824800909A2340F2DF125A210020FCF77E
:10BB000048FF08BD08B57F48002100901623A822F1
:10BB10000846FCF73EFFFEF763FFBDE80840E6E796
:10BB20002DE9F05FFFF7EEFF754D76486FF07F442B
:10BB3000764FC5E9004097F85F02012801D020B197
:10BB40000AE0714A0023423A01E0844A00230421BA
:10BB500000205832FDF78EFA4FF05016C5E9004626
:10BB6000DFF8FC91DFF8948100244FF01A0A6FF09F
:10BB7000270B00BF97F85F02012801D0D0B14AE03F
:10BB8000032C0BD2E01E022802D2C5F8048000E08C
:10BB90006E6004EB840109EB41021AE0A01F022849
:10BBA00002D2C5F8048000E06E6004EB840109EB6A
:10BBB000410225E0032C16D2E01E022802D2C5F86D
:10BBC000048000E06E60664804EB4401483800EBF6
:10BBD000810204EB440000EBC4010AEB410081B296
:10BBE0000023184615E0A01F022802D2C5F80480E1
:10BBF00000E06E605A4804EB4401483800EB8102D3
:10BC000004EB440000EBC4010BEB410081B20023C4
:10BC1000FA20FDF72FFA641C062CABD3BDE8F05FC9
:10BC20000020FFF719BA2DE9F843354E4D4C4FF07F
:10BC3000501507467560D4F888034B4900EBC000E7
:10BC4000421801231A21492004F56274FDF712FA03
:10BC5000A068012300EB400101EBC00022497831CC
:10BC6000421830214920FDF705FAE068012300EB76
:10BC7000400101EBC0003D49421846214920FDF733
:10BC8000F9F9E06B40F2431800EB400101EBC00012
:10BC900036490023313142181A214046FDF7EAF9AE
:10BCA000206C012300EB400101EBC0002F49A4F5FB
:10BCB0006274AE31421830214046FDF7DBF9387826
:10BCC00001286ED028467560582300904FF4C47246
:10BCD00044214FF4A1704BE0FC4600102D2D2D2D7A
:10BCE0002D2D0000D8D1020065D502004155583AEB
:10BCF000000000004F55543A000000003434650045
:10BD000014000010F3520300BBDC0200D43F00100B
:10BD10004D657468203A0000467265715B487A5D33
:10BD2000000000004C65766C5B565D00B7BDCABD77
:10BD3000203A0000C6B5C2CA5B487A5D0000000028
:10BD4000B5E7C6BD5B565D0043705B465D00000015
:10BD5000445B205D00000000434D500087DB020083
:10BD60002BDA0200C404001031D40200A0D7020074
:10BD7000FCF70FFED4F80401FF4D00EB400101EB8E
:10BD8000C0004219012346214046FDF773F9FEF732
:10BD900027FE3878012807D0BDE8F8430020FEF7D9
:10BDA00068BFFF2070608FE76FF07F403060F3481E
:10BDB000682770606D2600E034B92A4638460023B3
:10BDC000F121FDF757F9012404EB440000EBC40016
:10BDD000421904EB840006EB001080B20023F1212D
:10BDE000FDF748F9641C022CE6D3BDE8F883F8B5EA
:10BDF000E34E04464FF0501070602078012801D0C7
:10BE0000706801E0FF207060009028234FF4E67214
:10BE1000182140F2A310FCF7BCFDDA48D64D0123EF
:10BE2000D0F8180300EB400101EBC00042191821C3
:10BE30004FF4D270FDF71EF9FEF7D2FD20780128ED
:10BE400004D0BDE8F8400020FEF713BF6FF07F403C
:10BE50003060CA48682770606D2600E034B92A4611
:10BE600038460023F121FDF705F9012404EB4400D5
:10BE700000EBC400421904EB840006EB001080B212
:10BE80000023F121FDF7F6F8641C022CE6D3F8BD7F
:10BE90002DE9F05F0124DFF8F092DFF8E482B94D7C
:10BEA0004FF4AD7B4FF0501A3326E71E042F02D219
:10BEB000C8F8049001E0C8F804A095F80D0400EB60
:10BEC000800004EB400000EB800005EB8001D1F81E
:10BED000A805421C3DD091F8AC1501230522FDF7C1
:10BEE00066F9AA4A06EB04110023F620FDF715F9BE
:10BEF00095F80D0400EB800004EB400000EB80009F
:10BF000005EB800101F58051D1F81006421C25D0C7
:10BF100091F8141601230522FDF749F99B4A06EB17
:10BF2000041100235846FDF7F8F895F80D0400EBCE
:10BF3000800004EB4000284400F5005090F8830690
:10BF4000FF2810D006EB04114FF0000380B190A23F
:10BF50000FE006EB041100238EA2C6E706EB0411E6
:10BF600000238CA2DEE706EB041100238BA200E085
:10BF70008BA24FF4DF70FDF7D0F8042F02D2C8F87F
:10BF8000049001E0C8F804A095F80D0400EB8000CF
:10BF900004EB4000284490F80D041E2804D906EB59
:10BFA000041100237BA208E000EB400101EBC0007C
:10BFB0007C49421806EB041100232620FDF7ADF85A
:10BFC00095F80D0400EB800004EB4000284490F845
:10BFD000DF04022804D906EB041100236DA209E056
:10BFE00000EB400101EBC0006349E739421806EB62
:10BFF000041100239220FDF790F895F80D04012319
:10C0000000EB800004EB400003220021FDF7CFF895
:10C0100006EB041100235D4A0820FDF77EF8641C3E
:10C02000E4B20B2CFFF441AFBDE8F09F2DE9F84FCF
:10C030000546007802280CD002D9A878FEF772FFD6
:10C0400028784F4C4FF0FF0B4FF05017012803D0CA
:10C0500004E0FEF791FEF3E7A878C8B138466760C0
:10C0600000902A235E221A213620FCF792FCDFF88A
:10C0700014814D490023D8F8400300EBC00042185A
:10C080001A213620FCF7F6FF2878022804D006E0B3
:10C090005846C4F804B0E3E7A87800286BD03846C7
:10C0A0006760009042231E2232210020FCF771FCC1
:10C0B00000233EA232211846FCF7DCFFC2460326CD
:10C0C000A146B8462878B04202D1A87802286FD09D
:10C0D000C9F80480D9F804000090232000EB06136F
:10C0E000132000EB06111F460C464FF49972FA20FC
:10C0F000FCF74FFCE87800EB800006EB400000EB1B
:10C1000080010AEB8101D1F88005421C7ED091F8B4
:10C11000841501230522FDF74AF81C4A2146002315
:10C12000FA20FCF7FAFF2878B04202D1A878032859
:10C130006DD0C9F8048000BFD9F8040000903B46D8
:10C1400021464FF4C1724FF4A570FCF722FCE87849
:10C1500000EB800006EB400000EB80010AEB810160
:10C1600001F58051D1F8E805421C78D0012391F8FF
:10C17000EC1505221DE073E087D80200380031007D
:10C1800014000010C404001034346500FC46001094
:10C19000500000002D2D2D2D000000002D0000006E
:10C1A00046000000DDD5020031D402004E6F2E00A3
:10C1B0005AE0FCF7FCFFFF4A214600234FF4A5702C
:10C1C000FCF7ABFF2878B04202D1A87804285CD0F5
:10C1D000C9F80480D9F8040000903B46214640F29B
:10C1E000DF124FF4D270FCF7D4FBE8784FF0000375
:10C1F00000EB800006EB400101EB0A0000F5005067
:10C20000214690F88106FF2842D001E02FE033E07C
:10C21000AFF284024FF4D270FCF77FFF2878B0426F
:10C2200001D1A87880B3C9F8048000BFD9F8040010
:10C2300000903B4621467E222820FCF7AAFBE878A6
:10C2400000EB800006EB400101EB0A0090F80B04C4
:10C25000302823D921460023AFF2C80226E00EE0A1
:10C260005846C4F804B01CE7C9F804B032E72146C8
:10C270000023AFF2E00253E7C9F804B05CE72146BF
:10C280000023AFF2F00299E705E0C9F804B0A1E796
:10C29000AFF20012BEE7C9F804B0C7E700EB4001F7
:10C2A00001EBC000C4494218214600232820FCF7B6
:10C2B00034FF2878B04202D1A87801281BD0C9F8F1
:10C2C000048000BFD9F8040000903B462146C422F8
:10C2D0007E20FCF75EFBE87800EB800006EB400177
:10C2E00001EB0A0090F8DD04022807D9214600235B
:10C2F000AFF260120AE0C9F804B0E3E700EB4001D6
:10C3000001EBC000AD494218214600237E20FCF716
:10C3100004FFC9F80480E878012300EB800006EBF5
:10C32000400003220021801EFCF741FF214600232C
:10C33000A04A0820FCF7F1FE761CF6B20D2EFFF4A1
:10C34000C1AEBDE8F88F2DE9F8439D4C4FF0501673
:10C35000054666600078FF27012800D167606068A5
:10C3600000902A2358221A213020FCF712FB95480E
:10C37000DFF84882012390F80C0408F1FD0800EB77
:10C38000800101EB08021A213020FCF773FE2878A7
:10C3900002281ED066606068009040231E22302173
:10C3A0000820FCF7F6FA0123AFF200223021082022
:10C3B000FCF760FEFEF714FB2A7883486FF07F419C
:10C3C000012A08D0022A19D06878BDE8F843FEF7A0
:10C3D00050BC6760DFE7C4E90010002445465426DE
:10C3E00004EB8400421906EB001080B20023F12117
:10C3F000FCF740FE641C022CF2D3F6E4C4E9001002
:10C40000724D00244FF4A276C4EBC400421904EB31
:10C41000840006EB001080B20023F121FCF72AFE15
:10C42000641C022CF0D3E0E42DE9F84F0446654883
:10C43000634D4FF05016D0F8D00301280ED1634A57
:10C440000123153A1746D2211E206E60FCF712FE1A
:10C4500001233A46D2219620FCF70CFE2078FF27D4
:10C4600001287DD06E60DFF868810023052203215A
:10C47000D8F80400FCF79BFE686800902C23C022CB
:10C4800018216720FCF785FA00234A4A1A21682000
:10C49000FCF7F0FD01234FA21A21AE20FCF7EAFDC4
:10C4A000207802287ED06E60002305220321D8F870
:10C4B0001C00FCF77CFE686800904223C0222E21FD
:10C4C0006720FCF766FA00233A4A30216820FCF71F
:10C4D000D1FD012340A23021AE20FCF7CBFD207816
:10C4E00003287DD06E60002305220321D8F8340094
:10C4F000FCF75DFE686800905823C0224421672045
:10C50000FCF747FA00232B4A46216820FCF7B2FDCE
:10C51000012331A24621AE20FCF7ACFD207804288F
:10C520007ED06E6098F80811002301EB410108EB02
:10C53000C1000522C06C0321FCF739FE686840F297
:10C54000711900902C234FF4E17218214846FCF732
:10C5500020FA00234FF4B97A164A1A21504600E017
:10C5600078E0FCF787FD01231AA21A214FF4DC7052
:10C57000FCF780FD2078052875D06E60002303222B
:10C580001946D8F8DC00FCF712FE686800904223D8
:10C5900040F2C3122E214846FCF7FBF90023054A5E
:10C5A000302100E058E05046FCF764FD01230BA267
:10C5B000302116E0FC460010DDD50200A0D70200B5
:10C5C00014000010C404001038003100A7D8020085
:10C5D000D43F001056000000410000006D730000C1
:10C5E0003DE04FF4D77B5846FCF744FD2078062801
:10C5F0003BD06E600023464603221946D8F8F4006B
:10C60000FCF7D5FD68680090582340F2C31244211E
:10C610004846FCF7BEF90023FE4A4621504600E09A
:10C620001FE0FCF727FD0123AFF2500246215846D8
:10C63000FCF720FDFEF7D4F92278F74858276FF071
:10C640007F414FF4A478052A7BD2DFE802F0105A2C
:10C650007A7A7B006F6006E76F6025E703E06F6022
:10C6600041E76F605EE76F6088E76F60C2E7C5E92A
:10C670000010607800B3012863D1002560780023A2
:10C6800000EB4000284400EB400006EBC000052210
:10C69000C06C0321FCF78BFD05EB850007EB001058
:10C6A00080B20023DB4AF121FCF7E4FC6D1C032D72
:10C6B000E4D30023D9A21DE000256078002300EB1D
:10C6C0004000284400EB400006EBC0000522C06C8F
:10C6D0000321FCF76CFD05EB850007EB001080B231
:10C6E0000023CC4AF121FCF7C5FC6D1C032DE4D3DB
:10C6F0000023CCA201B04046BDE8F04FF121FCF789
:10C70000B9BCC5E9001096F85C02C84900EB4000CE
:10C7100001EB40020023F1215820FCF7ABFCC44D93
:10C72000012400BF04EB840005EB440207EB00107A
:10C7300080B20023F121921EFCF79CFC641C032CA8
:10C74000F0D3FEE5C5E900106078F0B10128F8D11A
:10C7500000256078002300EB4000284400EB4000F7
:10C7600006EBC0000522C06C0321FCF720FD05EBA1
:10C77000850007EB001080B20023A64AF121FCF7E8
:10C7800079FC6D1C032DE4D393E70025607800232A
:10C7900000EB4000284400EB400006EBC0000522FF
:10C7A000C06C0321FCF703FD05EB850007EB0010CF
:10C7B00080B20023974AF121FCF75CFC6D1C032D2D
:10C7C000E4D395E72DE9F84F05460078FF26994C0C
:10C7D0004FF0501701287DD06760DFF85C8200239E
:10C7E00005220321D8F84C00FCF7E1FC60680090BA
:10C7F0002C23C02218216720FCF7CBF80023854AA0
:10C800001A216820FCF736FC0123AFF238221A21E6
:10C81000AE20FCF72FFC287802287DD0676000232B
:10C8200005220321D8F86400FCF7C1FC6068009081
:10C830004223C0222E216720FCF7ABF80023754A63
:10C8400030216820FCF716FC0123AFF2782230215A
:10C85000AE20FCF70FFC287803287CD0676000230B
:10C8600005220321D8F87C00FCF7A1FC6068009049
:10C870005823C02244216720FCF78BF80023654A27
:10C8800046216820FCF7F6FB0123AFF2B8224621CF
:10C89000AE20FCF7EFFB287804287DD067600023EA
:10C8A00005220321D8F89400FCF781FC606840F26F
:10C8B000611A00902C234FF4E17218215046FCF7C6
:10C8C00068F84FF4B17B0023524A1A215846FCF70E
:10C8D000D1FB00E059E00123AFF208321A214FF4F6
:10C8E000D470FCF7C7FB2878052857D06760002371
:10C8F00005220321D8F8AC00FCF759FC60680090D1
:10C9000042234FF4E1722E215046FCF742F80023F7
:10C91000404A3021584600E03AE0FCF7ABFB0123E7
:10C92000AFF250324FF4D47930214846FCF7A2FBE5
:10C930002878062834D06760002305220321D8F820
:10C94000C400FCF734FC6068582300904FF4E17297
:10C950004421504600E01DE0FCF71BF800232D4A5F
:10C9600046215846FCF786FB0123AFF29832462158
:10C970004846FCF77FFBFEF733F82878002811D1F2
:10C980006878BDE8F84FFEF767BB666025E703E00F
:10C99000666044E7666062E7666080E76660A6E717
:10C9A0006660C9E7CDE430B40C462449134600EB79
:10C9B00040004218A0B299B230BC0123FCF7ADBBD5
:10C9C0002DE9F84F1B4DDFF878904FF050166E6050
:10C9D000D9F8FC1004464FF4B97000297DD000232B
:10C9E00018A23F21FCF799FB002316A23F21C82083
:10C9F000FCF793FB2078FF2701286FD06E606868F2
:10CA00000090A8462A23992218214520FBF7C1FF50
:10CA10004D4619E0FC460010380031005052455692
:10CA2000000000004E4558540000000067DA020084
:10CA3000C4D1020014000010D43F00109CDF02009B
:10CA4000C404001025000000D9F88803FB4900EB5E
:10CA5000C0004218012318214620FCF70BFB207868
:10CA600002287DD0C8F80460A94695F8EC1055F866
:10CA7000E80F00230522FCF79AFBD8F80400009089
:10CA80002A2340F245121821E220FBF782FF0123FE
:10CA9000EB4A1821E520FCF7EDFAA868012300EB2A
:10CAA0004001E8480A18182140F22910FCF7E2FA80
:10CAB000182240F23311D5F8A002FEF7FCFD2078D1
:10CAC000032840466BD0C8F80460054640682A2316
:10CAD00040F2DD121821009001E04CE05AE040F2F3
:10CAE0008F10FBF756FFD848D9F8FC10C84600EB6A
:10CAF0008102012318214FF4C870FCF7BBFA20789B
:10CB000004284FD06E60686800903E2399222C2143
:10CB10004520FBF73EFFD8F8E000DFF8309300EB4C
:10CB2000800101EB090200232C214620FCF7A2FA28
:10CB30002078052838D06E6068680090AB463E23A8
:10CB40004FF49C722C21E420FBF723FFD8F804015A
:10CB5000012300EB8001BD480A182C21E52000E0EC
:10CB60001AE0FCF787FA0625C1462078A8421DD1B5
:10CB7000CBF8047024E0D9F8883301464F463F22B1
:10CB80001846FFF710FF3F22C821D7F88803FFF7A8
:10CB90000AFF2FE76F6032E7C8F8047064E7C8F84F
:10CBA000047092E76F60AEE76F60C5E7A5F109001A
:10CBB000042803D2A648CBF8040001E0CBF80460B7
:10CBC000DBF804000090C5EB0510811CA0F10E08F5
:10CBD0008BB21FFA88F1E6229420FBF7DAFE05EB10
:10CBE000450109EB011A5AF8140C30B31AF8101C5D
:10CBF00000230522FCF7DBFA1FFA88F10123904A93
:10CC0000A020FCF78AFAD9F8FC0058B95AF80C0CA5
:10CC1000012300EB40018B480A181FFA88F1D0204D
:10CC2000FCF77BFA6D1C0F2D9FD31025D946207879
:10CC3000A84209D1C9F8047010E01FFA88F1012355
:10CC4000AFF66872A020EBE7A5F11300042803D229
:10CC50007F48C9F8040001E0C9F80460D9F804006D
:10CC60000090C5EB0510A0F19401A0F1A4088BB2CF
:10CC70001FFA88F14FF4C3724FF49A70FBF789FEE4
:10CC8000744805EB450100EB0111A1F5805ADAF873
:10CC900024CEBCF1000F7DD083469AF8281E0023D5
:10CCA00005226046FCF783FA1FFA88F10023644AE4
:10CCB0004FF4A570FCF731FADBF8FC0060B9DAF844
:10CCC0002C0E012300EB40015E480A181FFA88F180
:10CCD0004FF4BD70FCF721FA6D1C192DA7D32078F5
:10CCE0000F2848466AD0C9F804600546406800909D
:10CCF000E323E622D3219420FBF74BFEDFF8549187
:10CD00000023C84699F8C0120522D9F8BC02FCF7E6
:10CD10004EFA01234A4AD321A020FCF7FEF9D8F8A5
:10CD2000C402DFF8208100EB400101EB080201237F
:10CD3000D321D020FCF7F1F92078192841D06E607A
:10CD400068680090E3234FF4C372D3214FF49A70C4
:10CD5000FBF71FFE99F8D8120023052209F5357656
:10CD6000D9F8D402FCF723FA0023354AD3214FF433
:10CD7000A570FCF7D2F9B068012300EB400101EB8C
:10CD80000802D3214FF4BD70FCF7C7F9FDF728FE68
:10CD9000227800E00BE0304868266D276FF07F4175
:10CDA000062A78D2DFE802F00F2F2F14305C1FFA2A
:10CDB00088F10123294A4FF4A5708BE7C9F8047064
:10CDC00093E76F60BCE76078BDE8F84FFEF744B9C1
:10CDD000C5E900101C4C722500E037B922463046E8
:10CDE0000023F121FCF746F9012707EB870005EB4B
:10CDF000001004EB870280B20023F121FCF73AF91E
:10CE00007F1C022FE9D39CE4C5E900100F4D00E020
:10CE100034B92A4630460023F121FCF72BF90124CE
:10CE200004EB8400421907EB001080B20023F121CB
:10CE3000FCF720F9641C022CEAD382E431D402000E
:10CE4000FC46001069DF0200D0D10200F4D80200D5
:10CE500034346500C404001038003100DCBC01002B
:10CE6000C5E90010F94D00E034B92A4630460023E8
:10CE7000F121FCF7FFF8012404EB8400421907EBD1
:10CE8000001080B20023F121FCF7F4F8641C022C9E
:10CE9000EAD356E4FFE7C5E90010ED484FF4CA7441
:10CEA00090F85F12012910D00029ACD10023E9A22B
:10CEB000F1215D20FCF7DEF80023E8A201B0204656
:10CEC000BDE8F04FF221FCF7D5B80023E6A2F1212E
:10CED0005D20FCF7CFF80023E5A2EFE72DE9F84F3E
:10CEE00006460078FF25E44C4FF0501701284ED03D
:10CEF0006760606800902C23C02218215820FBF73F
:10CF000048FDDFF87883DFF844930123D8F8000068
:10CF100000EB800101EB09021A215820FCF7AAF866
:10CF20003078022835D06760606800904223C022C4
:10CF30002E215820FBF72DFDD8F80400012300EB2B
:10CF4000800101EB090230215820FCF793F8FDF72E
:10CF500047FDBE4F3078B63FC94A54256FF07F4138
:10CF60004FF0670B4FF06C0A07F1C50CA7F12009D1
:10CF700007F22F18122849D2DFE800F00D1276943C
:10CF8000A7BED1F3F1F0EFEEEDECEBEAE9E8656076
:10CF9000AFE76560C8E77078BDE8F84FFEF75CB8AA
:10CFA0007078B8B1C4E9001240F2931540F2BD1890
:10CFB00001282CD00023B34A4FF482715420FCF78F
:10CFC00059F80023B04AF2212846FCF753F8002311
:10CFD000AEA239E0C4E90012AD4D5F46564600E00E
:10CFE00034B92A4638460023F121FCF743F80124DE
:10CFF00004EB840006EB001005EBC40280B20023B2
:10D00000F121FCF737F8641C022CE9D3CAE49D4EE9
:10D010000024283E622701E0032C1CD004EB84008E
:10D0200007EB001006EBC40280B20023F121FCF7ED
:10D0300021F8641C042CEFD30023934AF2212846E4
:10D04000FCF718F8002393A201B04046BDE8F04F6A
:10D05000F221FCF70FB88B4A40F25710103A002328
:10D06000F121FCF707F8E7E7C4E90012884D5F46B5
:10D070002035564600E034B92A4638460023F121CF
:10D08000FBF7F8FF012404EB840006EB001005EB2E
:10D09000C40280B20023F121FBF7ECFF641C022CD8
:10D0A000E9D37FE4C4E900127B4E002404EB840042
:10D0B00005EB001006EBC40280B20023F121FBF760
:10D0C000D9FF641C022CF1D36CE4C4E900125F4E5A
:10D0D00000241F3604EB440000EBC400821904EB6B
:10D0E000840005EB001080B20023F121FBF7C2FFA2
:10D0F000641C042CEED355E4C4E9001200246646F7
:10D1000004EB840005EB001006EBC40280B20023A0
:10D11000F121FBF7AFFF641C022CF1D342E4C4E918
:10D1200000124A4E00244B3604EB440000EBC400CE
:10D13000821904EB840005EB001080B20023F1217A
:10D14000FBF798FF641C022CEED32BE4F5E0E2E041
:10D15000CBE0B6E0A2E062E04DE03AE025E012E08C
:10D16000FFE7C4E90012002404EB840005EB001083
:10D1700007EBC40280B20023F121FBF77BFF641CA4
:10D18000022CF1D30EE4C4E90012002404EB840065
:10D1900005EB001007EBC40280B20023F121FBF77E
:10D1A00069FF641C022CF1D32DE6C4E90012274E5E
:10D1B0000024613604EB840005EB001006EBC4028A
:10D1C00080B20023F121FBF755FF641C032CF1D33F
:10D1D00019E6C4E90012002404EB840005EB0010FA
:10D1E00009EBC40280B20023F121FBF743FF641C6A
:10D1F000042CF1D307E6C4E90012144E0024853E46
:10D2000004EB840005EB001006EBC40280B200239F
:10D21000F121FBF72FFF641C032CF1D3F3E5C4E9E4
:10D2200000120A4E00246D3E04EB440000EBC400E3
:10D23000821904EB840005EB001080B20023F12179
:10D24000FBF718FF641C022CEED3DCE5F4D80200D7
:10D25000D43F0010C7E5B3FDD0D00000C7E5B3FD53
:10D26000B1EDB8F10000000043656C2052000000F1
:10D2700043656C4C6973740014000010C404001002
:10D280003800310009D40200A4AE0100332F33006E
:10D2900095DD0200322F3300C1D70200C4E900122D
:10D2A0005FF0000404EB840005EB001007EBC40200
:10D2B00080B20023F121FBF7DDFE641C022CF1D3C8
:10D2C000A1E5C4E9001200244FEA0C0604EB840037
:10D2D00005EB001006EBC40280B20023F121FBF73E
:10D2E000C9FE641C022CF1D38DE5C4E900120024B0
:10D2F00004EB440000EBC40000EB080204EB8400E4
:10D3000005EB001080B20023F121FBF7B3FE641C93
:10D31000022CEDD377E5C4E90012002404EB84006D
:10D3200005EB001009EBC40280B20023F121FBF7EA
:10D33000A1FE641C042CF1D365E5C4E900120024AD
:10D3400004EB440000EBC40000EB080204EB840093
:10D3500005EB001080B20023F121FBF78BFE641C6B
:10D36000042CEDD34FE52DE9F84F04460078FF2754
:10D37000FB4D4FF05016012810D06E606868009089
:10D380002C23C0221A215E20FBF703FBDFF8D48395
:10D3900098F85F02012803D028B10AE06F60EDE73A
:10D3A0000023F1A201E00023F1A21C215F20FBF782
:10D3B00061FE207802287DD06E606868009042236C
:10D3C000C02230215E20FBF7E4FA98F85E02DFF815
:10D3D000AC9300EB800101EB0902012332215F20B5
:10D3E000FBF748FE2078032865D06E6068680090DF
:10D3F0005823C02246215E20FBF7CBFAE0480123E8
:10D4000090F87E0200EB800101EB090248215F20C9
:10D41000FBF730FE207804287ED06E6068680090AC
:10D420006E23C0225C215E20FBF7B3FA98F85F12EE
:10D43000DFF850A300230AEBC1025E215F20FBF757
:10D4400019FE2078052868D06E60686800908423F3
:10D45000C02272215E20FBF79CFA0023CAA274212D
:10D460005F20FBF707FE207806287DD06E60686895
:10D4700000909A23732288215E20FBF78AFADFF856
:10D480001083012302220021D8F81C00FBF78FFE35
:10D490000023C04A8A215F20FBF7ECFD0023BEA2D7
:10D4A0008A2173206E60FBF7E5FD207807287DD088
:10D4B0006E6001E051E184E1686800909A23912256
:10D4C00088217C20FBF765FA012302220021D8F88D
:10D4D0001800FBF76CFE0023AE4A8A217D20FBF783
:10D4E000C9FD0023ACA28A2191206E60FBF7C2FD2A
:10D4F000207808287ED06E60686800909A23B12258
:10D5000088219C20FBF745FA012302220021D8F84C
:10D510000C00FBF74CFE01E055E156E1DFF874B278
:10D520004FF000094B468BF802905A468A219D2005
:10D53000FBF7A0FD002399A2A02118466E60FBF71F
:10D5400099FD0023984AA0215E20FBF793FD2078E7
:10D5500009287BD06E6068682C2300904FF4DD7240
:10D560001A214FF4AC7000E031E1FBF712FA854A62
:10D57000002341321C2140F25910FBF77BFD20783B
:10D580000A287DD06E606868009042234FF4DD72F7
:10D5900030214FF4AC70FBF7FCF9784A0123313AA3
:10D5A000322140F25910FBF765FD00E011E12078CF
:10D5B0000B2866D06E606868009058234FF4DD72C7
:10D5C00046214FF4AC70FBF7E4F96C4A0123D21FFB
:10D5D000482140F25910FBF74DFD20780C287CD0F3
:10D5E0006E6068686E2300904FF4DD725C214FF42A
:10D5F000AC7000E0EFE0FBF7CCF96C486CA1D0F820
:10D60000802364480AF00CFE01236AA25E2140F2E6
:10D610005910FBF72FFD20780D287CD06E606868CC
:10D62000009084234FF4DD7272214FF4AC70FBF74D
:10D63000B0F9524A01230A32742140F25910FBF723
:10D6400019FD20780E2867D06E6000E0C5E068689C
:10D6500000909A2340F26D1288214FF4AC70FBF7D2
:10D6600098F9012302220021D8F80800FBF79FFD5A
:10D670000023484A8A2140F25910FBF7FBFC01E0E5
:10D68000ADE0AEE0002347A28A2140F26D106E604B
:10D69000FBF7F0FC20780F2861D06E60686800907E
:10D6A0009A2340F28B1288214FF4BB70FBF771F97B
:10D6B000012302220021D8F80400FBF778FD0023A3
:10D6C000344A8A2140F27710FBF7D4FC002335A2BC
:10D6D0008A2140F28B106E6000E084E0FBF7CAFC08
:10D6E000207810286CD06E60686800909A2340F211
:10D6F000AB1288214FF4CB70FBF74BF901230222C8
:10D700000021D8F80000FBF752FD00238BF80290AF
:10D71000204A8A2101E068E069E040F29710FBF7B7
:10D72000A9FCFDF75DF9DFF8549022782349A9F1AF
:10D730006D096C27672658246FF07F40A9F14908CE
:10D74000112A7BD2DFE802F0597A5D7B99B5C1D30B
:10D75000E5FDFCFBFAF9F8F7F6006F602DE648E00E
:10D7600014000010D43F001053696D426174000032
:10D77000C4A3C4E2B5E7B3D800000000F4D80200A7
:10D7800040420010E5DE0200484F4C44000000001B
:10D7900008470010FC4600102D000000466163742D
:10D7A000204E6F2E3A00000034420010C4040010D6
:10D7B000253264004E4F4E45000000003800310015
:10D7C00019E06F6012E66F6028E66F603DE66F60FB
:10D7D0004DE66F606DE66F608EE66F60BBE66F6072
:10D7E000D1E66F60E7E66F60FBE66F6017E76F609A
:10D7F0002BE76F6052E76F6076E7BDE8F84FFDF703
:10D80000E6BCC5E9000100E034B94A460023F12135
:10D810006720FBF72FFC012404EB440000EBC4005D
:10D8200000EB090204EB840007EB001080B2002338
:10D83000F121FBF71FFC641C022CE5D331E4C5E9A0
:10D84000000100E034B94A460023F1216720FBF7CC
:10D8500011FC012404EB440000EBC40000EB0902BE
:10D8600004EB840007EB001080B20023F121FBF7EA
:10D8700001FC641C022CE5D313E4C5E90001554604
:10D88000542600E034B92A460023F1216620FBF734
:10D89000F1FB012404EB840006EB001005EBC4024D
:10D8A00080B20023F121FBF7E5FB641C022CE9D3D5
:10D8B0000AE4C5E900010023AFF2341201B0F121FE
:10D8C000BDE8F04F6220FBF7D5BBC5E9000100259C
:10D8D00005EB850004EB001008EBC50280B20023C5
:10D8E000F121FBF7C7FB6D1C022DF1D303E4C5E961
:10D8F0000001002505EB850004EB001008EBC502D4
:10D9000080B20023F121FBF7B5FB6D1C022DF1D392
:10D9100004E4C5E90001002505EB850004EB0010D7
:10D9200008EBC50280B20023F121FBF7A3FB6D1CBD
:10D93000022D07E0BFE0ACE099E07CE069E032E076
:10D9400015E001E0E8D31DE4C5E900015FF0000542
:10D9500005EB850004EB001008EBC50280B2002344
:10D96000F121FBF787FB6D1C022DF1D30AE4C5E919
:10D970000001FC4F00E035B93A4630460023F12162
:10D98000FBF778FB0125C5EBC500C21905EB850047
:10D9900004EB001080B20023F121FBF76BFB6D1C40
:10D9A000022DE8D314E4C5E90001EE4E002515363A
:10D9B00017E0B5B1022D14D0032D12D0012D1FD0C8
:10D9C000C5EBC50000EB080205EB850007EB001076
:10D9D00080B20023F121FBF74DFB6D1C052DE8D330
:10D9E00008E4C5EBC500821905EB850004EB0010C7
:10D9F00080B20023F121FBF73DFBB0465D27ECE749
:10DA000008F10702B2200023F121FBF733FB0225C6
:10DA1000E7E7C5E90001002505EB850004EB0010F0
:10DA200008EBC50280B20023F121FBF723FB6D1C3C
:10DA3000022DF1D309E4C5E90001CA4D4E3500E0DD
:10DA400034B92A4638460023F121FBF713FB0124A1
:10DA500004EB840006EB001005EBC40280B2002347
:10DA6000F121FBF707FB641C022CE9D328E4C5E98C
:10DA70000001002505EB850004EB001008EBC50252
:10DA800080B20023F121FBF7F5FA6D1C022DF1D3D2
:10DA900016E4C5E90001002505EB850004EB001044
:10DAA00008EBC50280B20023F121FBF7E3FA6D1CFD
:10DAB000022DF1D304E4C5E90001002505EB850042
:10DAC00004EB001008EBC50280B20023F121FBF744
:10DAD000D1FA6D1C022DF1D306E408B5A24800214D
