:020000040001F9
:10800000484E00102949020031490200334902005C
:1080100035490200374902003949020000000000DA
:108020000000000000000000000000003B490200CA
:108030003D490200000000003F4902008F8401001A
:10804000434902009B850100DB850100EB850100AF
:10805000FB850100A75A0200434902004349020080
:108060003D5C0200434902004349020043490200CB
:1080700043490200434902004349020043490200C8
:1080800043490200294702004349020043490200D4
:1080900043490200434902004349020043490200A8
:1080A0003B6F0200434902000B48020043490200B3
:1080B0004349020043490200434902004349020088
:1080C0004349020043490200434902004349020078
:1080D000434902004349020025830100434902004D
:1080E00043490200DFF80CD010F01CF800480047AC
:1080F00069830100484E0010844840F20121C0F815
:108100008011C0F88411C0F88811C0F88C11C0F833
:108110009011C0F89411C0F89811C0F89C11C0F8E3
:10812000A011C0F8A411C0F8A811C0F8AC11C0F893
:10813000B011C0F8B411C0F8B811C0F8BC11C0F843
:10814000C011C0F8C411C0F8C811C0F8CC11C0F8F3
:10815000D011C0F8D411C0F8D811C0F8DC11C0F8A3
:10816000E011C0F8E411C0F8E811C0F8EC11C0F853
:10817000F011C0F8F411C0F8F811C0F8FC11C0F803
:108180000012C0F80412C0F80812C0F80C12C0F8AF
:108190001012C0F81412C0F81812C0F81C12C0F85F
:1081A0002012C0F82412C0F82812C0F82C12C0F80F
:1081B0003012C0F83412C0F83812C0F83C12C0F8BF
:1081C0004012C0F84412C0F84812C0F84C12C0F86F
:1081D0005012C0F85412C0F85812C0F85C12C0F81F
:1081E0006412C0F84011C0F84411C0F84811C0F83A
:1081F0005011C0F86011C0F87011C0F87411C0F8C7
:108200007811C0F87C1170472DE9F041DFF800814A
:10821000434653F8C40F40F40060186041F61F70E5
:10822000C3F818013B4C012222600026A660FFF72C
:1082300063FF394839490068B0FBF1F5D86B00B1EC
:108240006D084FF47A77B7FBF5F000F11301B1FB3D
:10825000F0F323630F236363A663E263B1FBF0F1E2
:10826000891C2164626400F13E01B1FBF0FCC4F89A
:1082700048C0B1FBF0FCC4F84CC02365B1FBF0F082
:108280006065A265A26240F20330C4F804014FF4B5
:108290008D40C4F80001C4F800016421002000F002
:1082A00029F940F283102062C821002000F022F951
:1082B00040F203102062022060620020401C8028EF
:1082C000FCD340F2E7104543B5FBF7F080B26062A3
:1082D00083202062124800682662D4F8000140F42E
:1082E0000020C4F800010121002000F003F9012161
:1082F000002000F0FFF8D8F8DC0120F01F0040F06B
:108300001100C8F8DC01BDE8F081000000C00240A7
:1083100000C00F4000C009203C02001040420F0086
:10832000004006A010B50122132100200CF07AFCB9
:10833000002818D06FF07F40401EFDD16748684983
:10834000012203781BB1002202700F2001E00270AD
:10835000022008604FF4002100200CF083FC6149EA
:108360004020C1F8800110BD00200CF062FD5E4984
:1083700005464FF4C030002408601D2000F093F83B
:1083800062B64FF47A70B5FBF0F00026401EB0F1F3
:10839000807F0CD220F07F404FF0E025401E6861C6
:1083A0001F21681700F08AF8AE61072028610122BA
:1083B000D10400200CF019FC0121262000F07EF8E9
:1083C000262000F070F80CF016F90CF088F80DF08B
:1083D000C2FA4248067004200DF0DBFB0CF0D8F91D
:1083E0000DF05CFE0CF0B5F90BF0A3FF0CF003F9F7
:1083F0000CF04AF8FFF708FF002000F0D3F93B48E3
:108400000021406900F0F7F9012000F0CBF90020CD
:108410000CF0CDF8324D0F204FF0501628600CF0C4
:1084200055F9FF2803D0641C022C02D004E000247C
:1084300002E0304600F0B0FA29680B2924D00DDCA8
:10844000022912D0052916D00629E8D1304600F0BD
:10845000A3FA0BF03DFF09F01DF8E0E70C2910D05E
:108460000F29DCD10BF0E1FBD9E7002000F094FAF2
:1084700008F0C1FBD3E7304600F08EFA09F0F2FABB
:10848000CDE70AF062FCCAE70BF026F9C7E7184807
:108490000168491C0160704715490A680B689B1AFE
:1084A0008342FBD3704700F01F0201219140400935
:1084B000800000F1E020C0F800117047C906090EE5
:1084C000002806DA00F00F0000F1E02080F8141D0B
:1084D000704700F1E02080F8001470472702001078
:1084E0002C02001004E000E008ED00E02400001081
:1084F00000000010F0B5A24A00230224FF261268F3
:108500004FF47A7504274FF0010CA8B1012824D04C
:10851000022832D003280ED19A484460C360B2FBCF
:10852000F5F2521E4A43826106604761C0F804C0FA
:108530004168C907FCD1F0BD4FF040204460C360E2
:10854000B2FBF5F2521E4A43826106604761C0F8F1
:1085500004C04168C907FCD1F0BD8B484460C360CA
:10856000B2FBF5F2521E4A43826106604761C0F8D1
:1085700004C04168C907FCD1F0BD84484460C360B1
:10858000B2FBF5F2521E4A43826106604761C0F8B1
:1085900004C04168C907FCD1F0BD4FF04021012063
:1085A00008607B4801880A2901D0491C0EE07949FE
:1085B0000A68521C0A6078490978012909D0C16803
:1085C000491CC1608168491C81600021018008F05C
:1085D0005CBC4168491C4160F4E76B4901200860BC
:1085E0006B480169491C01617047684901200860B6
:1085F0006748C168491CC16070476248016841F022
:108600003001016062480169491C01617047012124
:1086100038B1012808D0022809D0032806D15948CA
:1086200003E04FF0402000E0574841607047574852
:10863000FBE7002140B1012809D0544A022801D0AB
:10864000032800D1516070474FF0402000E04E48B1
:108650004160704738B1012808D002280CD00328A7
:1086600009D1484903E04FF0402100E046494868FD
:1086700040F00200486070474449F8E74748D0F8A6
:108680005C1121F00701C0F85C11D0F85C1141F0D9
:108690000301C0F85C11D0F8581121F00701C0F8AF
:1086A0005811D0F8581141F00301C0F858113C4856
:1086B00050F8C41F41F40001016032484EF65F21BA
:1086C000C160816A41F01B0181620021816001214A
:1086D0004160704770B500232D4C314A47F22F5648
:1086E000032538B1012816D0022825D003282ED022
:1086F000002070BD636052F8C40F40F002001060AB
:108700004FF04020426842F002024260C660816140
:108710004561012025E0236152F8C40F40F00400B8
:1087200010601948426842F002024260C660C161AE
:1087300018214161022014E0E36052F8C40F40F4B4
:1087400080001060114881614561032009E02361C8
:1087500052F8C40F40F4000010600A48816145617E
:10876000042000F002F8012070BD00F01F0201217A
:1087700091404009800000F1E020C0F800117047EE
:108780004002001000400940008000400000094005
:1087900004000010EC0100102402001000C0024090
:1087A00000C00F40FA4908B50028886942F21072EB
:1087B0000CD040F0010088610092886940F40060AC
:1087C00088610098401E0090F7D108BD20F4006039
:1087D000886110460092401E0090FCD1886920F00C
:1087E0000100886108BDEB49002208C8521C08C17D
:1087F000802AFAD3704770B5E84BE74C4FF0270258
:1088000008001A615A61C3F87022C3F87422C3F8D1
:108810001821C3F81C21C3F82021C3F824219A6130
:10882000DA61C3F8D020C3F8D420C3F8D820C3F845
:10883000DC20C3F8E020C3F8E4201A625A62C3F8CF
:108840003021C3F83421C3F8E820C3F8EC20C3F882
:10885000F020C3F8F420C3F80821C3F81421C3F8AA
:108860000C21C3F81021C3F80021CD4A116C41F04E
:1088700002011164916D41F00A019165C94B53F8F1
:10888000C41F41F001011960C7490A6822F00102C2
:108890000A60BF4A4FF000059561916921F00E0111
:1088A0009161916941F00A019161916941F0200162
:1088B0009161916921F080019161916921F4807148
:1088C0009161916921F400719161916921F4806154
:1088D0009161916921F400619161B449B44E0968D4
:1088E000B1FBF6F1C3F8F410916841F0806191603A
:1088F000916821F020019160916841F400619160DC
:10890000916841F480519160916821F40051916027
:10891000916821F4804191609168A64B01EA0301BE
:1089200091609168A44B41EA030191601560116860
:1089300041F01C511160116841F4802111601168EF
:1089400041F480711160116841F07401116055604B
:10895000516841F000615160516841F4002151605B
:10896000516841F480615160516840F20F1341EA4F
:10897000030151601461546101D0FFF734FF0020FE
:108980004FF47F01CA1102C4401C9042FBD342F253
:108990001070401EFDD170BD7F4900224FF4FF339F
:1089A00001C1521C9A42FBD37047F0B5C3F58874DD
:1089B000C4EB0414C2F5F075E40104EB8504764DB4
:1089C000121A2C440025C2F5F077591A059E08E0CA
:1089D000002001E040C4401C8242FBD804EB870425
:1089E0006D1CA942F4D8F0BD6B4BB0F5F07F0DD2F1
:1089F000B1F5887F0AD2A1F20F11C0F5F070A1EB9A
:108A0000011100EB4110401E43F8202070472DE972
:108A1000F0439446DDF81C901F460C460546604521
:108A200001D9AC4695B2BC4201D90F469CB2ACEB21
:108A30000500391B00B20EB250B1A6B1B04230DD14
:108A4000C0EB46010FB27100404201EB400825E047
:108A50004A4621462846FFF7C7FF641CA4B2A74236
:108A6000F6D2BDE8F0834A4621462846FFF7BCFF10
:108A70006D1CADB2AC45F6D2F3E74A462146284616
:108A8000FFF7B2FF6D1CADB2002F04DD641CA4B271
:108A900008EB070001E007EB460007B26545ECD1A3
:108AA0001DE0C6EB40010FFA81FC7100404201EB72
:108AB000400812E04A4621462846FFF795FF641C0D
:108AC000A4B2BCF1000F04DD6D1CADB208EB0C00CC
:108AD00001E00CEB46000FFA80FCBC42EAD14A46AA
:108AE00021462846BDE8F0437EE72DE9FF5F884632
:108AF00007469A4611466846DDF838B007F07AFE18
:108B00000025E946002419F805C008EB0506C4F164
:108B100007002CFA00F0C00707EB0400B1B280B2E6
:108B200001D0524600E05A46FFF75EFF641C082C55
:108B3000EDD36D1C102DE5D3BDE8FF9F2DE9FE4F51
:108B4000884607469A4611466846DDF830B007F079
:108B500059FE0025E946002419F805C008EB050672
:108B6000C4F107002CFA00F0C00707EB0400B1B213
:108B700080B201D0524600E05A46FFF735FF641C30
:108B8000082CEDD36D1C0C2DE5D3BDE8FE8F000045
:108B90000080082000820820000001A000C00240E0
:108BA0000080092000C00F40008C08204002001007
:108BB0009C997400FFFF00FC0000DF012DE9F843E1
:108BC0009946089F16460D4604464FF4EC7816F871
:108BD000012B4B46294620460097FFF786FF444568
:108BE00002D20834A4B207E0FF2D4FF0000402D8EF
:108BF0001035ADB200E0002530780028E7D1BDE89F
:108C0000F8832DE9FF4F81B090468C460746044615
:108C10000D460026A4F1140080B242466146FFF7DB
:108C2000E3FEA5F11400641C81B2A4B242463846AA
:108C3000FFF7DAFE6D1C761CB6B2ADB2282EE9D372
:108C4000ACF114003C46654600260CF1140AA7F16D
:108C5000140B07F1140900900098A4F1140881B2D4
:108C60001FFA88F0049AFFF7BFFE1FFA8AF11FFA75
:108C700088F0049AFFF7B8FE641CA5F11408A4B2AA
:108C80001FFA88F11FFA8BF0049AFFF7ADFE1FFA66
:108C900088F11FFA89F0049AFFF7A6FE6D1C761C76
:108CA000B6B2ADB20A2ED7D30024ACF1140A0CF13F
:108CB0001409A7F1140807F1140507F10A061FFAB1
:108CC0008AF1B0B2049AFFF78FFE1FFA89F1B0B2B1
:108CD000049AFFF789FE7F1C0CF10A06BFB2B1B2FD
:108CE0001FFA88F0049AFFF77FFEB1B2A8B2049A87
:108CF000FFF77AFE641C0CF1010CA4B21FFA8CFC85
:108D00000A2CDAD305B0BDE8F08F30B50446F84A36
:108D10002378002000EB8011555C9D4204D1114462
:108D2000657849788D4204D0401C80B27728F1D311
:108D3000002030BD30B50446EE4A2378002000EB19
:108D4000001112F811509D4205D102EB41016578E6
:108D500049788D4204D0401C80B2B028EFD3002067
:108D600030BD2DE9F04F044684468A46002702FBB9
:108D700003F0C1179146DFF8808300EB517B21E0BF
:108D800009980025C65D300602D5D8F8002001E01C
:108D9000D8F8042051462046FFF726FE641C7006D2
:108DA000A4B2060EA4EB0C01494505D10AF101005D
:108DB00064461FFA80FA03E06D1CEDB2082DE2D381
:108DC0007F1CBFB2B7EBEB0FDADB9CE72DE9F04776
:108DD000884604460546C74902EB0210DFF818A38F
:108DE00001EB40094FF0000C43BB09EB0C000026DF
:108DF0008778380602D5DAF8002001E0DAF8042096
:108E000041462046FFF7F0FD7806641C070EA4B229
:108E1000601B10280CD0761CF6B2082EE9D30CF19A
:108E2000010C0CF0FF0CBCF1200FDED3BDE8F08785
:108E300008F101002C461FFA80F8F0E709EB0C005E
:108E400000268778380602D5DAF8042001E0DAF83F
:108E5000002041462046FFF7C7FD7806641C070E38
:108E6000A4B2601B10280BD0761CF6B2082EE9D3F2
:108E70000CF1010C0CF0FF0CBCF1200FDED3D5E798
:108E800008F101002C461FFA80F8F1E72DE9F047C0
:108E9000884604460546964902EB8210DFF858A240
:108EA00000EB01094FF0000C3BBB09EB0C00002666
:108EB0008778380602D5DAF8002001E0DAF80420D5
:108EC00041462046FFF790FD7806641C070EA4B2C9
:108ED000601B18280BD0761CF6B2082EE9D30CF1D3
:108EE000010C0CF0FF0CBCF13F0FDED39EE708F144
:108EF00001002C461FFA80F8F1E709EB0C00002670
:108F00008778380602D5DAF8042001E0DAF8002084
:108F100041462046FFF768FD7806641C070EA4B2A0
:108F2000601B18280BD0761CF6B2082EE9D30CF182
:108F3000010C0CF0FF0CBCF13F0FDED376E708F11B
:108F400001002C461FFA80F8F1E730B514460D46B3
:108F5000024621462846FFF799FF182030BD30B55C
:108F600014460D46024621462846FFF72FFF1220E1
:108F700030BD2DE9F84F9A4615460C4606460027A7
:108F80004FF4F0794FF488782A78002A3AD0F01913
:108F900086B2802A15D906F11800484505D916343D
:108FA0000026A4B2444500D900242846FFF7ADFEB0
:108FB00080B2534622463146FFF7C7FF0746AD1C35
:108FC000E2E70D2A15D00A2A1AD006F10C0048450E
:108FD00005D90C340026A4B2444500D900244648E3
:108FE00041680091036821463046FFF77EFD6D1C05
:108FF000CAE71634A4B2444500D900240027F6E796
:109000000026FBE7BDE8F88F2DE9F8413B4F1546F8
:10901000884606460024287800281CD0A0F130019C
:10902000092901D888B202E02E2812D00B2000EBCB
:10903000C001C1EB801007EB80000090301980B2B6
:10904000372320224146FFF78CFE2034A4B26D1C4A
:10905000E1E70A20EBE7BDE8F8812DE9F843064691
:10906000994615460C4600204FF4F0784FF4887767
:109070002A78002A3AD0304486B2802A14D906F1E0
:109080001000404505D910340026A4B2BC4200D9D6
:1090900000242846FFF74EFE80B24B46224631465A
:1090A000FFF75DFFAD1CE3E70D2A16D00A2A1BD09F
:1090B00006F10800404505D908340026A4B2BC4298
:1090C00000D900240C4841680091036821463046CD
:1090D000FFF70BFD0A206D1CCAE71034A4B2BC4296
:1090E00000D900240020F6E70026FBE787E5000012
:1090F000AC960200E3B402001C00001084ED0200F4
:109100002DE9F8430646994615460C4600204FF4D3
:10911000F0784FF488772A78002A3AD0304486B223
:10912000802A14D906F11000404505D910340026D4
:10913000A4B2BC4200D900242846FFF7FBFD80B250
:109140004B4622463146FFF70AFFAD1CE3E70D2AE6
:1091500016D00A2A1BD006F10800404505D908346C
:109160000026A4B2BC4200D90024354841680091D1
:10917000036821463046FFF7E1FC08206D1CCAE772
:109180001034A4B2BC4200D900240020F6E7002627
:10919000FBE734E5F0B5062A01D90A2201E002B95D
:1091A0000122052900D90521914200D91146254DFA
:1091B00000244FF0200C05F804C0641CE4B20C2C11
:1091C000F9D314460A270CE0B0FBF7F607FB1606A6
:1091D000B0FBF7F005EB040E3036641E0EF8016CA0
:1091E000E4B2002CF0D169B1104605E02C1814F857
:1091F000014C2C54401EC0B2491EC9B2F6D22E21D9
:10920000295401E005F802C07BB90020511E0AE094
:109210002B5C302B09D12B185B782E2B05D005F851
:1092200000C0401CC0B28842F2DB521CD0B2002108
:1092300002E02954401CC0B20C28FAD3F0BD000053
:109240001C000010184700102DE9F04FC3B0DFF8E4
:10925000988600F1290904460D461FFA89F20B464B
:10926000CDF80080FFF7D3FB681E83B2209004F195
:109270002B0082B208902098661E81B2CDF8008043
:10928000B0B2FFF7C4FBA81ECDF8008083B20F90E8
:1092900004F12D0082B214900F9881B2B0B2FFF7A2
:1092A000B6FBE81ECDF8008083B2199004F12E00C1
:1092B00082B21890199881B22046FFF7A8FB281FA8
:1092C00083B2159004F1300082B22A901598CDF83F
:1092D000008081B2A01C80B2FFF799FB681F83B2A7
:1092E0001A9004F1310082B225901A9804F12307F4
:1092F00081B2CDF80080B8B2FFF789FBA81F83B216
:10930000333681B22B90B2B2CDF80080B8B2FFF7FD
:109310007EFBE81F83B281B20490B2B2CDF8008028
:10932000B8B2FFF774FBA5F1080083B281B27F1CCD
:109330001B90B2B2CDF80080B8B2FFF768FBA5F180
:10934000090083B2761C81B23490B2B2CDF80080AD
:10935000B8B2FFF75CFBA5F10A00CDF8008083B23C
:1093600081B204F1250A0A90B2B21FFA8AF0FFF71F
:109370004EFBA5F10B0083B281B21790B2B2CDF8CB
:1093800000801FFA8AF0FFF742FBA5F10C00CDF830
:10939000008083B281B21E90B2B21FFA8AF0FFF74A
:1093A00036FBA5F10D0083B2761C81B2BF1C38904C
:1093B000B2B2CDF80080B8B2FFF729FBA5F10E00DC
:1093C00083B281B21C90B2B2CDF800801FFA8AF04D
:1093D000FFF71DFBA5F10F0083B281B20B90B2B273
:1093E000CDF80080B8B2FFF712FBA5F1100083B2F0
:1093F00081B20C90B2B2CDF80080B8B2FFF707FB93
:10940000A5F11100CDE9008083B2761C81B2B2B221
:10941000B8B2FFF7FCFA40460090A5F1120083B203
:1094200081B27F1C0590B2B2B8B2FFF7F0FA4046A5
:109430000090A5F1130083B281B20690B2B2B8B227
:10944000FFF7E5FA40460090A5F1140083B2761CC0
:1094500081B21090B2B2B8B2FFF7D9FA404600908C
:10946000A5F1150083B281B27F1C0290B2B2B8B2EE
:10947000FFF7CDFA4046A5F1160B00901FFA8BF3CB
:10948000B2B21FFA8BF1B8B2FFF7C1FA40460090B2
:10949000A5F1170083B281B21190B2B2B8B2FFF752
:1094A000B6FA40460090A5F1180083B281B21D9033
:1094B000B2B2B8B2FFF7ABFA4046A5F1190A009074
:1094C0001FFA8AF3B2B21FFA8AF11FFA89F0FFF786
:1094D0009EFA4046A5F11A08761C00901FFA88F300
:1094E000B2B21FFA88F11FFA89F0FFF790FAFE482E
:1094F0000090A5F11B0083B281B22290B2B21FFA94
:1095000089F0FFF784FAF8480090A5F11C0083B2B7
:109510000790701C82B20390079804F12A0981B267
:109520001FFA89F0FFF773FAEF4800900398A5F14E
:109530001D0782B2BBB2B9B21FFA89F0FFF767FA12
:10954000E9480090781E83B22490039882B2249850
:1095500081B21FFA89F0FFF75AFAE3480090B81E6B
:1095600083B2B61C81B21290B2B21FFA89F0FFF733
:109570004EFADD480090F81E83B281B20D90B2B26F
:109580001FFA89F0FFF743FAD74800900398A5F136
:10959000210982B208981FFA89F31FFA89F180B273
:1095A000FFF735FAD0480090781F83B281B2169049
:1095B0000898B2B280B2FFF72AFACB480090B81FE1
:1095C00083B281B2089004F12C001390B2B280B241
:1095D000FFF71DFAC448009004F13A0082B21F90D0
:1095E000FE1F1398B3B2B1B280B2FFF710FABE48B3
:1095F0000090701E83B209901F9882B2099881B2C0
:10960000139880B2FFF703FAB7480090B01E83B2F8
:109610000E9004F13B0082B228900E9881B213980C
:1096200080B2FFF7F4F9B0480090F01E83B20390C7
:10963000289882B2039881B2139880B2FFF7E7F9B5
:10964000A9480090301F83B21390289882B21398D3
:1096500081B2149880B2FFF7DAF9A3480090701F26
:1096600083B22190289882B2219881B2149880B256
:10967000FFF7CDF99C480090B01F83B22C9004F105
:109680003C0082B229902C9881B2149880B2FFF7E6
:10969000BEF9954800902999F01F8AB283B281B231
:1096A000149880B2FFF7B3F98F480090A5F12C0011
:1096B00083B22D90299882B22D9881B2189880B2E9
:1096C000FFF7A5F988480090A5F12D0083B23090EE
:1096D000299882B2309881B2189880B2FFF797F932
:1096E00081480090A5F12E0083B2319004F13D0035
:1096F00082B22690319881B2189880B2FFF787F92C
:1097000079480090A5F12F0083B21890269882B274
:10971000189881B204F12F00239080B2FFF777F9F7
:1097200071480090A5F1300083B22790269882B24C
:10973000279881B2239880B2FFF769F96A480090B0
:1097400004F13E0082B21490A5F1310123988BB24E
:1097500089B280B2FFF75BF963480090A5F132004F
:1097600083B23390149882B2339881B2239880B236
:10977000FFF74DF95C480090A5F1330083B22F90BC
:10978000269882B22F9881B2239880B2FFF73FF9D2
:1097900055480090A5F1340083B22390149882B20A
:1097A000239881B22A9880B2FFF731F94E48009091
:1097B0001499A5F135008AB283B281B22A9880B299
:1097C000FFF725F948480090A5F1360083B22A90AA
:1097D000149882B22A9881B2259880B2FFF717F9BF
:1097E00041480090A5F1370083B2359004F13F0065
:1097F00082B22E90359881B2259880B2FFF707F992
:10980000394800902F9883B204F1540082B2369008
:109810002A9881B204F14800329080B2FFF7C5F86F
:1098200031480090239883B204F1530082B225900E
:10983000239881B204F147002A9080B2FFF7E7F83D
:1098400029480090189883B2259882B22F9881B247
:109850002A9880B2FFF7A9F8234800902D9883B288
:1098600004F1520082B23790189881B204F1460098
:1098700080B2FFF79AF81C480090139883B204F165
:10988000510082B2139881B204F144002F9080B24B
:10989000FFF7BDF814480090039883B2379882B25E
:1098A000039881B204F14500379080B2FFF7AFF81A
:1098B0000D4800900E9883B204F1500082B23A90A5
:1098C0000E9881B22F9880B2FFF7A1F80648009059
:1098D000099883B204F14F0082B23990099881B29D
:1098E0002F9880B202E00000F3520300FFF78FF8D8
:1098F000FE4800903A981FFA89F382B204F14300BF
:109900003A90B1B280B2FFF750F8F848009004F1F5
:109910004E0082B22F903A981FFA89F31FFA89F10C
:1099200080B2FFF774F8F14800903998BBB282B268
:109930000D9881B204F142003A9080B2FFF735F8F9
:10994000EA48009004F14D0082B239903A98BBB2D7
:10995000B9B280B2FFF75BF8E44800902F981FFA85
:1099600088F382B2079881B204F141003A9080B244
:10997000FFF71BF8DD48009004F14C0082B22F90F5
:109980003A981FFA88F31FFA88F180B2FFF73FF880
:10999000D648009039981FFA8BF382B204F1400048
:1099A0001FFA8AF180B2FFF700F8D04800902F9894
:1099B0001FFA8BF382B22E981FFA8BF180B2FFF759
:1099C00026F8CA480090069883B22F9882B202986F
:1099D00081B22E9880B2FEF7E8FFC448009001984B
:1099E00083B204F14B0082B2069881B22E9880B205
:1099F000FEF7DBFFBD480090019883B204F14A00F6
:109A000082B22E90019881B2149880B2FEF7FFFFC7
:109A1000B64800901C9883B22E9882B20C9881B2FE
:109A2000149880B2FEF7C1FFB0480090179883B237
:109A30002E9882B21C9881B2269880B2FEF7B5FFAC
:109A4000AA480090179883B2329882B2179881B2D0
:109A5000269880B2FEF7DBFFA4480090049883B2FA
:109A600004F1490082B20A9881B2299880B2FEF7C7
:109A70009CFF9E4800901A9883B2329882B2049854
:109A800081B2289880B2FEF790FF9848009019980C
:109A900083B22A9882B21A9881B21F9880B2FEF7D8
:109AA00084FF92480090199883B22A9882B219983C
:109AB00081B21F9880B2FEF7AAFF8C4800902A98C6
:109AC0002B4682B20F9881B21F9880B2FEF76DFFCD
:109AD0008648009037982B4682B21F98194680B26C
:109AE000FEF795FF81480090139883B204F16E0051
:109AF00082B22890139881B204F1580080B2FEF728
:109B000086FF7A480090039883B204F16F0082B216
:109B10002690039881B204F15500149080B2FEF7AC
:109B200076FF724800900E9883B204F1710082B201
:109B30002E900E9881B2369880B2FEF768FF6B487F
:109B40000090099883B204F1720082B21F900998C4
:109B500081B2259880B2FEF75AFF644800901498AD
:109B6000B3B282B22598B1B280B2FEF750FF5F481F
:109B7000009004F1730082B22F900B381490B3B2AE
:109B8000B1B280B2FEF743FF58480090089883B204
:109B9000259882B2089881B2259880B2FEF737FFE7
:109BA00052480090089883B22F9882B2089881B2E8
:109BB000149880B2FEF72BFF4C480090129883B2A5
:109BC00004F1740082B22590169881B2149880B284
:109BD000FEF7EBFE45480090079883B2259882B2C5
:109BE000129881B204F16700299080B2FEF7DDFE81
:109BF0003E480090079883B21F9882B2079881B2BE
:109C000004F16600149080B2FEF701FF374800901F
:109C1000229883B21F9882B2229881B2299880B28A
:109C2000FEF7F5FE314800901F981FFA88F382B2C4
:109C300014981FFA88F180B2FEF7E9FE2B480090D5
:109C400011981FFA8AF183B21F9882B204F165005D
:109C5000149080B2FEF7A9FE24480090029883B2C7
:109C60002E9882B2119881B2149880B2FEF79DFEB0
:109C70001E480090059883B22E9882B2029881B255
:109C800004F1640080B2FEF790FE184800900B9833
:109C900083B204F1700082B23290059881B204F16F
:109CA0006300149080B2FEF780FE104800900B987D
:109CB00083B2289882B20B9881B2149880B2FEF7D2
:109CC000A6FE0A480090179883B2269882B21C9884
:109CD00081B204F16200269080B2FEF766FE03486E
:109CE0000090179883B204F16D0001E0F352030075
:109CF00082B21490179881B2269880B2FEF787FE40
:109D0000FE4800900A9883B2149882B20A9881B2F1
:109D100004F16100269080B2FEF779FEF7480090CA
:109D20001A9883B2149882B2349881B2269880B27D
:109D3000FEF73BFEF14800900F9883B204F16C00EF
:109D400082B214901A9881B204F1600080B2FEF7DA
:109D50002CFEEA480090681C83B2149882B20F98D7
:109D600081B204F15F0080B2FEF71FFEE34800906D
:109D700004F18A0082B21490A5F138010B388BB23D
:109D80003C9089B280B2FEF742FEDC4800902398F6
:109D900083B204F18B0082B23990359881B204F11C
:109DA0007E00349080B2FEF700FED44800903398D5
:109DB00083B2149882B2239881B2349880B2FEF7AD
:109DC000F4FDCE480090279883B204F1890082B256
:109DD0004190339881B204F17D00339080B2FEF758
:109DE000E4FDC6480090279883B204F1880082B24F
:109DF0003590279881B204F17C00239080B2FEF761
:109E000006FEBE480090189883B204F1870082B223
:109E10002990189881B2239880B2FEF7F8FDB748D0
:109E20000090319883B2359882B2319881B22398EC
:109E300080B2FEF7ECFDB1480090309883B22998CB
:109E400082B2309881B2239880B2FEF7E0FDAB4831
:109E500000902C9883B2359882B22D9881B204F18B
:109E60007B003A9080B2FEF7A0FDA44800900398D2
:109E700083B2299882B22C9881B23A9880B2FEF7C8
:109E800094FD9E480090219883B204F1A40082B210
:109E90002C90219881B204F19900309080B2FEF7A5
:109EA000B6FD96480090139883B204F1A30082B2E5
:109EB0002D90139881B204F19700289080B2FEF79C
:109EC000A6FD8E480090039883B204F1860082B20A
:109ED0002A90039881B204F17A00189080B2FEF7BC
:109EE00096FD86480090039883B204F1A10082B2E7
:109EF0002690039881B204F19600369080B2FEF766
:109F000086FD7E4800902A98B3B282B20E9881B244
:109F1000189880B2FEF749FD784800900E9883B2F9
:109F200004F1A00082B223900E9881B204F1940053
:109F3000429080B2FEF76BFD70480090099883B2A2
:109F400004F19E0082B2099881B204F1930080B2BC
:109F5000FEF75DFD694800902A981FFA89F382B2E6
:109F600004F179003190B1B280B2FEF71EFD634872
:109F7000009004F19D0082B20B38B3B2B1B280B24E
:109F8000FEF745FD5D480090089883B204F19B0000
:109F900082B23F90089881B204F191003D9080B266
:109FA000FEF735FD55480090169883B204F19A00EB
:109FB00082B22790169881B204F18F003E9080B251
:109FC000FEF725FD4D48009004F1840082B23790E1
:109FD0000C3818901FFA89F31FFA89F180B2FEF746
:109FE00016FD4648009030981FFA89F382B204F1BA
:109FF0008D0040901FFA89F180B2FEF708FD3F48BE
:10A0000000900D9883B2379882B20D9881B2319842
:10A0100080B2FEF7FCFC394800900D9883B2289876
:10A0200082B20D9881B204F18C00319080B2FEF7BB
:10A03000EEFC32480090129883B2379882B21298A0
:10A0400081B2189880B2FEF7E2FC2C48009012987A
:10A0500083B2369882B2129881B2149880B2FEF719
:10A06000D6FC26480090249883B204F1830082B283
:10A070003B90249881B2189880B2FEF7C8FC1F4824
:10A080000090249883B204F1950082B2189024982D
:10A0900081B2419880B2FEF7BAFC184800903B9814
:10A0A000BBB282B204F177002490B9B280B2FEF75D
:10A0B000AEFC124800901898BBB282B22998B9B28F
:10A0C00080B2FEF7A4FC0D480090079883B204F11B
:10A0D000820082B2079881B2249880B2FEF797FC82
:10A0E00006480090079883B2189882B2079881B208
:10A0F0002A9880B2FEF78BFC004801E0F35203007F
:10A100000090229883B2189882B2229881B2249843
:10A1100080B2FEF77CFCFE48009042981FFA88F35C
:10A1200082B204F1760022901FFA88F180B2FEF725
:10A130006EFCF748009018981FFA8AF382B22298B2
:10A140001FFA8AF180B2FEF762FCF14800901D9878
:10A1500083B2189882B21D9881B2229880B2FEF71D
:10A1600056FCEB480090119883B2189882B211986F
:10A1700081B204F17500249080B2FEF748FCE448F7
:10A18000009035981FFA8BF382B222981FFA8BF158
:10A1900080B2FEF73CFCDE48009018981FFA8BF363
:10A1A00082B214981FFA8BF180B2FEF730FCD848C7
:10A1B0000090029883B2299882B2029881B22498C2
:10A1C00080B2FEF724FCD2480090029883B218981F
:10A1D00082B2029881B2149880B2FEF718FCCC4883
:10A1E0000090109883B22A9882B2109881B2249875
:10A1F00080B2FEF70CFCC6480090109883B23698E7
:10A2000082B2109881B2149880B2FEF700FCC04868
:10A210000090069883B2379882B2069881B225984A
:10A2200080B2FEF7F4FBBA480090069883B23698E5
:10A2300082B2069881B2149880B2FEF7E8FBB44867
:10A240000090059883B23B9882B2059881B2259818
:10A2500080B2FEF7DCFBAE480090059883B22898E8
:10A2600082B2059881B2149880B2FEF7D0FBA8485C
:10A270000090019883B204F1810082B2019881B20A
:10A28000259880B2FEF7C3FBA1480090019883B2E5
:10A29000289882B2019881B2149880B2FEF7B7FB79
:10A2A0009B4800900C9883B204F1800082B2189011
:10A2B0000C9881B2259880B2FEF7A9FB94480090D3
:10A2C0000C9883B2289882B20C9881B2149880B20C
:10A2D000FEF79DFB8E4800901E9883B2189882B2BC
:10A2E0000B9881B22F9880B2FEF75FFB88480090F0
:10A2F0001E9883B2349882B21E9881B22F9880B291
:10A30000FEF785FB824800901B9883B23C9882B28E
:10A31000179881B21F9880B2FEF747FB7C480090E7
:10A320001B9883B2339882B21B9881B21F9880B277
:10A33000FEF76DFB76480090159883B2349882B290
:10A34000049881B22E9880B2FEF72FFB70480090DF
:10A35000159883B2339882B2159881B2329880B240
:10A36000FEF755FB6A48009033982B4682B2199845
:10A3700081B2329880B2FEF718FB654800903A9897
:10A380002B4682B23298194680B2FEF740FB6048F5
:10A3900000901E9883B204F1980082B20B9881B2AB
:10A3A000399880B2FEF701FB594800900A9883B2B1
:10A3B000309882B21E9881B2399880B2FEF7F5FAD1
:10A3C00053480090049883B2309882B20A9881B2C0
:10A3D000319880B2FEF7E9FA4D480090159883B2A3
:10A3E000279882B2049881B2319880B2FEF7DDFAE4
:10A3F000474800900F9883B23F9882B2159881B277
:10A40000319880B2FEF7D1FA414800900F9883B29C
:10A41000279882B20F9881B2409880B2FEF7F7FA7F
:10A420003B480090209883B2279882B2209881B24E
:10A430003E9880B2FEF7EBFA3548009027982B46FD
:10A4400082B23D98194680B2FEF7E1FA304800909A
:10A45000219883B204F1CF0082B21490219881B286
:10A4600004F1AD00179080B2FEF7D1FA28480090B1
:10A47000139883B204F1D10082B21890139881B27C
:10A4800004F1AB00139080B2FEF7C1FA20480090AF
:10A49000039883B2189882B2039881B204F1A9009C
:10A4A00080B2FEF7B4FA1A4800900E9883B204F115
:10A4B000D20082B203900E9881B204F1A80080B25B
:10A4C000FEF7A5FA12480090099883B204F1B30090
:10A4D00082B2099881B204F1A70080B2FEF797FA20
:10A4E0000B480090099804F1C60583B2039882B224
:10A4F000099881B2A8B2FEF78AFA0548009004F1E3
:10A50000B20082B21E900C38B3B2B1B21F9001E01B
:10A51000F352030080B2FEF77AFAFE48009004F18D
:10A52000D30082B209900C380E90B3B2B1B280B2AF
:10A53000FEF76DFAF7480090089804F1B10683B26F
:10A5400081B21F98B2B280B2FEF761FAF148009072
:10A55000089883B2099882B2089881B2A8B2FEF72F
:10A5600056FAEC4800901698B2B283B281B204F168
:10A57000A500089080B2FEF74AFAE64800901698C7
:10A5800083B2099882B2169881B2A8B2FEF73FFA58
:10A59000E048009008981FFA89F3B2B21FFA89F1D7
:10A5A00080B2FEF734FADB48009003981FFA89F373
:10A5B00082B21FFA89F1A8B2FEF729FAD5480090B5
:10A5C0000D98B2B283B281B2089880B2FEF71FFA3A
:10A5D000D04800900D9883B2039882B20D9881B252
:10A5E000A8B2FEF714FACB4800901E98BBB282B214
:10A5F000129881B22C9880B2FEF7D7F9C548009026
:10A600000998BBB282B2129881B2681E089080B2DB
:10A61000FEF7CBF9BF480090701E82B22C98BBB2F7
:10A62000B9B280B2FEF7F3F9BA4800901898BBB2FD
:10A6300082B20898B9B280B2FEF7E9F9B548009045
:10A6400007981FFA88F381B22D98B2B280B2FEF754
:10A65000ACF9B048009003981FFA88F382B20798CB
:10A6600081B2A81E039080B2FEF79FF9A94800901E
:10A670002D98B61E1FFA88F3B2B21FFA88F180B285
:10A68000FEF7C5F9A348009003980A351FFA88F32E
:10A69000AAB21FFA88F180B2FEF7B9F99D4804F119
:10A6A000A20900901FFA8AF3B2B21FFA8AF11FFAC8
:10A6B00089F0FEF7ACF99748009003981FFA8AF3E7
:10A6C000AAB21FFA8AF180B2FEF7A1F99148771E6B
:10A6D00000901FFA8AF3BAB21FFA8AF11FFA89F0C2
:10A6E000FEF795F98B48009004F1C30007901FFA1C
:10A6F0008AF3AAB21FFA8AF180B2FEF788F9854878
:10A7000000901D98B2B283B281B21FFA89F0FEF7B1
:10A710007EF91D987F4D009583B2149882B21D98E2
:10A7200081B2079880B2FEF772F91198009583B252
:10A7300081B2BAB21FFA89F0FEF769F91198009553
:10A7400083B2149882B2119881B2079880B2FEF752
:10A750005EF926981FFA8BF3BAB21FFA8BF10095B7
:10A7600080B2FEF754F900951498133682B21FFA9E
:10A770008BF31FFA8BF1B0B2FEF749F902980095FE
:10A7800083B281B22698BAB280B2FEF740F902983D
:10A79000009583B2149882B2029881B2B0B2FEF7EB
:10A7A00036F91098009583B2179882B2109881B24A
:10A7B000269880B2FEF72BF91098203783B281B229
:10A7C0000095BAB2B0B2FEF722F90698009583B2AE
:10A7D000179882B2069881B2239880B2FEF717F9D3
:10A7E0000698009583B281B2BAB2B0B2FEF70FF903
:10A7F0000095059883B2179882B2059881B2239884
:10A8000080B2FEF704F90095059804F1C10A83B2FD
:10A8100081B2BAB21FFA8AF0FEF7F9F801980095F2
:10A8200083B281B22398163EB2B280B2FEF7EFF83F
:10A830000198009583B281B2BAB21FFA8AF0FEF78E
:10A84000E6F80C9804F19F0883B281B20095B2B289
:10A850001FFA88F0FEF7DBF80C98009583B281B2FE
:10A86000BAB21FFA8AF0FEF7D2F80B98009583B2BD
:10A8700081B22398B2B280B2FEF7C9F80B987F1E5E
:10A8800083B281B20095BAB21FFA8AF0FEF7BFF820
:10A8900000950A98B2B283B21C9881B21FFA88F070
:10A8A000FEF783F81C9804F1C00A83B281B20095C8
:10A8B000BAB21FFA8AF0FEF7AAF800950A98BAB25F
:10A8C00083B2389881B21FFA8AF0FEF76EF80498C6
:10A8D000009583B2139882B20A9881B21FFA88F069
:10A8E000FEF763F81B98009583B2781E82B20A982F
:10A8F00081B204F1BF0080B2FEF757F81B980095B3
:10A9000083B2F81E82B21B9881B204F1BE0080B2FD
:10A9100002E00000F3520300FEF779F80498009576
:10A9200083B281B2B2B21FFA88F0FEF770F80498D1
:10A930001D3683B281B204F1BC000095B2B280B280
:10A94000FEF765F82B98009583B281B2B2B21FFA78
:10A9500088F0FEF75CF81A98009583B281B22398CC
:10A96000C834A2B280B2FEF752F81598009583B2AF
:10A970000E9882B2159881B2269880B2FEF747F8F9
:10A980000095199883B2089882B2199881B21FFA7B
:10A9900089F0FEF73CF800950F9883B2039882B2D5
:10A9A0000F9881B22D9880B2FEF731F8209800956B
:10A9B00083B2079882B2209881B22C9880B2FEF7B9
:10A9C00026F843B0BDE8F08F2DE9F84F0024A246E9
:10A9D0004FF04C0940F20F18FE4F4FF04E0BFE485F
:10A9E000009004EB4401A00001EB041100EB810096
:10A9F00004EB840509EB051680B2B2B24346E421AC
:10AA0000FDF7D3FF012000EB0510E323B2B280B2C3
:10AA100019460097FDF7FBFFB2B2B0B24346E321FF
:10AA20000097FDF7F4FF4D2000EB051082B256466B
:10AA300080B24346E321CDF800A0FDF7E8FF0BEB21
:10AA4000051082B280B24346E3210096FDF7DFFF96
:10AA50004F2000EB051082B280B24346E3210096FE
:10AA6000FDF7D5FF641C062CB9D3BDE8F88F10B5EF
:10AA7000FFF7AAFFD948D849002341606FF07F4112
:10AA80000160D7A2F1215420FEF7E7FA0023F1215B
:10AA9000BDE81040D4A2A420FEF7DFBA10B5FFF73E
:10AAA00093FFCE48CC49002341606FF07F410160A5
:10AAB000F121BDE81040CDA25420FEF7CEBA10B56A
:10AAC000FFF782FFC548C449002341606FF07F4112
:10AAD0000160F121BDE81040C5A25420FEF7BDBAC7
:10AAE00010B5FFF771FFBD48BB49002341606FF00F
:10AAF0007F410160F121BDE81040BEA25420FEF765
:10AB0000ACBA2DE9F0470446FFF75EFFB349B24AFD
:10AB10006FF07F40C1E90002B74E002C06F1180526
:10AB20004FF4D1784FF071094FF0000403D0AF1DFE
:10AB30004FF06C0A2DE0474601E0042C11D004EBE5
:10AB4000440006EB400204EB840109EB01100023F2
:10AB5000F121FEF782FA641CE4B2052CEDD3BDE8C6
:10AB6000F0872A463846F2E7042C0ED08CB1032C2D
:10AB700014D004EB440006EB400204EB840109EB23
:10AB800001100023F1211E320EE005F11E024046A5
:10AB900001E03A4650460023F12105E0964A4FF481
:10ABA000A77030320023F121FEF757FA641CE4B29B
:10ABB000052CD9D3D3E710B5FFF706FF87488649A0
:10ABC000002341606FF07F4101608CA2F12154208D
:10ABD000FEF743FA0023F121BDE8104088A2A4202B
:10ABE000FEF73BBA10B5FFF7EFFE7C487A49002329
:10ABF00041606FF07F410160F121BDE8104081A20A
:10AC00005420FEF72ABA10B5FFF7DEFE73486FF046
:10AC10007F410160704941607B4890F85F020128E4
:10AC20000FD0002816D1002378A2F2215320FEF77E
:10AC300014FA002378A2F221BDE81040A320FEF709
:10AC40000CBA002377A2F2215320FEF706FA002364
:10AC500076A2F0E710BD10B50446FFF7B5FE5F49D8
:10AC60005D4B694A6FF07F40BCB1C1E90003012C24
:10AC70003BD092F85F02012866D000286DD10023F6
:10AC80006CA2F2215320FEF7E8F900236BA2F22117
:10AC9000A320BDE81040FEF7E0B9C1E9000392F837
:10ACA0005F02012812D0002857D1002365A2F221AB
:10ACB0005320FEF7D2F9002365A2F221A320FEF76C
:10ACC000CCF9002365A2F221FC20E2E7002355A283
:10ACD000F2215320FEF7C1F9002362A2F221A32042
:10ACE000FEF7BBF9002361A2EDE792F85F1240F294
:10ACF0009314012901D079B120E000235DA2F22153
:10AD00005320FEF7AAF900235DA2F221A320FEF74B
:10AD1000A4F900235DA20DE000235EA2F2215320DE
:10AD2000FEF79BF900235EA2F221A320FEF795F91E
:10AD300000235EA2F2212046FEF78FF900235DA2D8
:10AD4000F22140F2BD10A4E700235BA2F2215320C0
:10AD5000FEF783F900235AA299E710BD10B5FFF75B
:10AD600033FE1E486FF07F41274C01601A49416055
:10AD700094F85F02012824D0002829D1002352A290
:10AD8000E7215420FEF769F9002351A2FB2154204A
:10AD9000FEF763F994F85F124FF4A2704FF4CA748F
:10ADA000012916D0002913D100234BA2F121FEF76F
:10ADB00054F900234AA22046BDE81040F121FEF7D5
:10ADC0004CB9002348A2E7215420FEF746F98FE052
:10ADD00099E090E068436900380031001C000010E1
:10ADE0006D7365630000000073656300560000002A
:10ADF000410000006D73000031DF0200487A00005E
:10AE00004B487A002A310000F03F0010B2E2C1BF87
:10AE1000C9E8D6C300000000CFB5CDB3C9E8D6C39A
:10AE2000000000004D4541535345540053595353BE
:10AE3000455400002020C8A1CFFB20002020C8B727
:10AE4000C8CF2000B2E2C1BFCFD4CABE000000000C
:10AE5000B5B5BAC5CFD4CABE00000000B5B5BCC6F2
:10AE6000CAFD00004E6F2E4449535000434F554ECB
:10AE70005420000046494C45205345540000000032
:10AE80005361766544617461000000004D4F524586
:10AE900000000000CEC4BCFEB9DCC0ED0000000024
:10AEA000B1A3B4E6CAFDBEDD00000000B8FCB6E008
:10AEB00000000000322F320043414E43454C200039
:10AEC000434F4E4649524D00C7E5B3FD0000000018
:10AED000B1EDB8F100000000C9CFD2BBD2B3000081
:10AEE000CFC2D2BBD2B30000434C454100000000AA
:10AEF0000023F7A24AE70023F7A2F121FEF7ADF8FD
:10AF00000023F7A257E710BD70B50646FFF75CFDBA
:10AF1000F548F64BF6494FF4A2744FF4CA756FF03A
:10AF20007F425EB3012E29D0C0E9002391F85F1261
:10AF3000012965D000297DD10023EEA2F121542002
:10AF4000FEF78BF80023EDA2E721A420FEF785F899
:10AF50000023ECA2FB21A420FEF77FF80023AFF230
:10AF60008802F1212046FEF778F80023AFF2900224
:10AF70002846BDE87040F121FEF76FB8C0E9002314
:10AF800091F85F1201291ED0002956D10023D9A2C1
:10AF9000F1215420FEF761F80023DCA2E721A42070
:10AFA000FEF75BF80023D5A2FB21A420FEF755F89D
:10AFB0000023D8A2E721F420FEF74FF80023FB215D
:10AFC000CEA2F420C8E70023D4A2F1215420FEF73A
:10AFD00044F80023D3A2E721A420FEF73EF8002383
:10AFE000D2A2FB21A420FEF738F80023D1A2E7214A
:10AFF000F420FEF732F80023FB21CCA2F4200FE06E
:10B000000023C6A2F1215420FEF727F80023C7A28F
:10B01000E721A420FEF721F80023C8A2FB21A420E9
:10B02000FEF71BF80023ACA2F1212046FEF715F82D
:10B03000002300E001E0AAA29AE770BD10B5044623
:10B04000FFF7C2FCA849A948A94A6FF07F43ECB1B9
:10B05000C1E90030012C38D092F85F0201286FD08E
:10B0600000286ED10023B7A2F2215320FDF7F5FF8F
:10B070000023B7A2F221A320FDF7EFFF0023B7A220
:10B08000F221F320BDE81040FDF7E7BFC1E9003031
:10B0900092F85F0201280ED0002852D10023AFF2AF
:10B0A0005C22F2215320FDF7D8FF0023AFF2982253
:10B0B000F221A320E6E70023ABA2F2215320FDF703
:10B0C000CCFF0023AFF29C22F2E792F85F124FF41C
:10B0D000CA74012936D000296BD10023A4A2E7212C
:10B0E0005420FDF7BAFF0023AFF25422FB21542075
:10B0F000FDF7B3FF0023A0A2E721A420FDF7ADFFD9
:10B100000023AFF2F422FB21A420FDF7A6FF0023C9
:10B110009BA2F121F420FDF7A0FF0023AFF2103233
:10B12000FB21F420FDF799FF0023AFF28022E721F5
:10B130002046FDF792FF002393A2FB212046A1E7C2
:10B1400028E036E0002392A2E7215420FDF785FF96
:10B15000002391A2FB215420FDF77FFF002390A242
:10B16000E721A420FDF779FF00238FA2FB21A42073
:10B17000FDF773FF00238EA2F121F420FDF76DFF90
:10B18000002389A2FB21F420FDF767FF0023AFF223
:10B190000432CCE7002388A2F2215320FDF75DFFA3
:10B1A000002387A2F221A320FDF757FF002386A2E8
:10B1B00066E710BD4C4810B56FF07F4101604B4908
:10B1C00041604B4890F85F02012811D0002818D147
:10B1D0000023AFF29032F2215320FDF73EFF00230F
:10B1E000AFF2D832F221BDE81040A320FDF735BF01
:10B1F00000235DA2F2215320FDF72FFF002374A24C
:10B20000F0E710BD70B538486FF07F414FF483749C
:10B21000016036494160364840F2931590F85F125C
:10B2200001291BD000292ED100236BA2F22153202B
:10B23000FDF713FF00236BA2F221A320FDF70DFF02
:10B2400000236BA2F2212046FDF707FF00236AA22C
:10B250002846BDE87040F221FDF7FFBE002369A239
:10B26000F2215320FDF7F9FE002369A2F221A32069
:10B27000FDF7F3FE002369A2F2212046FDF7EDFE63
:10B28000002368A2E4E770BD08B56948002100907A
:10B290001623D2220846FDF788FB08BD08B565488D
:10B2A0000090CD2340F2DF125C210020FDF77DFBF2
:10B2B00008BD08B55E48002100901623A02208466C
:10B2C000FDF773FBFFF780FBBDE80840E6E70000F1
:10B2D0004C495354000000004C617374205000002E
:10B2E0004E657874205000001C00001038003100BA
:10B2F000F03F0010C9BEB3FDD0D00000D7D4B6AF28
:10B3000000000000B8B4D6C600000000CFDFD0D4E3
:10B3100000000000B6D4CAFD0000000044656C5275
:10B320006F7700004C494E450000000041544F55D6
:10B33000000000004C4F472000000000434F5059D0
:10B3400000000000B5E7D1B9D0A3D5FD0000000092
:10B35000BFD8D6C6D0A3D5FD00000000B5E7C1F721
:10B36000D0A3D5FD000000004D4541444953500095
:10B37000CEC4BCFE00000000CFB5CDB3000000007D
:10B38000B9A4BEDF0000000020322F320000000010
:10B3900046494C45000000004D414E45000000006C
:10B3A0005359532000000000534554200000000072
:10B3B000544F4F4C00000000564F4C43616C00004E
:10B3C0004374726C43616C0043757243616C00009E
:10B3D0004D65617353657400B5E7C8DDD0A3D5FD35
:10B3E00000000000B5E7D7E8D0A3D5FD00000000BD
:10B3F000CDCBB3F600000000C7E5B3FDD0A3D5FD6B
:10B40000000000004320436F72726574000000006A
:10B410005220436F727265740000000045786974B1
:10B4200000000000436C6520436F72720000000052
:10B43000F3520300343465002DE9F047FFF739FF7C
:10B44000F84CF9486FF07F46F84DC4E9006095F874
:10B450005F02012801D018B109E00023F44A02E09C
:10B46000F34A0023F23A04210020FDF7F6FD4FF0E5
:10B470005010C4E90060EF4F00244FF01A0907F1A3
:10B4800050086FF0270601E0032C1AD295F85F02EE
:10B49000012801D028B119E004EB840007EB400239
:10B4A00003E0C4EB041101EB080204EB440000EBE1
:10B4B000C40109EB410081B200231846FDF7CDFD20
:10B4C00004E095F85F02012807D058B1641C062CEF
:10B4D000DAD3BDE8F047FFF796BB04EB840007EB37
:10B4E000400203E0C4EB041101EB080204EB44004A
:10B4F00000EBC40006EB400081B20023FA20DDE738
:10B5000008B5CD480090BE2340F2DF12A0210020F4
:10B51000FDF74BFA08BD08B5C3480021009016237B
:10B52000A0220846FDF741FAFFF74EFABDE80840B1
:10B53000E6E738B5BB4D04464FF050106860BF4891
:10B54000012300EB8402C8211420FDF786FDBB48CF
:10B5500001235C3000EB8402C8214FF48C70FDF7AE
:10B560007CFDB5486860B6480090372328227A21D0
:10B570005020FDF7F6FBB3480090372328227A21AC
:10B580007820FDF7EEFBB0480090372328227A217F
:10B590008C20FDF7E6FB38BD2DE9F047FFF7BBFF38
:10B5A000A04CA1486FF07F46A04DC4E9006095F81B
:10B5B0005F02012801D018B10AE000239C4A02E092
:10B5C0009B4A0023F23A042100201632FDF745FD84
:10B5D0004FF05010C4E900609C4F00244FF01A094E
:10B5E000A7F130086FF0270601E0032C16D295F87A
:10B5F0005F02012801D018B115E007EBC40201E099
:10B6000008EBC40204EB440000EBC40109EB410069
:10B6100081B200231846FDF720FD04E095F85F0293
:10B6200001280DD078B1641C062CDED3884890F830
:10B630008803FFF77EFFBDE8F0470020FFF70BBB54
:10B6400007EBC40201E008EBC40204EB440000EB8A
:10B65000C40006EB400081B20023FA20DBE738B5D6
:10B66000754C40F2DF15A0232A4656210020009495
:10B67000FDF79BF9E3232A46C12100200094FDF742
:10B6800094F938BD08B56848002100901623B2220D
:10B690000846FDF78AF9FFF797F9BDE80840DEE7AD
:10B6A0000B4630B46B491446085C183100EB40007F
:10B6B0004218A1B298B230BC0023FDF7CEBC2DE9F0
:10B6C000F05FFFF7DFFF574C57486FF07F45C4E945
:10B6D0000050564E96F85F02012801D018B10AE0DA
:10B6E0000023534A02E0524A0023F23A0421002088
:10B6F0002C32FDF7B2FC4B48DFF85C91002405606A
:10B700004FF05015BE274FF4B478A9F1150A4FF643
:10B71000FF7B456003E0012C08D0022C15D096F881
:10B720005F0201287BD000287AD01EE096F85F02E5
:10B73000012801D0C8B902E009F1070201E00AF1CD
:10B7400007023846002318210DE096F85F02012811
:10B7500001D050B901E0404A01E03F4A153A404665
:10B76000002318210E32FDF778FC641C032CD2D381
:10B77000374F0123D7F89003E83700EB400101EB86
:10B78000C0012E48D4300A1818213C20FDF765FC72
:10B790003979002306223868FDF7FCFC01232F4A83
:10B7A0001821FA20FDF759FCB8682A4900EB40003F
:10B7B0001B394218012318214FF4A070FDF74DFCEE
:10B7C000D7F8A00218224FF4A571E83FFFF768FFF1
:10B7D000002323A22C211846FDF792FC002321A26E
:10B7E0002C217820FDF78CFC002320A22C21FA20AC
:10B7F000FDF786FC00231FA22C2140F29D10FDF7CF
:10B800007FFCDFF83480074E0624A4F108000528E9
:10B8100002D3A01F08283FD9C6F804803DE02DE0E0
:10B8200031E000001C000010F3520300F03F001054
:10B830007DDC020045D202003434650025D50200CB
:10B84000A9FF0200EC110300FF120300CFD9020090
:10B85000E004001088DF020084DD020018470010B9
:10B8600042494E004C4F57205B465D0048494748CF
:10B870005B465D00434F554E54000000C4EBC401CD
:10B8800001EB090203E0C4EBC40101EB0A0204EB83
:10B8900084010BEA411055E7756004EB440007EBA7
:10B8A000001151F8140C60B111F8101C012306228C
:10B8B000FDF770FCC4EB0410203881B20123F94A73
:10B8C00005E0C4EB0410203881B20123F6A27820F1
:10B8D000FDF716FC641C0F2C97D3C6F80480D7F82C
:10B8E000D4024446B14640B197F8D812012306224B
:10B8F000FDF750FC0123EB4A01E00123EAA2C42139
:10B90000FA20FDF7FDFBB84610264F46A6F11200BF
:10B91000052802D3801C082801D97C6000E07D60E6
:10B9200006EB460108EB0111A1F58051D1F8240E78
:10B9300060B191F8281E01230622FDF72BFCC6EB0F
:10B940000610B63881B20123D64A05E0C6EB0610D0
:10B95000B63881B20123D4A2FA20FDF7D1FB761CC0
:10B96000192ED3D37C60D8F8D402A146464650B1F4
:10B9700096F8C01201230622D6F8BC02FDF70AFC95
:10B980000123C84A01E00123C7A2C4217820FDF7A2
:10B99000B7FBC846DFF818930124E01E052802D241
:10B9A000C7F8048000E07D6004EBC40101EB0902EC
:10B9B000C4EB04102B3081B200230820093AFDF7B4
:10B9C0009FFB641C0A2CE8D3C7F80480B949D6F859
:10B9D0008803002301EB8002C4211846FDF790FB89
:10B9E0000023B5A2D4211846FDF78AFB0023B4A298
:10B9F000D421F820FDF784FBBDE8F05F0020FFF7BD
:10BA00002AB908B5B0480090A02340F2DF12AF2158
:10BA10000020FCF7CAFF08BD10B5FFF735FCFEF7A4
:10BA2000D3FFBDE81040ECE770B5FFF7F5FFA74C7A
:10BA3000A7486FF07F45C4E900500023A54A0421C0
:10BA40001846FDF70AFB4FF05010C4E90050A24819
:10BA500090F85F02012801D078B120E000239FA276
:10BA60001A211846FDF7F9FA00239EA2302128205A
:10BA7000FDF7F3FA00239EA20DE000239EA21A21F7
:10BA80001846FDF7EAFA00239DA230212820FDF791
:10BA9000E4FA00239DA230218C20FDF7DEFA00237A
:10BAA0009CA23021F020FDF7D8FA00239BA2302180
:10BAB0004FF4AA70FDF7D1FA00239AA230214FF477
:10BAC000DC70FDF7CAFABDE870400020FFF7C3B88C
:10BAD00008B57D4800909A2340F2DF125A210020D9
:10BAE000FCF763FF08BD08B57948002100901623D4
:10BAF000A8220846FCF759FFFEF766FFBDE808409C
:10BB0000E6E72DE9F05FFFF7EEFF704D70486FF04C
:10BB10007F44714FC5E9004097F85F02012801D0CA
:10BB200020B10AE06B4A0023423A01E07E4A00233A
:10BB3000042100205832FDF790FA4FF05016C5E965
:10BB40000046DFF8E8B1604F00244FF01A086FF0AC
:10BB50002709ABF1480A604890F85F02012801D03C
:10BB6000C0B142E0032C0AD2E01E022801D26F606D
:10BB700000E06E6004EB84010BEB410216E0A01FB5
:10BB8000022801D26F6000E06E6004EB84010BEBD1
:10BB900041021FE0032C13D2E01E022801D26F6085
:10BBA00000E06E6004EB44010AEB810204EB440008
:10BBB00000EBC40108EB410081B20023184612E0FB
:10BBC000A01F022801D26F6000E06E6004EB440108
:10BBD0000AEB810204EB440000EBC40109EB4100D5
:10BBE00081B20023FA20FDF738FA641C062CB2D388
:10BBF000BDE8F05F0020FFF721BA2DE9F843334E8E
:10BC00004B4C4FF0501507467560D4F888034949EE
:10BC100000EBC000421801231A21492004F5627488
:10BC2000FDF71BFAA068012300EB400101EBC00007
:10BC300020497831421830214920FDF70EFAE0689A
:10BC4000012300EB400101EBC0003B4942184621B3
:10BC50004920FDF702FAE06B40F2431800EB400187
:10BC600001EBC00034490023313142181A2140460B
:10BC7000FDF7F3F9206C012300EB400101EBC0005C
:10BC80002D49A4F56274AE31421830214046FDF7CB
:10BC9000E4F93878012800D0002010B1FF2070604E
:10BCA0004EE04BE0184700102D2D2D2D2D2D0000BE
:10BCB000F4D1020081D502004155583A000000003D
:10BCC0004F55543A00000000343465001C00001049
:10BCD000F3520300BFDC0200F03F00104D657468B2
:10BCE000203A0000467265715B487A5D00000000F2
:10BCF0004C65766C5B565D00B7BDCABD203A00004E
:10BD0000C6B5C2CA5B487A5D00000000B5E7C6BD93
:10BD10005B565D0043705B465D000000445B205D48
:10BD200000000000434D50008BDB020047DA0200A8
:10BD3000E00400104DD40200BCD702002846756014
:10BD4000009058234FF4C47244214FF4A170FCF7C3
:10BD50002CFED4F8040100EB400101EBC000FE4DC5
:10BD60000123421946214046FDF777F9FEF72CFEE4
:10BD70003878012804D0BDE8F8430020FEF76BBFF7
:10BD80006FF07F403060F5480024682770606D26B2
:10BD900013E094B104EB440000EBC400421904EB3F
:10BDA000840006EB001080B20023F121FDF755F965
:10BDB000641C022CEDD3BDE8F8832A463846F3E72D
:10BDC000F8B5E74C06464FF0501060603078012817
:10BDD00000D0002018B3FF206060009028234FF4AB
:10BDE000E672182140F2A310FCF7DFFDDD48DA4DC2
:10BDF0000123D0F8181301EB410000EBC1004219F8
:10BE000018214FF4D270FDF728F9FEF7DDFD3078E8
:10BE1000012806D0BDE8F8400020FEF71CBF60688E
:10BE2000DBE76FF07F402060CC486060002468272B
:10BE30006D2612E08CB104EB440000EBC400421903
:10BE400004EB840006EB001080B20023F121FDF723
:10BE500004F9641C022CEDD3F8BD2A463846F4E7F9
:10BE60002DE9F05F0124DFF80093BD4EDFF8F48286
:10BE70004FF4AD7B4FF0501A3325E71E042F02D24A
:10BE8000C6F8049001E0C6F804A098F80D0400EB91
:10BE9000800004EB400000EB800008EB8001D1F84B
:10BEA000A805421C3DD091F8AC1501230522FDF7F1
:10BEB00071F9AE4A05EB04110023F620FDF720F9D5
:10BEC00098F80D0400EB800004EB400000EB8000CC
:10BED00008EB800101F58051D1F81006421C25D0F5
:10BEE00091F8141601230522FDF754F99F4A05EB3A
:10BEF000041100235846FDF703F998F80D0400EBF0
:10BF0000800004EB4000404400F5005090F88306A8
:10BF1000FF2810D005EB04114FF0000380B194A26C
:10BF20000FE005EB0411002392A2C6E705EB041114
:10BF3000002390A2DEE705EB041100238FA200E0AE
:10BF40008FA24FF4DF70FDF7DBF8042F02D2C6F8A2
:10BF5000049001E0C6F804A098F80D04474600EBF1
:10BF6000800004EB4000384490F80D041E2804D9EA
:10BF700005EB041100237FA208E000EB400101EB78
:10BF8000C0008049421805EB041100232620FDF76C
:10BF9000B7F897F80D0400EB800004EB400038443C
:10BFA00090F8DF04022804D905EB0411002371A2E4
:10BFB00009E000EB400101EBC0006749E739421896
:10BFC00005EB041100239220FDF79AF897F80D0471
:10BFD000012300EB800004EB400003220021FDF769
:10BFE000D9F805EB04110023604A0820FDF788F812
:10BFF000641CE4B20B2CFFF440AFBDE8F09F2DE9C8
:10C00000F84F0446007802280CD002D9A078FEF739
:10C010007BFF2078524E4FF0FF094FF05017012858
:10C0200003D004E0FEF79AFEF3E7A078C8B13846E3
:10C03000776000902A235E221A213620FCF7B5FC97
:10C04000DFF8208150490023D8F8400300EBC000FE
:10C0500042181A213620FDF700F82078022804D073
:10C0600006E04846C6F80490E3E7A078002871D0BF
:10C0700038467760009042231E2232210020FCF7D0
:10C0800094FC002341A232211846FCF7E6FFC34688
:10C090000325B246B8462078A84202D1A0780228EB
:10C0A00059D0CAF80480DAF804000090232000EB8D
:10C0B0000517132000EB05163B464FF499723146E5
:10C0C000FA20FCF772FCE07800EB800005EB400002
:10C0D00000EB80010BEB8101D1F88005421C7DD083
:10C0E00091F8841501230522FDF754F81F4A3146C3
:10C0F0000023FA20FDF704F82078A84202D1A078A6
:10C1000003286CD0CAF80480DAF8040000903B469B
:10C1100031464FF4C1724FF4A570FCF746FCE0784D
:10C1200000EB800005EB400000EB80010BEB810190
:10C1300001F58051D1F8E805421C77D091F8EC1553
:10C1400001230522FDF726F8084A314600234FF463
:10C15000A5701DE06BE06EE0A3D80200380031004E
:10C160001C000010E0040010343465001847001073
:10C17000500000002D2D2D2D000000002D0000008E
:10C1800046000000F9D502004DD402004E6F2E008B
:10C19000FCF7B6FF2078A84202D1A07804285BD033
:10C1A000CAF80480DAF8040000903B46314640F2B9
:10C1B000DF124FF4D270FCF7F8FBE0784FF0000389
:10C1C00000EB800005EB400101EB0B0000F5005097
:10C1D000314690F88106FF2841D001E02EE032E0A0
:10C1E000AFF274024FF4D270FCF78AFF2078A842B5
:10C1F00001D1A07878B3CAF80480DAF8040000907E
:10C200003B4631467E222820FCF7CFFBE07800EB4E
:10C21000800005EB400101EB0B0090F80B04302887
:10C2200023D931460023AFF2B40226E00EE048469F
:10C23000C6F804901EE7CAF8049034E7314600239C
:10C24000AFF2D00255E7CAF804905DE7314600230B
:10C25000AFF2E0027BE705E0CAF80490A2E7AFF294
:10C26000EC02BFE7CAF80490C7E700EB400101EB1E
:10C27000C000FE494218314600232820FCF740FF49
:10C280002078A84202D1A07801281AD0CAF80480E8
:10C29000DAF8040000903B463146C4227E20FCF7C9
:10C2A00084FBE07800EB800005EB400101EB0B0024
:10C2B00090F8DD04022807D931460023AFF24C1272
:10C2C0000AE0CAF80490E3E700EB400101EBC0008C
:10C2D000E7494218314600237E20FCF711FFCAF8D7
:10C2E0000480E078012300EB800005EB400003228E
:10C2F0000021801EFCF74EFF31460023DD4A082056
:10C30000FCF7FEFE6D1CEDB20D2DFFF4C4AEBDE8D2
:10C31000F88F2DE9F843D84D4FF0501604466E6063
:10C320000078012800D00020FF2700B16F60686806
:10C3300000902A2358221A213020FCF736FBCF48E0
:10C34000DFF82C83012390F80C0408F1FD0800EBC2
:10C35000800101EB08021A213020FCF77EFE2078D4
:10C36000022803D0002018B16F6002E00120FAE734
:10C370006E606868009040231E2230210820FCF780
:10C3800014FB0123AFF2FC1230210820FCF765FEFC
:10C39000FEF71AFB2078BA496FF07F42012806D0D9
:10C3A000022817D06078BDE8F843FEF754BCC5E911
:10C3B000002100244546542604EB8400421906EB74
:10C3C000001080B20023F121FCF747FE641C022C10
:10C3D000F2D3F0E4C5E90021AA4D00244FF4A2767F
:10C3E000C4EBC400421904EB840006EB001080B2D9
:10C3F0000023F121FCF731FE641C022CF0D3DAE4B7
:10C400002DE9F84F04469D489B4D4FF05016D0F84B
:10C41000D00301280ED19B4A0123153A1746D22199
:10C420001E206E60FCF719FE01233A46D2219620A9
:10C43000FCF713FE2078012800D000205FEA0008F6
:10C440004FF0FF0701D06F6000E06E6068680090F9
:10C450002C23C02218216720FCF7A7FAB8F1000F9F
:10C4600021D08948007801281DD189498748686012
:10C4700009780090C1F10000032900EB800005D28B
:10C48000A22101EB40018AB29A2104E0982101EB3C
:10C4900040018AB2902101EB400080B22C232A2176
:10C4A000FCF783FA6F60DFF8EC810023052203219B
:10C4B000D8F80400FCF76EFE00236E4A1A216820AB
:10C4C000FCF7CBFD012374A21A21AE20FCF7C5FDB9
:10C4D000684801787148202908D00421017020782B
:10C4E000022805D0002028B16F6004E00321F5E7A1
:10C4F0000120F8E76E60002305220321D8F81C0014
:10C50000FCF748FE686800904223C0222E21672075
:10C51000FCF74BFA0023574A30216820FCF79DFDB9
:10C5200001235FA23021AE20FCF797FD207803287D
:10C5300003D0002018B16F6002E00120FAE76E60BE
:10C54000002305220321D8F83400FCF723FE686895
:10C5500000905823C02244216720FCF726FA0023CC
:10C56000444A46216820FCF778FD01234CA246216D
:10C57000AE20FCF772FD2078042803D0002018B10B
:10C580006F6002E00120FAE76E6098F8080100236E
:10C5900000EB400008EBC0000522C06C0321FCF753
:10C5A000F9FD686840F2711900902C234FF4E17294
:10C5B00018214846FCF7F9F94FF4B97A00232D4ABF
:10C5C0001A215046FCF749FD012333A21A214FF4EA
:10C5D000DC70FCF742FD2078052803D0002018B15C
:10C5E0006F6002E00120FAE76E6000230322194623
:10C5F000D8F8DC00FCF7CEFD68680090422340F2DA
:10C60000C3122E214846FCF7D0F90023194A3021E5
:10C610005046FCF722FD4FF4D77B012321A23021A5
:10C620005846FCF71AFD2078062803D0002018B1E0
:10C630006F6002E00120FAE76E60002346460322A5
:10C640001946D8F8F400FCF7A5FD68680090582357
:10C6500040F2C31244214846FCF7A7F90023054ADB
:10C6600046215046FCF7F9FC01231DE0F9D50200F4
:10C67000BCD70200184700101C000010E004001096
:10C6800038003100C3D80200DF01001000FFFF00B6
:10C69000E0010010F03F001056000000E101001022
:10C6A000410000006D730000AFF2080246215846B9
:10C6B000FCF7D3FCFEF788F92278F94958276FF088
:10C6C0007F404FF4A478052A71D2DFE802F0038E90
:10C6D0008E8E4D00C5E90001607800B3012866D157
:10C6E00000256078002300EB4000284400EB400068
:10C6F00006EBC0000522C06C0321FCF74BFD05EBE7
:10C70000850007EB001080B20023E64AF121FCF718
:10C71000A4FC6D1C032DE4D30023E3A21DE000253F
:10C720006078002300EB4000284400EB400006EB5B
:10C73000C0000522C06C0321FCF72CFD05EB850031
:10C7400007EB001080B20023D64AF121FCF785FCEC
:10C750006D1C032DE4D30023D5A201B04046BDE8F3
:10C76000F04FF121FCF779BCC5E900016078F8B120
:10C7700001281CD100256078002300EB40002844EC
:10C7800000EB400006EBC0000522C06C0321FCF763
:10C7900001FD05EB850007EB001080B20023C14AC4
:10C7A000F121FCF75AFC6D1C032DE4D3B4E71CE027
:10C7B00000256078002300EB4000284400EB400097
:10C7C00006EBC0000522C06C0321FCF7E3FC05EB7F
:10C7D000850007EB001080B20023B24AF121FCF77C
:10C7E0003CFC6D1C032DE4D3B5E790E52DE9F84F33
:10C7F00004460078012800D00020AF4FFF254FF0FD
:10C80000501608B17D6000E07E60DFF8B082002342
:10C8100005220321D8F84C00FCF7BCFC7868009096
:10C820002C23C02218216720FCF7BFF800239D4A63
:10C830001A216820FCF711FC0123AFF2A4121A217F
:10C84000AE20FCF70AFC2078022803D0002018B1A3
:10C850007D6002E00120FAE77E60002305220321CB
:10C86000D8F86400FCF796FC786800904223C02258
:10C870002E216720FCF799F800238A4A302168208E
:10C88000FCF7EBFB0123AFF2F0123021AE20FCF7F6
:10C89000E4FB2078032803D0002018B17D6002E07B
:10C8A0000120FAE77E60002305220321D8F87C00EE
:10C8B000FCF770FC786800905823C0224421672060
:10C8C000FCF773F80023774A46216820FCF7C5FB84
:10C8D0000123AFF23C224621AE20FCF7BEFB2078BC
:10C8E000042803D0002018B17D6002E00120FAE79F
:10C8F0007E60002305220321D8F89400FCF74AFC4F
:10C90000786840F2611A00902C234FF4E1721821EC
:10C910005046FCF74AF84FF4B17B0023614A1A21D4
:10C920005846FCF79AFB0123AFF294221A214FF4E8
:10C93000D470FCF792FB2078052803D0002018B1B2
:10C940007D6002E00120FAE77E60002305220321DA
:10C95000D8F8AC00FCF71EFC7868009042234FF436
:10C96000E1722E215046FCF720F800234D4A302179
:10C970005846FCF772FB0123AFF2E4224FF4D4795E
:10C9800030214846FCF769FB2078062803D00020B8
:10C9900018B17D6002E00120FAE77E6000230522E5
:10C9A0000321D8F8C400FCF7F5FB78680090582301
:10C9B0004FF4E17244215046FBF7F7FF0023394A58
:10C9C00046215846FCF749FB0123AFF23432462199
:10C9D0004846FCF742FBFDF7F7FF2078002804D11A
:10C9E0006078BDE8F84FFEF729BB90E430B40B4601
:10C9F0003349144600EB40004218A1B298B230BC53
:10CA00000123FCF77DBB2DE9F84F2B4E2D4F4FF046
:10CA1000501504467560D7F8FC004FF4B97CB0B1EE
:10CA2000002329A23F216046FCF76AFB002326A2CF
:10CA30003F21C820FCF764FB2078012800D00020AB
:10CA40004FF0FF0A80B15046C6F804A00EE03F2226
:10CA50006146D7F88803FFF7C9FF3F22C821D7F8FE
:10CA60008803FFF7C3FFE7E72846756000902A2395
:10CA7000992218214520FBF798FFD7F8880313491E
:10CA800000EBC0004218012318214620FCF7E5FA0C
:10CA9000207802281CD00020E0B1C6F804A01AE0DB
:10CAA0003800310018470010505245560000000071
:10CAB0004E455854000000001C000010F03F0010CC
:10CAC000A0DF0200E0040010250000004DD40200A9
:10CAD0000120E1E7756097F8EC1057F8E80F0023A4
:10CAE0000522FCF757FB706800902A2340F245129C
:10CAF0001821E220FBF759FF0123F74A1821E5200E
:10CB0000FCF7ABFAB868012300EB4001F3480A18C0
:10CB1000182140F22910FCF7A0FAD7F8A002182239
:10CB200040F23311E83FFEF7BBFD2078032805D023
:10CB3000002028B15046C6F804A003E00120F8E721
:10CB40002846756000902A2340F2DD12182140F239
:10CB50008F10FBF72AFFE248D7F8FC10012300EB07
:10CB6000810218214FF4C870FCF777FA2078042866
:10CB700005D0002028B15046C6F804A003E00120EB
:10CB8000F8E72846756000903E2399222C21452025
:10CB9000FBF70BFFD7F8E000DFF8488300EB8001DC
:10CBA00001EB080200232C214620FCF756FA2078DE
:10CBB000052804D0002020B1C6F804A002E001201E
:10CBC000F9E7756070680090B1463E234FF49C729F
:10CBD0002C21E420FBF7E9FED7F80401012300EB48
:10CBE0008001C0480A182C21E520FCF736FA0626F9
:10CBF000BB462078B04202D1C9F804A009E0A6F1F2
:10CC00000900042803D2B848C9F8040001E0C9F8B3
:10CC10000450D9F80400C6EB06170090B81C83B284
:10CC20000E3FB9B2E6229420FBF7BFFE06EB4601A9
:10CC30000BEB011858F8140C18B318F8101C00234B
:10CC40000522FCF7A7FAB9B20123A34AA020FCF7FA
:10CC500057FADBF8FC0050B958F80C0C012300EB34
:10CC600040019E480A18B9B2D020FCF749FA761C58
:10CC70000F2EBED310262078B04208D1C9F804A0E8
:10CC80000FE0B9B20123AFF6E072A020EDE7A6F104
:10CC90001300042803D29448C9F8040001E0C9F83D
:10CCA0000450D9F80400C6EB06170090A7F19400D1
:10CCB00083B2A43FB9B24FF4C3724FF49A70FBF73A
:10CCC00074FE06EB46000BEB0010A0F58058D8F878
:10CCD000240E00287CD098F8281E00230522FCF79B
:10CCE00059FAB9B200237C4A4FF4A570FCF708FA50
:10CCF000DBF8FC0058B9D8F82C0E012300EB4001FA
:10CD000076480A18B9B24FF4BD70FCF7F9F9761CF1
:10CD1000192EB0D320780F2867D0C9F80450D9F85D
:10CD200004000090C846E323E622D3219420FBF7B9
:10CD30003CFE5E469BF8C01200230522DBF8BC02D5
:10CD4000FCF728FA0123644AD321A020FCF7D8F984
:10CD5000D6F8C402614F00EB4001CA190123D32168
:10CD6000D020FCF7CDF92078192841D02846C8F802
:10CD700004500090E3234FF4C372D3214FF49A7010
:10CD8000FBF713FE96F8D812D6F8D402002305223A
:10CD900006F53576FCF7FEF900234F4AD3214FF410
:10CDA000A570FCF7ADF9B068012300EB4001CA198A
:10CDB000D3214FF4BD70FCF7A3F9FDF705FE2278EF
:10CDC0004A4968276D266FF07F40062A60D201E04D
:10CDD00005E00AE0DFE802F0102A2A152E45B9B274
:10CDE0000123434A4FF4A5708FE7C9F804A096E7E2
:10CDF0005046C8F804A0BCE76078BDE8F84FFEF7DD
:10CE00001DB90024C8E90001354E72250FE074B148
:10CE100004EB840005EB001006EB840280B20023D3
:10CE2000F121FCF71AF9641C022CF0D3DDE4324640
:10CE30003846F4E7C8E9000100242A4D0EE06CB141
:10CE400004EB8400421906EB001080B20023F121AC
:10CE5000FCF703F9641C022CF1D3C6E42A463846D9
:10CE6000F4E7C8E9000100241E4D0EE06CB104EBAC
:10CE70008400421906EB001080B20023F121FCF778
:10CE8000ECF8641C022CF1D3AFE42A463846F4E7F0
:10CE9000C8E9000117484FF4CA7490F85F120129DD
:10CEA00010D00029C2D1002313A2F1215D20FCF78C
:10CEB000D4F8002312A201B02046BDE8F04FF221C1
:10CEC000FCF7CBB8002311A2F1215D20FCF7C5F8D7
:10CED000002310A2EFE70000184700106DDF0200EA
:10CEE000ECD1020010D90200343465003800310062
:10CEF000A8BC0100F03F0010C7E5B3FDD0D0000092
:10CF0000C7E5B3FDB1EDB8F10000000043656C204A
:10CF10005200000043656C4C697374002DE9F84FB2
:10CF200006460078012800D00020FD4CFF254FF078
:10CF3000501708B1656000E06760606800902C23BE
:10CF4000C02218215820FBF730FDDFF8D883DFF826
:10CF5000D8930123D8F8000000EB800101EB09020F
:10CF60001A215820FCF779F83078022803D00020E5
:10CF700018B1656002E00120FAE767606068009020
:10CF80004223C0222E215820FBF70FFDD8F80400C1
:10CF9000012300EB800101EB090230215820FCF74E
:10CFA0005CF8FDF711FDE04F3278B63FDF495425BC
:10CFB0006FF07F404FF0670A4FF06C0B07F1C50927
:10CFC000A7F1200807F22F1C122A3FD2DFE802F057
:10CFD000090E6E899CB3C5DCF8F6F5F4F3F2F1F0B6
:10CFE000EFEE7078BDE8F84FFEF728B87278BAB166
:10CFF00040F2931940F2BD1A012AC4E9000129D078
:10D000000023CB4A4FF482715420FCF726F800230A
:10D01000C84AF2214846FCF720F80023C6A23BE0AC
:10D02000C4E900010024C54D57465E460FE074B1C7
:10D0300004EB840006EB001005EBC40280B2002371
:10D04000F121FCF70AF8641C022CF0D3CDE42A4647
:10D050003846F4E7B64F0024283F07F1180540F2A0
:10D0600057164FF0620801E0032C1CD004EB84013A
:10D0700008EB011007EBC40280B20023F121FBF79B
:10D08000ECFF641C042CEFD30023AA4AF22148468B
:10D09000FBF7E3FF0023AAA201B05046BDE8F04F22
:10D0A000F221FBF7DABF2A463046E6E7C4E9000181
:10D0B000A24D0024203557465E460FE074B104EBC4
:10D0C000840006EB001005EBC40280B20023F121BE
:10D0D000FBF7C3FF641C022CF0D386E42A463846D3
:10D0E000F4E7C4E90001974E002404EB840005EB4B
:10D0F000001006EBC40280B20023F121FBF7ADFF64
:10D10000641C022CF1D370E4C4E90001864E0024B3
:10D110001F3604EB440000EBC400821904EB8400CA
:10D1200005EB001080B20023F121FBF796FF641C91
:10D13000042CEED359E4C4E90001002404EB84007C
:10D1400005EB001009EBC40280B20023F121FBF7CC
:10D1500084FF641C022CF1D347E4C4E90001724E41
:10D1600000244B3604EB440000EBC400821904EBAE
:10D17000840005EB001080B20023F121FBF76DFF66
:10D18000641C022CEED330E4C4E90001002404EB5B
:10D19000840005EB001007EBC40280B20023F121EC
:10D1A000FBF75BFF641C022CF1D31EE4CCE0A4E08F
:10D1B0008DE07AE067E04FE03AE027E012E0FFE739
:10D1C000C4E90001002404EB840005EB001007EB28
:10D1D000C40280B20023F121FBF73FFF641C022C44
:10D1E000F1D323E6C4E900014F4E0024613604EB7D
:10D1F000840005EB001006EBC40280B20023F1218D
:10D20000FBF72BFF641C032CF1D30FE6C4E90001EC
:10D21000002404EB840005EB001008EBC40280B28C
:10D220000023F121FBF719FF641C042CF1D3FDE569
:10D23000C4E900013C4E0024853E04EB840005EB6C
:10D24000001006EBC40280B20023F121FBF705FFBA
:10D25000641C032CF1D3E9E5C4E90001324E00243B
:10D260006D3E04EB440000EBC400821904EB840023
:10D2700005EB001080B20023F121FBF7EEFE641CE9
:10D28000022CEED3D2E5C4E90001002404EB8400B3
:10D2900005EB001007EBC40280B20023F121FBF77D
:10D2A000DCFE641C022CF1D3C0E5C4E900010024BB
:10D2B00004EB840005EB001009EBC40280B20023EC
:10D2C000F121FBF7CAFE641C022CF1D3AEE5C4E9E0
:10D2D00000010024664604EB440000EBC400821900
:10D2E00004EB840005EB001080B20023F121FBF772
:10D2F000B4FE641C022CEED398E5C4E900010024BE
:10D3000004EB840005EB001008EBC40280B200239C
:10D31000F121FBF7A2FE641C042CF1D386E500008A
:10D320001C000010E004001010D902003800310089
:10D3300025D402008CAE0100332F330099DD0200AA
:10D34000322F3300DDD70200C4E900010024664615
:10D3500004EB440000EBC400821904EB840005EBED
:10D36000001080B20023F121FBF777FE641C042C2F
:10D37000EED35BE52DE9F84F04460078012800D094
:10D380000020FF254FF05016FE4F08B17D6000E0F1
:10D390007E60786800902C23C0221A215E20FBF763
:10D3A00004FBDFF8E48398F85F02012801D018B18C
:10D3B00008E00023F5A201E00023F6A21C215F2073
:10D3C000FBF74BFE2078022803D0002018B17D60C7
:10D3D00002E00120FAE77E60786800904223C022D4
:10D3E00030215E20FBF7E1FA98F85E02DFF8B09397
:10D3F00000EB800101EB0902012332215F20FBF7E2
:10D400002CFE2078032803D0002018B17D6002E0B4
:10D410000120FAE77E60786800905823C0224621F8
:10D420005E20FBF7C2FADF48012390F87E0200EB92
:10D43000800101EB090248215F20FBF70EFE2078F6
:10D44000042803D0002018B17D6002E00120FAE733
:10D450007E60786800906E23C0225C215E20FBF71E
:10D46000A4FA98F85F12DFF840A300230AEBC10288
:10D470005E215F20FBF7F1FD2078052803D0002016
:10D4800018B17D6002E00120FAE77E6078680090C4
:10D490008423C02272215E20FBF787FA0023C3A2F7
:10D4A00074215F20FBF7D9FD2078062803D00020E7
:10D4B00018B17D6002E00120FAE77E607868009094
:10D4C0009A23732288215E20FBF76FFADFF8E4824B
:10D4D000012302220021D8F81C00FBF75BFE002389
:10D4E000B54A8A215F20FBF7B8FD0023B3A28A2149
:10D4F00073207E60FBF7B1FD2078072803D0002061
:10D5000018B17D6002E00120FAE77E607868009043
:10D510009A23912288217C20FBF747FA01230222DB
:10D520000021D8F81800FBF735FE0023A24A8A2113
:10D530007D20FBF792FD0023A0A28A2191207E602E
:10D54000FBF78BFD2078082803D0002018B17D6000
:10D5500002E00120FAE77E60786800909A23B12209
:10D5600088219C20FBF721FA012302220021D8F810
:10D570000C00FBF70FFEDFF840B24FF000094B46FE
:10D580008BF802905A468A219D20FBF766FD002306
:10D590008BA2A02118467E60FBF75FFD00238B4A1B
:10D5A000A0215E20FBF759FD2078092803D0002038
:10D5B00018B17D6002E00120FAE77E607868009093
:10D5C0002C234FF4DD721A214FF4AC70FBF7EDF908
:10D5D000754A002341321C2140F25910FBF73DFDF2
:10D5E00020780A2803D0002018B17D6002E00120D5
:10D5F000FAE77E607868009042234FF4DD723021B4
:10D600004FF4AC70FBF7D1F9654A0123313A32216E
:10D6100040F25910FBF721FD20780B2803D00020A1
:10D6200018B17D6002E00120FAE77E607868009022
:10D6300058234FF4DD7246214FF4AC70FBF7B5F977
:10D64000574A0123D21F482140F25910FBF705FD2C
:10D6500020780C2803D0002018B17D6002E0012062
:10D66000FAE77E60786800906E234FF4DD725C21EB
:10D670004FF4AC70FBF799F9554856A1D0F88023C8
:10D680004D480AF0DDFD012353A25E2140F25910FE
:10D69000FBF7E3FC20780D2803D0002018B17D6053
:10D6A00002E00120FAE77E607868009084234FF45E
:10D6B000DD7272214FF4AC70FBF777F9384A012321
:10D6C0000A32742140F25910FBF7C7FC20780E286B
:10D6D00003D0002018B17D6002E00120FAE77E60EF
:10D6E000786800909A2340F26D1288214FF4AC7054
:10D6F000FBF75BF9012302220021D8F80800FBF7B1
:10D7000049FD00232C4A8A2140F25910FBF7A5FC61
:10D7100000232DA28A2140F26D107E60FBF79DFC54
:10D7200020780F2803D0002018B17D6002E001208E
:10D73000FAE77E60786800909A2340F28B12882185
:10D740004FF4BB70FBF731F9012302220021D8F816
:10D750000400FBF71FFD0023174A8A2140F27710CF
:10D76000FBF77BFC002318A28A2140F28B107E601D
:10D77000FBF773FC2078102832D0002008B17D60C0
:10D7800031E02FE01C000010F03F001053696D42A3
:10D7900061740000C4A3C4E2B5E7B3D80000000080
:10D7A00010D902005C420010E9DE0200484F4C44F0
:10D7B0000000000024470010184700102D00000052
:10D7C00046616374204E6F2E3A00000050420010F4
:10D7D000E0040010253264004E4F4E45000000006A
:10D7E0000120CBE77E60786800909A2340F2AB126C
:10D7F00088214FF4CB70FBF7D8F8012302220021D7
:10D80000D8F80000FBF7C6FC8BF802900023FA4A18
:10D810008A2140F29710FBF720FCFDF7D5F822781B
:10D82000F74DF64958266FF07F404FF06C094FF0E6
:10D830006708A5F14904112A24D2DFE802F0092380
:10D840000D2945606C7E90A2B4CEFCF0EFEEED00A9
:10D85000BDE8F84FFDF7AEBCC7E90001002412E0B7
:10D860008CB104EB440000EBC400421904EB8400CB
:10D8700009EB001080B20023F121FBF7EEFB641CE2
:10D88000022CEDD329E40023F1212A466720F4E796
:10D89000C7E90001002412E08CB104EB440000EB66
:10D8A000C400421904EB840009EB001080B200238D
:10D8B000F121FBF7D2FB641C022CEDD30DE4002315
:10D8C000F1212A466720F4E70024C7E90001554604
:10D8D00054260FE074B104EB840006EB001005EB56
:10D8E000C40280B20023F121FBF7B7FB641C022CB9
:10D8F000F0D308E40023F1212A466620F4E7C7E9C3
:10D9000000010023AFF25C1201B0F121BDE8F04F3D
:10D910006220FBF7A2BBC7E90001002505EB8500EB
:10D9200006EB001004EBC50280B20023F121FBF7E7
:10D9300094FB6D1C022DF1D30EE4C7E90001002514
:10D9400005EB850006EB001004EBC50280B2002356
:10D95000F121FBF782FB6D1C022DF1D313E4C7E923
:10D960000001002505EB850006EB001004EBC50265
:10D9700080B20023F121FBF770FB6D1C022DF1D367
:10D9800013E4C7E90001002505EB850006EB001054
:10D9900004EBC50280B20023F121FBF75EFB6D1C96
:10D9A000022DF1D31DE4964D0024C7E900012E3568
:10D9B00010E07CB1C4EBC400421904EB840006EB18
:10D9C000001080B20023F121FBF747FB641C022CFE
:10D9D000EFD306E42A464046F4E7894D0024C7E920
:10D9E0000001433510E07CB1022C0DD0032C0BD08C
:10D9F000012C16D0C4EBC400421904EB84005D2155
:10DA000001EB001080B20EE0C4EBC400421904EB3D
:10DA1000840006EB0010F5E75DE04AE037E01CE02B
:10DA200009E0EA1DB2200023F121FBF716FB641C7C
:10DA3000052CD8D30FE4C7E90001002505EB8500CC
:10DA400006EB001004EBC50280B20023F121FBF7C6
:10DA500004FB6D1C022DF1D314E4694D0024C7E9C9
:10DA600000017C354E460FE074B104EB840008EBF6
:10DA7000001005EBC40280B20023F121FBF7EDFAA0
:10DA8000641C022CF0D30FE42A463046F4E7C7E9C1
:10DA90000001002505EB850006EB001004EBC50234
:10DAA00080B20023F121FBF7D8FA6D1C022DF1D3CF
:10DAB0000CE4C7E90001002505EB850006EB00102A
:10DAC00004EBC50280B20023F121FBF7C6FA6D1CFE
:10DAD000022DF1D310E4C7E90001002505EB850014
